{
  "contractName": "BuyNowERC20",
  "abi": [
    {
      "inputs": [
        {
          "internalType": "address",
          "name": "erc20Address",
          "type": "address"
        },
        {
          "internalType": "string",
          "name": "currencyDescriptor",
          "type": "string"
        },
        {
          "internalType": "address",
          "name": "eip712",
          "type": "address"
        }
      ],
      "stateMutability": "nonpayable",
      "type": "constructor"
    },
    {
      "anonymous": false,
      "inputs": [
        {
          "indexed": true,
          "internalType": "bytes32",
          "name": "paymentId",
          "type": "bytes32"
        },
        {
          "indexed": true,
          "internalType": "address",
          "name": "buyer",
          "type": "address"
        },
        {
          "indexed": true,
          "internalType": "address",
          "name": "seller",
          "type": "address"
        }
      ],
      "name": "BuyNow",
      "type": "event"
    },
    {
      "anonymous": false,
      "inputs": [
        {
          "indexed": true,
          "internalType": "bytes32",
          "name": "paymentId",
          "type": "bytes32"
        },
        {
          "indexed": true,
          "internalType": "address",
          "name": "buyer",
          "type": "address"
        }
      ],
      "name": "BuyerRefunded",
      "type": "event"
    },
    {
      "anonymous": false,
      "inputs": [
        {
          "indexed": true,
          "internalType": "address",
          "name": "feesCollector",
          "type": "address"
        },
        {
          "indexed": true,
          "internalType": "address",
          "name": "prevFeesCollector",
          "type": "address"
        }
      ],
      "name": "DefaultFeesCollector",
      "type": "event"
    },
    {
      "anonymous": false,
      "inputs": [
        {
          "indexed": true,
          "internalType": "address",
          "name": "operator",
          "type": "address"
        },
        {
          "indexed": true,
          "internalType": "address",
          "name": "prevOperator",
          "type": "address"
        }
      ],
      "name": "DefaultOperator",
      "type": "event"
    },
    {
      "anonymous": false,
      "inputs": [
        {
          "indexed": false,
          "internalType": "address",
          "name": "eip712address",
          "type": "address"
        },
        {
          "indexed": false,
          "internalType": "address",
          "name": "prevEip712address",
          "type": "address"
        }
      ],
      "name": "EIP712",
      "type": "event"
    },
    {
      "anonymous": false,
      "inputs": [
        {
          "indexed": false,
          "internalType": "uint256",
          "name": "maxFeeBPS",
          "type": "uint256"
        },
        {
          "indexed": false,
          "internalType": "uint256",
          "name": "prevMaxFeeBPS",
          "type": "uint256"
        }
      ],
      "name": "MaxFeeBPS",
      "type": "event"
    },
    {
      "anonymous": false,
      "inputs": [
        {
          "indexed": true,
          "internalType": "address",
          "name": "seller",
          "type": "address"
        }
      ],
      "name": "NewSeller",
      "type": "event"
    },
    {
      "anonymous": false,
      "inputs": [
        {
          "indexed": true,
          "internalType": "address",
          "name": "user",
          "type": "address"
        },
        {
          "indexed": false,
          "internalType": "bool",
          "name": "onlyUserCanWithdraw",
          "type": "bool"
        },
        {
          "indexed": false,
          "internalType": "bool",
          "name": "prevOnlyUserCanWithdraw",
          "type": "bool"
        }
      ],
      "name": "OnlyUserCanWithdraw",
      "type": "event"
    },
    {
      "anonymous": false,
      "inputs": [
        {
          "indexed": true,
          "internalType": "address",
          "name": "previousOwner",
          "type": "address"
        },
        {
          "indexed": true,
          "internalType": "address",
          "name": "newOwner",
          "type": "address"
        }
      ],
      "name": "OwnershipTransferred",
      "type": "event"
    },
    {
      "anonymous": false,
      "inputs": [
        {
          "indexed": true,
          "internalType": "bytes32",
          "name": "paymentId",
          "type": "bytes32"
        }
      ],
      "name": "Paid",
      "type": "event"
    },
    {
      "anonymous": false,
      "inputs": [
        {
          "indexed": false,
          "internalType": "uint256",
          "name": "window",
          "type": "uint256"
        },
        {
          "indexed": false,
          "internalType": "uint256",
          "name": "prevWindow",
          "type": "uint256"
        }
      ],
      "name": "PaymentWindow",
      "type": "event"
    },
    {
      "anonymous": false,
      "inputs": [
        {
          "indexed": true,
          "internalType": "uint256",
          "name": "universeId",
          "type": "uint256"
        },
        {
          "indexed": true,
          "internalType": "address",
          "name": "feesCollector",
          "type": "address"
        },
        {
          "indexed": true,
          "internalType": "address",
          "name": "prevFeesCollector",
          "type": "address"
        }
      ],
      "name": "UniverseFeesCollector",
      "type": "event"
    },
    {
      "anonymous": false,
      "inputs": [
        {
          "indexed": true,
          "internalType": "uint256",
          "name": "universeId",
          "type": "uint256"
        },
        {
          "indexed": true,
          "internalType": "address",
          "name": "operator",
          "type": "address"
        },
        {
          "indexed": true,
          "internalType": "address",
          "name": "prevOperator",
          "type": "address"
        }
      ],
      "name": "UniverseOperator",
      "type": "event"
    },
    {
      "anonymous": false,
      "inputs": [
        {
          "indexed": true,
          "internalType": "address",
          "name": "user",
          "type": "address"
        },
        {
          "indexed": false,
          "internalType": "uint256",
          "name": "amount",
          "type": "uint256"
        }
      ],
      "name": "Withdraw",
      "type": "event"
    },
    {
      "inputs": [],
      "name": "EIP712Address",
      "outputs": [
        {
          "internalType": "address",
          "name": "",
          "type": "address"
        }
      ],
      "stateMutability": "view",
      "type": "function"
    },
    {
      "inputs": [
        {
          "internalType": "bytes32",
          "name": "paymentId",
          "type": "bytes32"
        }
      ],
      "name": "acceptsRefunds",
      "outputs": [
        {
          "internalType": "bool",
          "name": "",
          "type": "bool"
        }
      ],
      "stateMutability": "view",
      "type": "function"
    },
    {
      "inputs": [
        {
          "components": [
            {
              "internalType": "bytes32",
              "name": "paymentId",
              "type": "bytes32"
            },
            {
              "internalType": "uint256",
              "name": "amount",
              "type": "uint256"
            },
            {
              "internalType": "uint256",
              "name": "feeBPS",
              "type": "uint256"
            },
            {
              "internalType": "uint256",
              "name": "universeId",
              "type": "uint256"
            },
            {
              "internalType": "uint256",
              "name": "deadline",
              "type": "uint256"
            },
            {
              "internalType": "address",
              "name": "buyer",
              "type": "address"
            },
            {
              "internalType": "address",
              "name": "seller",
              "type": "address"
            }
          ],
          "internalType": "struct ISignableStructsBuyNow.BuyNowInput",
          "name": "buyNowInp",
          "type": "tuple"
        }
      ],
      "name": "assertBuyNowInputsOK",
      "outputs": [],
      "stateMutability": "view",
      "type": "function"
    },
    {
      "inputs": [
        {
          "internalType": "address",
          "name": "addr",
          "type": "address"
        }
      ],
      "name": "balanceOf",
      "outputs": [
        {
          "internalType": "uint256",
          "name": "",
          "type": "uint256"
        }
      ],
      "stateMutability": "view",
      "type": "function"
    },
    {
      "inputs": [
        {
          "internalType": "uint256",
          "name": "amount",
          "type": "uint256"
        },
        {
          "internalType": "uint256",
          "name": "feeBPS",
          "type": "uint256"
        }
      ],
      "name": "computeFeeAmount",
      "outputs": [
        {
          "internalType": "uint256",
          "name": "",
          "type": "uint256"
        }
      ],
      "stateMutability": "pure",
      "type": "function"
    },
    {
      "inputs": [],
      "name": "currencyLongDescriptor",
      "outputs": [
        {
          "internalType": "string",
          "name": "",
          "type": "string"
        }
      ],
      "stateMutability": "view",
      "type": "function"
    },
    {
      "inputs": [],
      "name": "defaultFeesCollector",
      "outputs": [
        {
          "internalType": "address",
          "name": "",
          "type": "address"
        }
      ],
      "stateMutability": "view",
      "type": "function"
    },
    {
      "inputs": [],
      "name": "defaultOperator",
      "outputs": [
        {
          "internalType": "address",
          "name": "",
          "type": "address"
        }
      ],
      "stateMutability": "view",
      "type": "function"
    },
    {
      "inputs": [
        {
          "internalType": "address",
          "name": "buyer",
          "type": "address"
        },
        {
          "internalType": "uint256",
          "name": "amount",
          "type": "uint256"
        }
      ],
      "name": "enoughFundsAvailable",
      "outputs": [
        {
          "internalType": "bool",
          "name": "",
          "type": "bool"
        }
      ],
      "stateMutability": "view",
      "type": "function"
    },
    {
      "inputs": [
        {
          "components": [
            {
              "internalType": "bytes32",
              "name": "paymentId",
              "type": "bytes32"
            },
            {
              "internalType": "bool",
              "name": "wasSuccessful",
              "type": "bool"
            }
          ],
          "internalType": "struct ISignableStructsBuyNow.AssetTransferResult",
          "name": "transferResult",
          "type": "tuple"
        },
        {
          "internalType": "bytes",
          "name": "operatorSignature",
          "type": "bytes"
        }
      ],
      "name": "finalize",
      "outputs": [],
      "stateMutability": "nonpayable",
      "type": "function"
    },
    {
      "inputs": [
        {
          "components": [
            {
              "internalType": "bytes32",
              "name": "paymentId",
              "type": "bytes32"
            },
            {
              "internalType": "bool",
              "name": "wasSuccessful",
              "type": "bool"
            }
          ],
          "internalType": "struct ISignableStructsBuyNow.AssetTransferResult",
          "name": "transferResult",
          "type": "tuple"
        },
        {
          "internalType": "bytes",
          "name": "operatorSignature",
          "type": "bytes"
        }
      ],
      "name": "finalizeAndWithdraw",
      "outputs": [],
      "stateMutability": "nonpayable",
      "type": "function"
    },
    {
      "inputs": [
        {
          "internalType": "address",
          "name": "addr",
          "type": "address"
        }
      ],
      "name": "isRegisteredSeller",
      "outputs": [
        {
          "internalType": "bool",
          "name": "",
          "type": "bool"
        }
      ],
      "stateMutability": "view",
      "type": "function"
    },
    {
      "inputs": [],
      "name": "isSellerRegistrationRequired",
      "outputs": [
        {
          "internalType": "bool",
          "name": "",
          "type": "bool"
        }
      ],
      "stateMutability": "view",
      "type": "function"
    },
    {
      "inputs": [],
      "name": "maxFeeBPS",
      "outputs": [
        {
          "internalType": "uint256",
          "name": "",
          "type": "uint256"
        }
      ],
      "stateMutability": "view",
      "type": "function"
    },
    {
      "inputs": [
        {
          "internalType": "address",
          "name": "buyer",
          "type": "address"
        }
      ],
      "name": "maxFundsAvailable",
      "outputs": [
        {
          "internalType": "uint256",
          "name": "",
          "type": "uint256"
        }
      ],
      "stateMutability": "view",
      "type": "function"
    },
    {
      "inputs": [
        {
          "internalType": "address",
          "name": "user",
          "type": "address"
        }
      ],
      "name": "onlyUserCanWithdraw",
      "outputs": [
        {
          "internalType": "bool",
          "name": "",
          "type": "bool"
        }
      ],
      "stateMutability": "view",
      "type": "function"
    },
    {
      "inputs": [],
      "name": "owner",
      "outputs": [
        {
          "internalType": "address",
          "name": "",
          "type": "address"
        }
      ],
      "stateMutability": "view",
      "type": "function"
    },
    {
      "inputs": [
        {
          "internalType": "bytes32",
          "name": "paymentId",
          "type": "bytes32"
        }
      ],
      "name": "paymentInfo",
      "outputs": [
        {
          "components": [
            {
              "internalType": "enum IBuyNowBase.State",
              "name": "state",
              "type": "uint8"
            },
            {
              "internalType": "address",
              "name": "buyer",
              "type": "address"
            },
            {
              "internalType": "address",
              "name": "seller",
              "type": "address"
            },
            {
              "internalType": "uint256",
              "name": "universeId",
              "type": "uint256"
            },
            {
              "internalType": "address",
              "name": "feesCollector",
              "type": "address"
            },
            {
              "internalType": "uint256",
              "name": "expirationTime",
              "type": "uint256"
            },
            {
              "internalType": "uint256",
              "name": "feeBPS",
              "type": "uint256"
            },
            {
              "internalType": "uint256",
              "name": "amount",
              "type": "uint256"
            }
          ],
          "internalType": "struct IBuyNowBase.Payment",
          "name": "",
          "type": "tuple"
        }
      ],
      "stateMutability": "view",
      "type": "function"
    },
    {
      "inputs": [
        {
          "internalType": "bytes32",
          "name": "paymentId",
          "type": "bytes32"
        }
      ],
      "name": "paymentState",
      "outputs": [
        {
          "internalType": "enum IBuyNowBase.State",
          "name": "",
          "type": "uint8"
        }
      ],
      "stateMutability": "view",
      "type": "function"
    },
    {
      "inputs": [],
      "name": "paymentWindow",
      "outputs": [
        {
          "internalType": "uint256",
          "name": "",
          "type": "uint256"
        }
      ],
      "stateMutability": "view",
      "type": "function"
    },
    {
      "inputs": [
        {
          "internalType": "bytes32",
          "name": "paymentId",
          "type": "bytes32"
        }
      ],
      "name": "refund",
      "outputs": [],
      "stateMutability": "nonpayable",
      "type": "function"
    },
    {
      "inputs": [
        {
          "internalType": "bytes32",
          "name": "paymentId",
          "type": "bytes32"
        }
      ],
      "name": "refundAndWithdraw",
      "outputs": [],
      "stateMutability": "nonpayable",
      "type": "function"
    },
    {
      "inputs": [],
      "name": "registerAsSeller",
      "outputs": [],
      "stateMutability": "nonpayable",
      "type": "function"
    },
    {
      "inputs": [
        {
          "internalType": "address",
          "name": "recipient",
          "type": "address"
        }
      ],
      "name": "relayedWithdraw",
      "outputs": [],
      "stateMutability": "nonpayable",
      "type": "function"
    },
    {
      "inputs": [
        {
          "internalType": "uint256",
          "name": "universeId",
          "type": "uint256"
        }
      ],
      "name": "removeUniverseFeesCollector",
      "outputs": [],
      "stateMutability": "nonpayable",
      "type": "function"
    },
    {
      "inputs": [
        {
          "internalType": "uint256",
          "name": "universeId",
          "type": "uint256"
        }
      ],
      "name": "removeUniverseOperator",
      "outputs": [],
      "stateMutability": "nonpayable",
      "type": "function"
    },
    {
      "inputs": [],
      "name": "renounceOwnership",
      "outputs": [],
      "stateMutability": "nonpayable",
      "type": "function"
    },
    {
      "inputs": [
        {
          "internalType": "address",
          "name": "feesCollector",
          "type": "address"
        }
      ],
      "name": "setDefaultFeesCollector",
      "outputs": [],
      "stateMutability": "nonpayable",
      "type": "function"
    },
    {
      "inputs": [
        {
          "internalType": "address",
          "name": "operator",
          "type": "address"
        }
      ],
      "name": "setDefaultOperator",
      "outputs": [],
      "stateMutability": "nonpayable",
      "type": "function"
    },
    {
      "inputs": [
        {
          "internalType": "address",
          "name": "eip712address",
          "type": "address"
        }
      ],
      "name": "setEIP712",
      "outputs": [],
      "stateMutability": "nonpayable",
      "type": "function"
    },
    {
      "inputs": [
        {
          "internalType": "bool",
          "name": "isRequired",
          "type": "bool"
        }
      ],
      "name": "setIsSellerRegistrationRequired",
      "outputs": [],
      "stateMutability": "nonpayable",
      "type": "function"
    },
    {
      "inputs": [
        {
          "internalType": "uint256",
          "name": "feeBPS",
          "type": "uint256"
        }
      ],
      "name": "setMaxFeeBPS",
      "outputs": [],
      "stateMutability": "nonpayable",
      "type": "function"
    },
    {
      "inputs": [
        {
          "internalType": "bool",
          "name": "onlyUserCan",
          "type": "bool"
        }
      ],
      "name": "setOnlyUserCanWithdraw",
      "outputs": [],
      "stateMutability": "nonpayable",
      "type": "function"
    },
    {
      "inputs": [
        {
          "internalType": "uint256",
          "name": "window",
          "type": "uint256"
        }
      ],
      "name": "setPaymentWindow",
      "outputs": [],
      "stateMutability": "nonpayable",
      "type": "function"
    },
    {
      "inputs": [
        {
          "internalType": "uint256",
          "name": "universeId",
          "type": "uint256"
        },
        {
          "internalType": "address",
          "name": "feesCollector",
          "type": "address"
        }
      ],
      "name": "setUniverseFeesCollector",
      "outputs": [],
      "stateMutability": "nonpayable",
      "type": "function"
    },
    {
      "inputs": [
        {
          "internalType": "uint256",
          "name": "universeId",
          "type": "uint256"
        },
        {
          "internalType": "address",
          "name": "operator",
          "type": "address"
        }
      ],
      "name": "setUniverseOperator",
      "outputs": [],
      "stateMutability": "nonpayable",
      "type": "function"
    },
    {
      "inputs": [
        {
          "internalType": "address",
          "name": "buyer",
          "type": "address"
        },
        {
          "internalType": "uint256",
          "name": "amount",
          "type": "uint256"
        }
      ],
      "name": "splitFundingSources",
      "outputs": [
        {
          "internalType": "uint256",
          "name": "externalFunds",
          "type": "uint256"
        },
        {
          "internalType": "uint256",
          "name": "localFunds",
          "type": "uint256"
        }
      ],
      "stateMutability": "view",
      "type": "function"
    },
    {
      "inputs": [
        {
          "internalType": "address",
          "name": "newOwner",
          "type": "address"
        }
      ],
      "name": "transferOwnership",
      "outputs": [],
      "stateMutability": "nonpayable",
      "type": "function"
    },
    {
      "inputs": [
        {
          "internalType": "uint256",
          "name": "universeId",
          "type": "uint256"
        }
      ],
      "name": "universeFeesCollector",
      "outputs": [
        {
          "internalType": "address",
          "name": "",
          "type": "address"
        }
      ],
      "stateMutability": "view",
      "type": "function"
    },
    {
      "inputs": [
        {
          "internalType": "uint256",
          "name": "universeId",
          "type": "uint256"
        }
      ],
      "name": "universeOperator",
      "outputs": [
        {
          "internalType": "address",
          "name": "",
          "type": "address"
        }
      ],
      "stateMutability": "view",
      "type": "function"
    },
    {
      "inputs": [],
      "name": "withdraw",
      "outputs": [],
      "stateMutability": "nonpayable",
      "type": "function"
    },
    {
      "inputs": [
        {
          "internalType": "uint256",
          "name": "amount",
          "type": "uint256"
        }
      ],
      "name": "withdrawAmount",
      "outputs": [],
      "stateMutability": "nonpayable",
      "type": "function"
    },
    {
      "inputs": [
        {
          "components": [
            {
              "internalType": "bytes32",
              "name": "paymentId",
              "type": "bytes32"
            },
            {
              "internalType": "uint256",
              "name": "amount",
              "type": "uint256"
            },
            {
              "internalType": "uint256",
              "name": "feeBPS",
              "type": "uint256"
            },
            {
              "internalType": "uint256",
              "name": "universeId",
              "type": "uint256"
            },
            {
              "internalType": "uint256",
              "name": "deadline",
              "type": "uint256"
            },
            {
              "internalType": "address",
              "name": "buyer",
              "type": "address"
            },
            {
              "internalType": "address",
              "name": "seller",
              "type": "address"
            }
          ],
          "internalType": "struct ISignableStructsBuyNow.BuyNowInput",
          "name": "buyNowInp",
          "type": "tuple"
        },
        {
          "internalType": "bytes",
          "name": "operatorSignature",
          "type": "bytes"
        },
        {
          "internalType": "bytes",
          "name": "sellerSignature",
          "type": "bytes"
        }
      ],
      "name": "buyNow",
      "outputs": [],
      "stateMutability": "nonpayable",
      "type": "function"
    },
    {
      "inputs": [
        {
          "components": [
            {
              "internalType": "bytes32",
              "name": "paymentId",
              "type": "bytes32"
            },
            {
              "internalType": "uint256",
              "name": "amount",
              "type": "uint256"
            },
            {
              "internalType": "uint256",
              "name": "feeBPS",
              "type": "uint256"
            },
            {
              "internalType": "uint256",
              "name": "universeId",
              "type": "uint256"
            },
            {
              "internalType": "uint256",
              "name": "deadline",
              "type": "uint256"
            },
            {
              "internalType": "address",
              "name": "buyer",
              "type": "address"
            },
            {
              "internalType": "address",
              "name": "seller",
              "type": "address"
            }
          ],
          "internalType": "struct ISignableStructsBuyNow.BuyNowInput",
          "name": "buyNowInp",
          "type": "tuple"
        },
        {
          "internalType": "bytes",
          "name": "buyerSignature",
          "type": "bytes"
        },
        {
          "internalType": "bytes",
          "name": "operatorSignature",
          "type": "bytes"
        },
        {
          "internalType": "bytes",
          "name": "sellerSignature",
          "type": "bytes"
        }
      ],
      "name": "relayedBuyNow",
      "outputs": [],
      "stateMutability": "nonpayable",
      "type": "function"
    },
    {
      "inputs": [],
      "name": "erc20",
      "outputs": [
        {
          "internalType": "address",
          "name": "",
          "type": "address"
        }
      ],
      "stateMutability": "view",
      "type": "function"
    },
    {
      "inputs": [],
      "name": "erc20ContractName",
      "outputs": [
        {
          "internalType": "string",
          "name": "",
          "type": "string"
        }
      ],
      "stateMutability": "view",
      "type": "function"
    },
    {
      "inputs": [],
      "name": "erc20ContractSymbol",
      "outputs": [
        {
          "internalType": "string",
          "name": "",
          "type": "string"
        }
      ],
      "stateMutability": "view",
      "type": "function"
    },
    {
      "inputs": [],
      "name": "erc20ContractDecimals",
      "outputs": [
        {
          "internalType": "uint8",
          "name": "",
          "type": "uint8"
        }
      ],
      "stateMutability": "view",
      "type": "function"
    },
    {
      "inputs": [
        {
          "internalType": "address",
          "name": "addr",
          "type": "address"
        }
      ],
      "name": "erc20BalanceOf",
      "outputs": [
        {
          "internalType": "uint256",
          "name": "",
          "type": "uint256"
        }
      ],
      "stateMutability": "view",
      "type": "function"
    },
    {
      "inputs": [
        {
          "internalType": "address",
          "name": "buyer",
          "type": "address"
        }
      ],
      "name": "allowance",
      "outputs": [
        {
          "internalType": "uint256",
          "name": "",
          "type": "uint256"
        }
      ],
      "stateMutability": "view",
      "type": "function"
    },
    {
      "inputs": [
        {
          "internalType": "address",
          "name": "buyer",
          "type": "address"
        }
      ],
      "name": "externalBalance",
      "outputs": [
        {
          "internalType": "uint256",
          "name": "",
          "type": "uint256"
        }
      ],
      "stateMutability": "view",
      "type": "function"
    }
  ],
  "bytecode": "0x60a06040523480156200001157600080fd5b5060405162003ab538038062003ab5833981016040819052620000349162000600565b81816200004133620000b3565b6200004c3362000103565b6200005733620001af565b620000628162000257565b81516200007790600690602085019062000527565b506200008662278d006200030b565b6009805460ff191690556200009d610bb862000420565b505050506001600160a01b031660805262000741565b600080546001600160a01b038381166001600160a01b0319831681178455604051919092169283917f8be0079c531659141344cd1fd0a4f28419497f9722a3daafe3b4186f6b6457e09190a35050565b6000546001600160a01b03163314620001525760405162461bcd60e51b8152602060048201819052602482015260008051602062003a9583398151915260448201526064015b60405180910390fd5b6001546040516001600160a01b03918216918316907f02407f37826392395d65290844ab9cb626d81f6d29a96488b8b0e026799c655390600090a3600180546001600160a01b0319166001600160a01b0392909216919091179055565b6000546001600160a01b03163314620001fa5760405162461bcd60e51b8152602060048201819052602482015260008051602062003a95833981519152604482015260640162000149565b6003546040516001600160a01b03918216918316907f56b7cb7972f241bf26392fbb91bdf53850effe3e2e71470734faa90738a308c190600090a3600380546001600160a01b0319166001600160a01b0392909216919091179055565b6000546001600160a01b03163314620002a25760405162461bcd60e51b8152602060048201819052602482015260008051602062003a95833981519152604482015260640162000149565b600554604080516001600160a01b03808516825290921660208301527f782007d1cd220d6d13b9a6a456aa0fada6ccc2d71224c5161cb182dc101f27dc910160405180910390a1600580546001600160a01b0319166001600160a01b0392909216919091179055565b6000546001600160a01b03163314620003565760405162461bcd60e51b8152602060048201819052602482015260008051602062003a95833981519152604482015260640162000149565b624f1a00811080156200036a5750612a3081115b620003de5760405162461bcd60e51b815260206004820152603b60248201527f4275794e6f77426173653a3a7365745061796d656e7457696e646f773a20706160448201527f796d656e742077696e646f77206f757473696465206c696d6974730000000000606482015260840162000149565b6007546040805183815260208101929092527f02bc3287a6c82198e0df558cd07f05d621d3f98e7699a73b1bb47b27be9f3f10910160405180910390a1600755565b6000546001600160a01b031633146200046b5760405162461bcd60e51b8152602060048201819052602482015260008051602062003a95833981519152604482015260640162000149565b61271081111580156200047c575060015b620004e55760405162461bcd60e51b815260206004820152603260248201527f4275794e6f77426173653a3a7365744d61784665654250533a206d6178466565604482015271425053206f757473696465206c696d69747360701b606482015260840162000149565b6008546040805183815260208101929092527fc9b0a97bc468375768465e70b019fd0176be7465dea2ac6891dee37703fa2f7f910160405180910390a1600855565b828054620005359062000705565b90600052602060002090601f016020900481019282620005595760008555620005a4565b82601f106200057457805160ff1916838001178555620005a4565b82800160010185558215620005a4579182015b82811115620005a457825182559160200191906001019062000587565b50620005b2929150620005b6565b5090565b5b80821115620005b25760008155600101620005b7565b80516001600160a01b0381168114620005e557600080fd5b919050565b634e487b7160e01b600052604160045260246000fd5b6000806000606084860312156200061657600080fd5b6200062184620005cd565b602085810151919450906001600160401b03808211156200064157600080fd5b818701915087601f8301126200065657600080fd5b8151818111156200066b576200066b620005ea565b604051601f8201601f19908116603f01168101908382118183101715620006965762000696620005ea565b816040528281528a86848701011115620006af57600080fd5b600093505b82841015620006d35784840186015181850187015292850192620006b4565b82841115620006e55760008684830101525b809750505050505050620006fc60408501620005cd565b90509250925092565b600181811c908216806200071a57607f821691505b6020821081036200073b57634e487b7160e01b600052602260045260246000fd5b50919050565b6080516133076200078e6000396000818161055f0152818161076001528181610bc101528181610f4d01528181611a4001528181611ace015281816126b2015261296901526133076000f3fe608060405234801561001057600080fd5b50600436106102f15760003560e01c8063715018a61161019d578063a1bc474d116100e9578063cf70b880116100a2578063dfe5036a1161007c578063dfe5036a146106f4578063f2cc55ee14610707578063f2fde38b14610718578063fd5773431461072b57600080fd5b8063cf70b880146106a7578063dca72100146106c1578063dd115ab2146106d457600080fd5b8063a1bc474d1461064b578063b2685a3e1461065e578063b708fe3714610671578063c3d1f83f14610684578063c67eb9e51461068c578063cab55d561461069f57600080fd5b806380ca11fc1161015657806393afc7d71161013057806393afc7d71461060a57806396aa71b014610612578063982ed326146106255780639cfd495c1461063857600080fd5b806380ca11fc146105d557806385a2910d146105e65780638da5cb5b146105f957600080fd5b8063715018a6146105425780637249fbb61461054a578063785e9e861461055d57806378e96fb5146105835780637ac83f9b146105af5780637b018ab9146105c257600080fd5b80632af41be41161025c57806342d20b2511610215578063546c37b2116101ef578063546c37b2146104eb57806360e98d76146104fe57806370a082311461051157806370fe99c51461053a57600080fd5b806342d20b25146104a05780634bfc75fc146104b35780635360d383146104d857600080fd5b80632af41be41461040757806331784b6d1461041a578063317cb0181461042d57806334b778ed146104555780633ccfd60b146104855780633e5beab91461048d57600080fd5b806318602092116102ae578063186020921461039b5780631a29b6ab146103b05780631e557966146103c3578063221a832e146103d6578063244aa5d7146103e15780632593308b146103f457600080fd5b806302519da3146102f65780630562b9f71461031c57806306968bd9146103315780630c17ce12146103445780630fb5200d14610380578063128b853214610393575b600080fd5b610309610304366004612b78565b61073e565b6040519081526020015b60405180910390f35b61032f61032a366004612b93565b6107d4565b005b61032f61033f366004612b93565b6107e1565b610370610352366004612b78565b6001600160a01b03166000908152600b602052604090205460ff1690565b6040519015158152602001610313565b61032f61038e366004612bc4565b61087d565b61032f610af5565b6103a3610bbd565b6040516103139190612c0c565b61032f6103be366004612c4d565b610c4a565b6103096103d1366004612b78565b610c87565b60095460ff16610370565b6103706103ef366004612b93565b610cb9565b61032f610402366004612b93565b610d00565b610309610415366004612c6a565b610e09565b61032f610428366004612b93565b610e3a565b61044061043b366004612c8c565b610ecd565b60408051928352602083019190915201610313565b610478610463366004612b93565b6000908152600c602052604090205460ff1690565b6040516103139190612cee565b61032f610f1b565b61030961049b366004612b78565b610f25565b61032f6104ae366004612d45565b610f7e565b6005546001600160a01b03165b6040516001600160a01b039091168152602001610313565b61032f6104e6366004612c4d565b611115565b61032f6104f9366004612b93565b61118f565b61032f61050c366004612dc9565b611272565b61030961051f366004612b78565b6001600160a01b03166000908152600d602052604090205490565b600854610309565b61032f61146f565b61032f610558366004612b93565b6114a3565b7f00000000000000000000000000000000000000000000000000000000000000006104c0565b610370610591366004612b78565b6001600160a01b03166000908152600a602052604090205460ff1690565b61032f6105bd366004612e78565b6114ac565b6104c06105d0366004612b93565b61154d565b6003546001600160a01b03166104c0565b61032f6105f4366004612e78565b611584565b6000546001600160a01b03166104c0565b6103a3611625565b61032f610620366004612ea4565b6116b7565b61032f610633366004612b93565b6116c7565b610370610646366004612c8c565b6117b8565b61032f610659366004612ea4565b6117cd565b61032f61066c366004612b78565b611922565b61032f61067f366004612b78565b6119a9565b6103a3611a3c565b61030961069a366004612b78565b611a9c565b600754610309565b6106af611aca565b60405160ff9091168152602001610313565b6104c06106cf366004612b93565b611b4e565b6106e76106e2366004612b93565b611b85565b6040516103139190612eff565b61032f610702366004612b78565b611c69565b6001546001600160a01b03166104c0565b61032f610726366004612b78565b611d4e565b61032f610739366004612b78565b611de6565b6040516370a0823160e01b81526001600160a01b0382811660048301526000917f0000000000000000000000000000000000000000000000000000000000000000909116906370a08231906024015b602060405180830381865afa1580156107aa573d6000803e3d6000fd5b505050506040513d601f19601f820116820180604052508101906107ce9190612f6f565b92915050565b6107de3382611e6d565b50565b6000546001600160a01b031633146108145760405162461bcd60e51b815260040161080b90612f88565b60405180910390fd5b6000818152600460205260408082205460035491516001600160a01b0391821693919092169184917fef8049adbd98b87df2745e88afda4caf2fabecb028b034cfb7e3960732046d6791a4600090815260046020526040902080546001600160a01b0319169055565b60008160200135116108e55760405162461bcd60e51b815260206004820152603f60248201526000805160206132b283398151915260448201527f3a207061796d656e7420616d6f756e742063616e6e6f74206265207a65726f00606482015260840161080b565b6008548160400135111561095d5760405162461bcd60e51b815260206004820152604560248201526000805160206132b283398151915260448201527f3a206665652063616e6e6f74206265206c6172676572207468616e206d617846606482015264656542505360d81b608482015260a40161080b565b80356000908152600c602052604081205460ff16600481111561098257610982612cb6565b146109f15760405162461bcd60e51b8152602060048201526044602482018190526000805160206132b2833981519152908201527f3a207061796d656e7420696e20696e636f72726563742063757272656e7420736064820152637461746560e01b608482015260a40161080b565b8060800135421115610a595760405162461bcd60e51b815260206004820152603a60248201526000805160206132b283398151915260448201527f3a207061796d656e7420646561646c696e652065787069726564000000000000606482015260840161080b565b60095460ff16156107de57600a6000610a7860e0840160c08501612b78565b6001600160a01b0316815260208101919091526040016000205460ff166107de5760405162461bcd60e51b815260206004820152603760248201526000805160206132b283398151915260448201527f3a2073656c6c6572206e6f742072656769737465726564000000000000000000606482015260840161080b565b336000908152600a602052604090205460ff1615610b7b5760405162461bcd60e51b815260206004820152603760248201527f4275794e6f77426173653a3a7265676973746572417353656c6c65723a20736560448201527f6c6c657220616c72656164792072656769737465726564000000000000000000606482015260840161080b565b336000818152600a6020526040808220805460ff19166001179055517f258a7a0df6106f41c2e99c09f1b64931f5f284242bbc50272d5a752ac2f30dde9190a2565b60607f00000000000000000000000000000000000000000000000000000000000000006001600160a01b03166306fdde036040518163ffffffff1660e01b8152600401600060405180830381865afa158015610c1d573d6000803e3d6000fd5b505050506040513d6000823e601f3d908101601f19168201604052610c459190810190612fd3565b905090565b6000546001600160a01b03163314610c745760405162461bcd60e51b815260040161080b90612f88565b6009805460ff1916911515919091179055565b600080610c9383610f25565b90506000610ca08461073e565b9050808210610caf5780610cb1565b815b949350505050565b600060016000838152600c602052604090205460ff166004811115610ce057610ce0612cb6565b1480156107ce5750506000908152600c6020526040902060040154421190565b6000818152600c602090815260408083205461010090046001600160a01b0316808452600b9092529091205460ff1615610dd857336001600160a01b03821614610dd85760405162461bcd60e51b815260206004820152605860248201527f4275794e6f77426173653a3a726566756e64416e6457697468647261773a207460448201527f782073656e646572206e6f7420617574686f72697a656420746f20776974686460648201527f726177206f6e20726563697069656e747320626568616c660000000000000000608482015260a40161080b565b610de182611ffc565b6001600160a01b0381166000908152600d6020526040902054610e05908290611e6d565b5050565b600080612710610e198486613096565b610e2391906130b5565b905083811115610e335783610cb1565b9392505050565b6000546001600160a01b03163314610e645760405162461bcd60e51b815260040161080b90612f88565b6000818152600260205260408082205460015491516001600160a01b0391821693919092169184917f073008359b663a96cfea0f77b681c3f1359e41e6fdba9ff591285134f6985fb691a4600090815260026020526040902080546001600160a01b0319169055565b6001600160a01b0382166000908152600d60205260408120548190808411610ef55783610ef7565b805b9150808411610f07576000610f11565b610f1181856130d7565b9250509250929050565b610f2361208b565b565b604051636eb1769f60e11b81526001600160a01b0382811660048301523060248301526000917f00000000000000000000000000000000000000000000000000000000000000009091169063dd62ed3e9060440161078d565b610f8e60c0860160a08701612b78565b6001600160a01b0316336001600160a01b0316146110145760405162461bcd60e51b815260206004820152603960248201527f4275794e6f7745524332303a3a6275794e6f773a206f6e6c792062757965722060448201527f63616e206578656375746520746869732066756e6374696f6e00000000000000606482015260840161080b565b6000611023866060013561154d565b600554604051634c391a0b60e01b81529192506001600160a01b031690634c391a0b9061105a908990899089908790600401613178565b602060405180830381865afa158015611077573d6000803e3d6000fd5b505050506040513d601f19601f8201168201806040525081019061109b91906131b5565b6111015760405162461bcd60e51b815260206004820152603160248201527f4275794e6f7745524332303a3a6275794e6f773a20696e636f7272656374206f60448201527070657261746f72207369676e617475726560781b606482015260840161080b565b61110d868285856120a5565b505050505050565b336000818152600b6020526040908190205490517fa0d05fa2c258532b18e5817b7cbd1d23eaf34006d7d46207f596a201ad710a2b9161116791859160ff169091151582521515602082015260400190565b60405180910390a2336000908152600b60205260409020805460ff1916911515919091179055565b6000546001600160a01b031633146111b95760405162461bcd60e51b815260040161080b90612f88565b61271081111580156111c9575060015b6112305760405162461bcd60e51b815260206004820152603260248201527f4275794e6f77426173653a3a7365744d61784665654250533a206d6178466565604482015271425053206f757473696465206c696d69747360701b606482015260840161080b565b6008546040805183815260208101929092527fc9b0a97bc468375768465e70b019fd0176be7465dea2ac6891dee37703fa2f7f910160405180910390a1600855565b6000611281886060013561154d565b600554604051634c391a0b60e01b81529192506001600160a01b031690634c391a0b906112b8908b90899089908790600401613178565b602060405180830381865afa1580156112d5573d6000803e3d6000fd5b505050506040513d601f19601f820116820180604052508101906112f991906131b5565b61136b5760405162461bcd60e51b815260206004820152603860248201527f4275794e6f7745524332303a3a72656c617965644275794e6f773a20696e636f60448201527f7272656374206f70657261746f72207369676e61747572650000000000000000606482015260840161080b565b6005546001600160a01b0316634c391a0b89898961138f60c0840160a08501612b78565b6040518563ffffffff1660e01b81526004016113ae9493929190613178565b602060405180830381865afa1580156113cb573d6000803e3d6000fd5b505050506040513d601f19601f820116820180604052508101906113ef91906131b5565b6114595760405162461bcd60e51b815260206004820152603560248201527f4275794e6f7745524332303a3a72656c617965644275794e6f773a20696e636f6044820152747272656374206275796572207369676e617475726560581b606482015260840161080b565b611465888285856120a5565b5050505050505050565b6000546001600160a01b031633146114995760405162461bcd60e51b815260040161080b90612f88565b610f2360006123b4565b6107de81611ffc565b6000546001600160a01b031633146114d65760405162461bcd60e51b815260040161080b90612f88565b6114df8261154d565b6001600160a01b0316816001600160a01b0316837fef8049adbd98b87df2745e88afda4caf2fabecb028b034cfb7e3960732046d6760405160405180910390a460009182526004602052604090912080546001600160a01b0319166001600160a01b03909216919091179055565b6000818152600460205260408120546001600160a01b031680156115715780610e33565b6003546001600160a01b03169392505050565b6000546001600160a01b031633146115ae5760405162461bcd60e51b815260040161080b90612f88565b6115b782611b4e565b6001600160a01b0316816001600160a01b0316837f073008359b663a96cfea0f77b681c3f1359e41e6fdba9ff591285134f6985fb660405160405180910390a460009182526002602052604090912080546001600160a01b0319166001600160a01b03909216919091179055565b606060068054611634906131d2565b80601f0160208091040260200160405190810160405280929190818152602001828054611660906131d2565b80156116ad5780601f10611682576101008083540402835291602001916116ad565b820191906000526020600020905b81548152906001019060200180831161169057829003601f168201915b5050505050905090565b6116c2838383612404565b505050565b6000546001600160a01b031633146116f15760405162461bcd60e51b815260040161080b90612f88565b624f1a00811080156117045750612a3081115b6117765760405162461bcd60e51b815260206004820152603b60248201527f4275794e6f77426173653a3a7365745061796d656e7457696e646f773a20706160448201527f796d656e742077696e646f77206f757473696465206c696d6974730000000000606482015260840161080b565b6007546040805183815260208101929092527f02bc3287a6c82198e0df558cd07f05d621d3f98e7699a73b1bb47b27be9f3f10910160405180910390a1600755565b6000816117c484611a9c565b10159392505050565b60006117df6040850160208601612c4d565b6118075783356000908152600c602052604090205461010090046001600160a01b0316611825565b83356000908152600c60205260409020600101546001600160a01b03165b6001600160a01b0381166000908152600b602052604090205490915060ff16156118ed57336001600160a01b038216146118ed5760405162461bcd60e51b815260206004820152605a60248201527f4275794e6f77426173653a3a66696e616c697a65416e6457697468647261773a60448201527f2074782073656e646572206e6f7420617574686f72697a656420746f2077697460648201527f6864726177206f6e20726563697069656e747320626568616c66000000000000608482015260a40161080b565b6118f8848484612404565b6001600160a01b0381166000908152600d602052604090205461191c908290611e6d565b50505050565b6000546001600160a01b0316331461194c5760405162461bcd60e51b815260040161080b90612f88565b6001546040516001600160a01b03918216918316907f02407f37826392395d65290844ab9cb626d81f6d29a96488b8b0e026799c655390600090a3600180546001600160a01b0319166001600160a01b0392909216919091179055565b6000546001600160a01b031633146119d35760405162461bcd60e51b815260040161080b90612f88565b600554604080516001600160a01b03808516825290921660208301527f782007d1cd220d6d13b9a6a456aa0fada6ccc2d71224c5161cb182dc101f27dc910160405180910390a1600580546001600160a01b0319166001600160a01b0392909216919091179055565b60607f00000000000000000000000000000000000000000000000000000000000000006001600160a01b03166395d89b416040518163ffffffff1660e01b8152600401600060405180830381865afa158015610c1d573d6000803e3d6000fd5b6000611aa782610c87565b6001600160a01b0383166000908152600d60205260409020546107ce9190613206565b60007f00000000000000000000000000000000000000000000000000000000000000006001600160a01b031663313ce5676040518163ffffffff1660e01b8152600401602060405180830381865afa158015611b2a573d6000803e3d6000fd5b505050506040513d601f19601f82011682018060405250810190610c45919061321e565b6000818152600260205260408120546001600160a01b03168015611b725780610e33565b6001546001600160a01b03169392505050565b6040805161010081018252600080825260208201819052918101829052606081018290526080810182905260a0810182905260c0810182905260e08101919091526000828152600c602052604090819020815161010081019092528054829060ff166004811115611bf857611bf8612cb6565b6004811115611c0957611c09612cb6565b815281546001600160a01b0361010090910481166020830152600183015481166040830152600283015460608301526003830154166080820152600482015460a0820152600582015460c082015260069091015460e09091015292915050565b6001600160a01b0381166000908152600b602052604090205460ff161580611c995750336001600160a01b038216145b611d2a5760405162461bcd60e51b815260206004820152605660248201527f4275794e6f77426173653a3a72656c6179656457697468647261773a2074782060448201527f73656e646572206e6f7420617574686f72697a656420746f20776974686472616064820152753b9037b7103932b1b4b834b2b73a39903132b430b63360511b608482015260a40161080b565b6001600160a01b0381166000908152600d60205260409020546107de908290611e6d565b6000546001600160a01b03163314611d785760405162461bcd60e51b815260040161080b90612f88565b6001600160a01b038116611ddd5760405162461bcd60e51b815260206004820152602660248201527f4f776e61626c653a206e6577206f776e657220697320746865207a65726f206160448201526564647265737360d01b606482015260840161080b565b6107de816123b4565b6000546001600160a01b03163314611e105760405162461bcd60e51b815260040161080b90612f88565b6003546040516001600160a01b03918216918316907f56b7cb7972f241bf26392fbb91bdf53850effe3e2e71470734faa90738a308c190600090a3600380546001600160a01b0319166001600160a01b0392909216919091179055565b6001600160a01b0382166000908152600d602052604090205481811015611f115760405162461bcd60e51b815260206004820152604c60248201527f4275794e6f77426173653a3a5f7769746864726177416d6f756e743a206e6f7460448201527f20656e6f7567682062616c616e636520746f207769746864726177207370656360648201526b1a599a595908185b5bdd5b9d60a21b608482015260a40161080b565b60008211611f875760405162461bcd60e51b815260206004820152603860248201527f4275794e6f77426173653a3a5f7769746864726177416d6f756e743a2063616e60448201527f6e6f74207769746864726177207a65726f20616d6f756e740000000000000000606482015260840161080b565b611f9182826130d7565b6001600160a01b0384166000908152600d6020526040902055611fb4838361268c565b826001600160a01b03167f884edad9ce6fa2440d8a54cc123490eb96d2768479d49ff9c7366125a942436483604051611fef91815260200190565b60405180910390a2505050565b61200581610cb9565b6120825760405162461bcd60e51b815260206004820152604260248201527f4275794e6f77426173653a3a5f726566756e643a207061796d656e7420646f6560448201527f73206e6f742061636365707420726566756e6473206174207468697320737461606482015261676560f01b608482015260a40161080b565b6107de8161271f565b336000818152600d6020526040902054610f239190611e6d565b6005546040516307c1851560e21b81526001600160a01b0390911690631f061454906120d990859085908990600401613241565b602060405180830381865afa1580156120f6573d6000803e3d6000fd5b505050506040513d601f19601f8201168201806040525081019061211a91906131b5565b6121855760405162461bcd60e51b815260206004820152603660248201527f4275794e6f77426173653a3a5f70726f636573734275794e6f773a20696e636f60448201527572726563742073656c6c6572207369676e617475726560501b606482015260840161080b565b61218e8461087d565b6121b7836121a260c0870160a08801612b78565b6121b260e0880160c08901612b78565b612800565b6000806121d76121cd60c0880160a08901612b78565b8760200135610ecd565b90925090506121f66121ef60c0880160a08901612b78565b8383612937565b604080516101008101909152806001815260200161221a60c0890160a08a01612b78565b6001600160a01b0316815260200161223860e0890160c08a01612b78565b6001600160a01b031681526020018760600135815260200161225d8860600135611b4e565b6001600160a01b03168152602001600754426122799190613206565b8152604080890135602080840191909152898101359282019290925288356000908152600c909252902081518154829060ff191660018360048111156122c1576122c1612cb6565b0217905550602082015181546001600160a01b0391821661010002610100600160a81b031990911617825560408301516001830180549183166001600160a01b031992831617905560608401516002840155608084015160038401805491909316911617905560a0820151600482015560c080830151600583015560e092830151600690920191909155612359918801908801612b78565b6001600160a01b031661237260c0880160a08901612b78565b6001600160a01b031687600001357f01f033a8d8e835b47bc2e15eb7d7ae54012c152cabaefb21a8f9d2ed1891832c60405160405180910390a4505050505050565b600080546001600160a01b038381166001600160a01b0319831681178455604051919092169283917f8be0079c531659141344cd1fd0a4f28419497f9722a3daafe3b4186f6b6457e09190a35050565b82356000908152600c6020526040808220815161010081019092528054829060ff16600481111561243757612437612cb6565b600481111561244857612448612cb6565b815281546001600160a01b0361010090910481166020830152600180840154821660408401526002840154606084015260038401549091166080830152600483015460a0830152600583015460c083015260069092015460e09091015290915084356000908152600c602052604090205460ff1660048111156124cd576124cd612cb6565b146125515760405162461bcd60e51b815260206004820152604860248201527f4275794e6f77426173653a3a5f66696e616c697a653a207061796d656e74206e60448201527f6f7420696e697469616c6c7920696e206173736574207472616e7366657272696064820152676e6720737461746560c01b608482015260a40161080b565b60055460608201516001600160a01b0390911690638073e7819086908690869061257a9061154d565b6040518563ffffffff1660e01b81526004016125999493929190613266565b602060405180830381865afa1580156125b6573d6000803e3d6000fd5b505050506040513d601f19601f820116820180604052508101906125da91906131b5565b61265d5760405162461bcd60e51b815260206004820152604860248201527f4275794e6f77426173653a3a5f66696e616c697a653a206f6e6c79207468652060448201527f6f70657261746f722063616e207369676e20616e2061737365745472616e7366606482015267195c94995cdd5b1d60c21b608482015260a40161080b565b61266d6040850160208601612c4d565b156126825761267d843582612a8b565b61191c565b61191c8435612082565b60405163a9059cbb60e01b81526001600160a01b038381166004830152602482018390527f0000000000000000000000000000000000000000000000000000000000000000169063a9059cbb906044016020604051808303816000875af11580156126fb573d6000803e3d6000fd5b505050506040513d601f19601f820116820180604052508101906116c291906131b5565b6000818152600c60209081526040808320805460ff19166002908117808355835161010080820186528382526001600160a01b0392048216818701819052600185015483168287015292840154606082015260038401549091166080820152600483015460a0820152600583015460c082015260069092015460e08301819052908552600d9093529083208054919390916127bb908490613206565b909155505060208101516040516001600160a01b039091169083907f5ff61db57638246b4e385e22ef7613d9bb0c21cc207e863676e3c7a49e39a17f90600090a35050565b816001600160a01b0316836001600160a01b0316141580156128345750806001600160a01b0316836001600160a01b031614155b6128a65760405162461bcd60e51b815260206004820152603d60248201527f4275794e6f77426173653a3a6173736572745365706172617465526f6c65733a60448201527f206f70657261746f72206d75737420626520616e206f62736572766572000000606482015260840161080b565b806001600160a01b0316826001600160a01b0316036116c25760405162461bcd60e51b815260206004820152604160248201527f4275794e6f77426173653a3a6173736572745365706172617465526f6c65733a60448201527f20627579657220616e642073656c6c65722063616e6e6f7420636f696e6369646064820152606560f81b608482015260a40161080b565b8115612a59576040516323b872dd60e01b81526001600160a01b038481166004830152306024830152604482018490527f000000000000000000000000000000000000000000000000000000000000000016906323b872dd906064016020604051808303816000875af11580156129b2573d6000803e3d6000fd5b505050506040513d601f19601f820116820180604052508101906129d691906131b5565b612a595760405162461bcd60e51b815260206004820152604860248201527f4275794e6f7745524332303a3a5f757064617465427579657242616c616e636560448201527f4f6e5061796d656e7452656365697665643a204552433230207472616e7366656064820152671c8819985a5b195960c21b608482015260a40161080b565b6001600160a01b0383166000908152600d602052604081208054839290612a819084906130d7565b9091555050505050565b6000828152600c60205260408120805460ff1916600317905560e082015160c0830151612ab89190610e09565b9050808260e00151612aca91906130d7565b6040808401516001600160a01b03166000908152600d6020529081208054909190612af6908490613206565b909155505060808201516001600160a01b03166000908152600d602052604081208054839290612b27908490613206565b909155505060405183907fe72fd4f49ae148a0d79f0e71ec9cae30076dbfde7b66f70cafd11416eae8dc6290600090a2505050565b80356001600160a01b0381168114612b7357600080fd5b919050565b600060208284031215612b8a57600080fd5b610e3382612b5c565b600060208284031215612ba557600080fd5b5035919050565b600060e08284031215612bbe57600080fd5b50919050565b600060e08284031215612bd657600080fd5b610e338383612bac565b60005b83811015612bfb578181015183820152602001612be3565b8381111561191c5750506000910152565b6020815260008251806020840152612c2b816040850160208701612be0565b601f01601f19169190910160400192915050565b80151581146107de57600080fd5b600060208284031215612c5f57600080fd5b8135610e3381612c3f565b60008060408385031215612c7d57600080fd5b50508035926020909101359150565b60008060408385031215612c9f57600080fd5b612ca883612b5c565b946020939093013593505050565b634e487b7160e01b600052602160045260246000fd5b60058110612cea57634e487b7160e01b600052602160045260246000fd5b9052565b602081016107ce8284612ccc565b60008083601f840112612d0e57600080fd5b50813567ffffffffffffffff811115612d2657600080fd5b602083019150836020828501011115612d3e57600080fd5b9250929050565b60008060008060006101208688031215612d5e57600080fd5b612d688787612bac565b945060e086013567ffffffffffffffff80821115612d8557600080fd5b612d9189838a01612cfc565b9096509450610100880135915080821115612dab57600080fd5b50612db888828901612cfc565b969995985093965092949392505050565b6000806000806000806000610140888a031215612de557600080fd5b612def8989612bac565b965060e088013567ffffffffffffffff80821115612e0c57600080fd5b612e188b838c01612cfc565b90985096506101008a0135915080821115612e3257600080fd5b612e3e8b838c01612cfc565b90965094506101208a0135915080821115612e5857600080fd5b50612e658a828b01612cfc565b989b979a50959850939692959293505050565b60008060408385031215612e8b57600080fd5b82359150612e9b60208401612b5c565b90509250929050565b60008060008385036060811215612eba57600080fd5b6040811215612ec857600080fd5b50839250604084013567ffffffffffffffff811115612ee657600080fd5b612ef286828701612cfc565b9497909650939450505050565b600061010082019050612f13828451612ccc565b602083015160018060a01b03808216602085015280604086015116604085015260608501516060850152806080860151166080850152505060a083015160a083015260c083015160c083015260e083015160e083015292915050565b600060208284031215612f8157600080fd5b5051919050565b6020808252818101527f4f776e61626c653a2063616c6c6572206973206e6f7420746865206f776e6572604082015260600190565b634e487b7160e01b600052604160045260246000fd5b600060208284031215612fe557600080fd5b815167ffffffffffffffff80821115612ffd57600080fd5b818401915084601f83011261301157600080fd5b81518181111561302357613023612fbd565b604051601f8201601f19908116603f0116810190838211818310171561304b5761304b612fbd565b8160405282815287602084870101111561306457600080fd5b613075836020830160208801612be0565b979650505050505050565b634e487b7160e01b600052601160045260246000fd5b60008160001904831182151516156130b0576130b0613080565b500290565b6000826130d257634e487b7160e01b600052601260045260246000fd5b500490565b6000828210156130e9576130e9613080565b500390565b803582526020810135602083015260408101356040830152606081013560608301526080810135608083015261312660a08201612b5c565b6001600160a01b0381811660a08501528061314360c08501612b5c565b1660c085015250505050565b81835281816020850137506000828201602090810191909152601f909101601f19169091010190565b600061012061318783886130ee565b8060e084015261319a818401868861314f565b91505060018060a01b03831661010083015295945050505050565b6000602082840312156131c757600080fd5b8151610e3381612c3f565b600181811c908216806131e657607f821691505b602082108103612bbe57634e487b7160e01b600052602260045260246000fd5b6000821982111561321957613219613080565b500190565b60006020828403121561323057600080fd5b815160ff81168114610e3357600080fd5b6000610100808352613256818401868861314f565b915050610cb160208301846130ee565b843581526000602086013561327a81612c3f565b8015156020840152506080604083015261329860808301858761314f565b905060018060a01b03831660608301529594505050505056fe4275794e6f77426173653a3a6173736572744275794e6f77496e707574734f4ba2646970667358221220cc435e62a51eaa0c28fbad46d065a515311cb6ddc2196ac61cc5ec3d756133c264736f6c634300080e00334f776e61626c653a2063616c6c6572206973206e6f7420746865206f776e6572",
  "immutableReferences": {
    "3190": [
      {
        "length": 32,
        "start": 1375
      },
      {
        "length": 32,
        "start": 1888
      },
      {
        "length": 32,
        "start": 3009
      },
      {
        "length": 32,
        "start": 3917
      },
      {
        "length": 32,
        "start": 6720
      },
      {
        "length": 32,
        "start": 6862
      },
      {
        "length": 32,
        "start": 9906
      },
      {
        "length": 32,
        "start": 10601
      }
    ]
  },
  "source": "// SPDX-License-Identifier: MIT\npragma solidity =0.8.14;\n\nimport \"./IBuyNowERC20.sol\";\nimport \"@openzeppelin/contracts/token/ERC20/IERC20.sol\";\nimport \"./IERC20Detailed.sol\";\nimport \"./base/BuyNowBase.sol\";\n\n/**\n * @title Escrow Contract for Payments in BuyNow mode, in ERC20 tokens.\n * @author Freeverse.io, www.freeverse.io\n * @notice Full contract documentation in IBuyNowERC20\n */\n\ncontract BuyNowERC20 is IBuyNowERC20, BuyNowBase {\n    // the address of the ERC20 contract that manages the tokens that this contract accepts:\n    address private immutable _erc20;\n\n    constructor(\n        address erc20Address,\n        string memory currencyDescriptor,\n        address eip712\n    ) BuyNowBase(currencyDescriptor, eip712) {\n        _erc20 = erc20Address;\n    }\n\n    /// @inheritdoc IBuyNowERC20\n    function buyNow(\n        BuyNowInput calldata buyNowInp,\n        bytes calldata operatorSignature,\n        bytes calldata sellerSignature\n    ) external {\n        require(\n            msg.sender == buyNowInp.buyer,\n            \"BuyNowERC20::buyNow: only buyer can execute this function\"\n        );\n        address operator = universeOperator(buyNowInp.universeId);\n        require(\n            IEIP712VerifierBuyNow(_eip712).verifyBuyNow(buyNowInp, operatorSignature, operator),\n            \"BuyNowERC20::buyNow: incorrect operator signature\"\n        );\n        _processBuyNow(buyNowInp, operator, sellerSignature);\n    }\n\n    /// @inheritdoc IBuyNowERC20\n    function relayedBuyNow(\n        BuyNowInput calldata buyNowInp,\n        bytes calldata buyerSignature,\n        bytes calldata operatorSignature,\n        bytes calldata sellerSignature\n    ) external {\n        address operator = universeOperator(buyNowInp.universeId);\n        require(\n            IEIP712VerifierBuyNow(_eip712).verifyBuyNow(buyNowInp, operatorSignature, operator),\n            \"BuyNowERC20::relayedBuyNow: incorrect operator signature\"\n        );\n        require(\n            IEIP712VerifierBuyNow(_eip712).verifyBuyNow(buyNowInp, buyerSignature, buyNowInp.buyer),\n            \"BuyNowERC20::relayedBuyNow: incorrect buyer signature\"\n        );\n        _processBuyNow(buyNowInp, operator, sellerSignature);\n    }\n\n    // PRIVATE & INTERNAL FUNCTIONS\n\n    /**\n     * @dev Method that updates buyer's local balance on arrival of a payment,\n     *  re-using local balance if available, and transferring to this contract\n     *  only the new funds required. Unlike in native crypto payments, here the exact minimal amount\n     *  required is automatically transferred by this contract from the ERC20 contract, not depending on the\n     *  amount provided by users as msg.value. There is therefore no need to account for any excess\n     *  of provided funds.\n     * @param buyer The address executing the payment\n     * @param newFundsNeeded The elsewhere computed minimum amount of funds required to be provided by the buyer,\n     *  having possible re-use of local funds into account\n     * @param localFunds The elsewhere computed amount of funds available to the buyer in this contract that will be\n     *  re-used in the payment\n     */\n    function _updateBuyerBalanceOnPaymentReceived(\n        address buyer,\n        uint256 newFundsNeeded,\n        uint256 localFunds\n    ) internal override {\n        if (newFundsNeeded > 0) {\n            require(\n                IERC20(_erc20).transferFrom(buyer, address(this), newFundsNeeded),\n                \"BuyNowERC20::_updateBuyerBalanceOnPaymentReceived: ERC20 transfer failed\"\n            );\n        }\n        _balanceOf[buyer] -= localFunds;\n    }\n\n    /**\n     * @dev Transfers the specified amount to the specified address.\n     *  Requirements and effects (e.g. balance updates) are performed\n     *  before calling this function.\n     * @param to The address that must receive the ERC20 tokens.\n     * @param amount The amount of tokens to transfer.\n    */\n    function _transfer(address to, uint256 amount) internal override {\n        IERC20(_erc20).transfer(to, amount);\n    }\n\n    // VIEW FUNCTIONS\n\n    /// @inheritdoc IBuyNowERC20\n    function erc20() external view returns (address) {\n        return _erc20;\n    }\n\n    /// @inheritdoc IBuyNowERC20\n    function erc20ContractName() external view returns (string memory) {\n        return IERC20Detailed(_erc20).name();\n    }\n\n    /// @inheritdoc IBuyNowERC20\n    function erc20ContractSymbol() external view returns (string memory) {\n        return IERC20Detailed(_erc20).symbol();\n    }\n\n    /// @inheritdoc IBuyNowERC20\n    function erc20ContractDecimals() external view returns (uint8) {\n        return IERC20Detailed(_erc20).decimals();\n    }\n\n    /// @inheritdoc IBuyNowERC20\n    function erc20BalanceOf(address addr) public view returns (uint256) {\n        return IERC20(_erc20).balanceOf(addr);\n    }\n\n    /// @inheritdoc IBuyNowERC20\n    function allowance(address buyer) public view returns (uint256) {\n        return IERC20(_erc20).allowance(buyer, address(this));\n    }\n\n    /**\n     * @notice Returns the amount available to a buyer outside this contract\n     * @dev It returns only the truly available amount, taking into account\n     *  that the user may have allowed less tokens than actually avaialable\n     *  in the external ERC20 contract\n     * @param buyer The address for which funds are queried\n     * @return the external funds truly available\n     */\n    function externalBalance(address buyer) public view override returns (uint256) {\n        uint256 approved = allowance(buyer);\n        uint256 erc20Balance = erc20BalanceOf(buyer);\n        return (approved < erc20Balance) ? approved : erc20Balance;\n    }\n}\n",
  "sourcePath": "/Users/toni/gits/crypto-payments/contracts/buyNow/BuyNowERC20.sol",
  "compiler": {
    "name": "solc",
    "version": "0.8.14+commit.80d49f37.Emscripten.clang"
  },
  "schemaVersion": "3.4.7",
  "updatedAt": "2022-09-12T09:23:11.042Z",
  "devdoc": {
    "author": "Freeverse.io, www.freeverse.io",
    "kind": "dev",
    "methods": {
      "EIP712Address()": {
        "returns": {
          "_0": "the address of the EIP712 verifier contract"
        }
      },
      "acceptsRefunds(bytes32)": {
        "details": "The payment must be in ASSET_TRANSFERRING and beyond expirationTime.",
        "params": {
          "paymentId": "The unique ID that identifies the payment."
        },
        "returns": {
          "_0": "true if the payment accepts a refund to the buyer."
        }
      },
      "allowance(address)": {
        "params": {
          "buyer": "the address of the buyer"
        },
        "returns": {
          "_0": "the amount allowed by buyer"
        }
      },
      "assertBuyNowInputsOK((bytes32,uint256,uint256,uint256,uint256,address,address))": {
        "params": {
          "buyNowInp": "The BuyNowInput struct"
        }
      },
      "balanceOf(address)": {
        "params": {
          "addr": "the address that is queried"
        },
        "returns": {
          "_0": "the local balance"
        }
      },
      "buyNow((bytes32,uint256,uint256,uint256,uint256,address,address),bytes,bytes)": {
        "details": "Executed by the buyer, who relays the operator's signature.  This method will transfer only the minimum required amount from the bidder  to this contract, re-using any existing local balance.  If all requirements are fulfilled, it stores the data relevant  for the next steps of the payment, and it locks the funds  in this contract.  Follows standard Checks-Effects-Interactions pattern  to protect against re-entrancy attacks.  Moves payment to ASSET_TRANSFERRING state.",
        "params": {
          "buyNowInp": "The struct containing all required payment data",
          "operatorSignature": "The signature of 'buyNowInp' by the operator",
          "sellerSignature": "the signature of the seller agreeing to list the asset"
        }
      },
      "computeFeeAmount(uint256,uint256)": {
        "details": "Must return a value that is guaranteed to be less or equal to the provided amount",
        "params": {
          "amount": "The amount",
          "feeBPS": "The percentage fee expressed in Basis Points (bps).  feeBPS examples:  2.5% = 250 bps, 10% = 1000 bps, 100% = 10000 bps"
        },
        "returns": {
          "_0": "The fee amount"
        }
      },
      "currencyLongDescriptor()": {
        "returns": {
          "_0": "the string describing the currency"
        }
      },
      "defaultFeesCollector()": {
        "details": "Returns the default feesCollector"
      },
      "defaultOperator()": {
        "details": "Returns the default operator"
      },
      "enoughFundsAvailable(address,uint256)": {
        "details": "In more detail: returns true if the sum of the buyer's local balance in this contract,  plus the external available balance, is larger or equal than 'amount'",
        "params": {
          "amount": "The amount that is queried",
          "buyer": "The address for which funds are queried"
        },
        "returns": {
          "_0": "Returns true if enough funds are available"
        }
      },
      "erc20()": {
        "returns": {
          "_0": "the address of the ERC20 contract"
        }
      },
      "erc20BalanceOf(address)": {
        "params": {
          "addr": "the address that is queried"
        },
        "returns": {
          "_0": "the balance in the external ERC20 contract"
        }
      },
      "erc20ContractDecimals()": {
        "returns": {
          "_0": "the return of the decimals() method call to the ERC20 contract"
        }
      },
      "erc20ContractName()": {
        "returns": {
          "_0": "the return of the name() method call to the ERC20 contract"
        }
      },
      "erc20ContractSymbol()": {
        "returns": {
          "_0": "the return of the symbol() method call to the ERC20 contract"
        }
      },
      "externalBalance(address)": {
        "details": "It returns only the truly available amount, taking into account  that the user may have allowed less tokens than actually avaialable  in the external ERC20 contract",
        "params": {
          "buyer": "The address for which funds are queried"
        },
        "returns": {
          "_0": "the external funds truly available"
        }
      },
      "finalize((bytes32,bool),bytes)": {
        "details": "Can be executed by anyone, but the operator signature must be included as input param.  Seller or Buyer's local balances are updated, allowing explicit withdrawal.  Moves payment to PAID or REFUNDED state on transfer success/failure, respectively.",
        "params": {
          "operatorSignature": "The operator signature of transferResult",
          "transferResult": "The asset transfer result struct signed by the operator."
        }
      },
      "finalizeAndWithdraw((bytes32,bool),bytes)": {
        "details": "If recipient has set onlyUserCanWithdraw == true, then msg.sender must be the recipient;  otherwise, anyone can execute this method, with funds arriving to the recipient too, but with a  helping 3rd party covering gas costs and TX sending hassle.  The operator signature must be included as input param.  Moves payment to PAID or REFUNDED state on transfer success/failure, respectively.",
        "params": {
          "operatorSignature": "The operator signature of transferResult",
          "transferResult": "The asset transfer result struct signed by the operator."
        }
      },
      "isRegisteredSeller(address)": {
        "params": {
          "addr": "the address that is queried"
        },
        "returns": {
          "_0": "Returns whether the address is registered as seller"
        }
      },
      "isSellerRegistrationRequired()": {
        "returns": {
          "_0": "Returns true if sellers need to be registered to be able to accept payments"
        }
      },
      "maxFeeBPS()": {
        "returns": {
          "_0": "the max fee (in BPS units)"
        }
      },
      "maxFundsAvailable(address)": {
        "details": "In more detail: returns the sum of the buyer's local balance in this contract,  plus the available external balance.",
        "params": {
          "buyer": "The address for which funds are queried"
        },
        "returns": {
          "_0": "the max funds available"
        }
      },
      "onlyUserCanWithdraw(address)": {
        "params": {
          "user": "The address of the user"
        }
      },
      "owner()": {
        "details": "Returns the address of the current owner."
      },
      "paymentInfo(bytes32)": {
        "params": {
          "paymentId": "The unique ID that identifies the payment."
        },
        "returns": {
          "_0": "the struct stored for the payment"
        }
      },
      "paymentState(bytes32)": {
        "details": "If payment is in ASSET_TRANSFERRING, it may be worth  checking acceptsRefunds to check if it has gone beyond expirationTime.",
        "params": {
          "paymentId": "The unique ID that identifies the payment."
        },
        "returns": {
          "_0": "the state of the payment."
        }
      },
      "paymentWindow()": {
        "returns": {
          "_0": "the payment window in secs"
        }
      },
      "refund(bytes32)": {
        "details": "Anybody can call this function.  Requires acceptsRefunds == true to proceed.  After updating buyer's balance, he/she can later withdraw.  Moves payment to REFUNDED state.",
        "params": {
          "paymentId": "The unique ID that identifies the payment."
        }
      },
      "refundAndWithdraw(bytes32)": {
        "details": "If the buyer has set onlyUserCanWithdraw == true, then msg.sender must be the recipient;  otherwise, anyone can execute this method, with funds arriving to the buyer too, but with a  helping 3rd party covering gas costs and TX sending hassle.  Requires acceptsRefunds == true to proceed.  All of msg.sender's balance in the contract is withdrawn,  not only the part that was locked in this particular paymentId  Moves payment to REFUNDED state.",
        "params": {
          "paymentId": "The unique ID that identifies the payment."
        }
      },
      "relayedBuyNow((bytes32,uint256,uint256,uint256,uint256,address,address),bytes,bytes,bytes)": {
        "details": "Executed by anyone, who relays  relay both the operator and the buyer signatures.  The buyer must have approved the amount to this contract before.  If all requirements are fulfilled, it stores the data relevant  for the next steps of the payment, and it locks the ERC20  in this contract.  Follows standard Checks-Effects-Interactions pattern  to protect against re-entrancy attacks.  Moves payment to ASSET_TRANSFERRING state.",
        "params": {
          "buyNowInp": "The struct containing all required payment data",
          "buyerSignature": "The signature of 'buyNowInp' by the buyer",
          "operatorSignature": "The signature of 'buyNowInp' by the operator",
          "sellerSignature": "the signature of the seller agreeing to list the asset"
        }
      },
      "removeUniverseFeesCollector(uint256)": {
        "details": "Removes a specific universe feesCollector",
        "params": {
          "universeId": "The id of the universe"
        }
      },
      "removeUniverseOperator(uint256)": {
        "details": "Removes a specific universe operator",
        "params": {
          "universeId": "The id of the universe"
        }
      },
      "renounceOwnership()": {
        "details": "Leaves the contract without owner. It will not be possible to call `onlyOwner` functions anymore. Can only be called by the current owner. NOTE: Renouncing ownership will leave the contract without an owner, thereby removing any functionality that is only available to the owner."
      },
      "setDefaultFeesCollector(address)": {
        "details": "Sets a new default feesCollector",
        "params": {
          "feesCollector": "The address of the new default feesCollector"
        }
      },
      "setDefaultOperator(address)": {
        "details": "Sets a new default operator",
        "params": {
          "operator": "The address of the new default operator"
        }
      },
      "setEIP712(address)": {
        "details": "This upgradable pattern is required in case that the  EIP712 spec/code changes in the future",
        "params": {
          "eip712address": "The address of the new EIP712 contract."
        }
      },
      "setIsSellerRegistrationRequired(bool)": {
        "params": {
          "isRequired": "(bool) if true, registration is required."
        }
      },
      "setMaxFeeBPS(uint256)": {
        "params": {
          "feeBPS": "The new max fee (in BPS units)"
        }
      },
      "setOnlyUserCanWithdraw(bool)": {
        "params": {
          "onlyUserCan": "true if only the user can execute withdrawals of his/her local balance"
        }
      },
      "setPaymentWindow(uint256)": {
        "params": {
          "window": "The amount of time available, in seconds."
        }
      },
      "setUniverseFeesCollector(uint256,address)": {
        "details": "Sets a new specific universe feesCollector",
        "params": {
          "feesCollector": "The address of the new universe feesCollector",
          "universeId": "The id of the universe"
        }
      },
      "setUniverseOperator(uint256,address)": {
        "details": "Sets a new specific universe operator",
        "params": {
          "operator": "The address of the new universe operator",
          "universeId": "The id of the universe"
        }
      },
      "splitFundingSources(address,uint256)": {
        "params": {
          "amount": "The amount to be split",
          "buyer": "The address for which the amount is to be split"
        },
        "returns": {
          "externalFunds": "The funds required to be transferred from the external buyer balance",
          "localFunds": "The amount of local funds that will be used."
        }
      },
      "transferOwnership(address)": {
        "details": "Transfers ownership of the contract to a new account (`newOwner`). Can only be called by the current owner."
      },
      "universeFeesCollector(uint256)": {
        "details": "Returns the feesCollector of a specific universe",
        "params": {
          "universeId": "The id of the universe"
        }
      },
      "universeOperator(uint256)": {
        "details": "Returns the operator of a specific universe",
        "params": {
          "universeId": "The id of the universe"
        }
      },
      "withdrawAmount(uint256)": {
        "params": {
          "amount": "The required amount to withdraw"
        }
      }
    },
    "title": "Escrow Contract for Payments in BuyNow mode, in ERC20 tokens.",
    "version": 1
  },
  "userdoc": {
    "kind": "user",
    "methods": {
      "EIP712Address()": {
        "notice": "Returns the address of the of the contract containing  the implementation of the EIP712 verifying functions"
      },
      "acceptsRefunds(bytes32)": {
        "notice": "Returns true if the payment accepts a refund to the buyer"
      },
      "allowance(address)": {
        "notice": "Returns the allowance that the buyer has approved  directly in the ERC20 contract in favour of this contract."
      },
      "assertBuyNowInputsOK((bytes32,uint256,uint256,uint256,uint256,address,address))": {
        "notice": "Reverts unless the requirements for a BuyNowInput are fulfilled."
      },
      "balanceOf(address)": {
        "notice": "Returns the local balance of the provided address that is stored in this  contract, and hence, available for withdrawal."
      },
      "buyNow((bytes32,uint256,uint256,uint256,uint256,address,address),bytes,bytes)": {
        "notice": "Starts Payment process by the buyer."
      },
      "computeFeeAmount(uint256,uint256)": {
        "notice": "Safe computation of fee amount for a provided amount, feeBPS pair"
      },
      "currencyLongDescriptor()": {
        "notice": "Returns a descriptor about the currency that this contract accepts"
      },
      "enoughFundsAvailable(address,uint256)": {
        "notice": "Returns true if the 'amount' required for a payment is available to this contract."
      },
      "erc20()": {
        "notice": "Returns the address of the ERC20 contract from which  tokens are accepted for payments"
      },
      "erc20BalanceOf(address)": {
        "notice": "Returns the ERC20 balance of address in the ERC20 contract"
      },
      "erc20ContractDecimals()": {
        "notice": "Proxy that queries the decimals() method from an external  ERC20 contract, which may optionally implement it. "
      },
      "erc20ContractName()": {
        "notice": "Proxy that queries the name() method from an external  ERC20 contract, which may optionally implement it. "
      },
      "erc20ContractSymbol()": {
        "notice": "Proxy that queries the symbol() method from an external  ERC20 contract, which may optionally implement it. "
      },
      "externalBalance(address)": {
        "notice": "Returns the amount available to a buyer outside this contract"
      },
      "finalize((bytes32,bool),bytes)": {
        "notice": "Relays the operator signature declaring that the asset transfer was successful or failed,  and updates local balances of seller or buyer, respectively."
      },
      "finalizeAndWithdraw((bytes32,bool),bytes)": {
        "notice": "Relays the operator signature declaring that the asset transfer was successful or failed,  updates balances of seller or buyer, respectively, and proceeds to withdraw all funds   in this contract available to the rightful recipient of the paymentId:   the seller if transferResult.wasSuccessful == true, the buyer otherwise."
      },
      "isRegisteredSeller(address)": {
        "notice": "Returns true if the address provided is a registered seller"
      },
      "isSellerRegistrationRequired()": {
        "notice": "Returns whether sellers need to be registered to be able to accept payments"
      },
      "maxFeeBPS()": {
        "notice": "Returns the max fee (in BPS units) that can be accepted in any payment  despite operator and buyer having signed a larger amount;  a value of 10000 BPS would correspond to 100% (no limit at all)"
      },
      "maxFundsAvailable(address)": {
        "notice": "Returns the maximum amount of funds available to a buyer"
      },
      "onlyUserCanWithdraw(address)": {
        "notice": "Returns the value of onlyUserCanWithdraw for a given user"
      },
      "paymentInfo(bytes32)": {
        "notice": "Returns all data stored in a payment"
      },
      "paymentState(bytes32)": {
        "notice": "Returns the state of a payment."
      },
      "paymentWindow()": {
        "notice": "Returns the amount of seconds that a payment  can remain in ASSET_TRANSFERRING state without positive  or negative confirmation by the operator"
      },
      "refund(bytes32)": {
        "notice": "Moves buyer's provided funds to buyer's balance."
      },
      "refundAndWithdraw(bytes32)": {
        "notice": "Executes refund and withdraw to the buyer in one transaction."
      },
      "registerAsSeller()": {
        "notice": "Registers msg.sender as seller so that, if the contract has set  _isSellerRegistrationRequired = true, then payments will be accepted with  msg.sender as seller."
      },
      "relayedBuyNow((bytes32,uint256,uint256,uint256,uint256,address,address),bytes,bytes,bytes)": {
        "notice": "Starts the Payment process via relay-by-operator."
      },
      "relayedWithdraw(address)": {
        "notice": "Transfers funds avaliable in this  contract's balanceOf[recipient] to recipient.  The funds still go to straight the recipient, as if he/she  has executed the withdrawal() method, but the msg.sender  covers gas costs and the hassle of executing the transaction.  Users can always opt out from this feature, using the setOnlyUserCanWithdraw method."
      },
      "removeUniverseFeesCollector(uint256)": {
        "notice": "The universe will then have fees collected by _defaultFeesCollector"
      },
      "removeUniverseOperator(uint256)": {
        "notice": "The universe will then be operated by _defaultOperator"
      },
      "setEIP712(address)": {
        "notice": "Sets the address of the EIP712 verifier contract."
      },
      "setIsSellerRegistrationRequired(bool)": {
        "notice": "Sets whether sellers are required to register in this contract before being  able to accept payments."
      },
      "setMaxFeeBPS(uint256)": {
        "notice": "Sets the max fee (in BPS units) that can be accepted in any payment  despite operator and buyer having signed a larger amount;  a value of 10000 BPS would correspond to 100% (no limit at all)"
      },
      "setOnlyUserCanWithdraw(bool)": {
        "notice": "Sets the value of onlyUserCanWithdraw for the user with msg.sender address:  - if true: only the user can execute withdrawals of his/her local balance  - if false: any address can help and execute the withdrawals on behalf of the user   (the funds still go straight to the user, but the helper address covers gas costs    and the hassle of executing the transaction)"
      },
      "setPaymentWindow(uint256)": {
        "notice": "Sets the amount of time available to the operator, after the payment starts,  to confirm either the success or the failure of the asset transfer.  After this time, the payment moves to FAILED, allowing buyer to withdraw."
      },
      "splitFundingSources(address,uint256)": {
        "notice": "Splits the funds required to provide 'amount' into two sources:  - externalFunds: the funds required to be transferred from the external buyer balance  - localFunds: the funds required from the buyer's already available balance in this contract."
      },
      "withdraw()": {
        "notice": "Transfers funds avaliable in this  contract's balanceOf[msg.sender] to msg.sender"
      },
      "withdrawAmount(uint256)": {
        "notice": "Transfers only the specified amount  from this contract's balanceOf[msg.sender] to msg.sender.  Reverts if balanceOf[msg.sender] < amount."
      }
    },
    "notice": "Full contract documentation in IBuyNowERC20",
    "version": 1
  }
}