{
  "contractName": "BuyNowNative",
  "abi": [
    {
      "inputs": [
        {
          "internalType": "string",
          "name": "currencyDescriptor",
          "type": "string"
        },
        {
          "internalType": "address",
          "name": "eip712",
          "type": "address"
        }
      ],
      "stateMutability": "nonpayable",
      "type": "constructor"
    },
    {
      "anonymous": false,
      "inputs": [
        {
          "indexed": true,
          "internalType": "bytes32",
          "name": "paymentId",
          "type": "bytes32"
        },
        {
          "indexed": true,
          "internalType": "address",
          "name": "buyer",
          "type": "address"
        },
        {
          "indexed": true,
          "internalType": "address",
          "name": "seller",
          "type": "address"
        }
      ],
      "name": "BuyNow",
      "type": "event"
    },
    {
      "anonymous": false,
      "inputs": [
        {
          "indexed": true,
          "internalType": "bytes32",
          "name": "paymentId",
          "type": "bytes32"
        },
        {
          "indexed": true,
          "internalType": "address",
          "name": "buyer",
          "type": "address"
        }
      ],
      "name": "BuyerRefunded",
      "type": "event"
    },
    {
      "anonymous": false,
      "inputs": [
        {
          "indexed": true,
          "internalType": "address",
          "name": "feesCollector",
          "type": "address"
        },
        {
          "indexed": true,
          "internalType": "address",
          "name": "prevFeesCollector",
          "type": "address"
        }
      ],
      "name": "DefaultFeesCollector",
      "type": "event"
    },
    {
      "anonymous": false,
      "inputs": [
        {
          "indexed": true,
          "internalType": "address",
          "name": "operator",
          "type": "address"
        },
        {
          "indexed": true,
          "internalType": "address",
          "name": "prevOperator",
          "type": "address"
        }
      ],
      "name": "DefaultOperator",
      "type": "event"
    },
    {
      "anonymous": false,
      "inputs": [
        {
          "indexed": false,
          "internalType": "address",
          "name": "eip712address",
          "type": "address"
        },
        {
          "indexed": false,
          "internalType": "address",
          "name": "prevEip712address",
          "type": "address"
        }
      ],
      "name": "EIP712",
      "type": "event"
    },
    {
      "anonymous": false,
      "inputs": [
        {
          "indexed": false,
          "internalType": "uint256",
          "name": "maxFeeBPS",
          "type": "uint256"
        },
        {
          "indexed": false,
          "internalType": "uint256",
          "name": "prevMaxFeeBPS",
          "type": "uint256"
        }
      ],
      "name": "MaxFeeBPS",
      "type": "event"
    },
    {
      "anonymous": false,
      "inputs": [
        {
          "indexed": true,
          "internalType": "address",
          "name": "seller",
          "type": "address"
        }
      ],
      "name": "NewSeller",
      "type": "event"
    },
    {
      "anonymous": false,
      "inputs": [
        {
          "indexed": true,
          "internalType": "address",
          "name": "user",
          "type": "address"
        },
        {
          "indexed": false,
          "internalType": "bool",
          "name": "onlyUserCanWithdraw",
          "type": "bool"
        },
        {
          "indexed": false,
          "internalType": "bool",
          "name": "prevOnlyUserCanWithdraw",
          "type": "bool"
        }
      ],
      "name": "OnlyUserCanWithdraw",
      "type": "event"
    },
    {
      "anonymous": false,
      "inputs": [
        {
          "indexed": true,
          "internalType": "address",
          "name": "previousOwner",
          "type": "address"
        },
        {
          "indexed": true,
          "internalType": "address",
          "name": "newOwner",
          "type": "address"
        }
      ],
      "name": "OwnershipTransferred",
      "type": "event"
    },
    {
      "anonymous": false,
      "inputs": [
        {
          "indexed": true,
          "internalType": "bytes32",
          "name": "paymentId",
          "type": "bytes32"
        }
      ],
      "name": "Paid",
      "type": "event"
    },
    {
      "anonymous": false,
      "inputs": [
        {
          "indexed": false,
          "internalType": "uint256",
          "name": "window",
          "type": "uint256"
        },
        {
          "indexed": false,
          "internalType": "uint256",
          "name": "prevWindow",
          "type": "uint256"
        }
      ],
      "name": "PaymentWindow",
      "type": "event"
    },
    {
      "anonymous": false,
      "inputs": [
        {
          "indexed": true,
          "internalType": "uint256",
          "name": "universeId",
          "type": "uint256"
        },
        {
          "indexed": true,
          "internalType": "address",
          "name": "feesCollector",
          "type": "address"
        },
        {
          "indexed": true,
          "internalType": "address",
          "name": "prevFeesCollector",
          "type": "address"
        }
      ],
      "name": "UniverseFeesCollector",
      "type": "event"
    },
    {
      "anonymous": false,
      "inputs": [
        {
          "indexed": true,
          "internalType": "uint256",
          "name": "universeId",
          "type": "uint256"
        },
        {
          "indexed": true,
          "internalType": "address",
          "name": "operator",
          "type": "address"
        },
        {
          "indexed": true,
          "internalType": "address",
          "name": "prevOperator",
          "type": "address"
        }
      ],
      "name": "UniverseOperator",
      "type": "event"
    },
    {
      "anonymous": false,
      "inputs": [
        {
          "indexed": true,
          "internalType": "address",
          "name": "user",
          "type": "address"
        },
        {
          "indexed": false,
          "internalType": "uint256",
          "name": "amount",
          "type": "uint256"
        }
      ],
      "name": "Withdraw",
      "type": "event"
    },
    {
      "inputs": [],
      "name": "EIP712Address",
      "outputs": [
        {
          "internalType": "address",
          "name": "",
          "type": "address"
        }
      ],
      "stateMutability": "view",
      "type": "function",
      "constant": true
    },
    {
      "inputs": [
        {
          "internalType": "bytes32",
          "name": "paymentId",
          "type": "bytes32"
        }
      ],
      "name": "acceptsRefunds",
      "outputs": [
        {
          "internalType": "bool",
          "name": "",
          "type": "bool"
        }
      ],
      "stateMutability": "view",
      "type": "function",
      "constant": true
    },
    {
      "inputs": [
        {
          "components": [
            {
              "internalType": "bytes32",
              "name": "paymentId",
              "type": "bytes32"
            },
            {
              "internalType": "uint256",
              "name": "amount",
              "type": "uint256"
            },
            {
              "internalType": "uint256",
              "name": "feeBPS",
              "type": "uint256"
            },
            {
              "internalType": "uint256",
              "name": "universeId",
              "type": "uint256"
            },
            {
              "internalType": "uint256",
              "name": "deadline",
              "type": "uint256"
            },
            {
              "internalType": "address",
              "name": "buyer",
              "type": "address"
            },
            {
              "internalType": "address",
              "name": "seller",
              "type": "address"
            }
          ],
          "internalType": "struct ISignableStructsBuyNow.BuyNowInput",
          "name": "buyNowInp",
          "type": "tuple"
        }
      ],
      "name": "assertBuyNowInputsOK",
      "outputs": [],
      "stateMutability": "view",
      "type": "function",
      "constant": true
    },
    {
      "inputs": [
        {
          "internalType": "address",
          "name": "addr",
          "type": "address"
        }
      ],
      "name": "balanceOf",
      "outputs": [
        {
          "internalType": "uint256",
          "name": "",
          "type": "uint256"
        }
      ],
      "stateMutability": "view",
      "type": "function",
      "constant": true
    },
    {
      "inputs": [
        {
          "internalType": "uint256",
          "name": "amount",
          "type": "uint256"
        },
        {
          "internalType": "uint256",
          "name": "feeBPS",
          "type": "uint256"
        }
      ],
      "name": "computeFeeAmount",
      "outputs": [
        {
          "internalType": "uint256",
          "name": "",
          "type": "uint256"
        }
      ],
      "stateMutability": "pure",
      "type": "function",
      "constant": true
    },
    {
      "inputs": [],
      "name": "currencyLongDescriptor",
      "outputs": [
        {
          "internalType": "string",
          "name": "",
          "type": "string"
        }
      ],
      "stateMutability": "view",
      "type": "function",
      "constant": true
    },
    {
      "inputs": [],
      "name": "defaultFeesCollector",
      "outputs": [
        {
          "internalType": "address",
          "name": "",
          "type": "address"
        }
      ],
      "stateMutability": "view",
      "type": "function",
      "constant": true
    },
    {
      "inputs": [],
      "name": "defaultOperator",
      "outputs": [
        {
          "internalType": "address",
          "name": "",
          "type": "address"
        }
      ],
      "stateMutability": "view",
      "type": "function",
      "constant": true
    },
    {
      "inputs": [
        {
          "internalType": "address",
          "name": "buyer",
          "type": "address"
        },
        {
          "internalType": "uint256",
          "name": "amount",
          "type": "uint256"
        }
      ],
      "name": "enoughFundsAvailable",
      "outputs": [
        {
          "internalType": "bool",
          "name": "",
          "type": "bool"
        }
      ],
      "stateMutability": "view",
      "type": "function",
      "constant": true
    },
    {
      "inputs": [
        {
          "components": [
            {
              "internalType": "bytes32",
              "name": "paymentId",
              "type": "bytes32"
            },
            {
              "internalType": "bool",
              "name": "wasSuccessful",
              "type": "bool"
            }
          ],
          "internalType": "struct ISignableStructsBuyNow.AssetTransferResult",
          "name": "transferResult",
          "type": "tuple"
        },
        {
          "internalType": "bytes",
          "name": "operatorSignature",
          "type": "bytes"
        }
      ],
      "name": "finalize",
      "outputs": [],
      "stateMutability": "nonpayable",
      "type": "function"
    },
    {
      "inputs": [
        {
          "components": [
            {
              "internalType": "bytes32",
              "name": "paymentId",
              "type": "bytes32"
            },
            {
              "internalType": "bool",
              "name": "wasSuccessful",
              "type": "bool"
            }
          ],
          "internalType": "struct ISignableStructsBuyNow.AssetTransferResult",
          "name": "transferResult",
          "type": "tuple"
        },
        {
          "internalType": "bytes",
          "name": "operatorSignature",
          "type": "bytes"
        }
      ],
      "name": "finalizeAndWithdraw",
      "outputs": [],
      "stateMutability": "nonpayable",
      "type": "function"
    },
    {
      "inputs": [
        {
          "internalType": "address",
          "name": "addr",
          "type": "address"
        }
      ],
      "name": "isRegisteredSeller",
      "outputs": [
        {
          "internalType": "bool",
          "name": "",
          "type": "bool"
        }
      ],
      "stateMutability": "view",
      "type": "function",
      "constant": true
    },
    {
      "inputs": [],
      "name": "isSellerRegistrationRequired",
      "outputs": [
        {
          "internalType": "bool",
          "name": "",
          "type": "bool"
        }
      ],
      "stateMutability": "view",
      "type": "function",
      "constant": true
    },
    {
      "inputs": [],
      "name": "maxFeeBPS",
      "outputs": [
        {
          "internalType": "uint256",
          "name": "",
          "type": "uint256"
        }
      ],
      "stateMutability": "view",
      "type": "function",
      "constant": true
    },
    {
      "inputs": [
        {
          "internalType": "address",
          "name": "buyer",
          "type": "address"
        }
      ],
      "name": "maxFundsAvailable",
      "outputs": [
        {
          "internalType": "uint256",
          "name": "",
          "type": "uint256"
        }
      ],
      "stateMutability": "view",
      "type": "function",
      "constant": true
    },
    {
      "inputs": [
        {
          "internalType": "address",
          "name": "user",
          "type": "address"
        }
      ],
      "name": "onlyUserCanWithdraw",
      "outputs": [
        {
          "internalType": "bool",
          "name": "",
          "type": "bool"
        }
      ],
      "stateMutability": "view",
      "type": "function",
      "constant": true
    },
    {
      "inputs": [],
      "name": "owner",
      "outputs": [
        {
          "internalType": "address",
          "name": "",
          "type": "address"
        }
      ],
      "stateMutability": "view",
      "type": "function",
      "constant": true
    },
    {
      "inputs": [
        {
          "internalType": "bytes32",
          "name": "paymentId",
          "type": "bytes32"
        }
      ],
      "name": "paymentInfo",
      "outputs": [
        {
          "components": [
            {
              "internalType": "enum IBuyNowBase.State",
              "name": "state",
              "type": "uint8"
            },
            {
              "internalType": "address",
              "name": "buyer",
              "type": "address"
            },
            {
              "internalType": "address",
              "name": "seller",
              "type": "address"
            },
            {
              "internalType": "uint256",
              "name": "universeId",
              "type": "uint256"
            },
            {
              "internalType": "address",
              "name": "feesCollector",
              "type": "address"
            },
            {
              "internalType": "uint256",
              "name": "expirationTime",
              "type": "uint256"
            },
            {
              "internalType": "uint256",
              "name": "feeBPS",
              "type": "uint256"
            },
            {
              "internalType": "uint256",
              "name": "amount",
              "type": "uint256"
            }
          ],
          "internalType": "struct IBuyNowBase.Payment",
          "name": "",
          "type": "tuple"
        }
      ],
      "stateMutability": "view",
      "type": "function",
      "constant": true
    },
    {
      "inputs": [
        {
          "internalType": "bytes32",
          "name": "paymentId",
          "type": "bytes32"
        }
      ],
      "name": "paymentState",
      "outputs": [
        {
          "internalType": "enum IBuyNowBase.State",
          "name": "",
          "type": "uint8"
        }
      ],
      "stateMutability": "view",
      "type": "function",
      "constant": true
    },
    {
      "inputs": [],
      "name": "paymentWindow",
      "outputs": [
        {
          "internalType": "uint256",
          "name": "",
          "type": "uint256"
        }
      ],
      "stateMutability": "view",
      "type": "function",
      "constant": true
    },
    {
      "inputs": [
        {
          "internalType": "bytes32",
          "name": "paymentId",
          "type": "bytes32"
        }
      ],
      "name": "refund",
      "outputs": [],
      "stateMutability": "nonpayable",
      "type": "function"
    },
    {
      "inputs": [
        {
          "internalType": "bytes32",
          "name": "paymentId",
          "type": "bytes32"
        }
      ],
      "name": "refundAndWithdraw",
      "outputs": [],
      "stateMutability": "nonpayable",
      "type": "function"
    },
    {
      "inputs": [],
      "name": "registerAsSeller",
      "outputs": [],
      "stateMutability": "nonpayable",
      "type": "function"
    },
    {
      "inputs": [
        {
          "internalType": "address",
          "name": "recipient",
          "type": "address"
        }
      ],
      "name": "relayedWithdraw",
      "outputs": [],
      "stateMutability": "nonpayable",
      "type": "function"
    },
    {
      "inputs": [
        {
          "internalType": "uint256",
          "name": "universeId",
          "type": "uint256"
        }
      ],
      "name": "removeUniverseFeesCollector",
      "outputs": [],
      "stateMutability": "nonpayable",
      "type": "function"
    },
    {
      "inputs": [
        {
          "internalType": "uint256",
          "name": "universeId",
          "type": "uint256"
        }
      ],
      "name": "removeUniverseOperator",
      "outputs": [],
      "stateMutability": "nonpayable",
      "type": "function"
    },
    {
      "inputs": [],
      "name": "renounceOwnership",
      "outputs": [],
      "stateMutability": "nonpayable",
      "type": "function"
    },
    {
      "inputs": [
        {
          "internalType": "address",
          "name": "feesCollector",
          "type": "address"
        }
      ],
      "name": "setDefaultFeesCollector",
      "outputs": [],
      "stateMutability": "nonpayable",
      "type": "function"
    },
    {
      "inputs": [
        {
          "internalType": "address",
          "name": "operator",
          "type": "address"
        }
      ],
      "name": "setDefaultOperator",
      "outputs": [],
      "stateMutability": "nonpayable",
      "type": "function"
    },
    {
      "inputs": [
        {
          "internalType": "address",
          "name": "eip712address",
          "type": "address"
        }
      ],
      "name": "setEIP712",
      "outputs": [],
      "stateMutability": "nonpayable",
      "type": "function"
    },
    {
      "inputs": [
        {
          "internalType": "bool",
          "name": "isRequired",
          "type": "bool"
        }
      ],
      "name": "setIsSellerRegistrationRequired",
      "outputs": [],
      "stateMutability": "nonpayable",
      "type": "function"
    },
    {
      "inputs": [
        {
          "internalType": "uint256",
          "name": "feeBPS",
          "type": "uint256"
        }
      ],
      "name": "setMaxFeeBPS",
      "outputs": [],
      "stateMutability": "nonpayable",
      "type": "function"
    },
    {
      "inputs": [
        {
          "internalType": "bool",
          "name": "onlyUserCan",
          "type": "bool"
        }
      ],
      "name": "setOnlyUserCanWithdraw",
      "outputs": [],
      "stateMutability": "nonpayable",
      "type": "function"
    },
    {
      "inputs": [
        {
          "internalType": "uint256",
          "name": "window",
          "type": "uint256"
        }
      ],
      "name": "setPaymentWindow",
      "outputs": [],
      "stateMutability": "nonpayable",
      "type": "function"
    },
    {
      "inputs": [
        {
          "internalType": "uint256",
          "name": "universeId",
          "type": "uint256"
        },
        {
          "internalType": "address",
          "name": "feesCollector",
          "type": "address"
        }
      ],
      "name": "setUniverseFeesCollector",
      "outputs": [],
      "stateMutability": "nonpayable",
      "type": "function"
    },
    {
      "inputs": [
        {
          "internalType": "uint256",
          "name": "universeId",
          "type": "uint256"
        },
        {
          "internalType": "address",
          "name": "operator",
          "type": "address"
        }
      ],
      "name": "setUniverseOperator",
      "outputs": [],
      "stateMutability": "nonpayable",
      "type": "function"
    },
    {
      "inputs": [
        {
          "internalType": "address",
          "name": "buyer",
          "type": "address"
        },
        {
          "internalType": "uint256",
          "name": "amount",
          "type": "uint256"
        }
      ],
      "name": "splitFundingSources",
      "outputs": [
        {
          "internalType": "uint256",
          "name": "externalFunds",
          "type": "uint256"
        },
        {
          "internalType": "uint256",
          "name": "localFunds",
          "type": "uint256"
        }
      ],
      "stateMutability": "view",
      "type": "function",
      "constant": true
    },
    {
      "inputs": [
        {
          "internalType": "address",
          "name": "newOwner",
          "type": "address"
        }
      ],
      "name": "transferOwnership",
      "outputs": [],
      "stateMutability": "nonpayable",
      "type": "function"
    },
    {
      "inputs": [
        {
          "internalType": "uint256",
          "name": "universeId",
          "type": "uint256"
        }
      ],
      "name": "universeFeesCollector",
      "outputs": [
        {
          "internalType": "address",
          "name": "",
          "type": "address"
        }
      ],
      "stateMutability": "view",
      "type": "function",
      "constant": true
    },
    {
      "inputs": [
        {
          "internalType": "uint256",
          "name": "universeId",
          "type": "uint256"
        }
      ],
      "name": "universeOperator",
      "outputs": [
        {
          "internalType": "address",
          "name": "",
          "type": "address"
        }
      ],
      "stateMutability": "view",
      "type": "function",
      "constant": true
    },
    {
      "inputs": [],
      "name": "withdraw",
      "outputs": [],
      "stateMutability": "nonpayable",
      "type": "function"
    },
    {
      "inputs": [
        {
          "internalType": "uint256",
          "name": "amount",
          "type": "uint256"
        }
      ],
      "name": "withdrawAmount",
      "outputs": [],
      "stateMutability": "nonpayable",
      "type": "function"
    },
    {
      "inputs": [
        {
          "components": [
            {
              "internalType": "bytes32",
              "name": "paymentId",
              "type": "bytes32"
            },
            {
              "internalType": "uint256",
              "name": "amount",
              "type": "uint256"
            },
            {
              "internalType": "uint256",
              "name": "feeBPS",
              "type": "uint256"
            },
            {
              "internalType": "uint256",
              "name": "universeId",
              "type": "uint256"
            },
            {
              "internalType": "uint256",
              "name": "deadline",
              "type": "uint256"
            },
            {
              "internalType": "address",
              "name": "buyer",
              "type": "address"
            },
            {
              "internalType": "address",
              "name": "seller",
              "type": "address"
            }
          ],
          "internalType": "struct ISignableStructsBuyNow.BuyNowInput",
          "name": "buyNowInp",
          "type": "tuple"
        },
        {
          "internalType": "bytes",
          "name": "operatorSignature",
          "type": "bytes"
        },
        {
          "internalType": "bytes",
          "name": "sellerSignature",
          "type": "bytes"
        }
      ],
      "name": "buyNow",
      "outputs": [],
      "stateMutability": "payable",
      "type": "function",
      "payable": true
    },
    {
      "inputs": [
        {
          "internalType": "address",
          "name": "buyer",
          "type": "address"
        }
      ],
      "name": "externalBalance",
      "outputs": [
        {
          "internalType": "uint256",
          "name": "",
          "type": "uint256"
        }
      ],
      "stateMutability": "view",
      "type": "function",
      "constant": true
    }
  ],
  "bytecode": "0x60806040523480156200001157600080fd5b50604051620035ba380380620035ba8339810160408190526200003491620005f4565b81816200004133620000a7565b6200004c33620000f7565b6200005733620001a3565b62000062816200024b565b8151620000779060069060208501906200051b565b506200008662278d00620002ff565b6009805460ff191690556200009d610bb862000414565b5050505062000721565b600080546001600160a01b038381166001600160a01b0319831681178455604051919092169283917f8be0079c531659141344cd1fd0a4f28419497f9722a3daafe3b4186f6b6457e09190a35050565b6000546001600160a01b03163314620001465760405162461bcd60e51b815260206004820181905260248201526000805160206200359a83398151915260448201526064015b60405180910390fd5b6001546040516001600160a01b03918216918316907f02407f37826392395d65290844ab9cb626d81f6d29a96488b8b0e026799c655390600090a3600180546001600160a01b0319166001600160a01b0392909216919091179055565b6000546001600160a01b03163314620001ee5760405162461bcd60e51b815260206004820181905260248201526000805160206200359a83398151915260448201526064016200013d565b6003546040516001600160a01b03918216918316907f56b7cb7972f241bf26392fbb91bdf53850effe3e2e71470734faa90738a308c190600090a3600380546001600160a01b0319166001600160a01b0392909216919091179055565b6000546001600160a01b03163314620002965760405162461bcd60e51b815260206004820181905260248201526000805160206200359a83398151915260448201526064016200013d565b600554604080516001600160a01b03808516825290921660208301527f782007d1cd220d6d13b9a6a456aa0fada6ccc2d71224c5161cb182dc101f27dc910160405180910390a1600580546001600160a01b0319166001600160a01b0392909216919091179055565b6000546001600160a01b031633146200034a5760405162461bcd60e51b815260206004820181905260248201526000805160206200359a83398151915260448201526064016200013d565b624f1a00811080156200035e5750612a3081115b620003d25760405162461bcd60e51b815260206004820152603b60248201527f4275794e6f77426173653a3a7365745061796d656e7457696e646f773a20706160448201527f796d656e742077696e646f77206f757473696465206c696d697473000000000060648201526084016200013d565b6007546040805183815260208101929092527f02bc3287a6c82198e0df558cd07f05d621d3f98e7699a73b1bb47b27be9f3f10910160405180910390a1600755565b6000546001600160a01b031633146200045f5760405162461bcd60e51b815260206004820181905260248201526000805160206200359a83398151915260448201526064016200013d565b612710811115801562000470575060015b620004d95760405162461bcd60e51b815260206004820152603260248201527f4275794e6f77426173653a3a7365744d61784665654250533a206d6178466565604482015271425053206f757473696465206c696d69747360701b60648201526084016200013d565b6008546040805183815260208101929092527fc9b0a97bc468375768465e70b019fd0176be7465dea2ac6891dee37703fa2f7f910160405180910390a1600855565b8280546200052990620006e5565b90600052602060002090601f0160209004810192826200054d576000855562000598565b82601f106200056857805160ff191683800117855562000598565b8280016001018555821562000598579182015b82811115620005985782518255916020019190600101906200057b565b50620005a6929150620005aa565b5090565b5b80821115620005a65760008155600101620005ab565b634e487b7160e01b600052604160045260246000fd5b80516001600160a01b0381168114620005ef57600080fd5b919050565b600080604083850312156200060857600080fd5b82516001600160401b03808211156200062057600080fd5b818501915085601f8301126200063557600080fd5b8151818111156200064a576200064a620005c1565b604051601f8201601f19908116603f01168101908382118183101715620006755762000675620005c1565b816040528281526020935088848487010111156200069257600080fd5b600091505b82821015620006b6578482018401518183018501529083019062000697565b82821115620006c85760008484830101525b9550620006da915050858201620005d7565b925050509250929050565b600181811c90821680620006fa57607f821691505b6020821081036200071b57634e487b7160e01b600052602260045260246000fd5b50919050565b612e6980620007316000396000f3fe6080604052600436106102675760003560e01c80637249fbb611610144578063a1bc474d116100b6578063dca721001161007a578063dca7210014610797578063dd115ab2146107b7578063dfe5036a146107e4578063f2cc55ee14610804578063f2fde38b14610822578063fd5773431461084257600080fd5b8063a1bc474d14610702578063b2685a3e14610722578063b708fe3714610742578063c67eb9e514610762578063cab55d561461078257600080fd5b806385a2910d1161010857806385a2910d146106425780638da5cb5b1461066257806393afc7d71461068057806396aa71b0146106a2578063982ed326146106c25780639cfd495c146106e257600080fd5b80637249fbb61461058b57806378e96fb5146105ab5780637ac83f9b146105e45780637b018ab91461060457806380ca11fc1461062457600080fd5b806331784b6d116101dd5780634bfc75fc116101a15780634bfc75fc146104b95780635360d383146104eb578063546c37b21461050b57806370a082311461052b57806370fe99c514610561578063715018a61461057657600080fd5b806331784b6d146103ff578063317cb0181461041f57806334b778ed146104545780633ccfd60b1461049157806342d20b25146104a657600080fd5b80631a29b6ab1161022f5780631a29b6ab146103315780631e55796614610351578063221a832e14610387578063244aa5d71461039f5780632593308b146103bf5780632af41be4146103df57600080fd5b80630562b9f71461026c57806306968bd91461028e5780630c17ce12146102ae5780630fb5200d146102fc578063128b85321461031c575b600080fd5b34801561027857600080fd5b5061028c610287366004612876565b610862565b005b34801561029a57600080fd5b5061028c6102a9366004612876565b61086f565b3480156102ba57600080fd5b506102e76102c93660046128ab565b6001600160a01b03166000908152600b602052604090205460ff1690565b60405190151581526020015b60405180910390f35b34801561030857600080fd5b5061028c6103173660046128de565b61090b565b34801561032857600080fd5b5061028c610b83565b34801561033d57600080fd5b5061028c61034c366004612908565b610c4b565b34801561035d57600080fd5b5061037961036c3660046128ab565b6001600160a01b03163190565b6040519081526020016102f3565b34801561039357600080fd5b5060095460ff166102e7565b3480156103ab57600080fd5b506102e76103ba366004612876565b610c88565b3480156103cb57600080fd5b5061028c6103da366004612876565b610cd2565b3480156103eb57600080fd5b506103796103fa366004612925565b610ddb565b34801561040b57600080fd5b5061028c61041a366004612876565b610e0f565b34801561042b57600080fd5b5061043f61043a366004612947565b610ea2565b604080519283526020830191909152016102f3565b34801561046057600080fd5b5061048461046f366004612876565b6000908152600c602052604090205460ff1690565b6040516102f391906129a9565b34801561049d57600080fd5b5061028c610ef0565b61028c6104b4366004612a00565b610efa565b3480156104c557600080fd5b506005546001600160a01b03165b6040516001600160a01b0390911681526020016102f3565b3480156104f757600080fd5b5061028c610506366004612908565b61111a565b34801561051757600080fd5b5061028c610526366004612876565b611194565b34801561053757600080fd5b506103796105463660046128ab565b6001600160a01b03166000908152600d602052604090205490565b34801561056d57600080fd5b50600854610379565b34801561058257600080fd5b5061028c611277565b34801561059757600080fd5b5061028c6105a6366004612876565b6112ab565b3480156105b757600080fd5b506102e76105c63660046128ab565b6001600160a01b03166000908152600a602052604090205460ff1690565b3480156105f057600080fd5b5061028c6105ff366004612a84565b6112b4565b34801561061057600080fd5b506104d361061f366004612876565b611355565b34801561063057600080fd5b506003546001600160a01b03166104d3565b34801561064e57600080fd5b5061028c61065d366004612a84565b61138d565b34801561066e57600080fd5b506000546001600160a01b03166104d3565b34801561068c57600080fd5b5061069561142e565b6040516102f39190612ab0565b3480156106ae57600080fd5b5061028c6106bd366004612b05565b6114c0565b3480156106ce57600080fd5b5061028c6106dd366004612876565b6114d0565b3480156106ee57600080fd5b506102e76106fd366004612947565b6115c1565b34801561070e57600080fd5b5061028c61071d366004612b05565b6115d6565b34801561072e57600080fd5b5061028c61073d3660046128ab565b61172b565b34801561074e57600080fd5b5061028c61075d3660046128ab565b6117b2565b34801561076e57600080fd5b5061037961077d3660046128ab565b611845565b34801561078e57600080fd5b50600754610379565b3480156107a357600080fd5b506104d36107b2366004612876565b61186c565b3480156107c357600080fd5b506107d76107d2366004612876565b6118a3565b6040516102f39190612b60565b3480156107f057600080fd5b5061028c6107ff3660046128ab565b611987565b34801561081057600080fd5b506001546001600160a01b03166104d3565b34801561082e57600080fd5b5061028c61083d3660046128ab565b611a6c565b34801561084e57600080fd5b5061028c61085d3660046128ab565b611b04565b61086c3382611b8b565b50565b6000546001600160a01b031633146108a25760405162461bcd60e51b815260040161089990612bd0565b60405180910390fd5b6000818152600460205260408082205460035491516001600160a01b0391821693919092169184917fef8049adbd98b87df2745e88afda4caf2fabecb028b034cfb7e3960732046d6791a4600090815260046020526040902080546001600160a01b0319169055565b60008160200135116109735760405162461bcd60e51b815260206004820152603f6024820152600080516020612e1483398151915260448201527f3a207061796d656e7420616d6f756e742063616e6e6f74206265207a65726f006064820152608401610899565b600854816040013511156109eb5760405162461bcd60e51b81526020600482015260456024820152600080516020612e1483398151915260448201527f3a206665652063616e6e6f74206265206c6172676572207468616e206d617846606482015264656542505360d81b608482015260a401610899565b80356000908152600c602052604081205460ff166004811115610a1057610a10612971565b14610a7f5760405162461bcd60e51b815260206004820152604460248201819052600080516020612e14833981519152908201527f3a207061796d656e7420696e20696e636f72726563742063757272656e7420736064820152637461746560e01b608482015260a401610899565b8060800135421115610ae75760405162461bcd60e51b815260206004820152603a6024820152600080516020612e1483398151915260448201527f3a207061796d656e7420646561646c696e6520657870697265640000000000006064820152608401610899565b60095460ff161561086c57600a6000610b0660e0840160c085016128ab565b6001600160a01b0316815260208101919091526040016000205460ff1661086c5760405162461bcd60e51b81526020600482015260376024820152600080516020612e1483398151915260448201527f3a2073656c6c6572206e6f7420726567697374657265640000000000000000006064820152608401610899565b336000908152600a602052604090205460ff1615610c095760405162461bcd60e51b815260206004820152603760248201527f4275794e6f77426173653a3a7265676973746572417353656c6c65723a20736560448201527f6c6c657220616c726561647920726567697374657265640000000000000000006064820152608401610899565b336000818152600a6020526040808220805460ff19166001179055517f258a7a0df6106f41c2e99c09f1b64931f5f284242bbc50272d5a752ac2f30dde9190a2565b6000546001600160a01b03163314610c755760405162461bcd60e51b815260040161089990612bd0565b6009805460ff1916911515919091179055565b600060016000838152600c602052604090205460ff166004811115610caf57610caf612971565b148015610ccc57506000828152600c602052604090206004015442115b92915050565b6000818152600c602090815260408083205461010090046001600160a01b0316808452600b9092529091205460ff1615610daa57336001600160a01b03821614610daa5760405162461bcd60e51b815260206004820152605860248201527f4275794e6f77426173653a3a726566756e64416e6457697468647261773a207460448201527f782073656e646572206e6f7420617574686f72697a656420746f20776974686460648201527f726177206f6e20726563697069656e747320626568616c660000000000000000608482015260a401610899565b610db382611d1a565b6001600160a01b0381166000908152600d6020526040902054610dd7908290611b8b565b5050565b600080612710610deb8486612c1b565b610df59190612c3a565b905083811115610e055783610e07565b805b949350505050565b6000546001600160a01b03163314610e395760405162461bcd60e51b815260040161089990612bd0565b6000818152600260205260408082205460015491516001600160a01b0391821693919092169184917f073008359b663a96cfea0f77b681c3f1359e41e6fdba9ff591285134f6985fb691a4600090815260026020526040902080546001600160a01b0319169055565b6001600160a01b0382166000908152600d60205260408120548190808411610eca5783610ecc565b805b9150808411610edc576000610ee6565b610ee68185612c5c565b9250509250929050565b610ef8611da9565b565b610f0a60c0860160a087016128ab565b6001600160a01b0316336001600160a01b031614610f905760405162461bcd60e51b815260206004820152603a60248201527f4275794e6f774e61746976653a3a6275794e6f773a206f6e6c7920627579657260448201527f2063616e206578656375746520746869732066756e6374696f6e0000000000006064820152608401610899565b6000610f9f8660600135611355565b600554604051634c391a0b60e01b81529192506001600160a01b031690634c391a0b90610fd6908990899089908790600401612cfd565b602060405180830381865afa158015610ff3573d6000803e3d6000fd5b505050506040513d601f19601f820116820180604052508101906110179190612d3a565b61107e5760405162461bcd60e51b815260206004820152603260248201527f4275794e6f774e61746976653a3a6275794e6f773a20696e636f7272656374206044820152716f70657261746f72207369676e617475726560701b6064820152608401610899565b85602001353411156111065760405162461bcd60e51b815260206004820152604560248201527f4275794e6f774e61746976653a3a6275794e6f773a206e65772066756e64732060448201527f70726f7669646564206d757374206265206c657373207468616e2062696420616064820152641b5bdd5b9d60da1b608482015260a401610899565b61111286828585611dc3565b505050505050565b336000818152600b6020526040908190205490517fa0d05fa2c258532b18e5817b7cbd1d23eaf34006d7d46207f596a201ad710a2b9161116c91859160ff169091151582521515602082015260400190565b60405180910390a2336000908152600b60205260409020805460ff1916911515919091179055565b6000546001600160a01b031633146111be5760405162461bcd60e51b815260040161089990612bd0565b61271081111580156111ce575060015b6112355760405162461bcd60e51b815260206004820152603260248201527f4275794e6f77426173653a3a7365744d61784665654250533a206d6178466565604482015271425053206f757473696465206c696d69747360701b6064820152608401610899565b6008546040805183815260208101929092527fc9b0a97bc468375768465e70b019fd0176be7465dea2ac6891dee37703fa2f7f910160405180910390a1600855565b6000546001600160a01b031633146112a15760405162461bcd60e51b815260040161089990612bd0565b610ef860006120d2565b61086c81611d1a565b6000546001600160a01b031633146112de5760405162461bcd60e51b815260040161089990612bd0565b6112e782611355565b6001600160a01b0316816001600160a01b0316837fef8049adbd98b87df2745e88afda4caf2fabecb028b034cfb7e3960732046d6760405160405180910390a460009182526004602052604090912080546001600160a01b0319166001600160a01b03909216919091179055565b6000818152600460205260408120546001600160a01b031680156113795780611386565b6003546001600160a01b03165b9392505050565b6000546001600160a01b031633146113b75760405162461bcd60e51b815260040161089990612bd0565b6113c08261186c565b6001600160a01b0316816001600160a01b0316837f073008359b663a96cfea0f77b681c3f1359e41e6fdba9ff591285134f6985fb660405160405180910390a460009182526002602052604090912080546001600160a01b0319166001600160a01b03909216919091179055565b60606006805461143d90612d57565b80601f016020809104026020016040519081016040528092919081815260200182805461146990612d57565b80156114b65780601f1061148b576101008083540402835291602001916114b6565b820191906000526020600020905b81548152906001019060200180831161149957829003601f168201915b5050505050905090565b6114cb838383612122565b505050565b6000546001600160a01b031633146114fa5760405162461bcd60e51b815260040161089990612bd0565b624f1a008110801561150d5750612a3081115b61157f5760405162461bcd60e51b815260206004820152603b60248201527f4275794e6f77426173653a3a7365745061796d656e7457696e646f773a20706160448201527f796d656e742077696e646f77206f757473696465206c696d69747300000000006064820152608401610899565b6007546040805183815260208101929092527f02bc3287a6c82198e0df558cd07f05d621d3f98e7699a73b1bb47b27be9f3f10910160405180910390a1600755565b6000816115cd84611845565b10159392505050565b60006115e86040850160208601612908565b6116105783356000908152600c602052604090205461010090046001600160a01b031661162e565b83356000908152600c60205260409020600101546001600160a01b03165b6001600160a01b0381166000908152600b602052604090205490915060ff16156116f657336001600160a01b038216146116f65760405162461bcd60e51b815260206004820152605a60248201527f4275794e6f77426173653a3a66696e616c697a65416e6457697468647261773a60448201527f2074782073656e646572206e6f7420617574686f72697a656420746f2077697460648201527f6864726177206f6e20726563697069656e747320626568616c66000000000000608482015260a401610899565b611701848484612122565b6001600160a01b0381166000908152600d6020526040902054611725908290611b8b565b50505050565b6000546001600160a01b031633146117555760405162461bcd60e51b815260040161089990612bd0565b6001546040516001600160a01b03918216918316907f02407f37826392395d65290844ab9cb626d81f6d29a96488b8b0e026799c655390600090a3600180546001600160a01b0319166001600160a01b0392909216919091179055565b6000546001600160a01b031633146117dc5760405162461bcd60e51b815260040161089990612bd0565b600554604080516001600160a01b03808516825290921660208301527f782007d1cd220d6d13b9a6a456aa0fada6ccc2d71224c5161cb182dc101f27dc910160405180910390a1600580546001600160a01b0319166001600160a01b0392909216919091179055565b6001600160a01b0381166000818152600d60205260408120549091610ccc91903190612d8b565b6000818152600260205260408120546001600160a01b031680156118905780611386565b6001546001600160a01b03169392505050565b6040805161010081018252600080825260208201819052918101829052606081018290526080810182905260a0810182905260c0810182905260e08101919091526000828152600c602052604090819020815161010081019092528054829060ff16600481111561191657611916612971565b600481111561192757611927612971565b815281546001600160a01b0361010090910481166020830152600183015481166040830152600283015460608301526003830154166080820152600482015460a0820152600582015460c082015260069091015460e09091015292915050565b6001600160a01b0381166000908152600b602052604090205460ff1615806119b75750336001600160a01b038216145b611a485760405162461bcd60e51b815260206004820152605660248201527f4275794e6f77426173653a3a72656c6179656457697468647261773a2074782060448201527f73656e646572206e6f7420617574686f72697a656420746f20776974686472616064820152753b9037b7103932b1b4b834b2b73a39903132b430b63360511b608482015260a401610899565b6001600160a01b0381166000908152600d602052604090205461086c908290611b8b565b6000546001600160a01b03163314611a965760405162461bcd60e51b815260040161089990612bd0565b6001600160a01b038116611afb5760405162461bcd60e51b815260206004820152602660248201527f4f776e61626c653a206e6577206f776e657220697320746865207a65726f206160448201526564647265737360d01b6064820152608401610899565b61086c816120d2565b6000546001600160a01b03163314611b2e5760405162461bcd60e51b815260040161089990612bd0565b6003546040516001600160a01b03918216918316907f56b7cb7972f241bf26392fbb91bdf53850effe3e2e71470734faa90738a308c190600090a3600380546001600160a01b0319166001600160a01b0392909216919091179055565b6001600160a01b0382166000908152600d602052604090205481811015611c2f5760405162461bcd60e51b815260206004820152604c60248201527f4275794e6f77426173653a3a5f7769746864726177416d6f756e743a206e6f7460448201527f20656e6f7567682062616c616e636520746f207769746864726177207370656360648201526b1a599a595908185b5bdd5b9d60a21b608482015260a401610899565b60008211611ca55760405162461bcd60e51b815260206004820152603860248201527f4275794e6f77426173653a3a5f7769746864726177416d6f756e743a2063616e60448201527f6e6f74207769746864726177207a65726f20616d6f756e7400000000000000006064820152608401610899565b611caf8282612c5c565b6001600160a01b0384166000908152600d6020526040902055611cd283836123aa565b826001600160a01b03167f884edad9ce6fa2440d8a54cc123490eb96d2768479d49ff9c7366125a942436483604051611d0d91815260200190565b60405180910390a2505050565b611d2381610c88565b611da05760405162461bcd60e51b815260206004820152604260248201527f4275794e6f77426173653a3a5f726566756e643a207061796d656e7420646f6560448201527f73206e6f742061636365707420726566756e6473206174207468697320737461606482015261676560f01b608482015260a401610899565b61086c81612486565b336000818152600d6020526040902054610ef89190611b8b565b6005546040516307c1851560e21b81526001600160a01b0390911690631f06145490611df790859085908990600401612da3565b602060405180830381865afa158015611e14573d6000803e3d6000fd5b505050506040513d601f19601f82011682018060405250810190611e389190612d3a565b611ea35760405162461bcd60e51b815260206004820152603660248201527f4275794e6f77426173653a3a5f70726f636573734275794e6f773a20696e636f60448201527572726563742073656c6c6572207369676e617475726560501b6064820152608401610899565b611eac8461090b565b611ed583611ec060c0870160a088016128ab565b611ed060e0880160c089016128ab565b612567565b600080611ef5611eeb60c0880160a089016128ab565b8760200135610ea2565b9092509050611f14611f0d60c0880160a089016128ab565b838361269e565b6040805161010081019091528060018152602001611f3860c0890160a08a016128ab565b6001600160a01b03168152602001611f5660e0890160c08a016128ab565b6001600160a01b0316815260200187606001358152602001611f7b886060013561186c565b6001600160a01b0316815260200160075442611f979190612d8b565b8152604080890135602080840191909152898101359282019290925288356000908152600c909252902081518154829060ff19166001836004811115611fdf57611fdf612971565b0217905550602082015181546001600160a01b0391821661010002610100600160a81b031990911617825560408301516001830180549183166001600160a01b031992831617905560608401516002840155608084015160038401805491909316911617905560a0820151600482015560c080830151600583015560e0928301516006909201919091556120779188019088016128ab565b6001600160a01b031661209060c0880160a089016128ab565b6001600160a01b031687600001357f01f033a8d8e835b47bc2e15eb7d7ae54012c152cabaefb21a8f9d2ed1891832c60405160405180910390a4505050505050565b600080546001600160a01b038381166001600160a01b0319831681178455604051919092169283917f8be0079c531659141344cd1fd0a4f28419497f9722a3daafe3b4186f6b6457e09190a35050565b82356000908152600c6020526040808220815161010081019092528054829060ff16600481111561215557612155612971565b600481111561216657612166612971565b815281546001600160a01b0361010090910481166020830152600180840154821660408401526002840154606084015260038401549091166080830152600483015460a0830152600583015460c083015260069092015460e09091015290915084356000908152600c602052604090205460ff1660048111156121eb576121eb612971565b1461226f5760405162461bcd60e51b815260206004820152604860248201527f4275794e6f77426173653a3a5f66696e616c697a653a207061796d656e74206e60448201527f6f7420696e697469616c6c7920696e206173736574207472616e7366657272696064820152676e6720737461746560c01b608482015260a401610899565b60055460608201516001600160a01b0390911690638073e7819086908690869061229890611355565b6040518563ffffffff1660e01b81526004016122b79493929190612dc8565b602060405180830381865afa1580156122d4573d6000803e3d6000fd5b505050506040513d601f19601f820116820180604052508101906122f89190612d3a565b61237b5760405162461bcd60e51b815260206004820152604860248201527f4275794e6f77426173653a3a5f66696e616c697a653a206f6e6c79207468652060448201527f6f70657261746f722063616e207369676e20616e2061737365745472616e7366606482015267195c94995cdd5b1d60c21b608482015260a401610899565b61238b6040850160208601612908565b156123a05761239b8435826127a5565b611725565b6117258435611da0565b6000826001600160a01b03168260405160006040518083038185875af1925050503d80600081146123f7576040519150601f19603f3d011682016040523d82523d6000602084013e6123fc565b606091505b50509050806114cb5760405162461bcd60e51b815260206004820152604a60248201527f4275794e6f774e61746976653a3a5f7472616e736665723a20756e61626c652060448201527f746f2073656e642076616c75652c20726563697069656e74206d61792068617660648201526919481c995d995c9d195960b21b608482015260a401610899565b6000818152600c60209081526040808320805460ff19166002908117808355835161010080820186528382526001600160a01b0392048216818701819052600185015483168287015292840154606082015260038401549091166080820152600483015460a0820152600583015460c082015260069092015460e08301819052908552600d909352908320805491939091612522908490612d8b565b909155505060208101516040516001600160a01b039091169083907f5ff61db57638246b4e385e22ef7613d9bb0c21cc207e863676e3c7a49e39a17f90600090a35050565b816001600160a01b0316836001600160a01b03161415801561259b5750806001600160a01b0316836001600160a01b031614155b61260d5760405162461bcd60e51b815260206004820152603d60248201527f4275794e6f77426173653a3a6173736572745365706172617465526f6c65733a60448201527f206f70657261746f72206d75737420626520616e206f627365727665720000006064820152608401610899565b806001600160a01b0316826001600160a01b0316036114cb5760405162461bcd60e51b815260206004820152604160248201527f4275794e6f77426173653a3a6173736572745365706172617465526f6c65733a60448201527f20627579657220616e642073656c6c65722063616e6e6f7420636f696e6369646064820152606560f81b608482015260a401610899565b813410156127485760405162461bcd60e51b8152602060048201526064602482018190527f4275794e6f774e61746976653a3a5f757064617465427579657242616c616e6360448301527f654f6e5061796d656e7452656365697665643a206e65772066756e6473207072908201527f6f766964656420617265206e6f742077697468696e2072657175697265642072608482015263616e676560e01b60a482015260c401610899565b6001600160a01b0383166000908152600d602052604090205481908390612770903490612d8b565b61277a9190612c5c565b6127849190612c5c565b6001600160a01b039093166000908152600d60205260409020929092555050565b6000828152600c60205260408120805460ff1916600317905560e082015160c08301516127d29190610ddb565b9050808260e001516127e49190612c5c565b6040808401516001600160a01b03166000908152600d6020529081208054909190612810908490612d8b565b909155505060808201516001600160a01b03166000908152600d602052604081208054839290612841908490612d8b565b909155505060405183907fe72fd4f49ae148a0d79f0e71ec9cae30076dbfde7b66f70cafd11416eae8dc6290600090a2505050565b60006020828403121561288857600080fd5b5035919050565b80356001600160a01b03811681146128a657600080fd5b919050565b6000602082840312156128bd57600080fd5b6113868261288f565b600060e082840312156128d857600080fd5b50919050565b600060e082840312156128f057600080fd5b61138683836128c6565b801515811461086c57600080fd5b60006020828403121561291a57600080fd5b8135610e05816128fa565b6000806040838503121561293857600080fd5b50508035926020909101359150565b6000806040838503121561295a57600080fd5b6129638361288f565b946020939093013593505050565b634e487b7160e01b600052602160045260246000fd5b600581106129a557634e487b7160e01b600052602160045260246000fd5b9052565b60208101610ccc8284612987565b60008083601f8401126129c957600080fd5b50813567ffffffffffffffff8111156129e157600080fd5b6020830191508360208285010111156129f957600080fd5b9250929050565b60008060008060006101208688031215612a1957600080fd5b612a2387876128c6565b945060e086013567ffffffffffffffff80821115612a4057600080fd5b612a4c89838a016129b7565b9096509450610100880135915080821115612a6657600080fd5b50612a73888289016129b7565b969995985093965092949392505050565b60008060408385031215612a9757600080fd5b82359150612aa76020840161288f565b90509250929050565b600060208083528351808285015260005b81811015612add57858101830151858201604001528201612ac1565b81811115612aef576000604083870101525b50601f01601f1916929092016040019392505050565b60008060008385036060811215612b1b57600080fd5b6040811215612b2957600080fd5b50839250604084013567ffffffffffffffff811115612b4757600080fd5b612b53868287016129b7565b9497909650939450505050565b600061010082019050612b74828451612987565b602083015160018060a01b03808216602085015280604086015116604085015260608501516060850152806080860151166080850152505060a083015160a083015260c083015160c083015260e083015160e083015292915050565b6020808252818101527f4f776e61626c653a2063616c6c6572206973206e6f7420746865206f776e6572604082015260600190565b634e487b7160e01b600052601160045260246000fd5b6000816000190483118215151615612c3557612c35612c05565b500290565b600082612c5757634e487b7160e01b600052601260045260246000fd5b500490565b600082821015612c6e57612c6e612c05565b500390565b8035825260208101356020830152604081013560408301526060810135606083015260808101356080830152612cab60a0820161288f565b6001600160a01b0381811660a085015280612cc860c0850161288f565b1660c085015250505050565b81835281816020850137506000828201602090810191909152601f909101601f19169091010190565b6000610120612d0c8388612c73565b8060e0840152612d1f8184018688612cd4565b91505060018060a01b03831661010083015295945050505050565b600060208284031215612d4c57600080fd5b8151610e05816128fa565b600181811c90821680612d6b57607f821691505b6020821081036128d857634e487b7160e01b600052602260045260246000fd5b60008219821115612d9e57612d9e612c05565b500190565b6000610100808352612db88184018688612cd4565b915050610e076020830184612c73565b8435815260006020860135612ddc816128fa565b80151560208401525060806040830152612dfa608083018587612cd4565b905060018060a01b03831660608301529594505050505056fe4275794e6f77426173653a3a6173736572744275794e6f77496e707574734f4ba264697066735822122037969a2722fbda430a2c56b871992f63a274ba9185602a8ca3c36ca10f57c17b64736f6c634300080e00334f776e61626c653a2063616c6c6572206973206e6f7420746865206f776e6572",
  "immutableReferences": {},
  "source": "// SPDX-License-Identifier: MIT\npragma solidity =0.8.14;\n\nimport \"./IBuyNowNative.sol\";\nimport \"./base/BuyNowBase.sol\";\n\n/**\n * @title Escrow Contract for Payments in BuyNow mode, in Native Cryptocurrency.\n * @author Freeverse.io, www.freeverse.io\n * @notice Full contract documentation in IBuyNowNative\n */\n\ncontract BuyNowNative is IBuyNowNative, BuyNowBase {\n\n    constructor(string memory currencyDescriptor, address eip712) BuyNowBase(currencyDescriptor, eip712) {}\n\n    /// @inheritdoc IBuyNowNative\n    function buyNow(\n        BuyNowInput calldata buyNowInp,\n        bytes calldata operatorSignature,\n        bytes calldata sellerSignature\n    ) external payable {\n        require(\n            msg.sender == buyNowInp.buyer,\n            \"BuyNowNative::buyNow: only buyer can execute this function\"\n        );\n        address operator = universeOperator(buyNowInp.universeId);\n        require(\n            IEIP712VerifierBuyNow(_eip712).verifyBuyNow(buyNowInp, operatorSignature, operator),\n            \"BuyNowNative::buyNow: incorrect operator signature\"\n        );\n        // The following requirement avoids possible mistakes in building the TX's msg.value.\n        // While the funds provided can be less than the asset price (in case of buyer having local balance),\n        // there is no reason for providing more funds than the asset price.\n        require(\n            (msg.value <= buyNowInp.amount),\n            \"BuyNowNative::buyNow: new funds provided must be less than bid amount\"\n        );\n        _processBuyNow(buyNowInp, operator, sellerSignature);\n    }\n\n    // PRIVATE & INTERNAL FUNCTIONS\n\n    /**\n     * @dev Updates buyer's local balance, re-using it if possible, and adding excess of provided funds, if any.\n     *  It is difficult to predict the exact msg.value required at the moment of submitting a payment,\n     *  because localFunds may have just increased due to an asynchronously finished sale by the buyer.\n     *  Any possible excess of provided funds is moved to buyer's local balance.\n     * @param buyer The address executing the payment\n     * @param newFundsNeeded The elsewhere computed minimum amount of funds required to be provided by the buyer,\n     *  having possible re-use of local funds into account\n     * @param localFunds The elsewhere computed amount of funds available to the buyer in this contract that will be\n     *  re-used in the payment\n     */\n    function _updateBuyerBalanceOnPaymentReceived(\n        address buyer,\n        uint256 newFundsNeeded,\n        uint256 localFunds\n    ) internal override {\n        require(\n            (msg.value >= newFundsNeeded),\n            \"BuyNowNative::_updateBuyerBalanceOnPaymentReceived: new funds provided are not within required range\"\n        );\n        // The next operation can never underflow due to the previous constraint,\n        // and to the fact that splitFundingSources guarantees that _balanceOf[buyer] >= localFunds\n        _balanceOf[buyer] = (_balanceOf[buyer] + msg.value) - newFundsNeeded - localFunds;\n    }\n\n    /**\n     * @dev Transfers the specified amount to the specified address.\n     *  Requirements and effects (e.g. balance updates) are performed\n     *  before calling this function.\n     * @param to The address that must receive the funds.\n     * @param amount The amount to transfer.\n    */\n    function _transfer(address to, uint256 amount) internal override {\n        (bool success, ) = to.call{value: amount}(\"\");\n        require(success, \"BuyNowNative::_transfer: unable to send value, recipient may have reverted\");\n    }\n\n    // VIEW FUNCTIONS\n\n    /**\n     * @notice Returns the amount available to a buyer outside this contract\n     * @param buyer The address for which funds are queried\n     * @return the external funds available\n     */\n    function externalBalance(address buyer) public view override returns (uint256) {\n        return buyer.balance;\n    }\n}\n",
  "sourcePath": "/Users/toni/gits/crypto-payments/contracts/buyNow/BuyNowNative.sol",
  "compiler": {
    "name": "solc",
    "version": "0.8.14+commit.80d49f37.Emscripten.clang"
  },
  "schemaVersion": "3.4.7",
  "updatedAt": "2022-09-12T09:25:09.175Z",
  "networkType": "ethereum",
  "devdoc": {
    "author": "Freeverse.io, www.freeverse.io",
    "kind": "dev",
    "methods": {
      "EIP712Address()": {
        "returns": {
          "_0": "the address of the EIP712 verifier contract"
        }
      },
      "acceptsRefunds(bytes32)": {
        "details": "The payment must be in ASSET_TRANSFERRING and beyond expirationTime.",
        "params": {
          "paymentId": "The unique ID that identifies the payment."
        },
        "returns": {
          "_0": "true if the payment accepts a refund to the buyer."
        }
      },
      "assertBuyNowInputsOK((bytes32,uint256,uint256,uint256,uint256,address,address))": {
        "params": {
          "buyNowInp": "The BuyNowInput struct"
        }
      },
      "balanceOf(address)": {
        "params": {
          "addr": "the address that is queried"
        },
        "returns": {
          "_0": "the local balance"
        }
      },
      "buyNow((bytes32,uint256,uint256,uint256,uint256,address,address),bytes,bytes)": {
        "details": "Executed by the buyer, who relays the MetaTX with the operator's signature.  The buyer must provide the correct amount via msg.value.  If all requirements are fulfilled, it stores the data relevant  for the next steps of the payment, and it locks the funds  in this contract.  Follows standard Checks-Effects-Interactions pattern  to protect against re-entrancy attacks.  Moves payment to ASSET_TRANSFERRING state.",
        "params": {
          "buyNowInp": "The struct containing all required payment data",
          "operatorSignature": "The signature of 'buyNowInp' by the operator",
          "sellerSignature": "the signature of the seller agreeing to list the asset"
        }
      },
      "computeFeeAmount(uint256,uint256)": {
        "details": "Must return a value that is guaranteed to be less or equal to the provided amount",
        "params": {
          "amount": "The amount",
          "feeBPS": "The percentage fee expressed in Basis Points (bps).  feeBPS examples:  2.5% = 250 bps, 10% = 1000 bps, 100% = 10000 bps"
        },
        "returns": {
          "_0": "The fee amount"
        }
      },
      "currencyLongDescriptor()": {
        "returns": {
          "_0": "the string describing the currency"
        }
      },
      "defaultFeesCollector()": {
        "details": "Returns the default feesCollector"
      },
      "defaultOperator()": {
        "details": "Returns the default operator"
      },
      "enoughFundsAvailable(address,uint256)": {
        "details": "In more detail: returns true if the sum of the buyer's local balance in this contract,  plus the external available balance, is larger or equal than 'amount'",
        "params": {
          "amount": "The amount that is queried",
          "buyer": "The address for which funds are queried"
        },
        "returns": {
          "_0": "Returns true if enough funds are available"
        }
      },
      "externalBalance(address)": {
        "params": {
          "buyer": "The address for which funds are queried"
        },
        "returns": {
          "_0": "the external funds available"
        }
      },
      "finalize((bytes32,bool),bytes)": {
        "details": "Can be executed by anyone, but the operator signature must be included as input param.  Seller or Buyer's local balances are updated, allowing explicit withdrawal.  Moves payment to PAID or REFUNDED state on transfer success/failure, respectively.",
        "params": {
          "operatorSignature": "The operator signature of transferResult",
          "transferResult": "The asset transfer result struct signed by the operator."
        }
      },
      "finalizeAndWithdraw((bytes32,bool),bytes)": {
        "details": "If recipient has set onlyUserCanWithdraw == true, then msg.sender must be the recipient;  otherwise, anyone can execute this method, with funds arriving to the recipient too, but with a  helping 3rd party covering gas costs and TX sending hassle.  The operator signature must be included as input param.  Moves payment to PAID or REFUNDED state on transfer success/failure, respectively.",
        "params": {
          "operatorSignature": "The operator signature of transferResult",
          "transferResult": "The asset transfer result struct signed by the operator."
        }
      },
      "isRegisteredSeller(address)": {
        "params": {
          "addr": "the address that is queried"
        },
        "returns": {
          "_0": "Returns whether the address is registered as seller"
        }
      },
      "isSellerRegistrationRequired()": {
        "returns": {
          "_0": "Returns true if sellers need to be registered to be able to accept payments"
        }
      },
      "maxFeeBPS()": {
        "returns": {
          "_0": "the max fee (in BPS units)"
        }
      },
      "maxFundsAvailable(address)": {
        "details": "In more detail: returns the sum of the buyer's local balance in this contract,  plus the available external balance.",
        "params": {
          "buyer": "The address for which funds are queried"
        },
        "returns": {
          "_0": "the max funds available"
        }
      },
      "onlyUserCanWithdraw(address)": {
        "params": {
          "user": "The address of the user"
        }
      },
      "owner()": {
        "details": "Returns the address of the current owner."
      },
      "paymentInfo(bytes32)": {
        "params": {
          "paymentId": "The unique ID that identifies the payment."
        },
        "returns": {
          "_0": "the struct stored for the payment"
        }
      },
      "paymentState(bytes32)": {
        "details": "If payment is in ASSET_TRANSFERRING, it may be worth  checking acceptsRefunds to check if it has gone beyond expirationTime.",
        "params": {
          "paymentId": "The unique ID that identifies the payment."
        },
        "returns": {
          "_0": "the state of the payment."
        }
      },
      "paymentWindow()": {
        "returns": {
          "_0": "the payment window in secs"
        }
      },
      "refund(bytes32)": {
        "details": "Anybody can call this function.  Requires acceptsRefunds == true to proceed.  After updating buyer's balance, he/she can later withdraw.  Moves payment to REFUNDED state.",
        "params": {
          "paymentId": "The unique ID that identifies the payment."
        }
      },
      "refundAndWithdraw(bytes32)": {
        "details": "If the buyer has set onlyUserCanWithdraw == true, then msg.sender must be the recipient;  otherwise, anyone can execute this method, with funds arriving to the buyer too, but with a  helping 3rd party covering gas costs and TX sending hassle.  Requires acceptsRefunds == true to proceed.  All of msg.sender's balance in the contract is withdrawn,  not only the part that was locked in this particular paymentId  Moves payment to REFUNDED state.",
        "params": {
          "paymentId": "The unique ID that identifies the payment."
        }
      },
      "removeUniverseFeesCollector(uint256)": {
        "details": "Removes a specific universe feesCollector",
        "params": {
          "universeId": "The id of the universe"
        }
      },
      "removeUniverseOperator(uint256)": {
        "details": "Removes a specific universe operator",
        "params": {
          "universeId": "The id of the universe"
        }
      },
      "renounceOwnership()": {
        "details": "Leaves the contract without owner. It will not be possible to call `onlyOwner` functions anymore. Can only be called by the current owner. NOTE: Renouncing ownership will leave the contract without an owner, thereby removing any functionality that is only available to the owner."
      },
      "setDefaultFeesCollector(address)": {
        "details": "Sets a new default feesCollector",
        "params": {
          "feesCollector": "The address of the new default feesCollector"
        }
      },
      "setDefaultOperator(address)": {
        "details": "Sets a new default operator",
        "params": {
          "operator": "The address of the new default operator"
        }
      },
      "setEIP712(address)": {
        "details": "This upgradable pattern is required in case that the  EIP712 spec/code changes in the future",
        "params": {
          "eip712address": "The address of the new EIP712 contract."
        }
      },
      "setIsSellerRegistrationRequired(bool)": {
        "params": {
          "isRequired": "(bool) if true, registration is required."
        }
      },
      "setMaxFeeBPS(uint256)": {
        "params": {
          "feeBPS": "The new max fee (in BPS units)"
        }
      },
      "setOnlyUserCanWithdraw(bool)": {
        "params": {
          "onlyUserCan": "true if only the user can execute withdrawals of his/her local balance"
        }
      },
      "setPaymentWindow(uint256)": {
        "params": {
          "window": "The amount of time available, in seconds."
        }
      },
      "setUniverseFeesCollector(uint256,address)": {
        "details": "Sets a new specific universe feesCollector",
        "params": {
          "feesCollector": "The address of the new universe feesCollector",
          "universeId": "The id of the universe"
        }
      },
      "setUniverseOperator(uint256,address)": {
        "details": "Sets a new specific universe operator",
        "params": {
          "operator": "The address of the new universe operator",
          "universeId": "The id of the universe"
        }
      },
      "splitFundingSources(address,uint256)": {
        "params": {
          "amount": "The amount to be split",
          "buyer": "The address for which the amount is to be split"
        },
        "returns": {
          "externalFunds": "The funds required to be transferred from the external buyer balance",
          "localFunds": "The amount of local funds that will be used."
        }
      },
      "transferOwnership(address)": {
        "details": "Transfers ownership of the contract to a new account (`newOwner`). Can only be called by the current owner."
      },
      "universeFeesCollector(uint256)": {
        "details": "Returns the feesCollector of a specific universe",
        "params": {
          "universeId": "The id of the universe"
        }
      },
      "universeOperator(uint256)": {
        "details": "Returns the operator of a specific universe",
        "params": {
          "universeId": "The id of the universe"
        }
      },
      "withdrawAmount(uint256)": {
        "params": {
          "amount": "The required amount to withdraw"
        }
      }
    },
    "title": "Escrow Contract for Payments in BuyNow mode, in Native Cryptocurrency.",
    "version": 1
  },
  "userdoc": {
    "kind": "user",
    "methods": {
      "EIP712Address()": {
        "notice": "Returns the address of the of the contract containing  the implementation of the EIP712 verifying functions"
      },
      "acceptsRefunds(bytes32)": {
        "notice": "Returns true if the payment accepts a refund to the buyer"
      },
      "assertBuyNowInputsOK((bytes32,uint256,uint256,uint256,uint256,address,address))": {
        "notice": "Reverts unless the requirements for a BuyNowInput are fulfilled."
      },
      "balanceOf(address)": {
        "notice": "Returns the local balance of the provided address that is stored in this  contract, and hence, available for withdrawal."
      },
      "buyNow((bytes32,uint256,uint256,uint256,uint256,address,address),bytes,bytes)": {
        "notice": "Starts Payment process by the buyer."
      },
      "computeFeeAmount(uint256,uint256)": {
        "notice": "Safe computation of fee amount for a provided amount, feeBPS pair"
      },
      "currencyLongDescriptor()": {
        "notice": "Returns a descriptor about the currency that this contract accepts"
      },
      "enoughFundsAvailable(address,uint256)": {
        "notice": "Returns true if the 'amount' required for a payment is available to this contract."
      },
      "externalBalance(address)": {
        "notice": "Returns the amount available to a buyer outside this contract"
      },
      "finalize((bytes32,bool),bytes)": {
        "notice": "Relays the operator signature declaring that the asset transfer was successful or failed,  and updates local balances of seller or buyer, respectively."
      },
      "finalizeAndWithdraw((bytes32,bool),bytes)": {
        "notice": "Relays the operator signature declaring that the asset transfer was successful or failed,  updates balances of seller or buyer, respectively, and proceeds to withdraw all funds   in this contract available to the rightful recipient of the paymentId:   the seller if transferResult.wasSuccessful == true, the buyer otherwise."
      },
      "isRegisteredSeller(address)": {
        "notice": "Returns true if the address provided is a registered seller"
      },
      "isSellerRegistrationRequired()": {
        "notice": "Returns whether sellers need to be registered to be able to accept payments"
      },
      "maxFeeBPS()": {
        "notice": "Returns the max fee (in BPS units) that can be accepted in any payment  despite operator and buyer having signed a larger amount;  a value of 10000 BPS would correspond to 100% (no limit at all)"
      },
      "maxFundsAvailable(address)": {
        "notice": "Returns the maximum amount of funds available to a buyer"
      },
      "onlyUserCanWithdraw(address)": {
        "notice": "Returns the value of onlyUserCanWithdraw for a given user"
      },
      "paymentInfo(bytes32)": {
        "notice": "Returns all data stored in a payment"
      },
      "paymentState(bytes32)": {
        "notice": "Returns the state of a payment."
      },
      "paymentWindow()": {
        "notice": "Returns the amount of seconds that a payment  can remain in ASSET_TRANSFERRING state without positive  or negative confirmation by the operator"
      },
      "refund(bytes32)": {
        "notice": "Moves buyer's provided funds to buyer's balance."
      },
      "refundAndWithdraw(bytes32)": {
        "notice": "Executes refund and withdraw to the buyer in one transaction."
      },
      "registerAsSeller()": {
        "notice": "Registers msg.sender as seller so that, if the contract has set  _isSellerRegistrationRequired = true, then payments will be accepted with  msg.sender as seller."
      },
      "relayedWithdraw(address)": {
        "notice": "Transfers funds avaliable in this  contract's balanceOf[recipient] to recipient.  The funds still go to straight the recipient, as if he/she  has executed the withdrawal() method, but the msg.sender  covers gas costs and the hassle of executing the transaction.  Users can always opt out from this feature, using the setOnlyUserCanWithdraw method."
      },
      "removeUniverseFeesCollector(uint256)": {
        "notice": "The universe will then have fees collected by _defaultFeesCollector"
      },
      "removeUniverseOperator(uint256)": {
        "notice": "The universe will then be operated by _defaultOperator"
      },
      "setEIP712(address)": {
        "notice": "Sets the address of the EIP712 verifier contract."
      },
      "setIsSellerRegistrationRequired(bool)": {
        "notice": "Sets whether sellers are required to register in this contract before being  able to accept payments."
      },
      "setMaxFeeBPS(uint256)": {
        "notice": "Sets the max fee (in BPS units) that can be accepted in any payment  despite operator and buyer having signed a larger amount;  a value of 10000 BPS would correspond to 100% (no limit at all)"
      },
      "setOnlyUserCanWithdraw(bool)": {
        "notice": "Sets the value of onlyUserCanWithdraw for the user with msg.sender address:  - if true: only the user can execute withdrawals of his/her local balance  - if false: any address can help and execute the withdrawals on behalf of the user   (the funds still go straight to the user, but the helper address covers gas costs    and the hassle of executing the transaction)"
      },
      "setPaymentWindow(uint256)": {
        "notice": "Sets the amount of time available to the operator, after the payment starts,  to confirm either the success or the failure of the asset transfer.  After this time, the payment moves to FAILED, allowing buyer to withdraw."
      },
      "splitFundingSources(address,uint256)": {
        "notice": "Splits the funds required to provide 'amount' into two sources:  - externalFunds: the funds required to be transferred from the external buyer balance  - localFunds: the funds required from the buyer's already available balance in this contract."
      },
      "withdraw()": {
        "notice": "Transfers funds avaliable in this  contract's balanceOf[msg.sender] to msg.sender"
      },
      "withdrawAmount(uint256)": {
        "notice": "Transfers only the specified amount  from this contract's balanceOf[msg.sender] to msg.sender.  Reverts if balanceOf[msg.sender] < amount."
      }
    },
    "notice": "Full contract documentation in IBuyNowNative",
    "version": 1
  }
}