{
  "contractName": "EIP712Verifier",
  "abi": [
    {
      "inputs": [],
      "stateMutability": "nonpayable",
      "type": "constructor"
    },
    {
      "inputs": [
        {
          "components": [
            {
              "internalType": "bytes32",
              "name": "paymentId",
              "type": "bytes32"
            },
            {
              "internalType": "uint256",
              "name": "amount",
              "type": "uint256"
            },
            {
              "internalType": "uint256",
              "name": "feeBPS",
              "type": "uint256"
            },
            {
              "internalType": "uint256",
              "name": "universeId",
              "type": "uint256"
            },
            {
              "internalType": "uint256",
              "name": "deadline",
              "type": "uint256"
            },
            {
              "internalType": "address",
              "name": "buyer",
              "type": "address"
            },
            {
              "internalType": "address",
              "name": "seller",
              "type": "address"
            }
          ],
          "internalType": "struct ISignableStructs.PaymentInput",
          "name": "payInput",
          "type": "tuple"
        },
        {
          "internalType": "bytes",
          "name": "signature",
          "type": "bytes"
        },
        {
          "internalType": "address",
          "name": "signer",
          "type": "address"
        }
      ],
      "name": "verifyPayment",
      "outputs": [
        {
          "internalType": "bool",
          "name": "",
          "type": "bool"
        }
      ],
      "stateMutability": "view",
      "type": "function"
    },
    {
      "inputs": [
        {
          "components": [
            {
              "internalType": "bytes32",
              "name": "paymentId",
              "type": "bytes32"
            },
            {
              "internalType": "bool",
              "name": "wasSuccessful",
              "type": "bool"
            }
          ],
          "internalType": "struct ISignableStructs.AssetTransferResult",
          "name": "transferResult",
          "type": "tuple"
        },
        {
          "internalType": "bytes",
          "name": "signature",
          "type": "bytes"
        },
        {
          "internalType": "address",
          "name": "signer",
          "type": "address"
        }
      ],
      "name": "verifyAssetTransferResult",
      "outputs": [
        {
          "internalType": "bool",
          "name": "",
          "type": "bool"
        }
      ],
      "stateMutability": "view",
      "type": "function"
    }
  ],
  "bytecode": "0x61012060405234801561001157600080fd5b50604080518082018252601b81527f4c6976696e67417373657473204552433230205061796d656e7473000000000060208083019182528351808501855260018152603160f81b908201529151902060c08181527fc89efdaa54c0f20c7adf612882df0950f5a951637e0307cdcb4c672f298b8bc660e08190524660a081815286517f8b73c3c69bb8fe3d512ecc4cf759cc79239f7b179b0ffacaa9a75d522b39400f818801819052818901969096526060810193909352608080840192909252308382015286518084039091018152919092019094528351939092019290922090526101005260805160a05160c05160e0516101005161079561013c600039600061039f015260006103ee015260006103c90152600061034d0152600061037601526107956000f3fe608060405234801561001057600080fd5b50600436106100365760003560e01c80636ba843431461003b5780638073e78114610062575b600080fd5b61004e61004936600461064a565b610075565b604051901515815260200160405180910390f35b61004e6100703660046106b9565b6101a5565b60008061018c85858080601f016020809104026020016040519081016040528093929190818152602001838380828437600081840152601f19601f820116905080830192505050505050506101867fd31102d24b8c7874bcd9b55a6c5749198d24fc03c1cb2e0c6541f7774bb0446e89600001358a602001358b604001358c606001358d608001358e60a0016020810190610110919061071b565b8f60c0016020810190610123919061071b565b6040805160208101999099528801969096526060870194909452608086019290925260a085015260c08401526001600160a01b0390811660e084015216610100820152610120015b6040516020818303038152906040528051906020012061023a565b9061028e565b6001600160a01b03848116911614915050949350505050565b60008061018c85858080601f01602080910402602001604051908101604052809392919081815260200183838082843760009201919091525061018692507f05d3543751c524f7778fb8974c27048cdd077351d4a41510024a7fe036b3c8c5915050893561021960408c0160208d0161073d565b6040805160208101949094528301919091521515606082015260800161016b565b6000610288610247610349565b8360405161190160f01b6020820152602281018390526042810182905260009060620160405160208183030381529060405280519060200120905092915050565b92915050565b6000806000808451604114156102b85750505060208201516040830151606084015160001a610333565b8451604014156102e65750505060408201516020830151906001600160ff1b0381169060ff1c601b01610333565b60405162461bcd60e51b815260206004820152601f60248201527f45434453413a20696e76616c6964207369676e6174757265206c656e6774680060448201526064015b60405180910390fd5b61033f8682858561043c565b9695505050505050565b60007f000000000000000000000000000000000000000000000000000000000000000046141561039857507f000000000000000000000000000000000000000000000000000000000000000090565b50604080517f00000000000000000000000000000000000000000000000000000000000000006020808301919091527f0000000000000000000000000000000000000000000000000000000000000000828401527f000000000000000000000000000000000000000000000000000000000000000060608301524660808301523060a0808401919091528351808403909101815260c0909201909252805191012090565b60007f7fffffffffffffffffffffffffffffff5d576e7357a4501ddfe92f46681b20a08211156104b95760405162461bcd60e51b815260206004820152602260248201527f45434453413a20696e76616c6964207369676e6174757265202773272076616c604482015261756560f01b606482015260840161032a565b8360ff16601b14806104ce57508360ff16601c145b6105255760405162461bcd60e51b815260206004820152602260248201527f45434453413a20696e76616c6964207369676e6174757265202776272076616c604482015261756560f01b606482015260840161032a565b6040805160008082526020820180845288905260ff871692820192909252606081018590526080810184905260019060a0016020604051602081039080840390855afa158015610579573d6000803e3d6000fd5b5050604051601f1901519150506001600160a01b0381166105dc5760405162461bcd60e51b815260206004820152601860248201527f45434453413a20696e76616c6964207369676e61747572650000000000000000604482015260640161032a565b95945050505050565b60008083601f8401126105f757600080fd5b50813567ffffffffffffffff81111561060f57600080fd5b60208301915083602082850101111561062757600080fd5b9250929050565b80356001600160a01b038116811461064557600080fd5b919050565b60008060008084860361012081121561066257600080fd5b60e081121561067057600080fd5b5084935060e085013567ffffffffffffffff81111561068e57600080fd5b61069a878288016105e5565b90945092506106ae9050610100860161062e565b905092959194509250565b60008060008084860360808112156106d057600080fd5b60408112156106de57600080fd5b50849350604085013567ffffffffffffffff8111156106fc57600080fd5b610708878288016105e5565b90945092506106ae90506060860161062e565b60006020828403121561072d57600080fd5b6107368261062e565b9392505050565b60006020828403121561074f57600080fd5b8135801515811461073657600080fdfea2646970667358221220396f1e17cf08678a4d0f181eaccb70c6bcf425c3bf90ccd9c5f2ae585bb8478264736f6c634300080c0033",
  "immutableReferences": {
    "892": [
      {
        "length": 32,
        "start": 886
      }
    ],
    "894": [
      {
        "length": 32,
        "start": 845
      }
    ],
    "896": [
      {
        "length": 32,
        "start": 969
      }
    ],
    "898": [
      {
        "length": 32,
        "start": 1006
      }
    ],
    "900": [
      {
        "length": 32,
        "start": 927
      }
    ]
  },
  "source": "// SPDX-License-Identifier: MIT\npragma solidity =0.8.12;\n\nimport \"openzeppelin-solidity/contracts/utils/cryptography/draft-EIP712.sol\";\nimport \"openzeppelin-solidity/contracts/utils/cryptography/ECDSA.sol\";\nimport \"./IEIP712Verifier.sol\";\n\n/**\n * @title Verification of MetaTXs for Payments using EIP712.\n * @author Freeverse.io, www.freeverse.io\n * @dev This contract implements the two verification functions for the two main\n *  structures required in the payment process, and defined in ISignableStructs:\n *  - PaymentInput: to start a payment process\n *  - AssetTransferResult: to let the operator confirm the success or failure of an asset transfer\n *  The implementation uses the code in draft-EIP712 by OpenZeppelin.\n *  Contracts that call the code provided in this contract are recommended to implement an \n *  upgrade pattern, in case that the EIP712 spec/code changes in the future.\n */\n\ncontract EIP712Verifier is IEIP712Verifier, EIP712 {\n    using ECDSA for bytes32;\n    bytes32 private constant _TYPEHASH_PAYMENT =\n        keccak256(\n            \"PaymentInput(bytes32 paymentId,uint256 amount,uint256 feeBPS,uint256 universeId,uint256 deadline,address buyer,address seller)\"\n        );\n\n    bytes32 private constant _TYPEHASH_ASSETTRANSFER =\n        keccak256(\"AssetTransferResult(bytes32 paymentId,bool wasSuccessful)\");\n\n    constructor() EIP712(\"LivingAssets ERC20 Payments\", \"1\") {}\n\n    /// @inheritdoc IEIP712Verifier\n    function verifyPayment(\n        PaymentInput calldata payInput,\n        bytes calldata signature,\n        address signer\n    ) public view returns (bool) {\n        address recoveredSigner = _hashTypedDataV4(\n            keccak256(\n                abi.encode(\n                    _TYPEHASH_PAYMENT,\n                    payInput.paymentId,\n                    payInput.amount,\n                    payInput.feeBPS,\n                    payInput.universeId,\n                    payInput.deadline,\n                    payInput.buyer,\n                    payInput.seller\n                )\n            )\n        ).recover(signature);\n        return signer == recoveredSigner;\n    }\n\n    /// @inheritdoc IEIP712Verifier\n    function verifyAssetTransferResult(\n        AssetTransferResult calldata transferResult,\n        bytes calldata signature,\n        address signer\n    ) public view returns (bool) {\n        address recoveredSigner = _hashTypedDataV4(\n            keccak256(\n                abi.encode(\n                    _TYPEHASH_ASSETTRANSFER,\n                    transferResult.paymentId,\n                    transferResult.wasSuccessful\n                )\n            )\n        ).recover(signature);\n        return signer == recoveredSigner;\n    }\n}\n",
  "sourcePath": "/Users/toni/gits/cryptoPayments/contracts/Payments/EIP712Verifier.sol",
  "compiler": {
    "name": "solc",
    "version": "0.8.12+commit.f00d7308.Emscripten.clang"
  },
  "schemaVersion": "3.4.3",
  "updatedAt": "2022-05-27T10:46:47.116Z",
  "devdoc": {
    "author": "Freeverse.io, www.freeverse.io",
    "details": "This contract implements the two verification functions for the two main  structures required in the payment process, and defined in ISignableStructs:  - PaymentInput: to start a payment process  - AssetTransferResult: to let the operator confirm the success or failure of an asset transfer  The implementation uses the code in draft-EIP712 by OpenZeppelin.  Contracts that call the code provided in this contract are recommended to implement an   upgrade pattern, in case that the EIP712 spec/code changes in the future.",
    "kind": "dev",
    "methods": {
      "verifyAssetTransferResult((bytes32,bool),bytes,address)": {
        "params": {
          "signature": "The provided signature of the input struct",
          "signer": "The signer's address that we want to verify",
          "transferResult": "The provided AssetTransferResult struct"
        },
        "returns": {
          "_0": "Returns true if the signature corresponds to the signer  having signed the input struct"
        }
      },
      "verifyPayment((bytes32,uint256,uint256,uint256,uint256,address,address),bytes,address)": {
        "params": {
          "payInput": "The provided PaymentInput struct",
          "signature": "The provided signature of the input struct",
          "signer": "The signer's address that we want to verify"
        },
        "returns": {
          "_0": "Returns true if the signature corresponds to the  provided signer having signed the input struct"
        }
      }
    },
    "title": "Verification of MetaTXs for Payments using EIP712.",
    "version": 1
  },
  "userdoc": {
    "kind": "user",
    "methods": {
      "verifyAssetTransferResult((bytes32,bool),bytes,address)": {
        "notice": "Verifies that the provided AssetTransferResult struct  has been signed by the provided signer."
      },
      "verifyPayment((bytes32,uint256,uint256,uint256,uint256,address,address),bytes,address)": {
        "notice": "Verifies that the provided PaymentInput struct has been signed  by the provided signer."
      }
    },
    "version": 1
  }
}