{
  "contractName": "EIP712VerifierBuyNow",
  "abi": [
    {
      "inputs": [
        {
          "internalType": "string",
          "name": "name",
          "type": "string"
        },
        {
          "internalType": "string",
          "name": "version",
          "type": "string"
        }
      ],
      "stateMutability": "nonpayable",
      "type": "constructor"
    },
    {
      "inputs": [
        {
          "components": [
            {
              "internalType": "bytes32",
              "name": "paymentId",
              "type": "bytes32"
            },
            {
              "internalType": "uint256",
              "name": "amount",
              "type": "uint256"
            },
            {
              "internalType": "uint256",
              "name": "feeBPS",
              "type": "uint256"
            },
            {
              "internalType": "uint256",
              "name": "universeId",
              "type": "uint256"
            },
            {
              "internalType": "uint256",
              "name": "deadline",
              "type": "uint256"
            },
            {
              "internalType": "address",
              "name": "buyer",
              "type": "address"
            },
            {
              "internalType": "address",
              "name": "seller",
              "type": "address"
            }
          ],
          "internalType": "struct ISignableStructsBuyNow.BuyNowInput",
          "name": "buyNowInp",
          "type": "tuple"
        },
        {
          "internalType": "bytes",
          "name": "signature",
          "type": "bytes"
        },
        {
          "internalType": "address",
          "name": "signer",
          "type": "address"
        }
      ],
      "name": "verifyBuyNow",
      "outputs": [
        {
          "internalType": "bool",
          "name": "",
          "type": "bool"
        }
      ],
      "stateMutability": "view",
      "type": "function"
    },
    {
      "inputs": [
        {
          "components": [
            {
              "internalType": "bytes32",
              "name": "paymentId",
              "type": "bytes32"
            },
            {
              "internalType": "bool",
              "name": "wasSuccessful",
              "type": "bool"
            }
          ],
          "internalType": "struct ISignableStructsBuyNow.AssetTransferResult",
          "name": "transferResult",
          "type": "tuple"
        },
        {
          "internalType": "bytes",
          "name": "signature",
          "type": "bytes"
        },
        {
          "internalType": "address",
          "name": "signer",
          "type": "address"
        }
      ],
      "name": "verifyAssetTransferResult",
      "outputs": [
        {
          "internalType": "bool",
          "name": "",
          "type": "bool"
        }
      ],
      "stateMutability": "view",
      "type": "function"
    },
    {
      "inputs": [
        {
          "internalType": "bytes",
          "name": "sellerSignature",
          "type": "bytes"
        },
        {
          "components": [
            {
              "internalType": "bytes32",
              "name": "paymentId",
              "type": "bytes32"
            },
            {
              "internalType": "uint256",
              "name": "amount",
              "type": "uint256"
            },
            {
              "internalType": "uint256",
              "name": "feeBPS",
              "type": "uint256"
            },
            {
              "internalType": "uint256",
              "name": "universeId",
              "type": "uint256"
            },
            {
              "internalType": "uint256",
              "name": "deadline",
              "type": "uint256"
            },
            {
              "internalType": "address",
              "name": "buyer",
              "type": "address"
            },
            {
              "internalType": "address",
              "name": "seller",
              "type": "address"
            }
          ],
          "internalType": "struct ISignableStructsBuyNow.BuyNowInput",
          "name": "buyNowInp",
          "type": "tuple"
        }
      ],
      "name": "verifySellerSignature",
      "outputs": [
        {
          "internalType": "bool",
          "name": "",
          "type": "bool"
        }
      ],
      "stateMutability": "pure",
      "type": "function"
    }
  ],
  "bytecode": "0x61014060405234801561001157600080fd5b50604051610c7c380380610c7c83398101604081905261003091610186565b815160209283012081519183019190912060e08290526101008190524660a0818152604080517f8b73c3c69bb8fe3d512ecc4cf759cc79239f7b179b0ffacaa9a75d522b39400f818801819052818301969096526060810194909452608080850193909352308483018190528151808603909301835260c094850190915281519190950120905291909152610120526101e9565b634e487b7160e01b600052604160045260246000fd5b600082601f8301126100eb57600080fd5b81516001600160401b0380821115610105576101056100c4565b604051601f8301601f19908116603f0116810190828211818310171561012d5761012d6100c4565b8160405283815260209250868385880101111561014957600080fd5b600091505b8382101561016b578582018301518183018401529082019061014e565b8382111561017c5760008385830101525b9695505050505050565b6000806040838503121561019957600080fd5b82516001600160401b03808211156101b057600080fd5b6101bc868387016100da565b935060208501519150808211156101d257600080fd5b506101df858286016100da565b9150509250929050565b60805160a05160c05160e0516101005161012051610a4461023860003960006105c301526000610612015260006105ed01526000610546015260006105700152600061059a0152610a446000f3fe608060405234801561001057600080fd5b50600436106100415760003560e01c80631f061454146100465780634c391a0b1461006d5780638073e78114610080575b600080fd5b6100596100543660046107e0565b610093565b604051901515815260200160405180910390f35b61005961007b366004610852565b610159565b61005961008e3660046108ba565b610200565b600061012e84848080601f016020809104026020016040519081016040528093929190818152602001838380828437600092019190915250610128925050853590506040517f19457468657265756d205369676e6564204d6573736167653a0a3332000000006020820152603c8101829052600090605c01604051602081830303815290604052805190602001209050919050565b90610295565b6001600160a01b031661014760e0840160c0850161091c565b6001600160a01b031614949350505050565b6000806101e785858080601f0160208091040260200160405190810160405280939291908181526020018383808284376000920191909152505060405161012892506101cc91507f3740d640634d51dff0811c37aac198d21839514cea173ee2cd808f97894d0501908b9060200161093e565b604051602081830303815290604052805190602001206102b9565b6001600160a01b03848116911614915050949350505050565b6000806101e785858080601f01602080910402602001604051908101604052809392919081815260200183838082843760009201919091525061012892507f05d3543751c524f7778fb8974c27048cdd077351d4a41510024a7fe036b3c8c5915050893561027460408c0160208d016109b0565b604080516020810194909452830191909152151560608201526080016101cc565b60008060006102a4858561030d565b915091506102b18161037b565b509392505050565b60006103076102c6610539565b8360405161190160f01b6020820152602281018390526042810182905260009060620160405160208183030381529060405280519060200120905092915050565b92915050565b60008082516041036103435760208301516040840151606085015160001a61033787828585610660565b94509450505050610374565b825160400361036c576020830151604084015161036186838361074d565b935093505050610374565b506000905060025b9250929050565b600081600481111561038f5761038f6109d2565b036103975750565b60018160048111156103ab576103ab6109d2565b036103fd5760405162461bcd60e51b815260206004820152601860248201527f45434453413a20696e76616c6964207369676e6174757265000000000000000060448201526064015b60405180910390fd5b6002816004811115610411576104116109d2565b0361045e5760405162461bcd60e51b815260206004820152601f60248201527f45434453413a20696e76616c6964207369676e6174757265206c656e6774680060448201526064016103f4565b6003816004811115610472576104726109d2565b036104ca5760405162461bcd60e51b815260206004820152602260248201527f45434453413a20696e76616c6964207369676e6174757265202773272076616c604482015261756560f01b60648201526084016103f4565b60048160048111156104de576104de6109d2565b036105365760405162461bcd60e51b815260206004820152602260248201527f45434453413a20696e76616c6964207369676e6174757265202776272076616c604482015261756560f01b60648201526084016103f4565b50565b6000306001600160a01b037f00000000000000000000000000000000000000000000000000000000000000001614801561059257507f000000000000000000000000000000000000000000000000000000000000000046145b156105bc57507f000000000000000000000000000000000000000000000000000000000000000090565b50604080517f00000000000000000000000000000000000000000000000000000000000000006020808301919091527f0000000000000000000000000000000000000000000000000000000000000000828401527f000000000000000000000000000000000000000000000000000000000000000060608301524660808301523060a0808401919091528351808403909101815260c0909201909252805191012090565b6000807f7fffffffffffffffffffffffffffffff5d576e7357a4501ddfe92f46681b20a08311156106975750600090506003610744565b8460ff16601b141580156106af57508460ff16601c14155b156106c05750600090506004610744565b6040805160008082526020820180845289905260ff881692820192909252606081018690526080810185905260019060a0016020604051602081039080840390855afa158015610714573d6000803e3d6000fd5b5050604051601f1901519150506001600160a01b03811661073d57600060019250925050610744565b9150600090505b94509492505050565b6000806001600160ff1b0383168161076a60ff86901c601b6109e8565b905061077887828885610660565b935093505050935093915050565b60008083601f84011261079857600080fd5b50813567ffffffffffffffff8111156107b057600080fd5b60208301915083602082850101111561037457600080fd5b600060e082840312156107da57600080fd5b50919050565b600080600061010084860312156107f657600080fd5b833567ffffffffffffffff81111561080d57600080fd5b61081986828701610786565b909450925061082d905085602086016107c8565b90509250925092565b80356001600160a01b038116811461084d57600080fd5b919050565b600080600080610120858703121561086957600080fd5b61087386866107c8565b935060e085013567ffffffffffffffff81111561088f57600080fd5b61089b87828801610786565b90945092506108af90506101008601610836565b905092959194509250565b60008060008084860360808112156108d157600080fd5b60408112156108df57600080fd5b50849350604085013567ffffffffffffffff8111156108fd57600080fd5b61090987828801610786565b90945092506108af905060608601610836565b60006020828403121561092e57600080fd5b61093782610836565b9392505050565b60006101008201905083825282356020830152602083013560408301526040830135606083015260608301356080830152608083013560a083015261098560a08401610836565b60018060a01b0380821660c0850152806109a160c08701610836565b1660e085015250509392505050565b6000602082840312156109c257600080fd5b8135801515811461093757600080fd5b634e487b7160e01b600052602160045260246000fd5b60008219821115610a0957634e487b7160e01b600052601160045260246000fd5b50019056fea2646970667358221220cf76dd73c51950c26d5db55e69f4c2453f5a2283b705efd1fba4dc147d481df064736f6c634300080e0033",
  "immutableReferences": {
    "1431": [
      {
        "length": 32,
        "start": 1434
      }
    ],
    "1433": [
      {
        "length": 32,
        "start": 1392
      }
    ],
    "1435": [
      {
        "length": 32,
        "start": 1350
      }
    ],
    "1437": [
      {
        "length": 32,
        "start": 1517
      }
    ],
    "1439": [
      {
        "length": 32,
        "start": 1554
      }
    ],
    "1441": [
      {
        "length": 32,
        "start": 1475
      }
    ]
  },
  "source": "// SPDX-License-Identifier: MIT\npragma solidity =0.8.14;\n\nimport \"./IEIP712VerifierBuyNow.sol\";\nimport \"@openzeppelin/contracts/utils/cryptography/draft-EIP712.sol\";\nimport \"@openzeppelin/contracts/utils/cryptography/ECDSA.sol\";\n\n/**\n * @title Verification of MetaTXs for BuyNows.\n * @author Freeverse.io, www.freeverse.io\n * @notice Full contract documentation in IEIP712VerifierBuyNow\n */\n\ncontract EIP712VerifierBuyNow is IEIP712VerifierBuyNow, EIP712 {\n    using ECDSA for bytes32;\n    bytes32 private constant _TYPEHASH_PAYMENT =\n        keccak256(\n            \"BuyNowInput(bytes32 paymentId,uint256 amount,uint256 feeBPS,uint256 universeId,uint256 deadline,address buyer,address seller)\"\n        );\n\n    bytes32 private constant _TYPEHASH_ASSETTRANSFER =\n        keccak256(\"AssetTransferResult(bytes32 paymentId,bool wasSuccessful)\");\n\n    constructor(string memory name, string memory version) EIP712(name, version) {}\n\n    /// @inheritdoc IEIP712VerifierBuyNow\n    function verifyBuyNow(\n        BuyNowInput calldata buyNowInp,\n        bytes calldata signature,\n        address signer\n    ) public view returns (bool) {\n        address recoveredSigner = _hashTypedDataV4(\n            keccak256(abi.encode(_TYPEHASH_PAYMENT, buyNowInp))\n        ).recover(signature);\n        return signer == recoveredSigner;\n    }\n\n    /// @inheritdoc IEIP712VerifierBuyNow\n    function verifyAssetTransferResult(\n        AssetTransferResult calldata transferResult,\n        bytes calldata signature,\n        address signer\n    ) public view returns (bool) {\n        address recoveredSigner = _hashTypedDataV4(\n            keccak256(\n                abi.encode(\n                    _TYPEHASH_ASSETTRANSFER,\n                    transferResult.paymentId,\n                    transferResult.wasSuccessful\n                )\n            )\n        ).recover(signature);\n        return signer == recoveredSigner;\n    }\n\n    /// @inheritdoc IEIP712VerifierBuyNow\n    function verifySellerSignature(\n        bytes calldata sellerSignature,\n        BuyNowInput calldata buyNowInp\n    ) public pure returns (bool) {\n        /*\n         * @dev The sellerSignature is also required off-chain (in the L2) to initiate the listing;\n         *  in the L2, 'paymentId' is basically the digest of all listing extended set of params,\n         *  so in the current implementation, the code basically has to check that the seller signed 'paymentId'.\n        */\n        return buyNowInp.seller == buyNowInp.paymentId.toEthSignedMessageHash().recover(sellerSignature);\n    }\n}\n",
  "sourcePath": "/Users/toni/gits/crypto-payments/contracts/buyNow/base/EIP712VerifierBuyNow.sol",
  "compiler": {
    "name": "solc",
    "version": "0.8.14+commit.80d49f37.Emscripten.clang"
  },
  "schemaVersion": "3.4.7",
  "updatedAt": "2022-09-12T09:23:11.072Z",
  "devdoc": {
    "author": "Freeverse.io, www.freeverse.io",
    "kind": "dev",
    "methods": {
      "verifyAssetTransferResult((bytes32,bool),bytes,address)": {
        "params": {
          "signature": "The provided signature of the input struct",
          "signer": "The signer's address that we want to verify",
          "transferResult": "The provided AssetTransferResult struct"
        },
        "returns": {
          "_0": "Returns true if the signature corresponds to the signer  having signed the input struct"
        }
      },
      "verifyBuyNow((bytes32,uint256,uint256,uint256,uint256,address,address),bytes,address)": {
        "params": {
          "buyNowInp": "The provided BuyNowInput struct",
          "signature": "The provided signature of the input struct",
          "signer": "The signer's address that we want to verify"
        },
        "returns": {
          "_0": "Returns true if the signature corresponds to the  provided signer having signed the input struct"
        }
      },
      "verifySellerSignature(bytes,(bytes32,uint256,uint256,uint256,uint256,address,address))": {
        "details": "To anticipate for future potential differences in verifiers for  BuyNow/Auction listings, the interfaces to verifiers for both flows are   kept separate, accepting the entire respective structs as input.  For the same reason, the interface declares the method as 'view', prepared  to use EIP712 flows, even if the initial implementation can be 'pure'.",
        "params": {
          "buyNowInp": "The provided BuyNowInput struct",
          "sellerSignature": "the signature of the seller agreeing to list the asset as ruled by  this explicit paymentId"
        },
        "returns": {
          "_0": "Returns true if the seller signature is correct"
        }
      }
    },
    "title": "Verification of MetaTXs for BuyNows.",
    "version": 1
  },
  "userdoc": {
    "kind": "user",
    "methods": {
      "verifyAssetTransferResult((bytes32,bool),bytes,address)": {
        "notice": "Verifies that the provided AssetTransferResult struct  has been signed by the provided signer."
      },
      "verifyBuyNow((bytes32,uint256,uint256,uint256,uint256,address,address),bytes,address)": {
        "notice": "Verifies that the provided BuyNowInput struct has been signed  by the provided signer."
      },
      "verifySellerSignature(bytes,(bytes32,uint256,uint256,uint256,uint256,address,address))": {
        "notice": "Verifies the seller signature showing agreement   to list the asset as ruled by this explicit paymentId."
      }
    },
    "notice": "Full contract documentation in IEIP712VerifierBuyNow",
    "version": 1
  }
}