{
  "contractName": "PaymentsNative",
  "abi": [
    {
      "inputs": [
        {
          "internalType": "string",
          "name": "currencyDescriptor",
          "type": "string"
        }
      ],
      "stateMutability": "nonpayable",
      "type": "constructor"
    },
    {
      "anonymous": false,
      "inputs": [
        {
          "indexed": true,
          "internalType": "bytes32",
          "name": "paymentId",
          "type": "bytes32"
        },
        {
          "indexed": true,
          "internalType": "address",
          "name": "buyer",
          "type": "address"
        }
      ],
      "name": "BuyerRefunded",
      "type": "event"
    },
    {
      "anonymous": false,
      "inputs": [
        {
          "indexed": false,
          "internalType": "address",
          "name": "feesCollector",
          "type": "address"
        }
      ],
      "name": "DefaultFeesCollector",
      "type": "event"
    },
    {
      "anonymous": false,
      "inputs": [
        {
          "indexed": false,
          "internalType": "address",
          "name": "operator",
          "type": "address"
        }
      ],
      "name": "DefaultOperator",
      "type": "event"
    },
    {
      "anonymous": false,
      "inputs": [
        {
          "indexed": true,
          "internalType": "address",
          "name": "seller",
          "type": "address"
        }
      ],
      "name": "NewSeller",
      "type": "event"
    },
    {
      "anonymous": false,
      "inputs": [
        {
          "indexed": true,
          "internalType": "address",
          "name": "previousOwner",
          "type": "address"
        },
        {
          "indexed": true,
          "internalType": "address",
          "name": "newOwner",
          "type": "address"
        }
      ],
      "name": "OwnershipTransferred",
      "type": "event"
    },
    {
      "anonymous": false,
      "inputs": [
        {
          "indexed": false,
          "internalType": "bytes32",
          "name": "paymentId",
          "type": "bytes32"
        }
      ],
      "name": "Paid",
      "type": "event"
    },
    {
      "anonymous": false,
      "inputs": [
        {
          "indexed": true,
          "internalType": "bytes32",
          "name": "paymentId",
          "type": "bytes32"
        },
        {
          "indexed": true,
          "internalType": "address",
          "name": "buyer",
          "type": "address"
        },
        {
          "indexed": true,
          "internalType": "address",
          "name": "seller",
          "type": "address"
        }
      ],
      "name": "Payin",
      "type": "event"
    },
    {
      "anonymous": false,
      "inputs": [
        {
          "indexed": false,
          "internalType": "uint256",
          "name": "window",
          "type": "uint256"
        }
      ],
      "name": "PaymentWindow",
      "type": "event"
    },
    {
      "anonymous": false,
      "inputs": [
        {
          "indexed": false,
          "internalType": "uint256",
          "name": "universeId",
          "type": "uint256"
        },
        {
          "indexed": false,
          "internalType": "address",
          "name": "feesCollector",
          "type": "address"
        }
      ],
      "name": "UniverseFeesCollector",
      "type": "event"
    },
    {
      "anonymous": false,
      "inputs": [
        {
          "indexed": false,
          "internalType": "uint256",
          "name": "universeId",
          "type": "uint256"
        },
        {
          "indexed": false,
          "internalType": "address",
          "name": "operator",
          "type": "address"
        }
      ],
      "name": "UniverseOperator",
      "type": "event"
    },
    {
      "anonymous": false,
      "inputs": [
        {
          "indexed": true,
          "internalType": "address",
          "name": "user",
          "type": "address"
        },
        {
          "indexed": false,
          "internalType": "uint256",
          "name": "amount",
          "type": "uint256"
        }
      ],
      "name": "Withdraw",
      "type": "event"
    },
    {
      "inputs": [],
      "name": "defaultFeesCollector",
      "outputs": [
        {
          "internalType": "address",
          "name": "",
          "type": "address"
        }
      ],
      "stateMutability": "view",
      "type": "function"
    },
    {
      "inputs": [],
      "name": "defaultOperator",
      "outputs": [
        {
          "internalType": "address",
          "name": "",
          "type": "address"
        }
      ],
      "stateMutability": "view",
      "type": "function"
    },
    {
      "inputs": [],
      "name": "owner",
      "outputs": [
        {
          "internalType": "address",
          "name": "",
          "type": "address"
        }
      ],
      "stateMutability": "view",
      "type": "function"
    },
    {
      "inputs": [
        {
          "internalType": "uint256",
          "name": "universeId",
          "type": "uint256"
        }
      ],
      "name": "removeUniverseFeesCollector",
      "outputs": [],
      "stateMutability": "nonpayable",
      "type": "function"
    },
    {
      "inputs": [
        {
          "internalType": "uint256",
          "name": "universeId",
          "type": "uint256"
        }
      ],
      "name": "removeUniverseOperator",
      "outputs": [],
      "stateMutability": "nonpayable",
      "type": "function"
    },
    {
      "inputs": [],
      "name": "renounceOwnership",
      "outputs": [],
      "stateMutability": "nonpayable",
      "type": "function"
    },
    {
      "inputs": [
        {
          "internalType": "address",
          "name": "feesCollector",
          "type": "address"
        }
      ],
      "name": "setDefaultFeesCollector",
      "outputs": [],
      "stateMutability": "nonpayable",
      "type": "function"
    },
    {
      "inputs": [
        {
          "internalType": "address",
          "name": "operator",
          "type": "address"
        }
      ],
      "name": "setDefaultOperator",
      "outputs": [],
      "stateMutability": "nonpayable",
      "type": "function"
    },
    {
      "inputs": [
        {
          "internalType": "uint256",
          "name": "universeId",
          "type": "uint256"
        },
        {
          "internalType": "address",
          "name": "feesCollector",
          "type": "address"
        }
      ],
      "name": "setUniverseFeesCollector",
      "outputs": [],
      "stateMutability": "nonpayable",
      "type": "function"
    },
    {
      "inputs": [
        {
          "internalType": "uint256",
          "name": "universeId",
          "type": "uint256"
        },
        {
          "internalType": "address",
          "name": "operator",
          "type": "address"
        }
      ],
      "name": "setUniverseOperator",
      "outputs": [],
      "stateMutability": "nonpayable",
      "type": "function"
    },
    {
      "inputs": [
        {
          "internalType": "address",
          "name": "newOwner",
          "type": "address"
        }
      ],
      "name": "transferOwnership",
      "outputs": [],
      "stateMutability": "nonpayable",
      "type": "function"
    },
    {
      "inputs": [
        {
          "internalType": "uint256",
          "name": "universeId",
          "type": "uint256"
        }
      ],
      "name": "universeFeesCollector",
      "outputs": [
        {
          "internalType": "address",
          "name": "",
          "type": "address"
        }
      ],
      "stateMutability": "view",
      "type": "function"
    },
    {
      "inputs": [
        {
          "internalType": "uint256",
          "name": "universeId",
          "type": "uint256"
        }
      ],
      "name": "universeOperator",
      "outputs": [
        {
          "internalType": "address",
          "name": "",
          "type": "address"
        }
      ],
      "stateMutability": "view",
      "type": "function"
    },
    {
      "inputs": [
        {
          "components": [
            {
              "internalType": "bytes32",
              "name": "paymentId",
              "type": "bytes32"
            },
            {
              "internalType": "bool",
              "name": "wasSuccessful",
              "type": "bool"
            }
          ],
          "internalType": "struct IEIP712Verifier.AssetTransferResult",
          "name": "inp",
          "type": "tuple"
        },
        {
          "internalType": "bytes",
          "name": "signature",
          "type": "bytes"
        },
        {
          "internalType": "address",
          "name": "signer",
          "type": "address"
        }
      ],
      "name": "verifyAssetTransferResult",
      "outputs": [
        {
          "internalType": "bool",
          "name": "",
          "type": "bool"
        }
      ],
      "stateMutability": "view",
      "type": "function"
    },
    {
      "inputs": [
        {
          "components": [
            {
              "internalType": "bytes32",
              "name": "paymentId",
              "type": "bytes32"
            },
            {
              "internalType": "uint256",
              "name": "amount",
              "type": "uint256"
            },
            {
              "internalType": "uint16",
              "name": "feeBPS",
              "type": "uint16"
            },
            {
              "internalType": "uint256",
              "name": "universeId",
              "type": "uint256"
            },
            {
              "internalType": "uint256",
              "name": "deadline",
              "type": "uint256"
            },
            {
              "internalType": "address",
              "name": "buyer",
              "type": "address"
            },
            {
              "internalType": "address",
              "name": "seller",
              "type": "address"
            }
          ],
          "internalType": "struct IEIP712Verifier.PaymentInput",
          "name": "inp",
          "type": "tuple"
        },
        {
          "internalType": "bytes",
          "name": "signature",
          "type": "bytes"
        },
        {
          "internalType": "address",
          "name": "signer",
          "type": "address"
        }
      ],
      "name": "verifyPayment",
      "outputs": [
        {
          "internalType": "bool",
          "name": "",
          "type": "bool"
        }
      ],
      "stateMutability": "view",
      "type": "function"
    },
    {
      "inputs": [
        {
          "internalType": "uint256",
          "name": "window",
          "type": "uint256"
        }
      ],
      "name": "setPaymentWindow",
      "outputs": [],
      "stateMutability": "nonpayable",
      "type": "function"
    },
    {
      "inputs": [
        {
          "internalType": "bool",
          "name": "isRequired",
          "type": "bool"
        }
      ],
      "name": "setIsSellerRegistrationRequired",
      "outputs": [],
      "stateMutability": "nonpayable",
      "type": "function"
    },
    {
      "inputs": [],
      "name": "registerAsSeller",
      "outputs": [],
      "stateMutability": "nonpayable",
      "type": "function"
    },
    {
      "inputs": [
        {
          "components": [
            {
              "internalType": "bytes32",
              "name": "paymentId",
              "type": "bytes32"
            },
            {
              "internalType": "uint256",
              "name": "amount",
              "type": "uint256"
            },
            {
              "internalType": "uint16",
              "name": "feeBPS",
              "type": "uint16"
            },
            {
              "internalType": "uint256",
              "name": "universeId",
              "type": "uint256"
            },
            {
              "internalType": "uint256",
              "name": "deadline",
              "type": "uint256"
            },
            {
              "internalType": "address",
              "name": "buyer",
              "type": "address"
            },
            {
              "internalType": "address",
              "name": "seller",
              "type": "address"
            }
          ],
          "internalType": "struct IEIP712Verifier.PaymentInput",
          "name": "inp",
          "type": "tuple"
        },
        {
          "internalType": "bytes",
          "name": "operatorSignature",
          "type": "bytes"
        }
      ],
      "name": "pay",
      "outputs": [],
      "stateMutability": "payable",
      "type": "function"
    },
    {
      "inputs": [
        {
          "components": [
            {
              "internalType": "bytes32",
              "name": "paymentId",
              "type": "bytes32"
            },
            {
              "internalType": "bool",
              "name": "wasSuccessful",
              "type": "bool"
            }
          ],
          "internalType": "struct IEIP712Verifier.AssetTransferResult",
          "name": "result",
          "type": "tuple"
        },
        {
          "internalType": "bytes",
          "name": "operatorSignature",
          "type": "bytes"
        }
      ],
      "name": "finalize",
      "outputs": [],
      "stateMutability": "nonpayable",
      "type": "function"
    },
    {
      "inputs": [
        {
          "components": [
            {
              "internalType": "bytes32",
              "name": "paymentId",
              "type": "bytes32"
            },
            {
              "internalType": "bool",
              "name": "wasSuccessful",
              "type": "bool"
            }
          ],
          "internalType": "struct IEIP712Verifier.AssetTransferResult",
          "name": "result",
          "type": "tuple"
        },
        {
          "internalType": "bytes",
          "name": "operatorSignature",
          "type": "bytes"
        }
      ],
      "name": "finalizeAndWithdraw",
      "outputs": [],
      "stateMutability": "nonpayable",
      "type": "function"
    },
    {
      "inputs": [
        {
          "internalType": "bytes32",
          "name": "paymentId",
          "type": "bytes32"
        }
      ],
      "name": "refund",
      "outputs": [],
      "stateMutability": "nonpayable",
      "type": "function"
    },
    {
      "inputs": [
        {
          "internalType": "bytes32",
          "name": "paymentId",
          "type": "bytes32"
        }
      ],
      "name": "refundAndWithdraw",
      "outputs": [],
      "stateMutability": "nonpayable",
      "type": "function"
    },
    {
      "inputs": [],
      "name": "withdraw",
      "outputs": [],
      "stateMutability": "nonpayable",
      "type": "function"
    },
    {
      "inputs": [],
      "name": "isSellerRegistrationRequired",
      "outputs": [
        {
          "internalType": "bool",
          "name": "",
          "type": "bool"
        }
      ],
      "stateMutability": "view",
      "type": "function"
    },
    {
      "inputs": [
        {
          "internalType": "address",
          "name": "addr",
          "type": "address"
        }
      ],
      "name": "isRegisteredSeller",
      "outputs": [
        {
          "internalType": "bool",
          "name": "",
          "type": "bool"
        }
      ],
      "stateMutability": "view",
      "type": "function"
    },
    {
      "inputs": [
        {
          "internalType": "address",
          "name": "addr",
          "type": "address"
        }
      ],
      "name": "balanceOf",
      "outputs": [
        {
          "internalType": "uint256",
          "name": "",
          "type": "uint256"
        }
      ],
      "stateMutability": "view",
      "type": "function"
    },
    {
      "inputs": [
        {
          "internalType": "bytes32",
          "name": "paymentId",
          "type": "bytes32"
        }
      ],
      "name": "paymentInfo",
      "outputs": [
        {
          "components": [
            {
              "internalType": "enum IPaymentsNative.States",
              "name": "state",
              "type": "uint8"
            },
            {
              "internalType": "address",
              "name": "buyer",
              "type": "address"
            },
            {
              "internalType": "address",
              "name": "seller",
              "type": "address"
            },
            {
              "internalType": "address",
              "name": "operator",
              "type": "address"
            },
            {
              "internalType": "address",
              "name": "feesCollector",
              "type": "address"
            },
            {
              "internalType": "uint256",
              "name": "expirationTime",
              "type": "uint256"
            },
            {
              "internalType": "uint16",
              "name": "feeBPS",
              "type": "uint16"
            },
            {
              "internalType": "uint256",
              "name": "amount",
              "type": "uint256"
            }
          ],
          "internalType": "struct IPaymentsNative.Payment",
          "name": "",
          "type": "tuple"
        }
      ],
      "stateMutability": "view",
      "type": "function"
    },
    {
      "inputs": [
        {
          "internalType": "bytes32",
          "name": "paymentId",
          "type": "bytes32"
        }
      ],
      "name": "paymentState",
      "outputs": [
        {
          "internalType": "enum IPaymentsNative.States",
          "name": "",
          "type": "uint8"
        }
      ],
      "stateMutability": "view",
      "type": "function"
    },
    {
      "inputs": [
        {
          "internalType": "bytes32",
          "name": "paymentId",
          "type": "bytes32"
        }
      ],
      "name": "acceptsRefunds",
      "outputs": [
        {
          "internalType": "bool",
          "name": "",
          "type": "bool"
        }
      ],
      "stateMutability": "view",
      "type": "function"
    },
    {
      "inputs": [],
      "name": "paymentWindow",
      "outputs": [
        {
          "internalType": "uint256",
          "name": "",
          "type": "uint256"
        }
      ],
      "stateMutability": "view",
      "type": "function"
    },
    {
      "inputs": [],
      "name": "acceptedCurrency",
      "outputs": [
        {
          "internalType": "string",
          "name": "",
          "type": "string"
        }
      ],
      "stateMutability": "view",
      "type": "function"
    },
    {
      "inputs": [
        {
          "internalType": "address",
          "name": "buyer",
          "type": "address"
        },
        {
          "internalType": "uint256",
          "name": "amount",
          "type": "uint256"
        }
      ],
      "name": "enoughFundsAvailable",
      "outputs": [
        {
          "internalType": "bool",
          "name": "",
          "type": "bool"
        }
      ],
      "stateMutability": "view",
      "type": "function"
    },
    {
      "inputs": [
        {
          "internalType": "address",
          "name": "buyer",
          "type": "address"
        }
      ],
      "name": "maxFundsAvailable",
      "outputs": [
        {
          "internalType": "uint256",
          "name": "",
          "type": "uint256"
        }
      ],
      "stateMutability": "view",
      "type": "function"
    },
    {
      "inputs": [
        {
          "internalType": "address",
          "name": "buyer",
          "type": "address"
        },
        {
          "internalType": "uint256",
          "name": "amount",
          "type": "uint256"
        }
      ],
      "name": "splitFundingSources",
      "outputs": [
        {
          "internalType": "uint256",
          "name": "externalFunds",
          "type": "uint256"
        },
        {
          "internalType": "uint256",
          "name": "localFunds",
          "type": "uint256"
        }
      ],
      "stateMutability": "view",
      "type": "function"
    },
    {
      "inputs": [
        {
          "components": [
            {
              "internalType": "bytes32",
              "name": "paymentId",
              "type": "bytes32"
            },
            {
              "internalType": "uint256",
              "name": "amount",
              "type": "uint256"
            },
            {
              "internalType": "uint16",
              "name": "feeBPS",
              "type": "uint16"
            },
            {
              "internalType": "uint256",
              "name": "universeId",
              "type": "uint256"
            },
            {
              "internalType": "uint256",
              "name": "deadline",
              "type": "uint256"
            },
            {
              "internalType": "address",
              "name": "buyer",
              "type": "address"
            },
            {
              "internalType": "address",
              "name": "seller",
              "type": "address"
            }
          ],
          "internalType": "struct IEIP712Verifier.PaymentInput",
          "name": "inp",
          "type": "tuple"
        }
      ],
      "name": "checkPaymentInputs",
      "outputs": [],
      "stateMutability": "view",
      "type": "function"
    },
    {
      "inputs": [
        {
          "internalType": "uint256",
          "name": "amount",
          "type": "uint256"
        },
        {
          "internalType": "uint256",
          "name": "feeBPS",
          "type": "uint256"
        }
      ],
      "name": "computeFeeAmount",
      "outputs": [
        {
          "internalType": "uint256",
          "name": "",
          "type": "uint256"
        }
      ],
      "stateMutability": "pure",
      "type": "function"
    }
  ],
  "bytecode": "0x6101206040523480156200001257600080fd5b50604051620028d5380380620028d58339810160408190526200003591620002aa565b604051806060016040528060228152602001620028b36022913960408051808201825260018152603160f81b6020820152600080546001600160a01b03191633908117825592519192918291907f8be0079c531659141344cd1fd0a4f28419497f9722a3daafe3b4186f6b6457e0908290a350600180546001600160a01b031916339081179091556040519081527fec71ba738f211337eaf29e2d87bdb1b0928316c20db0a3a1108aa43321583b509060200160405180910390a1600380546001600160a01b031916339081179091556040519081527fa60019696f11f9aa952db763c0de585f819d10fcafcfbd301a27d02e9caa41b09060200160405180910390a1815160209283012081519183019190912060c082815260e08290524660a0818152604080517f8b73c3c69bb8fe3d512ecc4cf759cc79239f7b179b0ffacaa9a75d522b39400f818901819052818301979097526060810195909552608080860193909352308583015280518086039092018252939092019092528051908401209052610100528151620001d29160059190840190620001ee565b505062278d006006556007805460ff19166001179055620003c3565b828054620001fc9062000386565b90600052602060002090601f0160209004810192826200022057600085556200026b565b82601f106200023b57805160ff19168380011785556200026b565b828001600101855582156200026b579182015b828111156200026b5782518255916020019190600101906200024e565b50620002799291506200027d565b5090565b5b808211156200027957600081556001016200027e565b634e487b7160e01b600052604160045260246000fd5b60006020808385031215620002be57600080fd5b82516001600160401b0380821115620002d657600080fd5b818501915085601f830112620002eb57600080fd5b81518181111562000300576200030062000294565b604051601f8201601f19908116603f011681019083821181831017156200032b576200032b62000294565b8160405282815288868487010111156200034457600080fd5b600093505b8284101562000368578484018601518185018701529285019262000349565b828411156200037a5760008684830101525b98975050505050505050565b600181811c908216806200039b57607f821691505b60208210811415620003bd57634e487b7160e01b600052602260045260246000fd5b50919050565b60805160a05160c05160e051610100516124ab620004086000396000611c6101526000611cb001526000611c8b01526000611c0f01526000611c3801526124ab6000f3fe6080604052600436106102195760003560e01c806378e96fb5116101235780639cfd495c116100ab578063dca721001161006f578063dca7210014610679578063dd115ab214610699578063f2cc55ee146106c6578063f2fde38b146106e4578063fd5773431461070457600080fd5b80639cfd495c146105e4578063a1bc474d14610604578063b2685a3e14610624578063c67eb9e514610644578063cab55d561461066457600080fd5b806380ca11fc116100f257806380ca11fc1461054857806385a2910d146105665780638da5cb5b1461058657806396aa71b0146105a4578063982ed326146105c457600080fd5b806378e96fb5146104975780637ac83f9b146104d05780637b018ab9146104f05780638073e7811461052857600080fd5b80632af41be4116101a65780633ccfd60b116101755780633ccfd60b146103f75780636da3f8521461040c57806370a082311461042c578063715018a6146104625780637249fbb61461047757600080fd5b80632af41be41461033757806331784b6d14610365578063317cb0181461038557806334b778ed146103ba57600080fd5b80631c6d7675116101ed5780631c6d767514610295578063221a832e146102c0578063244aa5d7146102e45780632593308b146103045780632ab3433c1461032457600080fd5b8062f3b6e81461021e57806306968bd914610240578063128b8532146102605780631a29b6ab14610275575b600080fd5b34801561022a57600080fd5b5061023e610239366004611f9c565b610724565b005b34801561024c57600080fd5b5061023e61025b366004611fb8565b6108ef565b34801561026c57600080fd5b5061023e610982565b34801561028157600080fd5b5061023e610290366004611fd1565b6109c4565b3480156102a157600080fd5b506102aa610a01565b6040516102b79190611ff3565b60405180910390f35b3480156102cc57600080fd5b5060075460ff165b60405190151581526020016102b7565b3480156102f057600080fd5b506102d46102ff366004611fb8565b610a93565b34801561031057600080fd5b5061023e61031f366004611fb8565b610add565b61023e610332366004612091565b610aee565b34801561034357600080fd5b506103576103523660046120e6565b610ea9565b6040519081526020016102b7565b34801561037157600080fd5b5061023e610380366004611fb8565b610edd565b34801561039157600080fd5b506103a56103a0366004612124565b610f69565b604080519283526020830191909152016102b7565b3480156103c657600080fd5b506103ea6103d5366004611fb8565b60009081526009602052604090205460ff1690565b6040516102b79190612186565b34801561040357600080fd5b5061023e610fb7565b34801561041857600080fd5b506102d4610427366004612194565b610fc1565b34801561043857600080fd5b506103576104473660046121fc565b6001600160a01b03166000908152600a602052604090205490565b34801561046e57600080fd5b5061023e6110ef565b34801561048357600080fd5b5061023e610492366004611fb8565b611163565b3480156104a357600080fd5b506102d46104b23660046121fc565b6001600160a01b031660009081526008602052604090205460ff1690565b3480156104dc57600080fd5b5061023e6104eb366004612217565b61116c565b3480156104fc57600080fd5b5061051061050b366004611fb8565b6111fd565b6040516001600160a01b0390911681526020016102b7565b34801561053457600080fd5b506102d4610543366004612255565b611235565b34801561055457600080fd5b506001546001600160a01b0316610510565b34801561057257600080fd5b5061023e610581366004612217565b6112ca565b34801561059257600080fd5b506000546001600160a01b0316610510565b3480156105b057600080fd5b5061023e6105bf3660046122b0565b611353565b3480156105d057600080fd5b5061023e6105df366004611fb8565b611363565b3480156105f057600080fd5b506102d46105ff366004612124565b6113c2565b34801561061057600080fd5b5061023e61061f3660046122b0565b6113d7565b34801561063057600080fd5b5061023e61063f3660046121fc565b6113ea565b34801561065057600080fd5b5061035761065f3660046121fc565b611462565b34801561067057600080fd5b50600654610357565b34801561068557600080fd5b50610510610694366004611fb8565b611489565b3480156106a557600080fd5b506106b96106b4366004611fb8565b6114c0565b6040516102b791906122eb565b3480156106d257600080fd5b506003546001600160a01b0316610510565b3480156106f057600080fd5b5061023e6106ff3660046121fc565b6115aa565b34801561071057600080fd5b5061023e61071f3660046121fc565b611694565b6127106107376060830160408401612361565b61ffff16111561079c5760405162461bcd60e51b815260206004820152602560248201527f6665652063616e6e6f74206265206c6172676572207468616e203130302070656044820152641c98d95b9d60da1b60648201526084015b60405180910390fd5b803560009081526009602052604081205460ff1660038111156107c1576107c161214e565b146108185760405162461bcd60e51b815260206004820152602160248201527f7061796d656e7420696e20696e636f727265637420637572656e7420737461746044820152606560f81b6064820152608401610793565b806080013542111561086c5760405162461bcd60e51b815260206004820152601860248201527f7061796d656e7420646561646c696e65206578706972656400000000000000006044820152606401610793565b60075460ff16156108ec576008600061088b60e0840160c085016121fc565b6001600160a01b0316815260208101919091526040016000205460ff166108ec5760405162461bcd60e51b81526020600482015260156024820152741cd95b1b195c881b9bdd081c9959da5cdd195c9959605a1b6044820152606401610793565b50565b6000546001600160a01b031633146109195760405162461bcd60e51b815260040161079390612385565b60008181526002602090815260409182902080546001600160a01b031916905560015482518481526001600160a01b03909116918101919091527f01ab5ff875fd8edb498772244b76ffd53ac3b59cb6397e3c6654194e411ede6b91015b60405180910390a150565b33600081815260086020526040808220805460ff19166001179055517f258a7a0df6106f41c2e99c09f1b64931f5f284242bbc50272d5a752ac2f30dde9190a2565b6000546001600160a01b031633146109ee5760405162461bcd60e51b815260040161079390612385565b6007805460ff1916911515919091179055565b606060058054610a10906123ba565b80601f0160208091040260200160405190810160405280929190818152602001828054610a3c906123ba565b8015610a895780601f10610a5e57610100808354040283529160200191610a89565b820191906000526020600020905b815481529060010190602001808311610a6c57829003601f168201915b5050505050905090565b6000600160008381526009602052604090205460ff166003811115610aba57610aba61214e565b148015610ad7575060008281526009602052604090206004015442115b92915050565b610ae68161170c565b6108ec611780565b610afe60c0840160a085016121fc565b6001600160a01b0316336001600160a01b031614610b6a5760405162461bcd60e51b8152602060048201526024808201527f6f6e6c792062757965722063616e206578656375746520746869732066756e636044820152633a34b7b760e11b6064820152608401610793565b610b7383610724565b6000610b8284606001356111fd565b9050610b9084848484610fc1565b610bdc5760405162461bcd60e51b815260206004820152601c60248201527f696e636f7272656374206f70657261746f72207369676e6174757265000000006044820152606401610793565b600080610bfc610bf260c0880160a089016121fc565b8760200135610f69565b91509150813414610c685760405162461bcd60e51b815260206004820152603060248201527f6e65772066756e64732070726f766964656420646f6573206e6f74206d61746360448201526f682065787065637465642076616c756560801b6064820152608401610793565b6040805161010081019091528060018152602001610c8c60c0890160a08a016121fc565b6001600160a01b03168152602001610caa60e0890160c08a016121fc565b6001600160a01b03168152602001846001600160a01b03168152602001610cd48860600135611489565b6001600160a01b0316815260200160065442610cf09190612405565b8152602001610d056060890160408a01612361565b61ffff168152602088810135918101919091528735600090815260099091526040902081518154829060ff19166001836003811115610d4657610d4661214e565b0217905550602082015181546001600160a01b0391821661010002610100600160a81b031990911617825560408301516001830180549183166001600160a01b03199283161790556060840151600284018054918416918316919091179055608084015160038401805491909316911617905560a080830151600483015560c08084015160058401805461ffff90921661ffff1990921691909117905560e0909301516006909201919091558291600a91600091610e0991908b01908b016121fc565b6001600160a01b03166001600160a01b031681526020019081526020016000206000828254610e38919061241d565b90915550610e4e905060e0870160c088016121fc565b6001600160a01b0316610e6760c0880160a089016121fc565b6001600160a01b031687600001357fe4a9c328b82280a42bddcf2971ded52a971269f3fa155694eec8e4c27f95e21860405160405180910390a4505050505050565b600080612710610eb98486612434565b610ec39190612453565b905083811115610ed35783610ed5565b805b949350505050565b6000546001600160a01b03163314610f075760405162461bcd60e51b815260040161079390612385565b60008181526004602090815260409182902080546001600160a01b031916905560035482518481526001600160a01b03909116918101919091527f34bf92bbf741b75e3289761f6b95459b088de5b3282274572caf118e9c2617dc9101610977565b6001600160a01b0382166000908152600a60205260408120548190808411610f915783610f93565b805b9150808411610fa3576000610fad565b610fad818561241d565b9250509250929050565b610fbf611780565b565b6000806110d685858080601f0160208091040260200160405190810160405280939291908181526020018383808284376000920191909152506110d092507fd1fd749c0c43ff1fe8ca84502fc30e6dfd703b2f3ec0ce11ab7aa506737f8699915050893560208b013561103a60608d0160408e01612361565b8c606001358d608001358e60a001602081019061105791906121fc565b8f60c001602081019061106a91906121fc565b604080516020810199909952880196909652606087019490945261ffff909216608086015260a085015260c08401526001600160a01b0390811660e084015216610100820152610120015b60405160208183030381529060405280519060200120611851565b9061189f565b6001600160a01b03848116911614915050949350505050565b6000546001600160a01b031633146111195760405162461bcd60e51b815260040161079390612385565b600080546040516001600160a01b03909116907f8be0079c531659141344cd1fd0a4f28419497f9722a3daafe3b4186f6b6457e0908390a3600080546001600160a01b0319169055565b6108ec8161170c565b6000546001600160a01b031633146111965760405162461bcd60e51b815260040161079390612385565b60008281526002602090815260409182902080546001600160a01b0319166001600160a01b0385169081179091558251858152918201527f01ab5ff875fd8edb498772244b76ffd53ac3b59cb6397e3c6654194e411ede6b91015b60405180910390a15050565b6000818152600260205260408120546001600160a01b03168015611221578061122e565b6001546001600160a01b03165b9392505050565b6000806110d685858080601f0160208091040260200160405190810160405280939291908181526020018383808284376000920191909152506110d092507f05d3543751c524f7778fb8974c27048cdd077351d4a41510024a7fe036b3c8c591505089356112a960408c0160208d01611fd1565b604080516020810194909452830191909152151560608201526080016110b5565b6000546001600160a01b031633146112f45760405162461bcd60e51b815260040161079390612385565b60008281526004602090815260409182902080546001600160a01b0319166001600160a01b0385169081179091558251858152918201527f34bf92bbf741b75e3289761f6b95459b088de5b3282274572caf118e9c2617dc91016111f1565b61135e838383611955565b505050565b6000546001600160a01b0316331461138d5760405162461bcd60e51b815260040161079390612385565b60068190556040518181527fb8931bd4946b9278bba3ac02a56a37159384a2a02d4c3416706f635b853d44f490602001610977565b6000816113ce84611462565b10159392505050565b6113e2838383611955565b61135e611780565b6000546001600160a01b031633146114145760405162461bcd60e51b815260040161079390612385565b600380546001600160a01b0319166001600160a01b0383169081179091556040519081527fa60019696f11f9aa952db763c0de585f819d10fcafcfbd301a27d02e9caa41b090602001610977565b6001600160a01b0381166000818152600a60205260408120549091610ad791903190612405565b6000818152600460205260408120546001600160a01b031680156114ad578061122e565b6003546001600160a01b03169392505050565b6040805161010081018252600080825260208201819052918101829052606081018290526080810182905260a0810182905260c0810182905260e081019190915260008281526009602052604090819020815161010081019092528054829060ff1660038111156115335761153361214e565b60038111156115445761154461214e565b815281546001600160a01b03610100909104811660208301526001830154811660408301526002830154811660608301526003830154166080820152600482015460a0820152600582015461ffff1660c082015260069091015460e09091015292915050565b6000546001600160a01b031633146115d45760405162461bcd60e51b815260040161079390612385565b6001600160a01b0381166116395760405162461bcd60e51b815260206004820152602660248201527f4f776e61626c653a206e6577206f776e657220697320746865207a65726f206160448201526564647265737360d01b6064820152608401610793565b600080546040516001600160a01b03808516939216917f8be0079c531659141344cd1fd0a4f28419497f9722a3daafe3b4186f6b6457e091a3600080546001600160a01b0319166001600160a01b0392909216919091179055565b6000546001600160a01b031633146116be5760405162461bcd60e51b815260040161079390612385565b600180546001600160a01b0319166001600160a01b0383169081179091556040519081527fec71ba738f211337eaf29e2d87bdb1b0928316c20db0a3a1108aa43321583b5090602001610977565b61171581610a93565b6117775760405162461bcd60e51b815260206004820152602d60248201527f7061796d656e7420646f6573206e6f742061636365707420726566756e64732060448201526c6174207468697320737461676560981b6064820152608401610793565b6108ec81611b24565b336000908152600a6020526040902054806117dd5760405162461bcd60e51b815260206004820181905260248201527f63616e6e6f742077697468647261773a2062616c616e6365206973207a65726f6044820152606401610793565b336000818152600a60205260408082208290555183156108fc0291849190818181858888f19350505050158015611818573d6000803e3d6000fd5b5060405181815233907f884edad9ce6fa2440d8a54cc123490eb96d2768479d49ff9c7366125a94243649060200160405180910390a250565b6000610ad761185e611c0b565b8360405161190160f01b6020820152602281018390526042810182905260009060620160405160208183030381529060405280519060200120905092915050565b6000806000808451604114156118c95750505060208201516040830151606084015160001a61193f565b8451604014156118f75750505060408201516020830151906001600160ff1b0381169060ff1c601b0161193f565b60405162461bcd60e51b815260206004820152601f60248201527f45434453413a20696e76616c6964207369676e6174757265206c656e677468006044820152606401610793565b61194b86828585611cfe565b9695505050505050565b8235600090815260096020526040808220815161010081019092528054829060ff1660038111156119885761198861214e565b60038111156119995761199961214e565b815281546001600160a01b03610100909104811660208301526001808401548216604084015260028401548216606084015260038401549091166080830152600483015460a0830152600583015461ffff1660c083015260069092015460e09091015290915081516003811115611a1257611a1261214e565b14611a795760405162461bcd60e51b815260206004820152603160248201527f7061796d656e74206e6f7420696e697469616c6c7920696e206173736574207460448201527072616e7366657272696e6720737461746560781b6064820152608401610793565b611a898484848460600151611235565b611aef5760405162461bcd60e51b815260206004820152603160248201527f6f6e6c7920746865206f70657261746f722063616e207369676e20616e2061736044820152701cd95d151c985b9cd9995c94995cdd5b1d607a1b6064820152608401610793565b611aff6040850160208601611fd1565b15611b1457611b0f843582611ea7565b611b1e565b611b1e8435611777565b50505050565b6000818152600960209081526040808320805460ff19166002908117808355835161010080820186528382526001600160a01b03920482168187018190526001850154831682870152928401548216606082015260038401549091166080820152600483015460a0820152600583015461ffff1660c082015260069092015460e08301819052908552600a909352908320805491939091611bc6908490612405565b909155505060208101516040516001600160a01b039091169083907f5ff61db57638246b4e385e22ef7613d9bb0c21cc207e863676e3c7a49e39a17f90600090a35050565b60007f0000000000000000000000000000000000000000000000000000000000000000461415611c5a57507f000000000000000000000000000000000000000000000000000000000000000090565b50604080517f00000000000000000000000000000000000000000000000000000000000000006020808301919091527f0000000000000000000000000000000000000000000000000000000000000000828401527f000000000000000000000000000000000000000000000000000000000000000060608301524660808301523060a0808401919091528351808403909101815260c0909201909252805191012090565b60007f7fffffffffffffffffffffffffffffff5d576e7357a4501ddfe92f46681b20a0821115611d7b5760405162461bcd60e51b815260206004820152602260248201527f45434453413a20696e76616c6964207369676e6174757265202773272076616c604482015261756560f01b6064820152608401610793565b8360ff16601b1480611d9057508360ff16601c145b611de75760405162461bcd60e51b815260206004820152602260248201527f45434453413a20696e76616c6964207369676e6174757265202776272076616c604482015261756560f01b6064820152608401610793565b6040805160008082526020820180845288905260ff871692820192909252606081018590526080810184905260019060a0016020604051602081039080840390855afa158015611e3b573d6000803e3d6000fd5b5050604051601f1901519150506001600160a01b038116611e9e5760405162461bcd60e51b815260206004820152601860248201527f45434453413a20696e76616c6964207369676e617475726500000000000000006044820152606401610793565b95945050505050565b6000828152600960205260408120805460ff1916600317905560e082015160c0830151611ed8919061ffff16610ea9565b9050808260e00151611eea919061241d565b6040808401516001600160a01b03166000908152600a6020529081208054909190611f16908490612405565b909155505060808201516001600160a01b03166000908152600a602052604081208054839290611f47908490612405565b90915550506040518381527fe72fd4f49ae148a0d79f0e71ec9cae30076dbfde7b66f70cafd11416eae8dc629060200160405180910390a1505050565b600060e08284031215611f9657600080fd5b50919050565b600060e08284031215611fae57600080fd5b61122e8383611f84565b600060208284031215611fca57600080fd5b5035919050565b600060208284031215611fe357600080fd5b81358015158114610ed357600080fd5b600060208083528351808285015260005b8181101561202057858101830151858201604001528201612004565b81811115612032576000604083870101525b50601f01601f1916929092016040019392505050565b60008083601f84011261205a57600080fd5b50813567ffffffffffffffff81111561207257600080fd5b60208301915083602082850101111561208a57600080fd5b9250929050565b600080600061010084860312156120a757600080fd5b6120b18585611f84565b925060e084013567ffffffffffffffff8111156120cd57600080fd5b6120d986828701612048565b9497909650939450505050565b600080604083850312156120f957600080fd5b50508035926020909101359150565b80356001600160a01b038116811461211f57600080fd5b919050565b6000806040838503121561213757600080fd5b61214083612108565b946020939093013593505050565b634e487b7160e01b600052602160045260246000fd5b6004811061218257634e487b7160e01b600052602160045260246000fd5b9052565b60208101610ad78284612164565b60008060008061012085870312156121ab57600080fd5b6121b58686611f84565b935060e085013567ffffffffffffffff8111156121d157600080fd5b6121dd87828801612048565b90945092506121f190506101008601612108565b905092959194509250565b60006020828403121561220e57600080fd5b61122e82612108565b6000806040838503121561222a57600080fd5b8235915061223a60208401612108565b90509250929050565b600060408284031215611f9657600080fd5b6000806000806080858703121561226b57600080fd5b6122758686612243565b9350604085013567ffffffffffffffff81111561229157600080fd5b61229d87828801612048565b90945092506121f1905060608601612108565b6000806000606084860312156122c557600080fd5b6122cf8585612243565b9250604084013567ffffffffffffffff8111156120cd57600080fd5b6000610100820190506122ff828451612164565b602083015160018060a01b038082166020850152806040860151166040850152806060860151166060850152806080860151166080850152505060a083015160a083015261ffff60c08401511660c083015260e083015160e083015292915050565b60006020828403121561237357600080fd5b813561ffff81168114610ed357600080fd5b6020808252818101527f4f776e61626c653a2063616c6c6572206973206e6f7420746865206f776e6572604082015260600190565b600181811c908216806123ce57607f821691505b60208210811415611f9657634e487b7160e01b600052602260045260246000fd5b634e487b7160e01b600052601160045260246000fd5b60008219821115612418576124186123ef565b500190565b60008282101561242f5761242f6123ef565b500390565b600081600019048311821515161561244e5761244e6123ef565b500290565b60008261247057634e487b7160e01b600052601260045260246000fd5b50049056fea2646970667358221220c249a9c3bcd0b84b5db866267f57e7fc2f40709ae04d9f5d970aec9b9845e6d964736f6c634300080c00334c6976696e67417373657473204e61746976652043727970746f5061796d656e7473",
  "immutableReferences": {
    "282": [
      {
        "length": 32,
        "start": 7224
      }
    ],
    "284": [
      {
        "length": 32,
        "start": 7183
      }
    ],
    "286": [
      {
        "length": 32,
        "start": 7307
      }
    ],
    "288": [
      {
        "length": 32,
        "start": 7344
      }
    ],
    "290": [
      {
        "length": 32,
        "start": 7265
      }
    ]
  },
  "source": "// SPDX-License-Identifier: MIT\npragma solidity =0.8.12;\n\nimport \"./FeesCollectors.sol\";\nimport \"./EIP712Verifier.sol\";\n\n/**\n * @title Payments Contract in Native Cryptocurencies.\n * @author Freeverse.io, www.freeverse.io\n * @dev Upon transfer of cryptocurrency to this contract, it remain\n * locked until an Operator confirms the success of failure of the\n * asset transfer required to fulfil this payment.\n *\n * If no confirmation is received from the operator during the PaymentWindow,\n * all of buyer's received funds are made available to the buyer for refund.\n *\n * To start a payment, the signatures of both the buyer and the Operator are required.\n * The buyer executes the pay function, providing the operatorSig as input param.\n *\n * This contract maintains the balances of all users, it does not transfer them automatically.\n * Users need to explicitly call the 'withdraw' method, which withdraws balanceOf[msg.sender]\n * If a buyer has non-zero local balance at the moment of starting a new payment,\n * the contract reuses it, and only requires the provision of the \n * remainder required (if any) as msg.value\n *\n * Each payment has the following States Machine:\n * - NOT_STARTED -> ASSET_TRANSFERRING, triggered by pay\n * - ASSET_TRANSFERRING -> PAID, triggered by relaying assetTransferSuccess signed by operator\n * - ASSET_TRANSFERRING -> REFUNDED, triggered by relaying assetTransferFailed signed by operator\n * - ASSET_TRANSFERRING -> REFUNDED, triggered by a refund request after expirationTime\n *\n * NOTE: To ensure that the a payment process proceeds as expected when the payment starts,\n * upon acceptance of a pay/relatedPay, the following data: {operator, feesCollector, expirationTime}\n * is stored in the payment struct, and used throught the payment, regardless of\n * any possible modifications to the contract's storage.\n *\n */\n\nimport \"./IPaymentsNative.sol\";\n\ncontract PaymentsNative is IPaymentsNative, FeesCollectors, EIP712Verifier {\n    string private _acceptedCurrency;\n    uint256 private _paymentWindow;\n    bool private _isSellerRegistrationRequired;\n    mapping(address => bool) private _isRegisteredSeller;\n    mapping(bytes32 => Payment) private _payments;\n    mapping(address => uint256) private _balanceOf;\n\n    constructor(string memory currencyDescriptor) {\n        _acceptedCurrency = currencyDescriptor;\n        _paymentWindow = 30 days;\n        _isSellerRegistrationRequired = true;\n    }\n\n    /**\n     * @notice Sets the amount of time available to the operator, after the payment starts,\n     *  to confirm either the success or the failure of the asset transfer.\n     *  After this time, the payment moves to FAILED, allowing buyer to withdraw.\n     * @param window The amount of time available, in seconds.\n     */\n    function setPaymentWindow(uint256 window) external onlyOwner {\n        _paymentWindow = window;\n        emit PaymentWindow(window);\n    }\n\n    /**\n     * @notice Sets whether sellers are required to register in this contract before being\n     *  able to accept payments.\n     * @param isRequired (bool) if true, registration is required.\n     */\n    function setIsSellerRegistrationRequired(bool isRequired)\n        external\n        onlyOwner\n    {\n        _isSellerRegistrationRequired = isRequired;\n    }\n\n    /// @inheritdoc IPaymentsNative\n    function registerAsSeller() external {\n        _isRegisteredSeller[msg.sender] = true;\n        emit NewSeller(msg.sender);\n    }\n\n    /// @inheritdoc IPaymentsNative\n    function pay(PaymentInput calldata inp, bytes calldata operatorSignature)\n        external\n        payable\n    {\n        require(\n            msg.sender == inp.buyer,\n            \"only buyer can execute this function\"\n        );\n        checkPaymentInputs(inp);\n        address operator = universeOperator(inp.universeId);\n        require(\n            verifyPayment(inp, operatorSignature, operator),\n            \"incorrect operator signature\"\n        );\n        (uint256 newFunds, uint256 localFunds) = splitFundingSources(\n            inp.buyer,\n            inp.amount\n        );\n        require(\n            msg.value == newFunds,\n            \"new funds provided does not match expected value\"\n        );\n        _payments[inp.paymentId] = Payment(\n            States.AssetTransferring,\n            inp.buyer,\n            inp.seller,\n            operator,\n            universeFeesCollector(inp.universeId),\n            block.timestamp + _paymentWindow,\n            inp.feeBPS,\n            inp.amount\n        );\n        _balanceOf[inp.buyer] -= localFunds;\n        emit Payin(inp.paymentId, inp.buyer, inp.seller);\n    }\n\n    /// @inheritdoc IPaymentsNative\n    function finalize(\n        AssetTransferResult calldata result,\n        bytes calldata operatorSignature\n    ) external {\n        _finalize(result, operatorSignature);\n    }\n\n    /// @inheritdoc IPaymentsNative\n    function finalizeAndWithdraw(\n        AssetTransferResult calldata result,\n        bytes calldata operatorSignature\n    ) external {\n        _finalize(result, operatorSignature);\n        _withdraw();\n    }\n\n    /// @inheritdoc IPaymentsNative\n    function refund(bytes32 paymentId) public {\n        _refund(paymentId);\n    }\n\n    /// @inheritdoc IPaymentsNative\n    function refundAndWithdraw(bytes32 paymentId) external {\n        _refund(paymentId);\n        _withdraw();\n    }\n\n    /// @inheritdoc IPaymentsNative\n    function withdraw() external {\n        _withdraw();\n    }\n\n    // PRIVATE FUNCTIONS\n\n    /**\n     * @dev (private) Moves the payment funds to the buyer's local balance\n     *  The buyer still needs to withdraw afterwards.\n     *  Moves the payment to REFUNDED state\n     * @param paymentId The unique ID that identifies the payment.\n     */\n    function _refund(bytes32 paymentId) private {\n        require(\n            acceptsRefunds(paymentId),\n            \"payment does not accept refunds at this stage\"\n        );\n        _refundToLocalBalance(paymentId);\n    }\n\n    /**\n     * @dev (private) Uses the operator signed msg regarding asset transfer success to update\n     *  the balances of seller (on success) or buyer (on failure).\n     *  They still need to withdraw afterwards.\n     *  Moves the payment to either PAID (on success) or REFUNDED (on failure) state\n     * @param result The asset transfer result struct signed by the operator.\n     * @param operatorSignature The operator signature of result\n     */\n    function _finalize(\n        AssetTransferResult calldata result,\n        bytes calldata operatorSignature\n    ) private {\n        Payment memory p = _payments[result.paymentId];\n        require(\n            p.state == States.AssetTransferring,\n            \"payment not initially in asset transferring state\"\n        );\n        require(\n            verifyAssetTransferResult(result, operatorSignature, p.operator),\n            \"only the operator can sign an assetTransferResult\"\n        );\n        if (result.wasSuccessful) {\n            _finalizeSuccess(result.paymentId, p);\n        } else {\n            _finalizeFailed(result.paymentId);\n        }\n    }\n\n    /**\n     * @dev (private) Updates the balance of the seller on successful asset transfer\n     *  Moves the payment to PAID\n     * @param paymentId The unique ID that identifies the payment.\n     * @param p The payment struct corresponding to paymentId\n     */\n    function _finalizeSuccess(bytes32 paymentId, Payment memory p) private {\n        _payments[paymentId].state = States.Paid;\n        uint256 feeAmount = computeFeeAmount(p.amount, uint256(p.feeBPS));\n        _balanceOf[p.seller] += (p.amount - feeAmount);\n        _balanceOf[p.feesCollector] += feeAmount;\n        emit Paid(paymentId);\n    }\n\n    /**\n     * @dev (private) Updates the balance of the buyer on failed asset transfer\n     *  Moves the payment to REFUNDED\n     * @param paymentId The unique ID that identifies the payment.\n     */\n    function _finalizeFailed(bytes32 paymentId) private {\n        _refundToLocalBalance(paymentId);\n    }\n\n    /**\n     * @dev (private) Executes refund, moves to REFUNDED state\n     * @param paymentId The unique ID that identifies the payment.\n     */\n    function _refundToLocalBalance(bytes32 paymentId) private {\n        _payments[paymentId].state = States.Refunded;\n        Payment memory p = _payments[paymentId];\n        _balanceOf[p.buyer] += p.amount;\n        emit BuyerRefunded(paymentId, p.buyer);\n    }\n\n    /**\n     * @dev (private) Transfers funds available in this\n     *  contract's balanceOf[msg.sender] to msg.sender\n     *  Follows standard Checks-Effects-Interactions pattern\n     *  to protect against re-entrancy attacks.\n     */\n    function _withdraw() private {\n        uint256 amount = _balanceOf[msg.sender];\n        require(amount > 0, \"cannot withdraw: balance is zero\");\n        _balanceOf[msg.sender] = 0;\n        payable(msg.sender).transfer(amount);        \n        emit Withdraw(msg.sender, amount);\n    }\n\n    // VIEW FUNCTIONS\n\n    /// @inheritdoc IPaymentsNative\n    function isSellerRegistrationRequired() external view returns (bool) {\n        return _isSellerRegistrationRequired;\n    }\n\n    /// @inheritdoc IPaymentsNative\n    function isRegisteredSeller(address addr) external view returns (bool) {\n        return _isRegisteredSeller[addr];\n    }\n\n    /// @inheritdoc IPaymentsNative\n    function balanceOf(address addr) external view returns (uint256) {\n        return _balanceOf[addr];\n    }\n\n    /// @inheritdoc IPaymentsNative\n    function paymentInfo(bytes32 paymentId)\n        external\n        view\n        returns (Payment memory)\n    {\n        return _payments[paymentId];\n    }\n\n    /// @inheritdoc IPaymentsNative\n    function paymentState(bytes32 paymentId) public view returns (States) {\n        return _payments[paymentId].state;\n    }\n\n    /// @inheritdoc IPaymentsNative\n    function acceptsRefunds(bytes32 paymentId) public view returns (bool) {\n        return\n            (paymentState(paymentId) == States.AssetTransferring) &&\n            (block.timestamp > _payments[paymentId].expirationTime);\n    }\n\n    /// @inheritdoc IPaymentsNative\n    function paymentWindow() external view returns (uint256) {\n        return _paymentWindow;\n    }\n\n    /// @inheritdoc IPaymentsNative\n    function acceptedCurrency() external view returns (string memory) {\n        return _acceptedCurrency;\n    }\n\n    function enoughFundsAvailable(address buyer, uint256 amount)\n        public\n        view\n        returns (bool)\n    {\n        return maxFundsAvailable(buyer) >= amount;\n    }\n\n    /// @inheritdoc IPaymentsNative\n    function maxFundsAvailable(address buyer) public view returns (uint256) {\n        return _balanceOf[buyer] +  buyer.balance;\n    }\n\n    /// @inheritdoc IPaymentsNative\n    function splitFundingSources(address buyer, uint256 amount)\n        public\n        view\n        returns (uint256 externalFunds, uint256 localFunds)\n    {\n        uint256 localBalance = _balanceOf[buyer];\n        localFunds = (amount > localBalance) ? localBalance : amount;\n        externalFunds = (amount > localBalance) ? amount - localBalance : 0;\n    }\n\n    /// @inheritdoc IPaymentsNative\n    function checkPaymentInputs(PaymentInput calldata inp) public view {\n        require(inp.feeBPS <= 10000, \"fee cannot be larger than 100 percent\");\n        require(\n            paymentState(inp.paymentId) == States.NotStarted,\n            \"payment in incorrect curent state\"\n        );\n        require(block.timestamp <= inp.deadline, \"payment deadline expired\");\n        if (_isSellerRegistrationRequired)\n            require(_isRegisteredSeller[inp.seller], \"seller not registered\");\n    }\n\n    // PURE FUNCTIONS\n\n    /// @inheritdoc IPaymentsNative\n    function computeFeeAmount(uint256 amount, uint256 feeBPS)\n        public\n        pure\n        returns (uint256)\n    {\n        uint256 feeAmount = (amount * feeBPS) / 10000;\n        return (feeAmount <= amount) ? feeAmount : amount;\n    }\n}\n",
  "sourcePath": "/Users/toni/gits/cryptoPaymentsNative/contracts/PaymentsNative.sol",
  "compiler": {
    "name": "solc",
    "version": "0.8.12+commit.f00d7308.Emscripten.clang"
  },
  "schemaVersion": "3.4.3",
  "updatedAt": "2022-03-30T13:09:47.954Z",
  "devdoc": {
    "kind": "dev",
    "methods": {
      "acceptedCurrency()": {
        "returns": {
          "_0": "the string describing the currency"
        }
      },
      "acceptsRefunds(bytes32)": {
        "details": "The payment must be in ASSET_TRANSFERRING and beyond expirationTime.",
        "params": {
          "paymentId": "The unique ID that identifies the payment."
        },
        "returns": {
          "_0": "true if the payment accepts a refund to the buyer."
        }
      },
      "balanceOf(address)": {
        "params": {
          "addr": "the address that is queried"
        },
        "returns": {
          "_0": "the local balance"
        }
      },
      "checkPaymentInputs((bytes32,uint256,uint16,uint256,uint256,address,address))": {
        "params": {
          "inp": "The PaymentInput struct"
        }
      },
      "computeFeeAmount(uint256,uint256)": {
        "details": "Must return a value that is guaranteed to be less or equal to the provided amount",
        "params": {
          "amount": "The amount",
          "feeBPS": "The percentage fee expressed in Basis Points (bps).  feeBPS examples:  2.5% = 250 bps, 10% = 1000 bps, 100% = 10000 bps"
        },
        "returns": {
          "_0": "The fee amount"
        }
      },
      "enoughFundsAvailable(address,uint256)": {
        "details": "In more detail: returns true if the sum of the buyer's local balance in this contract,  plus the external balance in the native crypto, are larger or equal than 'amount'",
        "params": {
          "amount": "The amount that is queried",
          "buyer": "The address for which funds are queried"
        },
        "returns": {
          "_0": "Returns true if enough funds are available"
        }
      },
      "finalize((bytes32,bool),bytes)": {
        "details": "Can be executed by anyone, but the operator signature must be included as input param.  Seller or Buyer's balances are updated, allowing explicit withdrawal.  Moves payment to PAID or REFUNDED state on transfer success/failure, respectively.",
        "params": {
          "operatorSignature": "The operator signature of result",
          "result": "The asset transfer result struct signed by the operator."
        }
      },
      "finalizeAndWithdraw((bytes32,bool),bytes)": {
        "details": "Can be executed by anyone, but the operator signature must be included as input param.  It is, however, expected to be executed by the seller, in case of a successful asset transfer,  or the buyer, in case of a failed asset transfer.  Moves payment to PAID or REFUNDED state on transfer success/failure, respectively.",
        "params": {
          "operatorSignature": "The operator signature of result",
          "result": "The asset transfer result struct signed by the operator."
        }
      },
      "isRegisteredSeller(address)": {
        "params": {
          "addr": "the address that is queried"
        },
        "returns": {
          "_0": "Returns whether the address is registered as seller"
        }
      },
      "isSellerRegistrationRequired()": {
        "returns": {
          "_0": "Returns true if sellers need to be registered to be able to accept payments"
        }
      },
      "maxFundsAvailable(address)": {
        "details": "In more detail: returns the sum of the buyer's local balance in this contract,  plus the external balance in the native crypto.",
        "params": {
          "buyer": "The address for which funds are queried"
        },
        "returns": {
          "_0": "the max funds available"
        }
      },
      "owner()": {
        "details": "Returns the address of the current owner."
      },
      "pay((bytes32,uint256,uint16,uint256,uint256,address,address),bytes)": {
        "details": "Executed by the buyer, who relays the MetaTX with the operator's signature.  The buyer must provide the correct amount via msg.value.  If all requirements are fulfilled, it stores the data relevant  for the next steps of the payment, and it locks the funds  in this contract.  Follows standard Checks-Effects-Interactions pattern  to protect against re-entrancy attacks.  Moves payment to ASSET_TRANSFERRING state.",
        "params": {
          "inp": "The struct containing all required payment data",
          "operatorSignature": "The signature of 'inp' by the operator"
        }
      },
      "paymentInfo(bytes32)": {
        "params": {
          "paymentId": "The unique ID that identifies the payment."
        },
        "returns": {
          "_0": "the struct stored for the payment"
        }
      },
      "paymentState(bytes32)": {
        "details": "If payment is in ASSET_TRANSFERRING, it may be worth  checking acceptsRefunds ot check if it has gone beyond expirationTime.",
        "params": {
          "paymentId": "The unique ID that identifies the payment."
        },
        "returns": {
          "_0": "the state of the payment."
        }
      },
      "paymentWindow()": {
        "returns": {
          "_0": "the payment window in secs"
        }
      },
      "refund(bytes32)": {
        "details": "Anybody can call this function.  Requires acceptsRefunds == true to proceed.  After updating buyer's balance, he/she can later withdraw.  Moves payment to REFUNDED state.",
        "params": {
          "paymentId": "The unique ID that identifies the payment."
        }
      },
      "refundAndWithdraw(bytes32)": {
        "details": "Anybody can call this function.  Requires acceptsRefunds == true to proceed.  All of msg.sender's balance in the contract is withdrawn,  not only the part that was locked in this particular paymentId  Moves payment to REFUNDED state.",
        "params": {
          "paymentId": "The unique ID that identifies the payment."
        }
      },
      "renounceOwnership()": {
        "details": "Leaves the contract without owner. It will not be possible to call `onlyOwner` functions anymore. Can only be called by the current owner. NOTE: Renouncing ownership will leave the contract without an owner, thereby removing any functionality that is only available to the owner."
      },
      "setIsSellerRegistrationRequired(bool)": {
        "params": {
          "isRequired": "(bool) if true, registration is required."
        }
      },
      "setPaymentWindow(uint256)": {
        "params": {
          "window": "The amount of time available, in seconds."
        }
      },
      "splitFundingSources(address,uint256)": {
        "params": {
          "amount": "The amount to be split",
          "buyer": "The address for which the amount is to be split"
        },
        "returns": {
          "externalFunds": "The amount of funds required to be transferred from the external buyer balance",
          "localFunds": "The amount of local funds that will be used."
        }
      },
      "transferOwnership(address)": {
        "details": "Transfers ownership of the contract to a new account (`newOwner`). Can only be called by the current owner."
      },
      "verifyAssetTransferResult((bytes32,bool),bytes,address)": {
        "params": {
          "result": "The provided AssetTransferResult struct",
          "signature": "The provided signature of the input struct",
          "signer": "The signer's address that we want to verify"
        },
        "returns": {
          "_0": "Returns true if the signature corresponds to the signer  having signed the input struct"
        }
      },
      "verifyPayment((bytes32,uint256,uint16,uint256,uint256,address,address),bytes,address)": {
        "params": {
          "inp": "The provided PaymentInput struct",
          "signature": "The provided signature of the input struct",
          "signer": "The signer's address that we want to verify"
        },
        "returns": {
          "_0": "Returns true if the signature corresponds to the   provided signer having signed the input struct"
        }
      }
    },
    "version": 1
  },
  "userdoc": {
    "kind": "user",
    "methods": {
      "acceptedCurrency()": {
        "notice": "Returns a descriptor about the currency that this contract accepts"
      },
      "acceptsRefunds(bytes32)": {
        "notice": "Returns true if the payment accepts a refund to the buyer"
      },
      "balanceOf(address)": {
        "notice": "Returns the local balance of the provided address that is stored in this  contract, and hence, available for withdrawal."
      },
      "checkPaymentInputs((bytes32,uint256,uint16,uint256,uint256,address,address))": {
        "notice": "Reverts unless the requirements for a PaymentInput that  are common to both pay and relayedPay are fulfilled."
      },
      "computeFeeAmount(uint256,uint256)": {
        "notice": "Safe computation of fee amount for a provided amount, feeBPS pair"
      },
      "enoughFundsAvailable(address,uint256)": {
        "notice": "Returns true if the 'amount' required for a payment is available to this contract."
      },
      "finalize((bytes32,bool),bytes)": {
        "notice": "Relays the operator signature declaring that the asset transfer was successful or failed,  and updates balances of seller or buyer, respectively."
      },
      "finalizeAndWithdraw((bytes32,bool),bytes)": {
        "notice": "Relays the operator signature declaring that the asset transfer was successful or failed,  updates balances of seller or buyer, respectively,  and proceeds to withdraw all funds in this contract available to msg.sender."
      },
      "isRegisteredSeller(address)": {
        "notice": "Returns true if the address provided is a registered seller"
      },
      "isSellerRegistrationRequired()": {
        "notice": "Returns whether sellers need to be registered to be able to accept payments"
      },
      "maxFundsAvailable(address)": {
        "notice": "Returns the maximum amount of funds available to a buyer"
      },
      "pay((bytes32,uint256,uint16,uint256,uint256,address,address),bytes)": {
        "notice": "Starts Payment process by the buyer."
      },
      "paymentInfo(bytes32)": {
        "notice": "Returns all data stored in a payment"
      },
      "paymentState(bytes32)": {
        "notice": "Returns the state of a payment."
      },
      "paymentWindow()": {
        "notice": "Returns the amount of seconds that a payment  can remain in ASSET_TRANSFERRING state without positive  or negative confirmation by the operator"
      },
      "refund(bytes32)": {
        "notice": "Moves buyer's provided funds to buyer's balance."
      },
      "refundAndWithdraw(bytes32)": {
        "notice": "Executes refund and withdraw in one transaction."
      },
      "registerAsSeller()": {
        "notice": "Registers msg.sender as seller so that he/she can accept payments."
      },
      "setIsSellerRegistrationRequired(bool)": {
        "notice": "Sets whether sellers are required to register in this contract before being  able to accept payments."
      },
      "setPaymentWindow(uint256)": {
        "notice": "Sets the amount of time available to the operator, after the payment starts,  to confirm either the success or the failure of the asset transfer.  After this time, the payment moves to FAILED, allowing buyer to withdraw."
      },
      "splitFundingSources(address,uint256)": {
        "notice": "Splits the funds required to pay 'amount' into two sources:  - externalFunds: the amount of crypto required to be transferred from the external buyer balance  - localFunds: the amount of crypto required from the buyer's already available balance in this contract."
      },
      "verifyAssetTransferResult((bytes32,bool),bytes,address)": {
        "notice": "Verifies that the provided AssetTransferResult struct   has been signed by the provided signer."
      },
      "verifyPayment((bytes32,uint256,uint16,uint256,uint256,address,address),bytes,address)": {
        "notice": "Verifies that the provided PaymentInput struct has been signed  by the provided signer."
      },
      "withdraw()": {
        "notice": "Transfers funds avaliable in this  contract's balanceOf[msg.sender] to msg.sender"
      }
    },
    "version": 1
  }
}