{
  "contractName": "PaymentsNative",
  "abi": [
    {
      "inputs": [
        {
          "internalType": "string",
          "name": "currencyDescriptor",
          "type": "string"
        },
        {
          "internalType": "address",
          "name": "eip712",
          "type": "address"
        }
      ],
      "stateMutability": "nonpayable",
      "type": "constructor"
    },
    {
      "anonymous": false,
      "inputs": [
        {
          "indexed": true,
          "internalType": "bytes32",
          "name": "paymentId",
          "type": "bytes32"
        },
        {
          "indexed": true,
          "internalType": "address",
          "name": "buyer",
          "type": "address"
        }
      ],
      "name": "BuyerRefunded",
      "type": "event"
    },
    {
      "anonymous": false,
      "inputs": [
        {
          "indexed": true,
          "internalType": "address",
          "name": "feesCollector",
          "type": "address"
        }
      ],
      "name": "DefaultFeesCollector",
      "type": "event"
    },
    {
      "anonymous": false,
      "inputs": [
        {
          "indexed": true,
          "internalType": "address",
          "name": "operator",
          "type": "address"
        }
      ],
      "name": "DefaultOperator",
      "type": "event"
    },
    {
      "anonymous": false,
      "inputs": [
        {
          "indexed": false,
          "internalType": "address",
          "name": "eip712address",
          "type": "address"
        }
      ],
      "name": "EIP712",
      "type": "event"
    },
    {
      "anonymous": false,
      "inputs": [
        {
          "indexed": true,
          "internalType": "address",
          "name": "seller",
          "type": "address"
        }
      ],
      "name": "NewSeller",
      "type": "event"
    },
    {
      "anonymous": false,
      "inputs": [
        {
          "indexed": true,
          "internalType": "address",
          "name": "previousOwner",
          "type": "address"
        },
        {
          "indexed": true,
          "internalType": "address",
          "name": "newOwner",
          "type": "address"
        }
      ],
      "name": "OwnershipTransferred",
      "type": "event"
    },
    {
      "anonymous": false,
      "inputs": [
        {
          "indexed": true,
          "internalType": "bytes32",
          "name": "paymentId",
          "type": "bytes32"
        }
      ],
      "name": "Paid",
      "type": "event"
    },
    {
      "anonymous": false,
      "inputs": [
        {
          "indexed": true,
          "internalType": "bytes32",
          "name": "paymentId",
          "type": "bytes32"
        },
        {
          "indexed": true,
          "internalType": "address",
          "name": "buyer",
          "type": "address"
        },
        {
          "indexed": true,
          "internalType": "address",
          "name": "seller",
          "type": "address"
        }
      ],
      "name": "PayIn",
      "type": "event"
    },
    {
      "anonymous": false,
      "inputs": [
        {
          "indexed": false,
          "internalType": "uint256",
          "name": "window",
          "type": "uint256"
        }
      ],
      "name": "PaymentWindow",
      "type": "event"
    },
    {
      "anonymous": false,
      "inputs": [
        {
          "indexed": true,
          "internalType": "uint256",
          "name": "universeId",
          "type": "uint256"
        },
        {
          "indexed": true,
          "internalType": "address",
          "name": "feesCollector",
          "type": "address"
        }
      ],
      "name": "UniverseFeesCollector",
      "type": "event"
    },
    {
      "anonymous": false,
      "inputs": [
        {
          "indexed": true,
          "internalType": "uint256",
          "name": "universeId",
          "type": "uint256"
        },
        {
          "indexed": true,
          "internalType": "address",
          "name": "operator",
          "type": "address"
        }
      ],
      "name": "UniverseOperator",
      "type": "event"
    },
    {
      "anonymous": false,
      "inputs": [
        {
          "indexed": true,
          "internalType": "address",
          "name": "user",
          "type": "address"
        },
        {
          "indexed": false,
          "internalType": "uint256",
          "name": "amount",
          "type": "uint256"
        }
      ],
      "name": "Withdraw",
      "type": "event"
    },
    {
      "inputs": [],
      "name": "defaultFeesCollector",
      "outputs": [
        {
          "internalType": "address",
          "name": "",
          "type": "address"
        }
      ],
      "stateMutability": "view",
      "type": "function"
    },
    {
      "inputs": [],
      "name": "defaultOperator",
      "outputs": [
        {
          "internalType": "address",
          "name": "",
          "type": "address"
        }
      ],
      "stateMutability": "view",
      "type": "function"
    },
    {
      "inputs": [],
      "name": "owner",
      "outputs": [
        {
          "internalType": "address",
          "name": "",
          "type": "address"
        }
      ],
      "stateMutability": "view",
      "type": "function"
    },
    {
      "inputs": [
        {
          "internalType": "uint256",
          "name": "universeId",
          "type": "uint256"
        }
      ],
      "name": "removeUniverseFeesCollector",
      "outputs": [],
      "stateMutability": "nonpayable",
      "type": "function"
    },
    {
      "inputs": [
        {
          "internalType": "uint256",
          "name": "universeId",
          "type": "uint256"
        }
      ],
      "name": "removeUniverseOperator",
      "outputs": [],
      "stateMutability": "nonpayable",
      "type": "function"
    },
    {
      "inputs": [],
      "name": "renounceOwnership",
      "outputs": [],
      "stateMutability": "nonpayable",
      "type": "function"
    },
    {
      "inputs": [
        {
          "internalType": "address",
          "name": "feesCollector",
          "type": "address"
        }
      ],
      "name": "setDefaultFeesCollector",
      "outputs": [],
      "stateMutability": "nonpayable",
      "type": "function"
    },
    {
      "inputs": [
        {
          "internalType": "address",
          "name": "operator",
          "type": "address"
        }
      ],
      "name": "setDefaultOperator",
      "outputs": [],
      "stateMutability": "nonpayable",
      "type": "function"
    },
    {
      "inputs": [
        {
          "internalType": "uint256",
          "name": "universeId",
          "type": "uint256"
        },
        {
          "internalType": "address",
          "name": "feesCollector",
          "type": "address"
        }
      ],
      "name": "setUniverseFeesCollector",
      "outputs": [],
      "stateMutability": "nonpayable",
      "type": "function"
    },
    {
      "inputs": [
        {
          "internalType": "uint256",
          "name": "universeId",
          "type": "uint256"
        },
        {
          "internalType": "address",
          "name": "operator",
          "type": "address"
        }
      ],
      "name": "setUniverseOperator",
      "outputs": [],
      "stateMutability": "nonpayable",
      "type": "function"
    },
    {
      "inputs": [
        {
          "internalType": "address",
          "name": "newOwner",
          "type": "address"
        }
      ],
      "name": "transferOwnership",
      "outputs": [],
      "stateMutability": "nonpayable",
      "type": "function"
    },
    {
      "inputs": [
        {
          "internalType": "uint256",
          "name": "universeId",
          "type": "uint256"
        }
      ],
      "name": "universeFeesCollector",
      "outputs": [
        {
          "internalType": "address",
          "name": "",
          "type": "address"
        }
      ],
      "stateMutability": "view",
      "type": "function"
    },
    {
      "inputs": [
        {
          "internalType": "uint256",
          "name": "universeId",
          "type": "uint256"
        }
      ],
      "name": "universeOperator",
      "outputs": [
        {
          "internalType": "address",
          "name": "",
          "type": "address"
        }
      ],
      "stateMutability": "view",
      "type": "function"
    },
    {
      "inputs": [
        {
          "internalType": "address",
          "name": "eip712address",
          "type": "address"
        }
      ],
      "name": "setEIP712",
      "outputs": [],
      "stateMutability": "nonpayable",
      "type": "function"
    },
    {
      "inputs": [
        {
          "internalType": "uint256",
          "name": "window",
          "type": "uint256"
        }
      ],
      "name": "setPaymentWindow",
      "outputs": [],
      "stateMutability": "nonpayable",
      "type": "function"
    },
    {
      "inputs": [
        {
          "internalType": "bool",
          "name": "isRequired",
          "type": "bool"
        }
      ],
      "name": "setIsSellerRegistrationRequired",
      "outputs": [],
      "stateMutability": "nonpayable",
      "type": "function"
    },
    {
      "inputs": [],
      "name": "registerAsSeller",
      "outputs": [],
      "stateMutability": "nonpayable",
      "type": "function"
    },
    {
      "inputs": [
        {
          "components": [
            {
              "internalType": "bytes32",
              "name": "paymentId",
              "type": "bytes32"
            },
            {
              "internalType": "uint256",
              "name": "amount",
              "type": "uint256"
            },
            {
              "internalType": "uint256",
              "name": "feeBPS",
              "type": "uint256"
            },
            {
              "internalType": "uint256",
              "name": "universeId",
              "type": "uint256"
            },
            {
              "internalType": "uint256",
              "name": "deadline",
              "type": "uint256"
            },
            {
              "internalType": "address",
              "name": "buyer",
              "type": "address"
            },
            {
              "internalType": "address",
              "name": "seller",
              "type": "address"
            }
          ],
          "internalType": "struct ISignableStructs.PaymentInput",
          "name": "payInput",
          "type": "tuple"
        },
        {
          "internalType": "bytes",
          "name": "operatorSignature",
          "type": "bytes"
        }
      ],
      "name": "pay",
      "outputs": [],
      "stateMutability": "payable",
      "type": "function"
    },
    {
      "inputs": [
        {
          "components": [
            {
              "internalType": "bytes32",
              "name": "paymentId",
              "type": "bytes32"
            },
            {
              "internalType": "bool",
              "name": "wasSuccessful",
              "type": "bool"
            }
          ],
          "internalType": "struct ISignableStructs.AssetTransferResult",
          "name": "transferResult",
          "type": "tuple"
        },
        {
          "internalType": "bytes",
          "name": "operatorSignature",
          "type": "bytes"
        }
      ],
      "name": "finalize",
      "outputs": [],
      "stateMutability": "nonpayable",
      "type": "function"
    },
    {
      "inputs": [
        {
          "components": [
            {
              "internalType": "bytes32",
              "name": "paymentId",
              "type": "bytes32"
            },
            {
              "internalType": "bool",
              "name": "wasSuccessful",
              "type": "bool"
            }
          ],
          "internalType": "struct ISignableStructs.AssetTransferResult",
          "name": "transferResult",
          "type": "tuple"
        },
        {
          "internalType": "bytes",
          "name": "operatorSignature",
          "type": "bytes"
        }
      ],
      "name": "finalizeAndWithdraw",
      "outputs": [],
      "stateMutability": "nonpayable",
      "type": "function"
    },
    {
      "inputs": [
        {
          "internalType": "bytes32",
          "name": "paymentId",
          "type": "bytes32"
        }
      ],
      "name": "refund",
      "outputs": [],
      "stateMutability": "nonpayable",
      "type": "function"
    },
    {
      "inputs": [
        {
          "internalType": "bytes32",
          "name": "paymentId",
          "type": "bytes32"
        }
      ],
      "name": "refundAndWithdraw",
      "outputs": [],
      "stateMutability": "nonpayable",
      "type": "function"
    },
    {
      "inputs": [],
      "name": "withdraw",
      "outputs": [],
      "stateMutability": "nonpayable",
      "type": "function"
    },
    {
      "inputs": [
        {
          "internalType": "uint256",
          "name": "amount",
          "type": "uint256"
        }
      ],
      "name": "withdrawAmount",
      "outputs": [],
      "stateMutability": "nonpayable",
      "type": "function"
    },
    {
      "inputs": [],
      "name": "isSellerRegistrationRequired",
      "outputs": [
        {
          "internalType": "bool",
          "name": "",
          "type": "bool"
        }
      ],
      "stateMutability": "view",
      "type": "function"
    },
    {
      "inputs": [
        {
          "internalType": "address",
          "name": "addr",
          "type": "address"
        }
      ],
      "name": "isRegisteredSeller",
      "outputs": [
        {
          "internalType": "bool",
          "name": "",
          "type": "bool"
        }
      ],
      "stateMutability": "view",
      "type": "function"
    },
    {
      "inputs": [
        {
          "internalType": "address",
          "name": "addr",
          "type": "address"
        }
      ],
      "name": "balanceOf",
      "outputs": [
        {
          "internalType": "uint256",
          "name": "",
          "type": "uint256"
        }
      ],
      "stateMutability": "view",
      "type": "function"
    },
    {
      "inputs": [
        {
          "internalType": "bytes32",
          "name": "paymentId",
          "type": "bytes32"
        }
      ],
      "name": "paymentInfo",
      "outputs": [
        {
          "components": [
            {
              "internalType": "enum IPaymentsNative.State",
              "name": "state",
              "type": "uint8"
            },
            {
              "internalType": "address",
              "name": "buyer",
              "type": "address"
            },
            {
              "internalType": "address",
              "name": "seller",
              "type": "address"
            },
            {
              "internalType": "address",
              "name": "operator",
              "type": "address"
            },
            {
              "internalType": "address",
              "name": "feesCollector",
              "type": "address"
            },
            {
              "internalType": "uint256",
              "name": "expirationTime",
              "type": "uint256"
            },
            {
              "internalType": "uint256",
              "name": "feeBPS",
              "type": "uint256"
            },
            {
              "internalType": "uint256",
              "name": "amount",
              "type": "uint256"
            }
          ],
          "internalType": "struct IPaymentsNative.Payment",
          "name": "",
          "type": "tuple"
        }
      ],
      "stateMutability": "view",
      "type": "function"
    },
    {
      "inputs": [
        {
          "internalType": "bytes32",
          "name": "paymentId",
          "type": "bytes32"
        }
      ],
      "name": "paymentState",
      "outputs": [
        {
          "internalType": "enum IPaymentsNative.State",
          "name": "",
          "type": "uint8"
        }
      ],
      "stateMutability": "view",
      "type": "function"
    },
    {
      "inputs": [
        {
          "internalType": "bytes32",
          "name": "paymentId",
          "type": "bytes32"
        }
      ],
      "name": "acceptsRefunds",
      "outputs": [
        {
          "internalType": "bool",
          "name": "",
          "type": "bool"
        }
      ],
      "stateMutability": "view",
      "type": "function"
    },
    {
      "inputs": [],
      "name": "EIP712Address",
      "outputs": [
        {
          "internalType": "address",
          "name": "",
          "type": "address"
        }
      ],
      "stateMutability": "view",
      "type": "function"
    },
    {
      "inputs": [],
      "name": "paymentWindow",
      "outputs": [
        {
          "internalType": "uint256",
          "name": "",
          "type": "uint256"
        }
      ],
      "stateMutability": "view",
      "type": "function"
    },
    {
      "inputs": [],
      "name": "acceptedCurrency",
      "outputs": [
        {
          "internalType": "string",
          "name": "",
          "type": "string"
        }
      ],
      "stateMutability": "view",
      "type": "function"
    },
    {
      "inputs": [
        {
          "internalType": "address",
          "name": "buyer",
          "type": "address"
        },
        {
          "internalType": "uint256",
          "name": "amount",
          "type": "uint256"
        }
      ],
      "name": "enoughFundsAvailable",
      "outputs": [
        {
          "internalType": "bool",
          "name": "",
          "type": "bool"
        }
      ],
      "stateMutability": "view",
      "type": "function"
    },
    {
      "inputs": [
        {
          "internalType": "address",
          "name": "buyer",
          "type": "address"
        }
      ],
      "name": "maxFundsAvailable",
      "outputs": [
        {
          "internalType": "uint256",
          "name": "",
          "type": "uint256"
        }
      ],
      "stateMutability": "view",
      "type": "function"
    },
    {
      "inputs": [
        {
          "internalType": "address",
          "name": "buyer",
          "type": "address"
        },
        {
          "internalType": "uint256",
          "name": "amount",
          "type": "uint256"
        }
      ],
      "name": "splitFundingSources",
      "outputs": [
        {
          "internalType": "uint256",
          "name": "externalFunds",
          "type": "uint256"
        },
        {
          "internalType": "uint256",
          "name": "localFunds",
          "type": "uint256"
        }
      ],
      "stateMutability": "view",
      "type": "function"
    },
    {
      "inputs": [
        {
          "components": [
            {
              "internalType": "bytes32",
              "name": "paymentId",
              "type": "bytes32"
            },
            {
              "internalType": "uint256",
              "name": "amount",
              "type": "uint256"
            },
            {
              "internalType": "uint256",
              "name": "feeBPS",
              "type": "uint256"
            },
            {
              "internalType": "uint256",
              "name": "universeId",
              "type": "uint256"
            },
            {
              "internalType": "uint256",
              "name": "deadline",
              "type": "uint256"
            },
            {
              "internalType": "address",
              "name": "buyer",
              "type": "address"
            },
            {
              "internalType": "address",
              "name": "seller",
              "type": "address"
            }
          ],
          "internalType": "struct ISignableStructs.PaymentInput",
          "name": "payInput",
          "type": "tuple"
        }
      ],
      "name": "checkPaymentInputs",
      "outputs": [],
      "stateMutability": "view",
      "type": "function"
    },
    {
      "inputs": [
        {
          "internalType": "uint256",
          "name": "amount",
          "type": "uint256"
        },
        {
          "internalType": "uint256",
          "name": "feeBPS",
          "type": "uint256"
        }
      ],
      "name": "computeFeeAmount",
      "outputs": [
        {
          "internalType": "uint256",
          "name": "",
          "type": "uint256"
        }
      ],
      "stateMutability": "pure",
      "type": "function"
    }
  ],
  "bytecode": "0x60806040523480156200001157600080fd5b50604051620025b9380380620025b9833981016040819052620000349162000214565b600080546001600160a01b031916339081178255604051909182917f8be0079c531659141344cd1fd0a4f28419497f9722a3daafe3b4186f6b6457e0908290a350600180546001600160a01b031916339081179091556040517fa60019696f11f9aa952db763c0de585f819d10fcafcfbd301a27d02e9caa41b090600090a2600380546001600160a01b031916339081179091556040517fec71ba738f211337eaf29e2d87bdb1b0928316c20db0a3a1108aa43321583b5090600090a2600580546001600160a01b0319166001600160a01b0383161790558151620001219060069060208501906200013b565b505062278d00600755506008805460ff1916905562000342565b828054620001499062000305565b90600052602060002090601f0160209004810192826200016d5760008555620001b8565b82601f106200018857805160ff1916838001178555620001b8565b82800160010185558215620001b8579182015b82811115620001b85782518255916020019190600101906200019b565b50620001c6929150620001ca565b5090565b5b80821115620001c65760008155600101620001cb565b634e487b7160e01b600052604160045260246000fd5b80516001600160a01b03811681146200020f57600080fd5b919050565b600080604083850312156200022857600080fd5b82516001600160401b03808211156200024057600080fd5b818501915085601f8301126200025557600080fd5b8151818111156200026a576200026a620001e1565b604051601f8201601f19908116603f01168101908382118183101715620002955762000295620001e1565b81604052828152602093508884848701011115620002b257600080fd5b600091505b82821015620002d65784820184015181830185015290830190620002b7565b82821115620002e85760008484830101525b9550620002fa915050858201620001f7565b925050509250929050565b600181811c908216806200031a57607f821691505b602082108114156200033c57634e487b7160e01b600052602260045260246000fd5b50919050565b61226780620003526000396000f3fe6080604052600436106102255760003560e01c80637ac83f9b11610123578063b2685a3e116100ab578063dca721001161006f578063dca721001461069f578063dd115ab2146106bf578063f2cc55ee146106ec578063f2fde38b1461070a578063fd5773431461072a57600080fd5b8063b2685a3e1461060a578063b708fe371461062a578063c67eb9e51461064a578063caa3cecc1461066a578063cab55d561461068a57600080fd5b80638da5cb5b116100f25780638da5cb5b1461056c57806396aa71b01461058a578063982ed326146105aa5780639cfd495c146105ca578063a1bc474d146105ea57600080fd5b80637ac83f9b146104ee5780637b018ab91461050e57806380ca11fc1461052e57806385a2910d1461054c57600080fd5b80632af41be4116101b15780634bfc75fc116101755780634bfc75fc1461041857806370a082311461044a578063715018a6146104805780637249fbb61461049557806378e96fb5146104b557600080fd5b80632af41be41461034357806331784b6d14610371578063317cb0181461039157806334b778ed146103c65780633ccfd60b1461040357600080fd5b80631c6d7675116101f85780631c6d7675146102a1578063221a832e146102cc57806323f7a900146102f0578063244aa5d7146103035780632593308b1461032357600080fd5b80630562b9f71461022a57806306968bd91461024c578063128b85321461026c5780631a29b6ab14610281575b600080fd5b34801561023657600080fd5b5061024a610245366004611d12565b61074a565b005b34801561025857600080fd5b5061024a610267366004611d12565b6107de565b34801561027857600080fd5b5061024a61085f565b34801561028d57600080fd5b5061024a61029c366004611d39565b610901565b3480156102ad57600080fd5b506102b661093e565b6040516102c39190611d56565b60405180910390f35b3480156102d857600080fd5b5060085460ff165b60405190151581526020016102c3565b61024a6102fe366004611e0c565b6109d0565b34801561030f57600080fd5b506102e061031e366004611d12565b610e71565b34801561032f57600080fd5b5061024a61033e366004611d12565b610ebb565b34801561034f57600080fd5b5061036361035e366004611e61565b610ecf565b6040519081526020016102c3565b34801561037d57600080fd5b5061024a61038c366004611d12565b610f03565b34801561039d57600080fd5b506103b16103ac366004611e9f565b610f84565b604080519283526020830191909152016102c3565b3480156103d257600080fd5b506103f66103e1366004611d12565b6000908152600a602052604090205460ff1690565b6040516102c39190611f01565b34801561040f57600080fd5b5061024a610fd2565b34801561042457600080fd5b506005546001600160a01b03165b6040516001600160a01b0390911681526020016102c3565b34801561045657600080fd5b50610363610465366004611f0f565b6001600160a01b03166000908152600b602052604090205490565b34801561048c57600080fd5b5061024a610fdc565b3480156104a157600080fd5b5061024a6104b0366004611d12565b611050565b3480156104c157600080fd5b506102e06104d0366004611f0f565b6001600160a01b031660009081526009602052604090205460ff1690565b3480156104fa57600080fd5b5061024a610509366004611f2a565b611059565b34801561051a57600080fd5b50610432610529366004611d12565b6110dc565b34801561053a57600080fd5b506003546001600160a01b0316610432565b34801561055857600080fd5b5061024a610567366004611f2a565b611114565b34801561057857600080fd5b506000546001600160a01b0316610432565b34801561059657600080fd5b5061024a6105a5366004611f56565b611197565b3480156105b657600080fd5b5061024a6105c5366004611d12565b6111a7565b3480156105d657600080fd5b506102e06105e5366004611e9f565b61126c565b3480156105f657600080fd5b5061024a610605366004611f56565b611281565b34801561061657600080fd5b5061024a610625366004611f0f565b611294565b34801561063657600080fd5b5061024a610645366004611f0f565b611308565b34801561065657600080fd5b50610363610665366004611f0f565b611380565b34801561067657600080fd5b5061024a610685366004611f98565b6113a7565b34801561069657600080fd5b50600754610363565b3480156106ab57600080fd5b506104326106ba366004611d12565b61155b565b3480156106cb57600080fd5b506106df6106da366004611d12565b611592565b6040516102c39190611fb4565b3480156106f857600080fd5b506001546001600160a01b0316610432565b34801561071657600080fd5b5061024a610725366004611f0f565b611678565b34801561073657600080fd5b5061024a610745366004611f0f565b611762565b336000908152600b6020526040902054818110156107c75760405162461bcd60e51b815260206004820152602f60248201527f6e6f7420656e6f7567682062616c616e636520746f207769746864726177207360448201526e1c1958da599a595908185b5bdd5b9d608a1b60648201526084015b60405180910390fd5b6107da826107d5818461203c565b6117d6565b5050565b6000546001600160a01b031633146108085760405162461bcd60e51b81526004016107be90612053565b60008181526004602052604080822080546001600160a01b031916905560035490516001600160a01b039091169183917f01ab5ff875fd8edb498772244b76ffd53ac3b59cb6397e3c6654194e411ede6b9190a350565b3360009081526009602052604090205460ff16156108bf5760405162461bcd60e51b815260206004820152601960248201527f73656c6c657220616c726561647920726567697374657265640000000000000060448201526064016107be565b33600081815260096020526040808220805460ff19166001179055517f258a7a0df6106f41c2e99c09f1b64931f5f284242bbc50272d5a752ac2f30dde9190a2565b6000546001600160a01b0316331461092b5760405162461bcd60e51b81526004016107be90612053565b6008805460ff1916911515919091179055565b60606006805461094d90612088565b80601f016020809104026020016040519081016040528092919081815260200182805461097990612088565b80156109c65780601f1061099b576101008083540402835291602001916109c6565b820191906000526020600020905b8154815290600101906020018083116109a957829003601f168201915b5050505050905090565b6109e060c0840160a08501611f0f565b6001600160a01b0316336001600160a01b031614610a4c5760405162461bcd60e51b8152602060048201526024808201527f6f6e6c792062757965722063616e206578656375746520746869732066756e636044820152633a34b7b760e11b60648201526084016107be565b610a55836113a7565b6000610a6484606001356110dc565b600554604051636ba8434360e01b81529192506001600160a01b031690636ba8434390610a9b9087908790879087906004016120e6565b602060405180830381865afa158015610ab8573d6000803e3d6000fd5b505050506040513d601f19601f82011682018060405250810190610adc9190612170565b610b285760405162461bcd60e51b815260206004820152601c60248201527f696e636f7272656374206f70657261746f72207369676e61747572650000000060448201526064016107be565b610b3860c0850160a08601611f0f565b6001600160a01b0316816001600160a01b031614158015610b7a5750610b6460e0850160c08601611f0f565b6001600160a01b0316816001600160a01b031614155b610bc65760405162461bcd60e51b815260206004820152601c60248201527f6f70657261746f72206d75737420626520616e206f627365727665720000000060448201526064016107be565b600080610be6610bdc60c0880160a08901611f0f565b8760200135610f84565b91509150813414610c525760405162461bcd60e51b815260206004820152603060248201527f6e65772066756e64732070726f766964656420646f6573206e6f74206d61746360448201526f682065787065637465642076616c756560801b60648201526084016107be565b6040805161010081019091528060018152602001610c7660c0890160a08a01611f0f565b6001600160a01b03168152602001610c9460e0890160c08a01611f0f565b6001600160a01b03168152602001846001600160a01b03168152602001610cbe886060013561155b565b6001600160a01b0316815260200160075442610cda919061218d565b8152604080890135602080840191909152898101359282019290925288356000908152600a909252902081518154829060ff19166001836003811115610d2257610d22611ec9565b0217905550602082015181546001600160a01b0391821661010002610100600160a81b031990911617825560408301516001830180549183166001600160a01b03199283161790556060840151600284018054918416918316919091179055608084015160038401805491909316911617905560a080830151600483015560c080840151600584015560e0909301516006909201919091558291600b91600091610dd191908b01908b01611f0f565b6001600160a01b03166001600160a01b031681526020019081526020016000206000828254610e00919061203c565b90915550610e16905060e0870160c08801611f0f565b6001600160a01b0316610e2f60c0880160a08901611f0f565b6001600160a01b031687600001357f9d2b05c7d7197919c5ec9dee268522f93b84c5e4a6448cf2caf5cb911bd3581d60405160405180910390a4505050505050565b600060016000838152600a602052604090205460ff166003811115610e9857610e98611ec9565b148015610eb557506000828152600a602052604090206004015442115b92915050565b610ec48161189b565b610ecc61190f565b50565b600080612710610edf84866121a5565b610ee991906121c4565b905083811115610ef95783610efb565b805b949350505050565b6000546001600160a01b03163314610f2d5760405162461bcd60e51b81526004016107be90612053565b60008181526002602052604080822080546001600160a01b031916905560015490516001600160a01b039091169183917f34bf92bbf741b75e3289761f6b95459b088de5b3282274572caf118e9c2617dc9190a350565b6001600160a01b0382166000908152600b60205260408120548190808411610fac5783610fae565b805b9150808411610fbe576000610fc8565b610fc8818561203c565b9250509250929050565b610fda61190f565b565b6000546001600160a01b031633146110065760405162461bcd60e51b81526004016107be90612053565b600080546040516001600160a01b03909116907f8be0079c531659141344cd1fd0a4f28419497f9722a3daafe3b4186f6b6457e0908390a3600080546001600160a01b0319169055565b610ecc8161189b565b6000546001600160a01b031633146110835760405162461bcd60e51b81526004016107be90612053565b60008281526004602052604080822080546001600160a01b0319166001600160a01b0385169081179091559051909184917f01ab5ff875fd8edb498772244b76ffd53ac3b59cb6397e3c6654194e411ede6b9190a35050565b6000818152600460205260408120546001600160a01b03168015611100578061110d565b6003546001600160a01b03165b9392505050565b6000546001600160a01b0316331461113e5760405162461bcd60e51b81526004016107be90612053565b60008281526002602052604080822080546001600160a01b0319166001600160a01b0385169081179091559051909184917f34bf92bbf741b75e3289761f6b95459b088de5b3282274572caf118e9c2617dc9190a35050565b6111a2838383611928565b505050565b6000546001600160a01b031633146111d15760405162461bcd60e51b81526004016107be90612053565b624f1a00811080156111e45750612a3081115b6112305760405162461bcd60e51b815260206004820152601d60248201527f7061796d656e742077696e646f77206f757473696465206c696d69747300000060448201526064016107be565b60078190556040518181527fb8931bd4946b9278bba3ac02a56a37159384a2a02d4c3416706f635b853d44f4906020015b60405180910390a150565b60008161127884611380565b10159392505050565b61128c838383611928565b6111a261190f565b6000546001600160a01b031633146112be5760405162461bcd60e51b81526004016107be90612053565b600180546001600160a01b0319166001600160a01b0383169081179091556040517fa60019696f11f9aa952db763c0de585f819d10fcafcfbd301a27d02e9caa41b090600090a250565b6000546001600160a01b031633146113325760405162461bcd60e51b81526004016107be90612053565b600580546001600160a01b0319166001600160a01b0383169081179091556040519081527fd79572af00d53c39e730f70e252d305b0c30f37702fa29b81e864df96f15b57890602001611261565b6001600160a01b0381166000818152600b60205260408120549091610eb59190319061218d565b6127108160400135111561140b5760405162461bcd60e51b815260206004820152602560248201527f6665652063616e6e6f74206265206c6172676572207468616e203130302070656044820152641c98d95b9d60da1b60648201526084016107be565b80356000908152600a602052604081205460ff16600381111561143057611430611ec9565b146114875760405162461bcd60e51b815260206004820152602160248201527f7061796d656e7420696e20696e636f727265637420637572656e7420737461746044820152606560f81b60648201526084016107be565b80608001354211156114db5760405162461bcd60e51b815260206004820152601860248201527f7061796d656e7420646561646c696e652065787069726564000000000000000060448201526064016107be565b60085460ff1615610ecc57600960006114fa60e0840160c08501611f0f565b6001600160a01b0316815260208101919091526040016000205460ff16610ecc5760405162461bcd60e51b81526020600482015260156024820152741cd95b1b195c881b9bdd081c9959da5cdd195c9959605a1b60448201526064016107be565b6000818152600260205260408120546001600160a01b0316801561157f578061110d565b6001546001600160a01b03169392505050565b6040805161010081018252600080825260208201819052918101829052606081018290526080810182905260a0810182905260c0810182905260e08101919091526000828152600a602052604090819020815161010081019092528054829060ff16600381111561160557611605611ec9565b600381111561161657611616611ec9565b815281546001600160a01b03610100909104811660208301526001830154811660408301526002830154811660608301526003830154166080820152600482015460a0820152600582015460c082015260069091015460e09091015292915050565b6000546001600160a01b031633146116a25760405162461bcd60e51b81526004016107be90612053565b6001600160a01b0381166117075760405162461bcd60e51b815260206004820152602660248201527f4f776e61626c653a206e6577206f776e657220697320746865207a65726f206160448201526564647265737360d01b60648201526084016107be565b600080546040516001600160a01b03808516939216917f8be0079c531659141344cd1fd0a4f28419497f9722a3daafe3b4186f6b6457e091a3600080546001600160a01b0319166001600160a01b0392909216919091179055565b6000546001600160a01b0316331461178c5760405162461bcd60e51b81526004016107be90612053565b600380546001600160a01b0319166001600160a01b0383169081179091556040517fec71ba738f211337eaf29e2d87bdb1b0928316c20db0a3a1108aa43321583b5090600090a250565b600082116118265760405162461bcd60e51b815260206004820152601b60248201527f63616e6e6f74207769746864726177207a65726f20616d6f756e74000000000060448201526064016107be565b336000818152600b60205260408082208490555184156108fc0291859190818181858888f19350505050158015611861573d6000803e3d6000fd5b5060405182815233907f884edad9ce6fa2440d8a54cc123490eb96d2768479d49ff9c7366125a94243649060200160405180910390a25050565b6118a481610e71565b6119065760405162461bcd60e51b815260206004820152602d60248201527f7061796d656e7420646f6573206e6f742061636365707420726566756e64732060448201526c6174207468697320737461676560981b60648201526084016107be565b610ecc81611b5e565b336000908152600b6020526040812054610fda916117d6565b82356000908152600a6020526040808220815161010081019092528054829060ff16600381111561195b5761195b611ec9565b600381111561196c5761196c611ec9565b815281546001600160a01b03610100909104811660208301526001808401548216604084015260028401548216606084015260038401549091166080830152600483015460a0830152600583015460c083015260069092015460e090910152909150815160038111156119e1576119e1611ec9565b14611a485760405162461bcd60e51b815260206004820152603160248201527f7061796d656e74206e6f7420696e697469616c6c7920696e206173736574207460448201527072616e7366657272696e6720737461746560781b60648201526084016107be565b6005546060820151604051638073e78160e01b81526001600160a01b0390921691638073e78191611a8291889188918891906004016121e6565b602060405180830381865afa158015611a9f573d6000803e3d6000fd5b505050506040513d601f19601f82011682018060405250810190611ac39190612170565b611b295760405162461bcd60e51b815260206004820152603160248201527f6f6e6c7920746865206f70657261746f722063616e207369676e20616e2061736044820152701cd95d151c985b9cd9995c94995cdd5b1d607a1b60648201526084016107be565b611b396040850160208601611d39565b15611b4e57611b49843582611c41565b611b58565b611b588435611906565b50505050565b6000818152600a60209081526040808320805460ff19166002908117808355835161010080820186528382526001600160a01b03920482168187018190526001850154831682870152928401548216606082015260038401549091166080820152600483015460a0820152600583015460c082015260069092015460e08301819052908552600b909352908320805491939091611bfc90849061218d565b909155505060208101516040516001600160a01b039091169083907f5ff61db57638246b4e385e22ef7613d9bb0c21cc207e863676e3c7a49e39a17f90600090a35050565b6000828152600a60205260408120805460ff1916600317905560e082015160c0830151611c6e9190610ecf565b9050808260e00151611c80919061203c565b6040808401516001600160a01b03166000908152600b6020529081208054909190611cac90849061218d565b909155505060808201516001600160a01b03166000908152600b602052604081208054839290611cdd90849061218d565b909155505060405183907fe72fd4f49ae148a0d79f0e71ec9cae30076dbfde7b66f70cafd11416eae8dc6290600090a2505050565b600060208284031215611d2457600080fd5b5035919050565b8015158114610ecc57600080fd5b600060208284031215611d4b57600080fd5b8135610ef981611d2b565b600060208083528351808285015260005b81811015611d8357858101830151858201604001528201611d67565b81811115611d95576000604083870101525b50601f01601f1916929092016040019392505050565b600060e08284031215611dbd57600080fd5b50919050565b60008083601f840112611dd557600080fd5b50813567ffffffffffffffff811115611ded57600080fd5b602083019150836020828501011115611e0557600080fd5b9250929050565b60008060006101008486031215611e2257600080fd5b611e2c8585611dab565b925060e084013567ffffffffffffffff811115611e4857600080fd5b611e5486828701611dc3565b9497909650939450505050565b60008060408385031215611e7457600080fd5b50508035926020909101359150565b80356001600160a01b0381168114611e9a57600080fd5b919050565b60008060408385031215611eb257600080fd5b611ebb83611e83565b946020939093013593505050565b634e487b7160e01b600052602160045260246000fd5b60048110611efd57634e487b7160e01b600052602160045260246000fd5b9052565b60208101610eb58284611edf565b600060208284031215611f2157600080fd5b61110d82611e83565b60008060408385031215611f3d57600080fd5b82359150611f4d60208401611e83565b90509250929050565b60008060008385036060811215611f6c57600080fd5b6040811215611f7a57600080fd5b50839250604084013567ffffffffffffffff811115611e4857600080fd5b600060e08284031215611faa57600080fd5b61110d8383611dab565b600061010082019050611fc8828451611edf565b602083015160018060a01b038082166020850152806040860151166040850152806060860151166060850152806080860151166080850152505060a083015160a083015260c083015160c083015260e083015160e083015292915050565b634e487b7160e01b600052601160045260246000fd5b60008282101561204e5761204e612026565b500390565b6020808252818101527f4f776e61626c653a2063616c6c6572206973206e6f7420746865206f776e6572604082015260600190565b600181811c9082168061209c57607f821691505b60208210811415611dbd57634e487b7160e01b600052602260045260246000fd5b81835281816020850137506000828201602090810191909152601f909101601f19169091010190565b6000610120863583526020870135602084015260408701356040840152606087013560608401526080870135608084015261212360a08801611e83565b6001600160a01b0381811660a08601528061214060c08b01611e83565b1660c08601528260e0860152612159838601888a6120bd565b935080861661010086015250505095945050505050565b60006020828403121561218257600080fd5b8151610ef981611d2b565b600082198211156121a0576121a0612026565b500190565b60008160001904831182151516156121bf576121bf612026565b500290565b6000826121e157634e487b7160e01b600052601260045260246000fd5b500490565b84358152600060208601356121fa81611d2b565b801515602084015250608060408301526122186080830185876120bd565b905060018060a01b03831660608301529594505050505056fea2646970667358221220bbd7874b75fd1fed97015b879b705c62f5fcd6108d732bd8e47247f6b9c73c3b64736f6c634300080c0033",
  "immutableReferences": {},
  "source": "// SPDX-License-Identifier: MIT\npragma solidity =0.8.12;\n\nimport \"./Operators.sol\";\nimport \"./FeesCollectors.sol\";\nimport \"./IEIP712Verifier.sol\";\nimport \"./IPaymentsNative.sol\";\n\n/**\n * @title Payments Contract in Native Cryptocurencies.\n * @author Freeverse.io, www.freeverse.io\n * @dev Upon transfer of cryptocurrency to this contract, it remains\n * locked until an Operator confirms the success or failure of the\n * asset transfer required to fulfil this payment.\n *\n * If no confirmation is received from the operator during the PaymentWindow,\n * all funds received from the buyer are made available to the buyer for refund.\n *\n * To start a payment, signatures of both the buyer and the Operator are required:\n * - the buyer is the msg.sender (the buyer therefore signs the TX), \n * - the operator's EIP712-signature of the PaymentInput struct is provided as input to the call.\n *\n * This contract maintains the balances of all users, it does not transfer them automatically.\n * Users need to explicitly call the 'withdraw' method, which withdraws balanceOf[msg.sender]\n * If a buyer has a non-zero local balance at the moment of starting a new payment,\n * the contract reuses it, and only requires the provision of the\n * remainder required (if any) as msg.value\n *\n * Each payment has the following State Machine:\n * - NOT_STARTED -> ASSET_TRANSFERRING, triggered by pay\n * - ASSET_TRANSFERRING -> PAID, triggered by relaying assetTransferSuccess signed by operator\n * - ASSET_TRANSFERRING -> REFUNDED, triggered by relaying assetTransferFailed signed by operator\n * - ASSET_TRANSFERRING -> REFUNDED, triggered by a refund request after expirationTime\n *\n * NOTE: To ensure that the payment process proceeds as expected when the payment starts,\n * upon acceptance of a payment, the following data: {operator, feesCollector, expirationTime}\n * is stored in the payment struct, and used throughout the payment, regardless of\n * any possible modifications to the contract's storage.\n *\n * NOTE: The contract allows a feature, 'Seller Registration', that can be used in the scenario that\n * applications want users to prove that they have enough crypto know-how (obtain native crypto,\n * pay for gas using a web3 wallet, etc.) to interact by themselves with this smart contract before selling,\n * so that they are less likely to require technical help in case they need to withdraw funds. \n * - If _isSellerRegistrationRequired = true, this feature is enabled, and payments can only be initiated\n *    if the payment seller has previously exectuted the registerAsSeller method.\n * - If _isSellerRegistrationRequired = false, this feature is disabled, and payments can be initiated\n *    regardless of any previous call to the registerAsSeller method.\n */\n\ncontract PaymentsNative is IPaymentsNative, FeesCollectors, Operators {\n    address private _eip712;\n    string private _acceptedCurrency;\n    uint256 private _paymentWindow;\n    bool private _isSellerRegistrationRequired;\n    mapping(address => bool) private _isRegisteredSeller;\n    mapping(bytes32 => Payment) private _payments;\n    mapping(address => uint256) private _balanceOf;\n\n    constructor(string memory currencyDescriptor, address eip712) {\n        _eip712 = eip712;\n        _acceptedCurrency = currencyDescriptor;\n        _paymentWindow = 30 days;\n        _isSellerRegistrationRequired = false;\n    }\n\n    /**\n     * @notice Sets the address of the EIP712 verifier contract.\n     * @dev This upgradable pattern is required in case that the \n     *  EIP712 spec/code changes in the future\n     * @param eip712address The address of the new EIP712 contract.\n     */\n    function setEIP712(address eip712address) external onlyOwner {\n        _eip712 = eip712address;\n        emit EIP712(eip712address);\n    }\n\n    /**\n     * @notice Sets the amount of time available to the operator, after the payment starts,\n     *  to confirm either the success or the failure of the asset transfer.\n     *  After this time, the payment moves to FAILED, allowing buyer to withdraw.\n     * @param window The amount of time available, in seconds.\n     */\n    function setPaymentWindow(uint256 window) external onlyOwner {\n        require(\n            (window < 60 days) && (window > 3 hours),\n            \"payment window outside limits\"\n        );\n        _paymentWindow = window;\n        emit PaymentWindow(window);\n    }\n\n    /**\n     * @notice Sets whether sellers are required to register in this contract before being\n     *  able to accept payments.\n     * @param isRequired (bool) if true, registration is required.\n     */\n    function setIsSellerRegistrationRequired(bool isRequired)\n        external\n        onlyOwner\n    {\n        _isSellerRegistrationRequired = isRequired;\n    }\n\n    /// @inheritdoc IPaymentsNative\n    function registerAsSeller() external {\n        require(!_isRegisteredSeller[msg.sender], \"seller already registered\");\n        _isRegisteredSeller[msg.sender] = true;\n        emit NewSeller(msg.sender);\n    }\n\n    /// @inheritdoc IPaymentsNative\n    function pay(PaymentInput calldata payInput, bytes calldata operatorSignature)\n        external\n        payable\n    {\n        require(\n            msg.sender == payInput.buyer,\n            \"only buyer can execute this function\"\n        );\n        checkPaymentInputs(payInput);\n        address operator = universeOperator(payInput.universeId);\n        require(\n            IEIP712Verifier(_eip712).verifyPayment(payInput, operatorSignature, operator),\n            \"incorrect operator signature\"\n        );\n        require(\n            (operator != payInput.buyer) && (operator != payInput.seller),\n            \"operator must be an observer\"\n        );\n        (uint256 newFunds, uint256 localFunds) = splitFundingSources(\n            payInput.buyer,\n            payInput.amount\n        );\n        require(\n            msg.value == newFunds,\n            \"new funds provided does not match expected value\"\n        );\n        _payments[payInput.paymentId] = Payment(\n            State.AssetTransferring,\n            payInput.buyer,\n            payInput.seller,\n            operator,\n            universeFeesCollector(payInput.universeId),\n            block.timestamp + _paymentWindow,\n            payInput.feeBPS,\n            payInput.amount\n        );\n        _balanceOf[payInput.buyer] -= localFunds;\n        emit PayIn(payInput.paymentId, payInput.buyer, payInput.seller);\n    }\n\n    /// @inheritdoc IPaymentsNative\n    function finalize(\n        AssetTransferResult calldata transferResult,\n        bytes calldata operatorSignature\n    ) external {\n        _finalize(transferResult, operatorSignature);\n    }\n\n    /// @inheritdoc IPaymentsNative\n    function finalizeAndWithdraw(\n        AssetTransferResult calldata transferResult,\n        bytes calldata operatorSignature\n    ) external {\n        _finalize(transferResult, operatorSignature);\n        _withdraw();\n    }\n\n    /// @inheritdoc IPaymentsNative\n    function refund(bytes32 paymentId) public {\n        _refund(paymentId);\n    }\n\n    /// @inheritdoc IPaymentsNative\n    function refundAndWithdraw(bytes32 paymentId) external {\n        _refund(paymentId);\n        _withdraw();\n    }\n\n    /// @inheritdoc IPaymentsNative\n    function withdraw() external {\n        _withdraw();\n    }\n\n    /// @inheritdoc IPaymentsNative\n    function withdrawAmount(uint256 amount) external {\n        uint256 balance = _balanceOf[msg.sender];\n        require(balance >= amount, \"not enough balance to withdraw specified amount\");\n        _withdrawAmount(amount, balance - amount);\n    }\n\n    // PRIVATE FUNCTIONS\n\n    /**\n     * @dev (private) Moves the payment funds to the buyer's local balance\n     *  The buyer still needs to withdraw afterwards.\n     *  Moves the payment to REFUNDED state\n     * @param paymentId The unique ID that identifies the payment.\n     */\n    function _refund(bytes32 paymentId) private {\n        require(\n            acceptsRefunds(paymentId),\n            \"payment does not accept refunds at this stage\"\n        );\n        _refundToLocalBalance(paymentId);\n    }\n\n    /**\n     * @dev (private) Uses the operator signed msg regarding asset transfer success to update\n     *  the balances of seller (on success) or buyer (on failure).\n     *  They still need to withdraw afterwards.\n     *  Moves the payment to either PAID (on success) or REFUNDED (on failure) state\n     * @param transferResult The asset transfer transferResult struct signed by the operator.\n     * @param operatorSignature The operator signature of transferResult\n     */\n    function _finalize(\n        AssetTransferResult calldata transferResult,\n        bytes calldata operatorSignature\n    ) private {\n        Payment memory payment = _payments[transferResult.paymentId];\n        require(\n            payment.state == State.AssetTransferring,\n            \"payment not initially in asset transferring state\"\n        );\n        require(\n            IEIP712Verifier(_eip712).verifyAssetTransferResult(transferResult, operatorSignature, payment.operator),\n            \"only the operator can sign an assetTransferResult\"\n        );\n        if (transferResult.wasSuccessful) {\n            _finalizeSuccess(transferResult.paymentId, payment);\n        } else {\n            _finalizeFailed(transferResult.paymentId);\n        }\n    }\n\n    /**\n     * @dev (private) Updates the balance of the seller on successful asset transfer\n     *  Moves the payment to PAID\n     * @param paymentId The unique ID that identifies the payment.\n     * @param payment The payment struct corresponding to paymentId\n     */\n    function _finalizeSuccess(bytes32 paymentId, Payment memory payment) private {\n        _payments[paymentId].state = State.Paid;\n        uint256 feeAmount = computeFeeAmount(payment.amount, payment.feeBPS);\n        _balanceOf[payment.seller] += (payment.amount - feeAmount);\n        _balanceOf[payment.feesCollector] += feeAmount;\n        emit Paid(paymentId);\n    }\n\n    /**\n     * @dev (private) Updates the balance of the buyer on failed asset transfer\n     *  Moves the payment to REFUNDED\n     * @param paymentId The unique ID that identifies the payment.\n     */\n    function _finalizeFailed(bytes32 paymentId) private {\n        _refundToLocalBalance(paymentId);\n    }\n\n    /**\n     * @dev (private) Executes refund, moves to REFUNDED state\n     * @param paymentId The unique ID that identifies the payment.\n     */\n    function _refundToLocalBalance(bytes32 paymentId) private {\n        _payments[paymentId].state = State.Refunded;\n        Payment memory payment = _payments[paymentId];\n        _balanceOf[payment.buyer] += payment.amount;\n        emit BuyerRefunded(paymentId, payment.buyer);\n    }\n\n    /**\n     * @dev (private) Transfers funds available in this\n     *  contract's balanceOf[msg.sender] to msg.sender\n     *  Follows standard Checks-Effects-Interactions pattern\n     *  to protect against re-entrancy attacks.\n     */\n    function _withdraw() private {\n        _withdrawAmount(_balanceOf[msg.sender], 0);\n    }\n\n    /**\n     * @dev (private) Transfers the specified amount of \n     *  funds in this contract's balanceOf[msg.sender] to msg.sender\n     *  The checks that enough amount is available, and the computation\n     *  of the final balance need to be done before calling this function.\n     *  Follows standard Checks-Effects-Interactions pattern\n     *  to protect against re-entrancy attacks.\n     * @param amount The amount to withdraw.\n     * @param finalBalance The final balance of msg.sender after withdrawal.\n    */\n    function _withdrawAmount(uint256 amount, uint256 finalBalance) private {\n        require(amount > 0, \"cannot withdraw zero amount\");\n        _balanceOf[msg.sender] = finalBalance;\n        payable(msg.sender).transfer(amount);\n        emit Withdraw(msg.sender, amount);\n    }\n\n    // VIEW FUNCTIONS\n\n    /// @inheritdoc IPaymentsNative\n    function isSellerRegistrationRequired() external view returns (bool) {\n        return _isSellerRegistrationRequired;\n    }\n\n    /// @inheritdoc IPaymentsNative\n    function isRegisteredSeller(address addr) external view returns (bool) {\n        return _isRegisteredSeller[addr];\n    }\n\n    /// @inheritdoc IPaymentsNative\n    function balanceOf(address addr) external view returns (uint256) {\n        return _balanceOf[addr];\n    }\n\n    /// @inheritdoc IPaymentsNative\n    function paymentInfo(bytes32 paymentId)\n        external\n        view\n        returns (Payment memory)\n    {\n        return _payments[paymentId];\n    }\n\n    /// @inheritdoc IPaymentsNative\n    function paymentState(bytes32 paymentId) public view returns (State) {\n        return _payments[paymentId].state;\n    }\n\n    /// @inheritdoc IPaymentsNative\n    function acceptsRefunds(bytes32 paymentId) public view returns (bool) {\n        return\n            (paymentState(paymentId) == State.AssetTransferring) &&\n            (block.timestamp > _payments[paymentId].expirationTime);\n    }\n\n    /// @inheritdoc IPaymentsNative\n    function EIP712Address() external view returns (address) {\n        return _eip712;\n    }\n\n    /// @inheritdoc IPaymentsNative\n    function paymentWindow() external view returns (uint256) {\n        return _paymentWindow;\n    }\n\n    /// @inheritdoc IPaymentsNative\n    function acceptedCurrency() external view returns (string memory) {\n        return _acceptedCurrency;\n    }\n\n    function enoughFundsAvailable(address buyer, uint256 amount)\n        public\n        view\n        returns (bool)\n    {\n        return maxFundsAvailable(buyer) >= amount;\n    }\n\n    /// @inheritdoc IPaymentsNative\n    function maxFundsAvailable(address buyer) public view returns (uint256) {\n        return _balanceOf[buyer] + buyer.balance;\n    }\n\n    /// @inheritdoc IPaymentsNative\n    function splitFundingSources(address buyer, uint256 amount)\n        public\n        view\n        returns (uint256 externalFunds, uint256 localFunds)\n    {\n        uint256 localBalance = _balanceOf[buyer];\n        localFunds = (amount > localBalance) ? localBalance : amount;\n        externalFunds = (amount > localBalance) ? amount - localBalance : 0;\n    }\n\n    /// @inheritdoc IPaymentsNative\n    function checkPaymentInputs(PaymentInput calldata payInput) public view {\n        require(payInput.feeBPS <= 10000, \"fee cannot be larger than 100 percent\");\n        require(\n            paymentState(payInput.paymentId) == State.NotStarted,\n            \"payment in incorrect curent state\"\n        );\n        require(block.timestamp <= payInput.deadline, \"payment deadline expired\");\n        if (_isSellerRegistrationRequired)\n            require(_isRegisteredSeller[payInput.seller], \"seller not registered\");\n    }\n\n    // PURE FUNCTIONS\n\n    /// @inheritdoc IPaymentsNative\n    function computeFeeAmount(uint256 amount, uint256 feeBPS)\n        public\n        pure\n        returns (uint256)\n    {\n        uint256 feeAmount = (amount * feeBPS) / 10000;\n        return (feeAmount <= amount) ? feeAmount : amount;\n    }\n}\n",
  "sourcePath": "/Users/toni/gits/cryptoPaymentsNative/contracts/PaymentsNative.sol",
  "compiler": {
    "name": "solc",
    "version": "0.8.12+commit.f00d7308.Emscripten.clang"
  },
  "schemaVersion": "3.4.5",
  "updatedAt": "2022-05-27T10:47:09.381Z",
  "devdoc": {
    "author": "Freeverse.io, www.freeverse.io",
    "details": "Upon transfer of cryptocurrency to this contract, it remains locked until an Operator confirms the success or failure of the asset transfer required to fulfil this payment. If no confirmation is received from the operator during the PaymentWindow, all funds received from the buyer are made available to the buyer for refund. To start a payment, signatures of both the buyer and the Operator are required: - the buyer is the msg.sender (the buyer therefore signs the TX),  - the operator's EIP712-signature of the PaymentInput struct is provided as input to the call. This contract maintains the balances of all users, it does not transfer them automatically. Users need to explicitly call the 'withdraw' method, which withdraws balanceOf[msg.sender] If a buyer has a non-zero local balance at the moment of starting a new payment, the contract reuses it, and only requires the provision of the remainder required (if any) as msg.value Each payment has the following State Machine: - NOT_STARTED -> ASSET_TRANSFERRING, triggered by pay - ASSET_TRANSFERRING -> PAID, triggered by relaying assetTransferSuccess signed by operator - ASSET_TRANSFERRING -> REFUNDED, triggered by relaying assetTransferFailed signed by operator - ASSET_TRANSFERRING -> REFUNDED, triggered by a refund request after expirationTime NOTE: To ensure that the payment process proceeds as expected when the payment starts, upon acceptance of a payment, the following data: {operator, feesCollector, expirationTime} is stored in the payment struct, and used throughout the payment, regardless of any possible modifications to the contract's storage. NOTE: The contract allows a feature, 'Seller Registration', that can be used in the scenario that applications want users to prove that they have enough crypto know-how (obtain native crypto, pay for gas using a web3 wallet, etc.) to interact by themselves with this smart contract before selling, so that they are less likely to require technical help in case they need to withdraw funds.  - If _isSellerRegistrationRequired = true, this feature is enabled, and payments can only be initiated    if the payment seller has previously exectuted the registerAsSeller method. - If _isSellerRegistrationRequired = false, this feature is disabled, and payments can be initiated    regardless of any previous call to the registerAsSeller method.",
    "kind": "dev",
    "methods": {
      "EIP712Address()": {
        "returns": {
          "_0": "the address of the EIP712 verifier contract"
        }
      },
      "acceptedCurrency()": {
        "returns": {
          "_0": "the string describing the currency"
        }
      },
      "acceptsRefunds(bytes32)": {
        "details": "The payment must be in ASSET_TRANSFERRING and beyond expirationTime.",
        "params": {
          "paymentId": "The unique ID that identifies the payment."
        },
        "returns": {
          "_0": "true if the payment accepts a refund to the buyer."
        }
      },
      "balanceOf(address)": {
        "params": {
          "addr": "the address that is queried"
        },
        "returns": {
          "_0": "the local balance"
        }
      },
      "checkPaymentInputs((bytes32,uint256,uint256,uint256,uint256,address,address))": {
        "params": {
          "payInput": "The PaymentInput struct"
        }
      },
      "computeFeeAmount(uint256,uint256)": {
        "details": "Must return a value that is guaranteed to be less or equal to the provided amount",
        "params": {
          "amount": "The amount",
          "feeBPS": "The percentage fee expressed in Basis Points (bps).  feeBPS examples:  2.5% = 250 bps, 10% = 1000 bps, 100% = 10000 bps"
        },
        "returns": {
          "_0": "The fee amount"
        }
      },
      "defaultFeesCollector()": {
        "details": "Returns the default feesCollector"
      },
      "defaultOperator()": {
        "details": "Returns the default operator"
      },
      "enoughFundsAvailable(address,uint256)": {
        "details": "In more detail: returns true if the sum of the buyer's local balance in this contract,  plus the external balance in the native crypto, are larger or equal than 'amount'",
        "params": {
          "amount": "The amount that is queried",
          "buyer": "The address for which funds are queried"
        },
        "returns": {
          "_0": "Returns true if enough funds are available"
        }
      },
      "finalize((bytes32,bool),bytes)": {
        "details": "Can be executed by anyone, but the operator signature must be included as input param.  Seller or Buyer's balances are updated, allowing explicit withdrawal.  Moves payment to PAID or REFUNDED state on transfer success/failure, respectively.",
        "params": {
          "operatorSignature": "The operator signature of transferResult",
          "transferResult": "The asset transfer result struct signed by the operator."
        }
      },
      "finalizeAndWithdraw((bytes32,bool),bytes)": {
        "details": "Can be executed by anyone, but the operator signature must be included as input param.  It is, however, expected to be executed by the seller, in case of a successful asset transfer,  or the buyer, in case of a failed asset transfer.  Moves payment to PAID or REFUNDED state on transfer success/failure, respectively.",
        "params": {
          "operatorSignature": "The operator signature of transferResult",
          "transferResult": "The asset transfer result struct signed by the operator."
        }
      },
      "isRegisteredSeller(address)": {
        "params": {
          "addr": "the address that is queried"
        },
        "returns": {
          "_0": "Returns whether the address is registered as seller"
        }
      },
      "isSellerRegistrationRequired()": {
        "returns": {
          "_0": "Returns true if sellers need to be registered to be able to accept payments"
        }
      },
      "maxFundsAvailable(address)": {
        "details": "In more detail: returns the sum of the buyer's local balance in this contract,  plus the external balance in the native crypto.",
        "params": {
          "buyer": "The address for which funds are queried"
        },
        "returns": {
          "_0": "the max funds available"
        }
      },
      "owner()": {
        "details": "Returns the address of the current owner."
      },
      "pay((bytes32,uint256,uint256,uint256,uint256,address,address),bytes)": {
        "details": "Executed by the buyer, who relays the MetaTX with the operator's signature.  The buyer must provide the correct amount via msg.value.  If all requirements are fulfilled, it stores the data relevant  for the next steps of the payment, and it locks the funds  in this contract.  Follows standard Checks-Effects-Interactions pattern  to protect against re-entrancy attacks.  Moves payment to ASSET_TRANSFERRING state.",
        "params": {
          "operatorSignature": "The signature of 'payInput' by the operator",
          "payInput": "The struct containing all required payment data"
        }
      },
      "paymentInfo(bytes32)": {
        "params": {
          "paymentId": "The unique ID that identifies the payment."
        },
        "returns": {
          "_0": "the struct stored for the payment"
        }
      },
      "paymentState(bytes32)": {
        "details": "If payment is in ASSET_TRANSFERRING, it may be worth  checking acceptsRefunds ot check if it has gone beyond expirationTime.",
        "params": {
          "paymentId": "The unique ID that identifies the payment."
        },
        "returns": {
          "_0": "the state of the payment."
        }
      },
      "paymentWindow()": {
        "returns": {
          "_0": "the payment window in secs"
        }
      },
      "refund(bytes32)": {
        "details": "Anybody can call this function.  Requires acceptsRefunds == true to proceed.  After updating buyer's balance, he/she can later withdraw.  Moves payment to REFUNDED state.",
        "params": {
          "paymentId": "The unique ID that identifies the payment."
        }
      },
      "refundAndWithdraw(bytes32)": {
        "details": "Anybody can call this function.  Requires acceptsRefunds == true to proceed.  All of msg.sender's balance in the contract is withdrawn,  not only the part that was locked in this particular paymentId  Moves payment to REFUNDED state.",
        "params": {
          "paymentId": "The unique ID that identifies the payment."
        }
      },
      "removeUniverseFeesCollector(uint256)": {
        "details": "Removes a specific universe feesCollector",
        "params": {
          "universeId": "The id of the universe"
        }
      },
      "removeUniverseOperator(uint256)": {
        "details": "Removes a specific universe operator",
        "params": {
          "universeId": "The id of the universe"
        }
      },
      "renounceOwnership()": {
        "details": "Leaves the contract without owner. It will not be possible to call `onlyOwner` functions anymore. Can only be called by the current owner. NOTE: Renouncing ownership will leave the contract without an owner, thereby removing any functionality that is only available to the owner."
      },
      "setDefaultFeesCollector(address)": {
        "details": "Sets a new default feesCollector",
        "params": {
          "feesCollector": "The address of the new default feesCollector"
        }
      },
      "setDefaultOperator(address)": {
        "details": "Sets a new default operator",
        "params": {
          "operator": "The address of the new default operator"
        }
      },
      "setEIP712(address)": {
        "details": "This upgradable pattern is required in case that the   EIP712 spec/code changes in the future",
        "params": {
          "eip712address": "The address of the new EIP712 contract."
        }
      },
      "setIsSellerRegistrationRequired(bool)": {
        "params": {
          "isRequired": "(bool) if true, registration is required."
        }
      },
      "setPaymentWindow(uint256)": {
        "params": {
          "window": "The amount of time available, in seconds."
        }
      },
      "setUniverseFeesCollector(uint256,address)": {
        "details": "Sets a new specific universe feesCollector",
        "params": {
          "feesCollector": "The address of the new universe feesCollector",
          "universeId": "The id of the universe"
        }
      },
      "setUniverseOperator(uint256,address)": {
        "details": "Sets a new specific universe operator",
        "params": {
          "operator": "The address of the new universe operator",
          "universeId": "The id of the universe"
        }
      },
      "splitFundingSources(address,uint256)": {
        "params": {
          "amount": "The amount to be split",
          "buyer": "The address for which the amount is to be split"
        },
        "returns": {
          "externalFunds": "The amount of funds required to be transferred from the external buyer balance",
          "localFunds": "The amount of local funds that will be used."
        }
      },
      "transferOwnership(address)": {
        "details": "Transfers ownership of the contract to a new account (`newOwner`). Can only be called by the current owner."
      },
      "universeFeesCollector(uint256)": {
        "details": "Returns the feesCollector of a specific universe",
        "params": {
          "universeId": "The id of the universe"
        }
      },
      "universeOperator(uint256)": {
        "details": "Returns the operator of a specific universe",
        "params": {
          "universeId": "The id of the universe"
        }
      },
      "withdrawAmount(uint256)": {
        "params": {
          "amount": "The required amount to withdraw"
        }
      }
    },
    "title": "Payments Contract in Native Cryptocurencies.",
    "version": 1
  },
  "userdoc": {
    "kind": "user",
    "methods": {
      "EIP712Address()": {
        "notice": "Returns the address of the of the contract containing  the implementation of the EIP712 verifying functions"
      },
      "acceptedCurrency()": {
        "notice": "Returns a descriptor about the currency that this contract accepts"
      },
      "acceptsRefunds(bytes32)": {
        "notice": "Returns true if the payment accepts a refund to the buyer"
      },
      "balanceOf(address)": {
        "notice": "Returns the local balance of the provided address that is stored in this  contract, and hence, available for withdrawal."
      },
      "checkPaymentInputs((bytes32,uint256,uint256,uint256,uint256,address,address))": {
        "notice": "Reverts unless the requirements for a PaymentInput are fulfilled."
      },
      "computeFeeAmount(uint256,uint256)": {
        "notice": "Safe computation of fee amount for a provided amount, feeBPS pair"
      },
      "enoughFundsAvailable(address,uint256)": {
        "notice": "Returns true if the 'amount' required for a payment is available to this contract."
      },
      "finalize((bytes32,bool),bytes)": {
        "notice": "Relays the operator signature declaring that the asset transfer was successful or failed,  and updates balances of seller or buyer, respectively."
      },
      "finalizeAndWithdraw((bytes32,bool),bytes)": {
        "notice": "Relays the operator signature declaring that the asset transfer was successful or failed,  updates balances of seller or buyer, respectively,  and proceeds to withdraw all funds in this contract available to msg.sender."
      },
      "isRegisteredSeller(address)": {
        "notice": "Returns true if the address provided is a registered seller"
      },
      "isSellerRegistrationRequired()": {
        "notice": "Returns whether sellers need to be registered to be able to accept payments"
      },
      "maxFundsAvailable(address)": {
        "notice": "Returns the maximum amount of funds available to a buyer"
      },
      "pay((bytes32,uint256,uint256,uint256,uint256,address,address),bytes)": {
        "notice": "Starts Payment process by the buyer."
      },
      "paymentInfo(bytes32)": {
        "notice": "Returns all data stored in a payment"
      },
      "paymentState(bytes32)": {
        "notice": "Returns the state of a payment."
      },
      "paymentWindow()": {
        "notice": "Returns the amount of seconds that a payment  can remain in ASSET_TRANSFERRING state without positive  or negative confirmation by the operator"
      },
      "refund(bytes32)": {
        "notice": "Moves buyer's provided funds to buyer's balance."
      },
      "refundAndWithdraw(bytes32)": {
        "notice": "Executes refund and withdraw in one transaction."
      },
      "registerAsSeller()": {
        "notice": "Registers msg.sender as seller so that, if the contract has set  _isSellerRegistrationRequired = true, then payments will be accepted with  msg.sender as seller."
      },
      "removeUniverseFeesCollector(uint256)": {
        "notice": "The universe will then have fees collected by _defaultFeesCollector"
      },
      "removeUniverseOperator(uint256)": {
        "notice": "The universe will then be operated by _defaultOperator"
      },
      "setEIP712(address)": {
        "notice": "Sets the address of the EIP712 verifier contract."
      },
      "setIsSellerRegistrationRequired(bool)": {
        "notice": "Sets whether sellers are required to register in this contract before being  able to accept payments."
      },
      "setPaymentWindow(uint256)": {
        "notice": "Sets the amount of time available to the operator, after the payment starts,  to confirm either the success or the failure of the asset transfer.  After this time, the payment moves to FAILED, allowing buyer to withdraw."
      },
      "splitFundingSources(address,uint256)": {
        "notice": "Splits the funds required to pay 'amount' into two sources:  - externalFunds: the amount of crypto required to be transferred from the external buyer balance  - localFunds: the amount of crypto required from the buyer's already available balance in this contract."
      },
      "withdraw()": {
        "notice": "Transfers funds avaliable in this  contract's balanceOf[msg.sender] to msg.sender"
      },
      "withdrawAmount(uint256)": {
        "notice": "Transfers only the specified amount  from this contract's balanceOf[msg.sender] to msg.sender.  Reverts if balanceOf[msg.sender] < amount."
      }
    },
    "version": 1
  }
}