{
  "contractName": "PaymentsERC20",
  "abi": [
    {
      "inputs": [
        {
          "internalType": "address",
          "name": "erc20Address",
          "type": "address"
        },
        {
          "internalType": "string",
          "name": "currencyDescriptor",
          "type": "string"
        },
        {
          "internalType": "address",
          "name": "eip712",
          "type": "address"
        }
      ],
      "stateMutability": "nonpayable",
      "type": "constructor"
    },
    {
      "anonymous": false,
      "inputs": [
        {
          "indexed": true,
          "internalType": "bytes32",
          "name": "paymentId",
          "type": "bytes32"
        },
        {
          "indexed": true,
          "internalType": "address",
          "name": "buyer",
          "type": "address"
        }
      ],
      "name": "BuyerRefunded",
      "type": "event"
    },
    {
      "anonymous": false,
      "inputs": [
        {
          "indexed": true,
          "internalType": "address",
          "name": "feesCollector",
          "type": "address"
        }
      ],
      "name": "DefaultFeesCollector",
      "type": "event"
    },
    {
      "anonymous": false,
      "inputs": [
        {
          "indexed": true,
          "internalType": "address",
          "name": "operator",
          "type": "address"
        }
      ],
      "name": "DefaultOperator",
      "type": "event"
    },
    {
      "anonymous": false,
      "inputs": [
        {
          "indexed": false,
          "internalType": "address",
          "name": "eip712address",
          "type": "address"
        }
      ],
      "name": "EIP712",
      "type": "event"
    },
    {
      "anonymous": false,
      "inputs": [
        {
          "indexed": true,
          "internalType": "address",
          "name": "seller",
          "type": "address"
        }
      ],
      "name": "NewSeller",
      "type": "event"
    },
    {
      "anonymous": false,
      "inputs": [
        {
          "indexed": true,
          "internalType": "address",
          "name": "previousOwner",
          "type": "address"
        },
        {
          "indexed": true,
          "internalType": "address",
          "name": "newOwner",
          "type": "address"
        }
      ],
      "name": "OwnershipTransferred",
      "type": "event"
    },
    {
      "anonymous": false,
      "inputs": [
        {
          "indexed": true,
          "internalType": "bytes32",
          "name": "paymentId",
          "type": "bytes32"
        }
      ],
      "name": "Paid",
      "type": "event"
    },
    {
      "anonymous": false,
      "inputs": [
        {
          "indexed": true,
          "internalType": "bytes32",
          "name": "paymentId",
          "type": "bytes32"
        },
        {
          "indexed": true,
          "internalType": "address",
          "name": "buyer",
          "type": "address"
        },
        {
          "indexed": true,
          "internalType": "address",
          "name": "seller",
          "type": "address"
        }
      ],
      "name": "PayIn",
      "type": "event"
    },
    {
      "anonymous": false,
      "inputs": [
        {
          "indexed": false,
          "internalType": "uint256",
          "name": "window",
          "type": "uint256"
        }
      ],
      "name": "PaymentWindow",
      "type": "event"
    },
    {
      "anonymous": false,
      "inputs": [
        {
          "indexed": true,
          "internalType": "uint256",
          "name": "universeId",
          "type": "uint256"
        },
        {
          "indexed": true,
          "internalType": "address",
          "name": "feesCollector",
          "type": "address"
        }
      ],
      "name": "UniverseFeesCollector",
      "type": "event"
    },
    {
      "anonymous": false,
      "inputs": [
        {
          "indexed": true,
          "internalType": "uint256",
          "name": "universeId",
          "type": "uint256"
        },
        {
          "indexed": true,
          "internalType": "address",
          "name": "operator",
          "type": "address"
        }
      ],
      "name": "UniverseOperator",
      "type": "event"
    },
    {
      "anonymous": false,
      "inputs": [
        {
          "indexed": true,
          "internalType": "address",
          "name": "user",
          "type": "address"
        },
        {
          "indexed": false,
          "internalType": "uint256",
          "name": "amount",
          "type": "uint256"
        }
      ],
      "name": "Withdraw",
      "type": "event"
    },
    {
      "inputs": [],
      "name": "defaultFeesCollector",
      "outputs": [
        {
          "internalType": "address",
          "name": "",
          "type": "address"
        }
      ],
      "stateMutability": "view",
      "type": "function"
    },
    {
      "inputs": [],
      "name": "defaultOperator",
      "outputs": [
        {
          "internalType": "address",
          "name": "",
          "type": "address"
        }
      ],
      "stateMutability": "view",
      "type": "function"
    },
    {
      "inputs": [],
      "name": "owner",
      "outputs": [
        {
          "internalType": "address",
          "name": "",
          "type": "address"
        }
      ],
      "stateMutability": "view",
      "type": "function"
    },
    {
      "inputs": [
        {
          "internalType": "uint256",
          "name": "universeId",
          "type": "uint256"
        }
      ],
      "name": "removeUniverseFeesCollector",
      "outputs": [],
      "stateMutability": "nonpayable",
      "type": "function"
    },
    {
      "inputs": [
        {
          "internalType": "uint256",
          "name": "universeId",
          "type": "uint256"
        }
      ],
      "name": "removeUniverseOperator",
      "outputs": [],
      "stateMutability": "nonpayable",
      "type": "function"
    },
    {
      "inputs": [],
      "name": "renounceOwnership",
      "outputs": [],
      "stateMutability": "nonpayable",
      "type": "function"
    },
    {
      "inputs": [
        {
          "internalType": "address",
          "name": "feesCollector",
          "type": "address"
        }
      ],
      "name": "setDefaultFeesCollector",
      "outputs": [],
      "stateMutability": "nonpayable",
      "type": "function"
    },
    {
      "inputs": [
        {
          "internalType": "address",
          "name": "operator",
          "type": "address"
        }
      ],
      "name": "setDefaultOperator",
      "outputs": [],
      "stateMutability": "nonpayable",
      "type": "function"
    },
    {
      "inputs": [
        {
          "internalType": "uint256",
          "name": "universeId",
          "type": "uint256"
        },
        {
          "internalType": "address",
          "name": "feesCollector",
          "type": "address"
        }
      ],
      "name": "setUniverseFeesCollector",
      "outputs": [],
      "stateMutability": "nonpayable",
      "type": "function"
    },
    {
      "inputs": [
        {
          "internalType": "uint256",
          "name": "universeId",
          "type": "uint256"
        },
        {
          "internalType": "address",
          "name": "operator",
          "type": "address"
        }
      ],
      "name": "setUniverseOperator",
      "outputs": [],
      "stateMutability": "nonpayable",
      "type": "function"
    },
    {
      "inputs": [
        {
          "internalType": "address",
          "name": "newOwner",
          "type": "address"
        }
      ],
      "name": "transferOwnership",
      "outputs": [],
      "stateMutability": "nonpayable",
      "type": "function"
    },
    {
      "inputs": [
        {
          "internalType": "uint256",
          "name": "universeId",
          "type": "uint256"
        }
      ],
      "name": "universeFeesCollector",
      "outputs": [
        {
          "internalType": "address",
          "name": "",
          "type": "address"
        }
      ],
      "stateMutability": "view",
      "type": "function"
    },
    {
      "inputs": [
        {
          "internalType": "uint256",
          "name": "universeId",
          "type": "uint256"
        }
      ],
      "name": "universeOperator",
      "outputs": [
        {
          "internalType": "address",
          "name": "",
          "type": "address"
        }
      ],
      "stateMutability": "view",
      "type": "function"
    },
    {
      "inputs": [
        {
          "internalType": "address",
          "name": "eip712address",
          "type": "address"
        }
      ],
      "name": "setEIP712",
      "outputs": [],
      "stateMutability": "nonpayable",
      "type": "function"
    },
    {
      "inputs": [
        {
          "internalType": "uint256",
          "name": "window",
          "type": "uint256"
        }
      ],
      "name": "setPaymentWindow",
      "outputs": [],
      "stateMutability": "nonpayable",
      "type": "function"
    },
    {
      "inputs": [
        {
          "internalType": "bool",
          "name": "isRequired",
          "type": "bool"
        }
      ],
      "name": "setIsSellerRegistrationRequired",
      "outputs": [],
      "stateMutability": "nonpayable",
      "type": "function"
    },
    {
      "inputs": [],
      "name": "registerAsSeller",
      "outputs": [],
      "stateMutability": "nonpayable",
      "type": "function"
    },
    {
      "inputs": [
        {
          "components": [
            {
              "internalType": "bytes32",
              "name": "paymentId",
              "type": "bytes32"
            },
            {
              "internalType": "uint256",
              "name": "amount",
              "type": "uint256"
            },
            {
              "internalType": "uint256",
              "name": "feeBPS",
              "type": "uint256"
            },
            {
              "internalType": "uint256",
              "name": "universeId",
              "type": "uint256"
            },
            {
              "internalType": "uint256",
              "name": "deadline",
              "type": "uint256"
            },
            {
              "internalType": "address",
              "name": "buyer",
              "type": "address"
            },
            {
              "internalType": "address",
              "name": "seller",
              "type": "address"
            }
          ],
          "internalType": "struct ISignableStructs.PaymentInput",
          "name": "payInput",
          "type": "tuple"
        },
        {
          "internalType": "bytes",
          "name": "buyerSignature",
          "type": "bytes"
        }
      ],
      "name": "relayedPay",
      "outputs": [],
      "stateMutability": "nonpayable",
      "type": "function"
    },
    {
      "inputs": [
        {
          "components": [
            {
              "internalType": "bytes32",
              "name": "paymentId",
              "type": "bytes32"
            },
            {
              "internalType": "uint256",
              "name": "amount",
              "type": "uint256"
            },
            {
              "internalType": "uint256",
              "name": "feeBPS",
              "type": "uint256"
            },
            {
              "internalType": "uint256",
              "name": "universeId",
              "type": "uint256"
            },
            {
              "internalType": "uint256",
              "name": "deadline",
              "type": "uint256"
            },
            {
              "internalType": "address",
              "name": "buyer",
              "type": "address"
            },
            {
              "internalType": "address",
              "name": "seller",
              "type": "address"
            }
          ],
          "internalType": "struct ISignableStructs.PaymentInput",
          "name": "payInput",
          "type": "tuple"
        },
        {
          "internalType": "bytes",
          "name": "operatorSignature",
          "type": "bytes"
        }
      ],
      "name": "pay",
      "outputs": [],
      "stateMutability": "nonpayable",
      "type": "function"
    },
    {
      "inputs": [
        {
          "components": [
            {
              "internalType": "bytes32",
              "name": "paymentId",
              "type": "bytes32"
            },
            {
              "internalType": "bool",
              "name": "wasSuccessful",
              "type": "bool"
            }
          ],
          "internalType": "struct ISignableStructs.AssetTransferResult",
          "name": "transferResult",
          "type": "tuple"
        },
        {
          "internalType": "bytes",
          "name": "operatorSignature",
          "type": "bytes"
        }
      ],
      "name": "finalize",
      "outputs": [],
      "stateMutability": "nonpayable",
      "type": "function"
    },
    {
      "inputs": [
        {
          "components": [
            {
              "internalType": "bytes32",
              "name": "paymentId",
              "type": "bytes32"
            },
            {
              "internalType": "bool",
              "name": "wasSuccessful",
              "type": "bool"
            }
          ],
          "internalType": "struct ISignableStructs.AssetTransferResult",
          "name": "transferResult",
          "type": "tuple"
        },
        {
          "internalType": "bytes",
          "name": "operatorSignature",
          "type": "bytes"
        }
      ],
      "name": "finalizeAndWithdraw",
      "outputs": [],
      "stateMutability": "nonpayable",
      "type": "function"
    },
    {
      "inputs": [
        {
          "internalType": "bytes32",
          "name": "paymentId",
          "type": "bytes32"
        }
      ],
      "name": "refund",
      "outputs": [],
      "stateMutability": "nonpayable",
      "type": "function"
    },
    {
      "inputs": [
        {
          "internalType": "bytes32",
          "name": "paymentId",
          "type": "bytes32"
        }
      ],
      "name": "refundAndWithdraw",
      "outputs": [],
      "stateMutability": "nonpayable",
      "type": "function"
    },
    {
      "inputs": [],
      "name": "withdraw",
      "outputs": [],
      "stateMutability": "nonpayable",
      "type": "function"
    },
    {
      "inputs": [
        {
          "internalType": "uint256",
          "name": "amount",
          "type": "uint256"
        }
      ],
      "name": "withdrawAmount",
      "outputs": [],
      "stateMutability": "nonpayable",
      "type": "function"
    },
    {
      "inputs": [],
      "name": "isSellerRegistrationRequired",
      "outputs": [
        {
          "internalType": "bool",
          "name": "",
          "type": "bool"
        }
      ],
      "stateMutability": "view",
      "type": "function"
    },
    {
      "inputs": [
        {
          "internalType": "address",
          "name": "addr",
          "type": "address"
        }
      ],
      "name": "isRegisteredSeller",
      "outputs": [
        {
          "internalType": "bool",
          "name": "",
          "type": "bool"
        }
      ],
      "stateMutability": "view",
      "type": "function"
    },
    {
      "inputs": [],
      "name": "erc20",
      "outputs": [
        {
          "internalType": "address",
          "name": "",
          "type": "address"
        }
      ],
      "stateMutability": "view",
      "type": "function"
    },
    {
      "inputs": [
        {
          "internalType": "address",
          "name": "addr",
          "type": "address"
        }
      ],
      "name": "balanceOf",
      "outputs": [
        {
          "internalType": "uint256",
          "name": "",
          "type": "uint256"
        }
      ],
      "stateMutability": "view",
      "type": "function"
    },
    {
      "inputs": [
        {
          "internalType": "address",
          "name": "addr",
          "type": "address"
        }
      ],
      "name": "erc20BalanceOf",
      "outputs": [
        {
          "internalType": "uint256",
          "name": "",
          "type": "uint256"
        }
      ],
      "stateMutability": "view",
      "type": "function"
    },
    {
      "inputs": [
        {
          "internalType": "address",
          "name": "buyer",
          "type": "address"
        }
      ],
      "name": "allowance",
      "outputs": [
        {
          "internalType": "uint256",
          "name": "",
          "type": "uint256"
        }
      ],
      "stateMutability": "view",
      "type": "function"
    },
    {
      "inputs": [
        {
          "internalType": "bytes32",
          "name": "paymentId",
          "type": "bytes32"
        }
      ],
      "name": "paymentInfo",
      "outputs": [
        {
          "components": [
            {
              "internalType": "enum IPaymentsERC20.State",
              "name": "state",
              "type": "uint8"
            },
            {
              "internalType": "address",
              "name": "buyer",
              "type": "address"
            },
            {
              "internalType": "address",
              "name": "seller",
              "type": "address"
            },
            {
              "internalType": "address",
              "name": "operator",
              "type": "address"
            },
            {
              "internalType": "address",
              "name": "feesCollector",
              "type": "address"
            },
            {
              "internalType": "uint256",
              "name": "expirationTime",
              "type": "uint256"
            },
            {
              "internalType": "uint256",
              "name": "feeBPS",
              "type": "uint256"
            },
            {
              "internalType": "uint256",
              "name": "amount",
              "type": "uint256"
            }
          ],
          "internalType": "struct IPaymentsERC20.Payment",
          "name": "",
          "type": "tuple"
        }
      ],
      "stateMutability": "view",
      "type": "function"
    },
    {
      "inputs": [
        {
          "internalType": "bytes32",
          "name": "paymentId",
          "type": "bytes32"
        }
      ],
      "name": "paymentState",
      "outputs": [
        {
          "internalType": "enum IPaymentsERC20.State",
          "name": "",
          "type": "uint8"
        }
      ],
      "stateMutability": "view",
      "type": "function"
    },
    {
      "inputs": [
        {
          "internalType": "bytes32",
          "name": "paymentId",
          "type": "bytes32"
        }
      ],
      "name": "acceptsRefunds",
      "outputs": [
        {
          "internalType": "bool",
          "name": "",
          "type": "bool"
        }
      ],
      "stateMutability": "view",
      "type": "function"
    },
    {
      "inputs": [],
      "name": "EIP712Address",
      "outputs": [
        {
          "internalType": "address",
          "name": "",
          "type": "address"
        }
      ],
      "stateMutability": "view",
      "type": "function"
    },
    {
      "inputs": [],
      "name": "paymentWindow",
      "outputs": [
        {
          "internalType": "uint256",
          "name": "",
          "type": "uint256"
        }
      ],
      "stateMutability": "view",
      "type": "function"
    },
    {
      "inputs": [],
      "name": "acceptedCurrency",
      "outputs": [
        {
          "internalType": "string",
          "name": "",
          "type": "string"
        }
      ],
      "stateMutability": "view",
      "type": "function"
    },
    {
      "inputs": [
        {
          "internalType": "address",
          "name": "buyer",
          "type": "address"
        },
        {
          "internalType": "uint256",
          "name": "amount",
          "type": "uint256"
        }
      ],
      "name": "enoughFundsAvailable",
      "outputs": [
        {
          "internalType": "bool",
          "name": "",
          "type": "bool"
        }
      ],
      "stateMutability": "view",
      "type": "function"
    },
    {
      "inputs": [
        {
          "internalType": "address",
          "name": "buyer",
          "type": "address"
        }
      ],
      "name": "maxFundsAvailable",
      "outputs": [
        {
          "internalType": "uint256",
          "name": "",
          "type": "uint256"
        }
      ],
      "stateMutability": "view",
      "type": "function"
    },
    {
      "inputs": [
        {
          "internalType": "address",
          "name": "buyer",
          "type": "address"
        },
        {
          "internalType": "uint256",
          "name": "amount",
          "type": "uint256"
        }
      ],
      "name": "splitFundingSources",
      "outputs": [
        {
          "internalType": "uint256",
          "name": "externalFunds",
          "type": "uint256"
        },
        {
          "internalType": "uint256",
          "name": "localFunds",
          "type": "uint256"
        }
      ],
      "stateMutability": "view",
      "type": "function"
    },
    {
      "inputs": [
        {
          "components": [
            {
              "internalType": "bytes32",
              "name": "paymentId",
              "type": "bytes32"
            },
            {
              "internalType": "uint256",
              "name": "amount",
              "type": "uint256"
            },
            {
              "internalType": "uint256",
              "name": "feeBPS",
              "type": "uint256"
            },
            {
              "internalType": "uint256",
              "name": "universeId",
              "type": "uint256"
            },
            {
              "internalType": "uint256",
              "name": "deadline",
              "type": "uint256"
            },
            {
              "internalType": "address",
              "name": "buyer",
              "type": "address"
            },
            {
              "internalType": "address",
              "name": "seller",
              "type": "address"
            }
          ],
          "internalType": "struct ISignableStructs.PaymentInput",
          "name": "payInput",
          "type": "tuple"
        }
      ],
      "name": "checkPaymentInputs",
      "outputs": [],
      "stateMutability": "view",
      "type": "function"
    },
    {
      "inputs": [
        {
          "internalType": "uint256",
          "name": "amount",
          "type": "uint256"
        },
        {
          "internalType": "uint256",
          "name": "feeBPS",
          "type": "uint256"
        }
      ],
      "name": "computeFeeAmount",
      "outputs": [
        {
          "internalType": "uint256",
          "name": "",
          "type": "uint256"
        }
      ],
      "stateMutability": "pure",
      "type": "function"
    }
  ],
  "bytecode": "0x60a06040523480156200001157600080fd5b50604051620028c5380380620028c583398101604081905262000034916200021f565b600080546001600160a01b031916339081178255604051909182917f8be0079c531659141344cd1fd0a4f28419497f9722a3daafe3b4186f6b6457e0908290a350600180546001600160a01b031916339081179091556040517fa60019696f11f9aa952db763c0de585f819d10fcafcfbd301a27d02e9caa41b090600090a2600380546001600160a01b031916339081179091556040517fec71ba738f211337eaf29e2d87bdb1b0928316c20db0a3a1108aa43321583b5090600090a26001600160a01b03838116608052600580546001600160a01b03191691831691909117905581516200012b90600690602085019062000146565b505062278d0060075550506008805460ff1916905562000361565b828054620001549062000324565b90600052602060002090601f016020900481019282620001785760008555620001c3565b82601f106200019357805160ff1916838001178555620001c3565b82800160010185558215620001c3579182015b82811115620001c3578251825591602001919060010190620001a6565b50620001d1929150620001d5565b5090565b5b80821115620001d15760008155600101620001d6565b80516001600160a01b03811681146200020457600080fd5b919050565b634e487b7160e01b600052604160045260246000fd5b6000806000606084860312156200023557600080fd5b6200024084620001ec565b602085810151919450906001600160401b03808211156200026057600080fd5b818701915087601f8301126200027557600080fd5b8151818111156200028a576200028a62000209565b604051601f8201601f19908116603f01168101908382118183101715620002b557620002b562000209565b816040528281528a86848701011115620002ce57600080fd5b600093505b82841015620002f25784840186015181850187015292850192620002d3565b82841115620003045760008684830101525b8097505050505050506200031b60408501620001ec565b90509250925092565b600181811c908216806200033957607f821691505b602082108114156200035b57634e487b7160e01b600052602260045260246000fd5b50919050565b60805161252c62000399600039600081816104350152818161061f01528181610c08015281816116bd01526119aa015261252c6000f3fe608060405234801561001057600080fd5b506004361061025e5760003560e01c806378e96fb511610146578063b2685a3e116100c3578063dca7210011610087578063dca7210014610580578063dd115ab214610593578063f2cc55ee146105b3578063f2fde38b146105c4578063f7884d77146105d7578063fd577343146105ea57600080fd5b8063b2685a3e1461052c578063b708fe371461053f578063c67eb9e514610552578063caa3cecc14610565578063cab55d561461057857600080fd5b80638da5cb5b1161010a5780638da5cb5b146104cf57806396aa71b0146104e0578063982ed326146104f35780639cfd495c14610506578063a1bc474d1461051957600080fd5b806378e96fb5146104595780637ac83f9b146104855780637b018ab91461049857806380ca11fc146104ab57806385a2910d146104bc57600080fd5b80632af41be4116101df5780633e5beab9116101a35780633e5beab9146103b75780634bfc75fc146103ca57806370a08231146103ef578063715018a6146104185780637249fbb614610420578063785e9e861461043357600080fd5b80632af41be41461033157806331784b6d14610344578063317cb0181461035757806334b778ed1461037f5780633ccfd60b146103af57600080fd5b80631c6d7675116102265780631c6d7675146102cc578063221a832e146102e157806323f7a900146102f8578063244aa5d71461030b5780632593308b1461031e57600080fd5b806302519da3146102635780630562b9f71461028957806306968bd91461029e578063128b8532146102b15780631a29b6ab146102b9575b600080fd5b610276610271366004611fda565b6105fd565b6040519081526020015b60405180910390f35b61029c610297366004611ff5565b610693565b005b61029c6102ac366004611ff5565b610727565b61029c6107a8565b61029c6102c736600461201c565b61084a565b6102d4610887565b6040516102809190612039565b60085460ff165b6040519015158152602001610280565b61029c6103063660046120ef565b610919565b6102e8610319366004611ff5565b610a78565b61029c61032c366004611ff5565b610abf565b61027661033f366004612144565b610ad3565b61029c610352366004611ff5565b610b07565b61036a610365366004612166565b610b88565b60408051928352602083019190915201610280565b6103a261038d366004611ff5565b6000908152600a602052604090205460ff1690565b60405161028091906121c8565b61029c610bd6565b6102766103c5366004611fda565b610be0565b6005546001600160a01b03165b6040516001600160a01b039091168152602001610280565b6102766103fd366004611fda565b6001600160a01b03166000908152600b602052604090205490565b61029c610c39565b61029c61042e366004611ff5565b610cad565b7f00000000000000000000000000000000000000000000000000000000000000006103d7565b6102e8610467366004611fda565b6001600160a01b031660009081526009602052604090205460ff1690565b61029c6104933660046121d6565b610cb6565b6103d76104a6366004611ff5565b610d39565b6003546001600160a01b03166103d7565b61029c6104ca3660046121d6565b610d71565b6000546001600160a01b03166103d7565b61029c6104ee366004612202565b610df4565b61029c610501366004611ff5565b610e04565b6102e8610514366004612166565b610ec9565b61029c610527366004612202565b610ede565b61029c61053a366004611fda565b610ef1565b61029c61054d366004611fda565b610f65565b610276610560366004611fda565b610fdd565b61029c610573366004612244565b611039565b600754610276565b6103d761058e366004611ff5565b611268565b6105a66105a1366004611ff5565b61129f565b6040516102809190612260565b6001546001600160a01b03166103d7565b61029c6105d2366004611fda565b611385565b61029c6105e53660046120ef565b61146f565b61029c6105f8366004611fda565b6115c1565b6040516370a0823160e01b81526001600160a01b0382811660048301526000917f0000000000000000000000000000000000000000000000000000000000000000909116906370a08231906024015b602060405180830381865afa158015610669573d6000803e3d6000fd5b505050506040513d601f19601f8201168201806040525081019061068d91906122d2565b92915050565b336000908152600b6020526040902054818110156107105760405162461bcd60e51b815260206004820152602f60248201527f6e6f7420656e6f7567682062616c616e636520746f207769746864726177207360448201526e1c1958da599a595908185b5bdd5b9d608a1b60648201526084015b60405180910390fd5b6107238261071e8184612301565b611635565b5050565b6000546001600160a01b031633146107515760405162461bcd60e51b815260040161070790612318565b60008181526004602052604080822080546001600160a01b031916905560035490516001600160a01b039091169183917f01ab5ff875fd8edb498772244b76ffd53ac3b59cb6397e3c6654194e411ede6b9190a350565b3360009081526009602052604090205460ff16156108085760405162461bcd60e51b815260206004820152601960248201527f73656c6c657220616c72656164792072656769737465726564000000000000006044820152606401610707565b33600081815260096020526040808220805460ff19166001179055517f258a7a0df6106f41c2e99c09f1b64931f5f284242bbc50272d5a752ac2f30dde9190a2565b6000546001600160a01b031633146108745760405162461bcd60e51b815260040161070790612318565b6008805460ff1916911515919091179055565b6060600680546108969061234d565b80601f01602080910402602001604051908101604052809291908181526020018280546108c29061234d565b801561090f5780601f106108e45761010080835404028352916020019161090f565b820191906000526020600020905b8154815290600101906020018083116108f257829003601f168201915b5050505050905090565b61092960c0840160a08501611fda565b6001600160a01b0316336001600160a01b0316146109955760405162461bcd60e51b8152602060048201526024808201527f6f6e6c792062757965722063616e206578656375746520746869732066756e636044820152633a34b7b760e11b6064820152608401610707565b60006109a48460600135610d39565b600554604051636ba8434360e01b81529192506001600160a01b031690636ba84343906109db9087908790879087906004016123ab565b602060405180830381865afa1580156109f8573d6000803e3d6000fd5b505050506040513d601f19601f82011682018060405250810190610a1c9190612435565b610a685760405162461bcd60e51b815260206004820152601c60248201527f696e636f7272656374206f70657261746f72207369676e6174757265000000006044820152606401610707565b610a728482611764565b50505050565b600060016000838152600a602052604090205460ff166003811115610a9f57610a9f612190565b14801561068d5750506000908152600a6020526040902060040154421190565b610ac881611b4d565b610ad0611bc1565b50565b600080612710610ae38486612452565b610aed9190612471565b905083811115610afd5783610aff565b805b949350505050565b6000546001600160a01b03163314610b315760405162461bcd60e51b815260040161070790612318565b60008181526002602052604080822080546001600160a01b031916905560015490516001600160a01b039091169183917f34bf92bbf741b75e3289761f6b95459b088de5b3282274572caf118e9c2617dc9190a350565b6001600160a01b0382166000908152600b60205260408120548190808411610bb05783610bb2565b805b9150808411610bc2576000610bcc565b610bcc8185612301565b9250509250929050565b610bde611bc1565b565b604051636eb1769f60e11b81526001600160a01b0382811660048301523060248301526000917f00000000000000000000000000000000000000000000000000000000000000009091169063dd62ed3e9060440161064c565b6000546001600160a01b03163314610c635760405162461bcd60e51b815260040161070790612318565b600080546040516001600160a01b03909116907f8be0079c531659141344cd1fd0a4f28419497f9722a3daafe3b4186f6b6457e0908390a3600080546001600160a01b0319169055565b610ad081611b4d565b6000546001600160a01b03163314610ce05760405162461bcd60e51b815260040161070790612318565b60008281526004602052604080822080546001600160a01b0319166001600160a01b0385169081179091559051909184917f01ab5ff875fd8edb498772244b76ffd53ac3b59cb6397e3c6654194e411ede6b9190a35050565b6000818152600460205260408120546001600160a01b03168015610d5d5780610d6a565b6003546001600160a01b03165b9392505050565b6000546001600160a01b03163314610d9b5760405162461bcd60e51b815260040161070790612318565b60008281526002602052604080822080546001600160a01b0319166001600160a01b0385169081179091559051909184917f34bf92bbf741b75e3289761f6b95459b088de5b3282274572caf118e9c2617dc9190a35050565b610dff838383611bda565b505050565b6000546001600160a01b03163314610e2e5760405162461bcd60e51b815260040161070790612318565b624f1a0081108015610e415750612a3081115b610e8d5760405162461bcd60e51b815260206004820152601d60248201527f7061796d656e742077696e646f77206f757473696465206c696d6974730000006044820152606401610707565b60078190556040518181527fb8931bd4946b9278bba3ac02a56a37159384a2a02d4c3416706f635b853d44f4906020015b60405180910390a150565b600081610ed584610fdd565b10159392505050565b610ee9838383611bda565b610dff611bc1565b6000546001600160a01b03163314610f1b5760405162461bcd60e51b815260040161070790612318565b600180546001600160a01b0319166001600160a01b0383169081179091556040517fa60019696f11f9aa952db763c0de585f819d10fcafcfbd301a27d02e9caa41b090600090a250565b6000546001600160a01b03163314610f8f5760405162461bcd60e51b815260040161070790612318565b600580546001600160a01b0319166001600160a01b0383169081179091556040519081527fd79572af00d53c39e730f70e252d305b0c30f37702fa29b81e864df96f15b57890602001610ebe565b600080610fe983610be0565b90506000610ff6846105fd565b905060008183106110075781611009565b825b6001600160a01b0386166000908152600b6020526040902054909150611030908290612493565b95945050505050565b6127108160400135111561109d5760405162461bcd60e51b815260206004820152602560248201527f6665652063616e6e6f74206265206c6172676572207468616e203130302070656044820152641c98d95b9d60da1b6064820152608401610707565b80356000908152600a602052604081205460ff1660038111156110c2576110c2612190565b146111195760405162461bcd60e51b815260206004820152602160248201527f7061796d656e7420696e20696e636f727265637420637572656e7420737461746044820152606560f81b6064820152608401610707565b806080013542111561116d5760405162461bcd60e51b815260206004820152601860248201527f7061796d656e7420646561646c696e65206578706972656400000000000000006044820152606401610707565b60085460ff16156111ed576009600061118c60e0840160c08501611fda565b6001600160a01b0316815260208101919091526040016000205460ff166111ed5760405162461bcd60e51b81526020600482015260156024820152741cd95b1b195c881b9bdd081c9959da5cdd195c9959605a1b6044820152606401610707565b61120a61120060c0830160a08401611fda565b8260200135610ec9565b610ad05760405162461bcd60e51b815260206004820152602960248201527f6e6f7420656e6f7567682066756e647320617661696c61626c6520666f7220746044820152683434b990313abcb2b960b91b6064820152608401610707565b6000818152600260205260408120546001600160a01b0316801561128c5780610d6a565b6001546001600160a01b03169392505050565b6040805161010081018252600080825260208201819052918101829052606081018290526080810182905260a0810182905260c0810182905260e08101919091526000828152600a602052604090819020815161010081019092528054829060ff16600381111561131257611312612190565b600381111561132357611323612190565b815281546001600160a01b03610100909104811660208301526001830154811660408301526002830154811660608301526003830154166080820152600482015460a0820152600582015460c082015260069091015460e09091015292915050565b6000546001600160a01b031633146113af5760405162461bcd60e51b815260040161070790612318565b6001600160a01b0381166114145760405162461bcd60e51b815260206004820152602660248201527f4f776e61626c653a206e6577206f776e657220697320746865207a65726f206160448201526564647265737360d01b6064820152608401610707565b600080546040516001600160a01b03808516939216917f8be0079c531659141344cd1fd0a4f28419497f9722a3daafe3b4186f6b6457e091a3600080546001600160a01b0319166001600160a01b0392909216919091179055565b3361147d6060850135610d39565b6001600160a01b0316146114e75760405162461bcd60e51b815260206004820152602b60248201527f6f70657261746f72206e6f7420617574686f72697a656420666f72207468697360448201526a081d5b9a5d995c9cd9525960aa1b6064820152608401610707565b6005546001600160a01b0316636ba8434384848461150b60c0840160a08501611fda565b6040518563ffffffff1660e01b815260040161152a94939291906123ab565b602060405180830381865afa158015611547573d6000803e3d6000fd5b505050506040513d601f19601f8201168201806040525081019061156b9190612435565b6115b75760405162461bcd60e51b815260206004820152601960248201527f696e636f7272656374206275796572207369676e6174757265000000000000006044820152606401610707565b610dff8333611764565b6000546001600160a01b031633146115eb5760405162461bcd60e51b815260040161070790612318565b600380546001600160a01b0319166001600160a01b0383169081179091556040517fec71ba738f211337eaf29e2d87bdb1b0928316c20db0a3a1108aa43321583b5090600090a250565b600082116116855760405162461bcd60e51b815260206004820152601b60248201527f63616e6e6f74207769746864726177207a65726f20616d6f756e7400000000006044820152606401610707565b336000818152600b6020526040908190208390555163a9059cbb60e01b81526004810191909152602481018390526001600160a01b037f0000000000000000000000000000000000000000000000000000000000000000169063a9059cbb906044016020604051808303816000875af1158015611706573d6000803e3d6000fd5b505050506040513d601f19601f8201168201806040525081019061172a9190612435565b5060405182815233907f884edad9ce6fa2440d8a54cc123490eb96d2768479d49ff9c7366125a94243649060200160405180910390a25050565b61176d82611039565b61177d60c0830160a08401611fda565b6001600160a01b0316816001600160a01b0316141580156117bf57506117a960e0830160c08401611fda565b6001600160a01b0316816001600160a01b031614155b61180b5760405162461bcd60e51b815260206004820152601c60248201527f6f70657261746f72206d75737420626520616e206f62736572766572000000006044820152606401610707565b604080516101008101909152806001815260200161182f60c0850160a08601611fda565b6001600160a01b0316815260200161184d60e0850160c08601611fda565b6001600160a01b03168152602001826001600160a01b031681526020016118778460600135611268565b6001600160a01b03168152602001600754426118939190612493565b8152604080850135602080840191909152858101359282019290925284356000908152600a909252902081518154829060ff191660018360038111156118db576118db612190565b0217905550602082015181546001600160a01b0391821661010002610100600160a81b031990911617825560408301516001830180549183166001600160a01b03199283161790556060840151600284018054918416918316919091179055608084015160038401805491909316911617905560a080830151600483015560c080840151600584015560e09093015160069092019190915560009182916119959161198b91908701908701611fda565b8560200135610b88565b90925090508115611a9a576001600160a01b037f0000000000000000000000000000000000000000000000000000000000000000166323b872dd6119df60c0870160a08801611fda565b6040516001600160e01b031960e084901b1681526001600160a01b039091166004820152306024820152604481018590526064016020604051808303816000875af1158015611a32573d6000803e3d6000fd5b505050506040513d601f19601f82011682018060405250810190611a569190612435565b611a9a5760405162461bcd60e51b8152602060048201526015602482015274115490cc8c081d1c985b9cd9995c8819985a5b1959605a1b6044820152606401610707565b80600b6000611aaf60c0880160a08901611fda565b6001600160a01b03166001600160a01b031681526020019081526020016000206000828254611ade9190612301565b90915550611af4905060e0850160c08601611fda565b6001600160a01b0316611b0d60c0860160a08701611fda565b6001600160a01b031685600001357f9d2b05c7d7197919c5ec9dee268522f93b84c5e4a6448cf2caf5cb911bd3581d60405160405180910390a450505050565b611b5681610a78565b611bb85760405162461bcd60e51b815260206004820152602d60248201527f7061796d656e7420646f6573206e6f742061636365707420726566756e64732060448201526c6174207468697320737461676560981b6064820152608401610707565b610ad081611e0a565b336000908152600b6020526040812054610bde91611635565b82356000908152600a6020526040808220815161010081019092528054829060ff166003811115611c0d57611c0d612190565b6003811115611c1e57611c1e612190565b815281546001600160a01b03610100909104811660208301526001808401548216604084015260028401548216606084015260038401549091166080830152600483015460a0830152600583015460c083015260069092015460e09091015290915081516003811115611c9357611c93612190565b14611cfa5760405162461bcd60e51b815260206004820152603160248201527f7061796d656e74206e6f7420696e697469616c6c7920696e206173736574207460448201527072616e7366657272696e6720737461746560781b6064820152608401610707565b6005546060820151604051638073e78160e01b81526001600160a01b0390921691638073e78191611d3491889188918891906004016124ab565b602060405180830381865afa158015611d51573d6000803e3d6000fd5b505050506040513d601f19601f82011682018060405250810190611d759190612435565b611ddb5760405162461bcd60e51b815260206004820152603160248201527f6f6e6c7920746865206f70657261746f722063616e207369676e20616e2061736044820152701cd95d151c985b9cd9995c94995cdd5b1d607a1b6064820152608401610707565b611deb604085016020860161201c565b15611e0057611dfb843582611eed565b610a72565b610a728435611bb8565b6000818152600a60209081526040808320805460ff19166002908117808355835161010080820186528382526001600160a01b03920482168187018190526001850154831682870152928401548216606082015260038401549091166080820152600483015460a0820152600583015460c082015260069092015460e08301819052908552600b909352908320805491939091611ea8908490612493565b909155505060208101516040516001600160a01b039091169083907f5ff61db57638246b4e385e22ef7613d9bb0c21cc207e863676e3c7a49e39a17f90600090a35050565b6000828152600a60205260408120805460ff1916600317905560e082015160c0830151611f1a9190610ad3565b9050808260e00151611f2c9190612301565b6040808401516001600160a01b03166000908152600b6020529081208054909190611f58908490612493565b909155505060808201516001600160a01b03166000908152600b602052604081208054839290611f89908490612493565b909155505060405183907fe72fd4f49ae148a0d79f0e71ec9cae30076dbfde7b66f70cafd11416eae8dc6290600090a2505050565b80356001600160a01b0381168114611fd557600080fd5b919050565b600060208284031215611fec57600080fd5b610d6a82611fbe565b60006020828403121561200757600080fd5b5035919050565b8015158114610ad057600080fd5b60006020828403121561202e57600080fd5b8135610afd8161200e565b600060208083528351808285015260005b818110156120665785810183015185820160400152820161204a565b81811115612078576000604083870101525b50601f01601f1916929092016040019392505050565b600060e082840312156120a057600080fd5b50919050565b60008083601f8401126120b857600080fd5b50813567ffffffffffffffff8111156120d057600080fd5b6020830191508360208285010111156120e857600080fd5b9250929050565b6000806000610100848603121561210557600080fd5b61210f858561208e565b925060e084013567ffffffffffffffff81111561212b57600080fd5b612137868287016120a6565b9497909650939450505050565b6000806040838503121561215757600080fd5b50508035926020909101359150565b6000806040838503121561217957600080fd5b61218283611fbe565b946020939093013593505050565b634e487b7160e01b600052602160045260246000fd5b600481106121c457634e487b7160e01b600052602160045260246000fd5b9052565b6020810161068d82846121a6565b600080604083850312156121e957600080fd5b823591506121f960208401611fbe565b90509250929050565b6000806000838503606081121561221857600080fd5b604081121561222657600080fd5b50839250604084013567ffffffffffffffff81111561212b57600080fd5b600060e0828403121561225657600080fd5b610d6a838361208e565b6000610100820190506122748284516121a6565b602083015160018060a01b038082166020850152806040860151166040850152806060860151166060850152806080860151166080850152505060a083015160a083015260c083015160c083015260e083015160e083015292915050565b6000602082840312156122e457600080fd5b5051919050565b634e487b7160e01b600052601160045260246000fd5b600082821015612313576123136122eb565b500390565b6020808252818101527f4f776e61626c653a2063616c6c6572206973206e6f7420746865206f776e6572604082015260600190565b600181811c9082168061236157607f821691505b602082108114156120a057634e487b7160e01b600052602260045260246000fd5b81835281816020850137506000828201602090810191909152601f909101601f19169091010190565b600061012086358352602087013560208401526040870135604084015260608701356060840152608087013560808401526123e860a08801611fbe565b6001600160a01b0381811660a08601528061240560c08b01611fbe565b1660c08601528260e086015261241e838601888a612382565b935080861661010086015250505095945050505050565b60006020828403121561244757600080fd5b8151610afd8161200e565b600081600019048311821515161561246c5761246c6122eb565b500290565b60008261248e57634e487b7160e01b600052601260045260246000fd5b500490565b600082198211156124a6576124a66122eb565b500190565b84358152600060208601356124bf8161200e565b801515602084015250608060408301526124dd608083018587612382565b905060018060a01b03831660608301529594505050505056fea2646970667358221220e74e76d6eec245cb7db8e588c0d449e59a09f3d8d8d05064b2216ffba503b13364736f6c634300080c0033",
  "immutableReferences": {
    "1813": [
      {
        "length": 32,
        "start": 1077
      },
      {
        "length": 32,
        "start": 1567
      },
      {
        "length": 32,
        "start": 3080
      },
      {
        "length": 32,
        "start": 5821
      },
      {
        "length": 32,
        "start": 6570
      }
    ]
  },
  "source": "// SPDX-License-Identifier: MIT\npragma solidity =0.8.12;\n\nimport \"openzeppelin-solidity/contracts/token/ERC20/IERC20.sol\";\nimport \"./Operators.sol\";\nimport \"./FeesCollectors.sol\";\nimport \"./IEIP712Verifier.sol\";\nimport \"./IPaymentsERC20.sol\";\n\n/**\n * @title Payments Contract in ERC20.\n * @author Freeverse.io, www.freeverse.io\n * @dev Upon transfer of ERC20 tokens to this contract, these remain\n * locked until an Operator confirms the success or failure of the\n * asset transfer required to fulfil this payment.\n *\n * If no confirmation is received from the operator during the PaymentWindow,\n * all tokens received from the buyer are made available to the buyer for refund.\n *\n * To start a payment, one of the following two methods needs to be called:\n * - in the 'pay' method, the buyer is the msg.sender (the buyer therefore signs the TX),\n *   and the operator's EIP712-signature of the PaymentInput struct is provided as input to the call.\n * - in the 'relayedPay' method, the operator is the msg.sender (the operator therefore signs the TX),\n *   and the buyer's EIP712-signature of the PaymentInput struct is provided as input to the call.\n *\n * This contract maintains the balances of all users, it does not transfer them automatically.\n * Users need to explicitly call the 'withdraw' method, which withdraws balanceOf[msg.sender]\n * If a buyer has a non-zero local balance at the moment of starting a new payment,\n * the contract reuses it, and only transfers the remainder required (if any)\n * from the external ERC20 contract.\n *\n * Each payment has the following State Machine:\n * - NOT_STARTED -> ASSET_TRANSFERRING, triggered by pay/relayedPay\n * - ASSET_TRANSFERRING -> PAID, triggered by relaying assetTransferSuccess signed by operator\n * - ASSET_TRANSFERRING -> REFUNDED, triggered by relaying assetTransferFailed signed by operator\n * - ASSET_TRANSFERRING -> REFUNDED, triggered by a refund request after expirationTime\n *\n * NOTE: To ensure that the payment process proceeds as expected when the payment starts,\n * upon acceptance of a pay/relayedPay, the following data: {operator, feesCollector, expirationTime}\n * is stored in the payment struct, and used throughout the payment, regardless of\n * any possible modifications to the contract's storage.\n *\n * NOTE: The contract allows a feature, 'Seller Registration', that can be used in the scenario that\n * applications want users to prove that they have enough crypto know-how (obtain native crypto,\n * pay for gas using a web3 wallet, etc.) to interact by themselves with this smart contract before selling,\n * so that they are less likely to require technical help in case they need to withdraw funds. \n * - If _isSellerRegistrationRequired = true, this feature is enabled, and payments can only be initiated\n *    if the payment seller has previously exectuted the registerAsSeller method.\n * - If _isSellerRegistrationRequired = false, this feature is disabled, and payments can be initiated\n *    regardless of any previous call to the registerAsSeller method.\n */\n\ncontract PaymentsERC20 is IPaymentsERC20, FeesCollectors, Operators {\n    address private immutable _erc20;\n    address private _eip712;\n    string private _acceptedCurrency;\n    uint256 private _paymentWindow;\n    bool private _isSellerRegistrationRequired;\n    mapping(address => bool) private _isRegisteredSeller;\n    mapping(bytes32 => Payment) private _payments;\n    mapping(address => uint256) private _balanceOf;\n\n    constructor(address erc20Address, string memory currencyDescriptor, address eip712) {\n        _erc20 = erc20Address;\n        _eip712 = eip712;\n        _acceptedCurrency = currencyDescriptor;\n        _paymentWindow = 30 days;\n        _isSellerRegistrationRequired = false;\n    }\n\n    /**\n     * @notice Sets the address of the EIP712 verifier contract.\n     * @dev This upgradable pattern is required in case that the \n     *  EIP712 spec/code changes in the future\n     * @param eip712address The address of the new EIP712 contract.\n     */\n    function setEIP712(address eip712address) external onlyOwner {\n        _eip712 = eip712address;\n        emit EIP712(eip712address);\n    }\n\n    /**\n     * @notice Sets the amount of time available to the operator, after the payment starts,\n     *  to confirm either the success or the failure of the asset transfer.\n     *  After this time, the payment moves to FAILED, allowing buyer to withdraw.\n     * @param window The amount of time available, in seconds.\n     */\n    function setPaymentWindow(uint256 window) external onlyOwner {\n        require(\n            (window < 60 days) && (window > 3 hours),\n            \"payment window outside limits\"\n        );\n        _paymentWindow = window;\n        emit PaymentWindow(window);\n    }\n\n    /**\n     * @notice Sets whether sellers are required to register in this contract before being\n     *  able to accept payments.\n     * @param isRequired (bool) if true, registration is required.\n     */\n    function setIsSellerRegistrationRequired(bool isRequired)\n        external\n        onlyOwner\n    {\n        _isSellerRegistrationRequired = isRequired;\n    }\n\n    /// @inheritdoc IPaymentsERC20\n    function registerAsSeller() external {\n        require(!_isRegisteredSeller[msg.sender], \"seller already registered\");\n        _isRegisteredSeller[msg.sender] = true;\n        emit NewSeller(msg.sender);\n    }\n\n    /// @inheritdoc IPaymentsERC20\n    function relayedPay(\n        PaymentInput calldata payInput,\n        bytes calldata buyerSignature\n    ) external {\n        require(\n            universeOperator(payInput.universeId) == msg.sender,\n            \"operator not authorized for this universeId\"\n        );\n        require(\n            IEIP712Verifier(_eip712).verifyPayment(payInput, buyerSignature, payInput.buyer),\n            \"incorrect buyer signature\"\n        );\n        _processInputPayment(payInput, msg.sender);\n    }\n\n    /// @inheritdoc IPaymentsERC20\n    function pay(PaymentInput calldata payInput, bytes calldata operatorSignature)\n        external\n    {\n        require(\n            msg.sender == payInput.buyer,\n            \"only buyer can execute this function\"\n        );\n        address operator = universeOperator(payInput.universeId);\n        require(\n            IEIP712Verifier(_eip712).verifyPayment(payInput, operatorSignature, operator),\n            \"incorrect operator signature\"\n        );\n        _processInputPayment(payInput, operator);\n    }\n\n    /// @inheritdoc IPaymentsERC20\n    function finalize(\n        AssetTransferResult calldata transferResult,\n        bytes calldata operatorSignature\n    ) external {\n        _finalize(transferResult, operatorSignature);\n    }\n\n    /// @inheritdoc IPaymentsERC20\n    function finalizeAndWithdraw(\n        AssetTransferResult calldata transferResult,\n        bytes calldata operatorSignature\n    ) external {\n        _finalize(transferResult, operatorSignature);\n        _withdraw();\n    }\n\n    /// @inheritdoc IPaymentsERC20\n    function refund(bytes32 paymentId) public {\n        _refund(paymentId);\n    }\n\n    /// @inheritdoc IPaymentsERC20\n    function refundAndWithdraw(bytes32 paymentId) external {\n        _refund(paymentId);\n        _withdraw();\n    }\n\n    /// @inheritdoc IPaymentsERC20\n    function withdraw() external {\n        _withdraw();\n    }\n\n    /// @inheritdoc IPaymentsERC20\n    function withdrawAmount(uint256 amount) external {\n        uint256 balance = _balanceOf[msg.sender];\n        require(balance >= amount, \"not enough balance to withdraw specified amount\");\n        _withdrawAmount(amount, balance - amount);\n    }\n\n    // PRIVATE FUNCTIONS\n    /**\n     * @dev (private) Checks payment input parameters,\n     *  transfers the funds required from the external\n     *  ERC20 contract, reusing buyer's local balance (if any),\n     *  and stores the payment data in contract's storage.\n     *  Moves the payment to AssetTransferring state\n     * @param payInput The PaymentInput struct\n     * @param operator The address of the operator of this payment.\n     */\n    function _processInputPayment(\n        PaymentInput calldata payInput,\n        address operator\n    ) private {\n        checkPaymentInputs(payInput);\n        require(\n            (operator != payInput.buyer) && (operator != payInput.seller),\n            \"operator must be an observer\"\n        );\n        _payments[payInput.paymentId] = Payment(\n            State.AssetTransferring,\n            payInput.buyer,\n            payInput.seller,\n            operator,\n            universeFeesCollector(payInput.universeId),\n            block.timestamp + _paymentWindow,\n            payInput.feeBPS,\n            payInput.amount\n        );\n        (uint256 newFunds, uint256 localFunds) = splitFundingSources(\n            payInput.buyer,\n            payInput.amount\n        );\n        if (newFunds > 0) {\n            require(\n                IERC20(_erc20).transferFrom(payInput.buyer, address(this), newFunds),\n                \"ERC20 transfer failed\"\n            );\n        }\n        _balanceOf[payInput.buyer] -= localFunds;\n        emit PayIn(payInput.paymentId, payInput.buyer, payInput.seller);\n    }\n\n    /**\n     * @dev (private) Moves the payment funds to the buyer's local balance\n     *  The buyer still needs to withdraw afterwards.\n     *  Moves the payment to REFUNDED state\n     * @param paymentId The unique ID that identifies the payment.\n     */\n    function _refund(bytes32 paymentId) private {\n        require(\n            acceptsRefunds(paymentId),\n            \"payment does not accept refunds at this stage\"\n        );\n        _refundToLocalBalance(paymentId);\n    }\n\n    /**\n     * @dev (private) Uses the operator signed msg regarding asset transfer success to update\n     *  the balances of seller (on success) or buyer (on failure).\n     *  They still need to withdraw afterwards.\n     *  Moves the payment to either PAID (on success) or REFUNDED (on failure) state\n     * @param transferResult The asset transfer transferResult struct signed by the operator.\n     * @param operatorSignature The operator signature of transferResult\n     */\n    function _finalize(\n        AssetTransferResult calldata transferResult,\n        bytes calldata operatorSignature\n    ) private {\n        Payment memory payment = _payments[transferResult.paymentId];\n        require(\n            payment.state == State.AssetTransferring,\n            \"payment not initially in asset transferring state\"\n        );\n        require(\n            IEIP712Verifier(_eip712).verifyAssetTransferResult(transferResult, operatorSignature, payment.operator),\n            \"only the operator can sign an assetTransferResult\"\n        );\n        if (transferResult.wasSuccessful) {\n            _finalizeSuccess(transferResult.paymentId, payment);\n        } else {\n            _finalizeFailed(transferResult.paymentId);\n        }\n    }\n\n    /**\n     * @dev (private) Updates the balance of the seller on successful asset transfer\n     *  Moves the payment to PAID\n     * @param paymentId The unique ID that identifies the payment.\n     * @param payment The payment struct corresponding to paymentId\n     */\n    function _finalizeSuccess(bytes32 paymentId, Payment memory payment) private {\n        _payments[paymentId].state = State.Paid;\n        uint256 feeAmount = computeFeeAmount(payment.amount, payment.feeBPS);\n        _balanceOf[payment.seller] += (payment.amount - feeAmount);\n        _balanceOf[payment.feesCollector] += feeAmount;\n        emit Paid(paymentId);\n    }\n\n    /**\n     * @dev (private) Updates the balance of the buyer on failed asset transfer\n     *  Moves the payment to REFUNDED\n     * @param paymentId The unique ID that identifies the payment.\n     */\n    function _finalizeFailed(bytes32 paymentId) private {\n        _refundToLocalBalance(paymentId);\n    }\n\n    /**\n     * @dev (private) Executes refund, moves to REFUNDED state\n     * @param paymentId The unique ID that identifies the payment.\n     */\n    function _refundToLocalBalance(bytes32 paymentId) private {\n        _payments[paymentId].state = State.Refunded;\n        Payment memory payment = _payments[paymentId];\n        _balanceOf[payment.buyer] += payment.amount;\n        emit BuyerRefunded(paymentId, payment.buyer);\n    }\n\n    /**\n     * @dev (private) Transfers ERC20 available in this\n     *  contract's balanceOf[msg.sender] to msg.sender\n     *  Follows standard Checks-Effects-Interactions pattern\n     *  to protect against re-entrancy attacks.\n     */\n    function _withdraw() private {\n        _withdrawAmount(_balanceOf[msg.sender], 0);\n    }\n\n    /**\n     * @dev (private) Transfers the specified amount of \n     *  ERC20 in this contract's balanceOf[msg.sender] to msg.sender\n     *  The checks that enough amount is available, and the computation\n     *  of the final balance need to be done before calling this function.\n     *  Follows standard Checks-Effects-Interactions pattern\n     *  to protect against re-entrancy attacks.\n     */\n    function _withdrawAmount(uint256 amount, uint256 finalBalance) private {\n        require(amount > 0, \"cannot withdraw zero amount\");\n        _balanceOf[msg.sender] = finalBalance;\n        IERC20(_erc20).transfer(msg.sender, amount);\n        emit Withdraw(msg.sender, amount);\n    }\n\n    // VIEW FUNCTIONS\n\n    /// @inheritdoc IPaymentsERC20\n    function isSellerRegistrationRequired() external view returns (bool) {\n        return _isSellerRegistrationRequired;\n    }\n\n    /// @inheritdoc IPaymentsERC20\n    function isRegisteredSeller(address addr) external view returns (bool) {\n        return _isRegisteredSeller[addr];\n    }\n\n    /// @inheritdoc IPaymentsERC20\n    function erc20() external view returns (address) {\n        return _erc20;\n    }\n\n    /// @inheritdoc IPaymentsERC20\n    function balanceOf(address addr) external view returns (uint256) {\n        return _balanceOf[addr];\n    }\n\n    /// @inheritdoc IPaymentsERC20\n    function erc20BalanceOf(address addr) public view returns (uint256) {\n        return IERC20(_erc20).balanceOf(addr);\n    }\n\n    /// @inheritdoc IPaymentsERC20\n    function allowance(address buyer) public view returns (uint256) {\n        return IERC20(_erc20).allowance(buyer, address(this));\n    }\n\n    /// @inheritdoc IPaymentsERC20\n    function paymentInfo(bytes32 paymentId)\n        external\n        view\n        returns (Payment memory)\n    {\n        return _payments[paymentId];\n    }\n\n    /// @inheritdoc IPaymentsERC20\n    function paymentState(bytes32 paymentId) public view returns (State) {\n        return _payments[paymentId].state;\n    }\n\n    /// @inheritdoc IPaymentsERC20\n    function acceptsRefunds(bytes32 paymentId) public view returns (bool) {\n        return\n            (paymentState(paymentId) == State.AssetTransferring) &&\n            (block.timestamp > _payments[paymentId].expirationTime);\n    }\n\n    /// @inheritdoc IPaymentsERC20\n    function EIP712Address() external view returns (address) {\n        return _eip712;\n    }\n\n    /// @inheritdoc IPaymentsERC20\n    function paymentWindow() external view returns (uint256) {\n        return _paymentWindow;\n    }\n\n    /// @inheritdoc IPaymentsERC20\n    function acceptedCurrency() external view returns (string memory) {\n        return _acceptedCurrency;\n    }\n\n    /// @inheritdoc IPaymentsERC20\n    function enoughFundsAvailable(address buyer, uint256 amount)\n        public\n        view\n        returns (bool)\n    {\n        return maxFundsAvailable(buyer) >= amount;\n    }\n\n    /// @inheritdoc IPaymentsERC20\n    function maxFundsAvailable(address buyer) public view returns (uint256) {\n        uint256 approved = allowance(buyer);\n        uint256 erc20Balance = erc20BalanceOf(buyer);\n        uint256 externalAvailable = (approved < erc20Balance)\n            ? approved\n            : erc20Balance;\n        return _balanceOf[buyer] + externalAvailable;\n    }\n\n    /// @inheritdoc IPaymentsERC20\n    function splitFundingSources(address buyer, uint256 amount)\n        public\n        view\n        returns (uint256 externalFunds, uint256 localFunds)\n    {\n        uint256 localBalance = _balanceOf[buyer];\n        localFunds = (amount > localBalance) ? localBalance : amount;\n        externalFunds = (amount > localBalance) ? amount - localBalance : 0;\n    }\n\n    /// @inheritdoc IPaymentsERC20\n    function checkPaymentInputs(PaymentInput calldata payInput) public view {\n        require(payInput.feeBPS <= 10000, \"fee cannot be larger than 100 percent\");\n        require(\n            paymentState(payInput.paymentId) == State.NotStarted,\n            \"payment in incorrect curent state\"\n        );\n        require(block.timestamp <= payInput.deadline, \"payment deadline expired\");\n        if (_isSellerRegistrationRequired)\n            require(_isRegisteredSeller[payInput.seller], \"seller not registered\");\n        require(\n            enoughFundsAvailable(payInput.buyer, payInput.amount),\n            \"not enough funds available for this buyer\"\n        );\n    }\n\n    // PURE FUNCTIONS\n\n    /// @inheritdoc IPaymentsERC20\n    function computeFeeAmount(uint256 amount, uint256 feeBPS)\n        public\n        pure\n        returns (uint256)\n    {\n        uint256 feeAmount = (amount * feeBPS) / 10000;\n        return (feeAmount <= amount) ? feeAmount : amount;\n    }\n}\n",
  "sourcePath": "/Users/toni/gits/cryptoPayments/contracts/Payments/PaymentsERC20.sol",
  "compiler": {
    "name": "solc",
    "version": "0.8.12+commit.f00d7308.Emscripten.clang"
  },
  "schemaVersion": "3.4.3",
  "updatedAt": "2022-05-27T10:46:47.127Z",
  "devdoc": {
    "author": "Freeverse.io, www.freeverse.io",
    "details": "Upon transfer of ERC20 tokens to this contract, these remain locked until an Operator confirms the success or failure of the asset transfer required to fulfil this payment. If no confirmation is received from the operator during the PaymentWindow, all tokens received from the buyer are made available to the buyer for refund. To start a payment, one of the following two methods needs to be called: - in the 'pay' method, the buyer is the msg.sender (the buyer therefore signs the TX),   and the operator's EIP712-signature of the PaymentInput struct is provided as input to the call. - in the 'relayedPay' method, the operator is the msg.sender (the operator therefore signs the TX),   and the buyer's EIP712-signature of the PaymentInput struct is provided as input to the call. This contract maintains the balances of all users, it does not transfer them automatically. Users need to explicitly call the 'withdraw' method, which withdraws balanceOf[msg.sender] If a buyer has a non-zero local balance at the moment of starting a new payment, the contract reuses it, and only transfers the remainder required (if any) from the external ERC20 contract. Each payment has the following State Machine: - NOT_STARTED -> ASSET_TRANSFERRING, triggered by pay/relayedPay - ASSET_TRANSFERRING -> PAID, triggered by relaying assetTransferSuccess signed by operator - ASSET_TRANSFERRING -> REFUNDED, triggered by relaying assetTransferFailed signed by operator - ASSET_TRANSFERRING -> REFUNDED, triggered by a refund request after expirationTime NOTE: To ensure that the payment process proceeds as expected when the payment starts, upon acceptance of a pay/relayedPay, the following data: {operator, feesCollector, expirationTime} is stored in the payment struct, and used throughout the payment, regardless of any possible modifications to the contract's storage. NOTE: The contract allows a feature, 'Seller Registration', that can be used in the scenario that applications want users to prove that they have enough crypto know-how (obtain native crypto, pay for gas using a web3 wallet, etc.) to interact by themselves with this smart contract before selling, so that they are less likely to require technical help in case they need to withdraw funds.  - If _isSellerRegistrationRequired = true, this feature is enabled, and payments can only be initiated    if the payment seller has previously exectuted the registerAsSeller method. - If _isSellerRegistrationRequired = false, this feature is disabled, and payments can be initiated    regardless of any previous call to the registerAsSeller method.",
    "kind": "dev",
    "methods": {
      "EIP712Address()": {
        "returns": {
          "_0": "the address of the EIP712 verifier contract"
        }
      },
      "acceptedCurrency()": {
        "returns": {
          "_0": "the string describing the currency"
        }
      },
      "acceptsRefunds(bytes32)": {
        "details": "The payment must be in ASSET_TRANSFERRING and beyond expirationTime.",
        "params": {
          "paymentId": "The unique ID that identifies the payment."
        },
        "returns": {
          "_0": "true if the payment accepts a refund to the buyer."
        }
      },
      "allowance(address)": {
        "params": {
          "buyer": "the address of the buyer"
        },
        "returns": {
          "_0": "the amount allowed by buyer"
        }
      },
      "balanceOf(address)": {
        "params": {
          "addr": "the address that is queried"
        },
        "returns": {
          "_0": "the local balance"
        }
      },
      "checkPaymentInputs((bytes32,uint256,uint256,uint256,uint256,address,address))": {
        "params": {
          "payInput": "The PaymentInput struct"
        }
      },
      "computeFeeAmount(uint256,uint256)": {
        "details": "Must return a value that is guaranteed to be less or equal to the provided amount",
        "params": {
          "amount": "The amount",
          "feeBPS": "The percentage fee expressed in Basis Points (bps).  feeBPS examples:  2.5% = 250 bps, 10% = 1000 bps, 100% = 10000 bps"
        },
        "returns": {
          "_0": "The fee amount"
        }
      },
      "defaultFeesCollector()": {
        "details": "Returns the default feesCollector"
      },
      "defaultOperator()": {
        "details": "Returns the default operator"
      },
      "enoughFundsAvailable(address,uint256)": {
        "details": "In more detail: returns true if the sum of the buyer's local balance in this contract,  plus funds available and approved in the ERC20 contract, are larger or equal than 'amount'",
        "params": {
          "amount": "The amount that is queried",
          "buyer": "The address for which funds are queried"
        },
        "returns": {
          "_0": "Returns true if enough funds are available"
        }
      },
      "erc20()": {
        "returns": {
          "_0": "the address of the ERC20 contract"
        }
      },
      "erc20BalanceOf(address)": {
        "params": {
          "addr": "the address that is queried"
        },
        "returns": {
          "_0": "the balance in the external ERC20 contract"
        }
      },
      "finalize((bytes32,bool),bytes)": {
        "details": "Can be executed by anyone, but the operator signature must be included as input param.  Seller or Buyer's balances are updated, allowing explicit withdrawal.  Moves payment to PAID or REFUNDED state on transfer success/failure, respectively.",
        "params": {
          "operatorSignature": "The operator signature of result",
          "transferResult": "The asset transfer result struct signed by the operator."
        }
      },
      "finalizeAndWithdraw((bytes32,bool),bytes)": {
        "details": "Can be executed by anyone, but the operator signature must be included as input param.  It is, however, expected to be executed by the seller, in case of a successful asset transfer,  or the buyer, in case of a failed asset transfer.  Moves payment to PAID or REFUNDED state on transfer success/failure, respectively.",
        "params": {
          "operatorSignature": "The operator signature of result",
          "transferResult": "The asset transfer result struct signed by the operator."
        }
      },
      "isRegisteredSeller(address)": {
        "params": {
          "addr": "the address that is queried"
        },
        "returns": {
          "_0": "Returns whether the address is registered as seller"
        }
      },
      "isSellerRegistrationRequired()": {
        "returns": {
          "_0": "Returns true if sellers need to be registered to be able to accept payments"
        }
      },
      "maxFundsAvailable(address)": {
        "details": "In more detail: returns the sum of the buyer's local balance in this contract,  plus the funds available and approved in the ERC20 contract.",
        "params": {
          "buyer": "The address for which funds are queried"
        },
        "returns": {
          "_0": "the max funds available"
        }
      },
      "owner()": {
        "details": "Returns the address of the current owner."
      },
      "pay((bytes32,uint256,uint256,uint256,uint256,address,address),bytes)": {
        "details": "Executed by the buyer, who relays the MetaTX with the operator's signature.  The buyer must have approved the amount to this contract before.  If all requirements are fulfilled, it stores the data relevant  for the next steps of the payment, and it locks the ERC20  in this contract.  Follows standard Checks-Effects-Interactions pattern  to protect against re-entrancy attacks.  Moves payment to ASSET_TRANSFERRING state.",
        "params": {
          "operatorSignature": "The signature of 'payInput' by the operator",
          "payInput": "The struct containing all required payment data"
        }
      },
      "paymentInfo(bytes32)": {
        "params": {
          "paymentId": "The unique ID that identifies the payment."
        },
        "returns": {
          "_0": "the struct stored for the payment"
        }
      },
      "paymentState(bytes32)": {
        "details": "If payment is in ASSET_TRANSFERRING, it may be worth  checking acceptsRefunds to check if it has gone beyond expirationTime.",
        "params": {
          "paymentId": "The unique ID that identifies the payment."
        },
        "returns": {
          "_0": "the state of the payment."
        }
      },
      "paymentWindow()": {
        "returns": {
          "_0": "the payment window in secs"
        }
      },
      "refund(bytes32)": {
        "details": "Anybody can call this function.  Requires acceptsRefunds == true to proceed.  After updating buyer's balance, he/she can later withdraw.  Moves payment to REFUNDED state.",
        "params": {
          "paymentId": "The unique ID that identifies the payment."
        }
      },
      "refundAndWithdraw(bytes32)": {
        "details": "Anybody can call this function.  Requires acceptsRefunds == true to proceed.  All of msg.sender's balance in the contract is withdrawn,  not only the part that was locked in this particular paymentId  Moves payment to REFUNDED state.",
        "params": {
          "paymentId": "The unique ID that identifies the payment."
        }
      },
      "relayedPay((bytes32,uint256,uint256,uint256,uint256,address,address),bytes)": {
        "details": "Executed by an operator, who relays the MetaTX with the buyer's signature.  The buyer must have approved the amount to this contract before.  If all requirements are fulfilled, it stores the data relevant  for the next steps of the payment, and it locks the ERC20  in this contract.  Follows standard Checks-Effects-Interactions pattern  to protect against re-entrancy attacks.  Moves payment to ASSET_TRANSFERRING state.",
        "params": {
          "buyerSignature": "The signature of 'payInput' by the buyer",
          "payInput": "The struct containing all required payment data"
        }
      },
      "removeUniverseFeesCollector(uint256)": {
        "details": "Removes a specific universe feesCollector",
        "params": {
          "universeId": "The id of the universe"
        }
      },
      "removeUniverseOperator(uint256)": {
        "details": "Removes a specific universe operator",
        "params": {
          "universeId": "The id of the universe"
        }
      },
      "renounceOwnership()": {
        "details": "Leaves the contract without owner. It will not be possible to call `onlyOwner` functions anymore. Can only be called by the current owner. NOTE: Renouncing ownership will leave the contract without an owner, thereby removing any functionality that is only available to the owner."
      },
      "setDefaultFeesCollector(address)": {
        "details": "Sets a new default feesCollector",
        "params": {
          "feesCollector": "The address of the new default feesCollector"
        }
      },
      "setDefaultOperator(address)": {
        "details": "Sets a new default operator",
        "params": {
          "operator": "The address of the new default operator"
        }
      },
      "setEIP712(address)": {
        "details": "This upgradable pattern is required in case that the   EIP712 spec/code changes in the future",
        "params": {
          "eip712address": "The address of the new EIP712 contract."
        }
      },
      "setIsSellerRegistrationRequired(bool)": {
        "params": {
          "isRequired": "(bool) if true, registration is required."
        }
      },
      "setPaymentWindow(uint256)": {
        "params": {
          "window": "The amount of time available, in seconds."
        }
      },
      "setUniverseFeesCollector(uint256,address)": {
        "details": "Sets a new specific universe feesCollector",
        "params": {
          "feesCollector": "The address of the new universe feesCollector",
          "universeId": "The id of the universe"
        }
      },
      "setUniverseOperator(uint256,address)": {
        "details": "Sets a new specific universe operator",
        "params": {
          "operator": "The address of the new universe operator",
          "universeId": "The id of the universe"
        }
      },
      "splitFundingSources(address,uint256)": {
        "params": {
          "amount": "The amount to be split",
          "buyer": "The address for which the amount is to be split"
        },
        "returns": {
          "externalFunds": "The amount of ERC20 required from the external ERC20 contract.",
          "localFunds": "The amount of ERC20 local funds required."
        }
      },
      "transferOwnership(address)": {
        "details": "Transfers ownership of the contract to a new account (`newOwner`). Can only be called by the current owner."
      },
      "universeFeesCollector(uint256)": {
        "details": "Returns the feesCollector of a specific universe",
        "params": {
          "universeId": "The id of the universe"
        }
      },
      "universeOperator(uint256)": {
        "details": "Returns the operator of a specific universe",
        "params": {
          "universeId": "The id of the universe"
        }
      },
      "withdrawAmount(uint256)": {
        "params": {
          "amount": "The required amount to withdraw"
        }
      }
    },
    "title": "Payments Contract in ERC20.",
    "version": 1
  },
  "userdoc": {
    "kind": "user",
    "methods": {
      "EIP712Address()": {
        "notice": "Returns the address of the of the contract containing  the implementation of the EIP712 verifying functions"
      },
      "acceptedCurrency()": {
        "notice": "Returns a descriptor about the currency that this contract accepts"
      },
      "acceptsRefunds(bytes32)": {
        "notice": "Returns true if the payment accepts a refund to the buyer"
      },
      "allowance(address)": {
        "notice": "Returns the allowance that the buyer has approved  directly in the ERC20 contract in favour of this contract."
      },
      "balanceOf(address)": {
        "notice": "Returns the local ERC20 balance of the provided address  that is stored in this contract, and hence, available for withdrawal."
      },
      "checkPaymentInputs((bytes32,uint256,uint256,uint256,uint256,address,address))": {
        "notice": "Reverts unless the requirements for a PaymentInput that  are common to both pay and relayedPay are fulfilled."
      },
      "computeFeeAmount(uint256,uint256)": {
        "notice": "Safe computation of fee amount for a provided amount, feeBPS pair"
      },
      "enoughFundsAvailable(address,uint256)": {
        "notice": "Returns true if the 'amount' required for a payment is available to this contract."
      },
      "erc20()": {
        "notice": "Returns the address of the ERC20 contract from which  tokens are accepted for payments"
      },
      "erc20BalanceOf(address)": {
        "notice": "Returns the ERC20 balance of address in the ERC20 contract"
      },
      "finalize((bytes32,bool),bytes)": {
        "notice": "Relays the operator signature declaring that the asset transfer was successful or failed,  and updates balances of seller or buyer, respectively."
      },
      "finalizeAndWithdraw((bytes32,bool),bytes)": {
        "notice": "Relays the operator signature declaring that the asset transfer was successful or failed,  updates balances of seller or buyer, respectively,  and proceeds to withdraw all funds in this contract available to msg.sender."
      },
      "isRegisteredSeller(address)": {
        "notice": "Returns true if the address provided is a registered seller"
      },
      "isSellerRegistrationRequired()": {
        "notice": "Returns whether sellers need to be registered to be able to accept payments"
      },
      "maxFundsAvailable(address)": {
        "notice": "Returns the maximum amount of funds available to a buyer"
      },
      "pay((bytes32,uint256,uint256,uint256,uint256,address,address),bytes)": {
        "notice": "Starts Payment process directly by the buyer."
      },
      "paymentInfo(bytes32)": {
        "notice": "Returns all data stored in a payment"
      },
      "paymentState(bytes32)": {
        "notice": "Returns the state of a payment."
      },
      "paymentWindow()": {
        "notice": "Returns the amount of seconds that a payment  can remain in ASSET_TRANSFERRING state without positive  or negative confirmation by the operator"
      },
      "refund(bytes32)": {
        "notice": "Moves buyer's provided funds to buyer's balance."
      },
      "refundAndWithdraw(bytes32)": {
        "notice": "Executes refund and withdraw in one transaction."
      },
      "registerAsSeller()": {
        "notice": "Registers msg.sender as seller so that, if the contract has set  _isSellerRegistrationRequired = true, then payments will be accepted with  msg.sender as seller."
      },
      "relayedPay((bytes32,uint256,uint256,uint256,uint256,address,address),bytes)": {
        "notice": "Starts the Payment process via relay-by-operator."
      },
      "removeUniverseFeesCollector(uint256)": {
        "notice": "The universe will then have fees collected by _defaultFeesCollector"
      },
      "removeUniverseOperator(uint256)": {
        "notice": "The universe will then be operated by _defaultOperator"
      },
      "setEIP712(address)": {
        "notice": "Sets the address of the EIP712 verifier contract."
      },
      "setIsSellerRegistrationRequired(bool)": {
        "notice": "Sets whether sellers are required to register in this contract before being  able to accept payments."
      },
      "setPaymentWindow(uint256)": {
        "notice": "Sets the amount of time available to the operator, after the payment starts,  to confirm either the success or the failure of the asset transfer.  After this time, the payment moves to FAILED, allowing buyer to withdraw."
      },
      "splitFundingSources(address,uint256)": {
        "notice": "Splits the funds required to pay 'amount' into two sources:  - externalFunds: the amount of ERC20 required to be transferred from the external ERC20 contract  - localFunds: the amount of ERC20 from the buyer's already available balance in this contract."
      },
      "withdraw()": {
        "notice": "Transfers ERC20 avaliable in this  contract's balanceOf[msg.sender] to msg.sender"
      },
      "withdrawAmount(uint256)": {
        "notice": "Transfers only the specified ERC20 amount  from this contract's balanceOf[msg.sender] to msg.sender.  Reverts if balanceOf[msg.sender] < amount."
      }
    },
    "version": 1
  }
}