{
  "contractName": "PaymentsERC20",
  "abi": [
    {
      "inputs": [
        {
          "internalType": "address",
          "name": "erc20Address",
          "type": "address"
        },
        {
          "internalType": "string",
          "name": "currencyDescriptor",
          "type": "string"
        }
      ],
      "stateMutability": "nonpayable",
      "type": "constructor"
    },
    {
      "anonymous": false,
      "inputs": [
        {
          "indexed": true,
          "internalType": "bytes32",
          "name": "paymentId",
          "type": "bytes32"
        },
        {
          "indexed": true,
          "internalType": "address",
          "name": "buyer",
          "type": "address"
        }
      ],
      "name": "BuyerRefunded",
      "type": "event"
    },
    {
      "anonymous": false,
      "inputs": [
        {
          "indexed": false,
          "internalType": "address",
          "name": "feesCollector",
          "type": "address"
        }
      ],
      "name": "DefaultFeesCollector",
      "type": "event"
    },
    {
      "anonymous": false,
      "inputs": [
        {
          "indexed": false,
          "internalType": "address",
          "name": "operator",
          "type": "address"
        }
      ],
      "name": "DefaultOperator",
      "type": "event"
    },
    {
      "anonymous": false,
      "inputs": [
        {
          "indexed": true,
          "internalType": "address",
          "name": "seller",
          "type": "address"
        }
      ],
      "name": "NewSeller",
      "type": "event"
    },
    {
      "anonymous": false,
      "inputs": [
        {
          "indexed": true,
          "internalType": "address",
          "name": "previousOwner",
          "type": "address"
        },
        {
          "indexed": true,
          "internalType": "address",
          "name": "newOwner",
          "type": "address"
        }
      ],
      "name": "OwnershipTransferred",
      "type": "event"
    },
    {
      "anonymous": false,
      "inputs": [
        {
          "indexed": false,
          "internalType": "bytes32",
          "name": "paymentId",
          "type": "bytes32"
        }
      ],
      "name": "Paid",
      "type": "event"
    },
    {
      "anonymous": false,
      "inputs": [
        {
          "indexed": true,
          "internalType": "bytes32",
          "name": "paymentId",
          "type": "bytes32"
        },
        {
          "indexed": true,
          "internalType": "address",
          "name": "buyer",
          "type": "address"
        },
        {
          "indexed": true,
          "internalType": "address",
          "name": "seller",
          "type": "address"
        }
      ],
      "name": "Payin",
      "type": "event"
    },
    {
      "anonymous": false,
      "inputs": [
        {
          "indexed": false,
          "internalType": "uint256",
          "name": "window",
          "type": "uint256"
        }
      ],
      "name": "PaymentWindow",
      "type": "event"
    },
    {
      "anonymous": false,
      "inputs": [
        {
          "indexed": false,
          "internalType": "uint256",
          "name": "universeId",
          "type": "uint256"
        },
        {
          "indexed": false,
          "internalType": "address",
          "name": "feesCollector",
          "type": "address"
        }
      ],
      "name": "UniverseFeesCollector",
      "type": "event"
    },
    {
      "anonymous": false,
      "inputs": [
        {
          "indexed": false,
          "internalType": "uint256",
          "name": "universeId",
          "type": "uint256"
        },
        {
          "indexed": false,
          "internalType": "address",
          "name": "operator",
          "type": "address"
        }
      ],
      "name": "UniverseOperator",
      "type": "event"
    },
    {
      "anonymous": false,
      "inputs": [
        {
          "indexed": true,
          "internalType": "address",
          "name": "user",
          "type": "address"
        },
        {
          "indexed": false,
          "internalType": "uint256",
          "name": "amount",
          "type": "uint256"
        }
      ],
      "name": "Withdraw",
      "type": "event"
    },
    {
      "inputs": [],
      "name": "defaultFeesCollector",
      "outputs": [
        {
          "internalType": "address",
          "name": "",
          "type": "address"
        }
      ],
      "stateMutability": "view",
      "type": "function"
    },
    {
      "inputs": [],
      "name": "defaultOperator",
      "outputs": [
        {
          "internalType": "address",
          "name": "",
          "type": "address"
        }
      ],
      "stateMutability": "view",
      "type": "function"
    },
    {
      "inputs": [],
      "name": "owner",
      "outputs": [
        {
          "internalType": "address",
          "name": "",
          "type": "address"
        }
      ],
      "stateMutability": "view",
      "type": "function"
    },
    {
      "inputs": [
        {
          "internalType": "uint256",
          "name": "universeId",
          "type": "uint256"
        }
      ],
      "name": "removeUniverseFeesCollector",
      "outputs": [],
      "stateMutability": "nonpayable",
      "type": "function"
    },
    {
      "inputs": [
        {
          "internalType": "uint256",
          "name": "universeId",
          "type": "uint256"
        }
      ],
      "name": "removeUniverseOperator",
      "outputs": [],
      "stateMutability": "nonpayable",
      "type": "function"
    },
    {
      "inputs": [],
      "name": "renounceOwnership",
      "outputs": [],
      "stateMutability": "nonpayable",
      "type": "function"
    },
    {
      "inputs": [
        {
          "internalType": "address",
          "name": "feesCollector",
          "type": "address"
        }
      ],
      "name": "setDefaultFeesCollector",
      "outputs": [],
      "stateMutability": "nonpayable",
      "type": "function"
    },
    {
      "inputs": [
        {
          "internalType": "address",
          "name": "operator",
          "type": "address"
        }
      ],
      "name": "setDefaultOperator",
      "outputs": [],
      "stateMutability": "nonpayable",
      "type": "function"
    },
    {
      "inputs": [
        {
          "internalType": "uint256",
          "name": "universeId",
          "type": "uint256"
        },
        {
          "internalType": "address",
          "name": "feesCollector",
          "type": "address"
        }
      ],
      "name": "setUniverseFeesCollector",
      "outputs": [],
      "stateMutability": "nonpayable",
      "type": "function"
    },
    {
      "inputs": [
        {
          "internalType": "uint256",
          "name": "universeId",
          "type": "uint256"
        },
        {
          "internalType": "address",
          "name": "operator",
          "type": "address"
        }
      ],
      "name": "setUniverseOperator",
      "outputs": [],
      "stateMutability": "nonpayable",
      "type": "function"
    },
    {
      "inputs": [
        {
          "internalType": "address",
          "name": "newOwner",
          "type": "address"
        }
      ],
      "name": "transferOwnership",
      "outputs": [],
      "stateMutability": "nonpayable",
      "type": "function"
    },
    {
      "inputs": [
        {
          "internalType": "uint256",
          "name": "universeId",
          "type": "uint256"
        }
      ],
      "name": "universeFeesCollector",
      "outputs": [
        {
          "internalType": "address",
          "name": "",
          "type": "address"
        }
      ],
      "stateMutability": "view",
      "type": "function"
    },
    {
      "inputs": [
        {
          "internalType": "uint256",
          "name": "universeId",
          "type": "uint256"
        }
      ],
      "name": "universeOperator",
      "outputs": [
        {
          "internalType": "address",
          "name": "",
          "type": "address"
        }
      ],
      "stateMutability": "view",
      "type": "function"
    },
    {
      "inputs": [
        {
          "components": [
            {
              "internalType": "bytes32",
              "name": "paymentId",
              "type": "bytes32"
            },
            {
              "internalType": "uint256",
              "name": "amount",
              "type": "uint256"
            },
            {
              "internalType": "uint16",
              "name": "feeBPS",
              "type": "uint16"
            },
            {
              "internalType": "uint256",
              "name": "universeId",
              "type": "uint256"
            },
            {
              "internalType": "uint256",
              "name": "validUntil",
              "type": "uint256"
            },
            {
              "internalType": "address",
              "name": "buyer",
              "type": "address"
            },
            {
              "internalType": "address",
              "name": "seller",
              "type": "address"
            }
          ],
          "internalType": "struct IEIP712Verifier.PaymentInput",
          "name": "inp",
          "type": "tuple"
        },
        {
          "internalType": "bytes",
          "name": "signature",
          "type": "bytes"
        },
        {
          "internalType": "address",
          "name": "signer",
          "type": "address"
        }
      ],
      "name": "verify",
      "outputs": [
        {
          "internalType": "bool",
          "name": "",
          "type": "bool"
        }
      ],
      "stateMutability": "view",
      "type": "function"
    },
    {
      "inputs": [
        {
          "internalType": "uint256",
          "name": "window",
          "type": "uint256"
        }
      ],
      "name": "setPaymentWindow",
      "outputs": [],
      "stateMutability": "nonpayable",
      "type": "function"
    },
    {
      "inputs": [
        {
          "internalType": "bool",
          "name": "isRequired",
          "type": "bool"
        }
      ],
      "name": "setIsSellerRegistrationRequired",
      "outputs": [],
      "stateMutability": "nonpayable",
      "type": "function"
    },
    {
      "inputs": [],
      "name": "registerAsSeller",
      "outputs": [],
      "stateMutability": "nonpayable",
      "type": "function"
    },
    {
      "inputs": [
        {
          "components": [
            {
              "internalType": "bytes32",
              "name": "paymentId",
              "type": "bytes32"
            },
            {
              "internalType": "uint256",
              "name": "amount",
              "type": "uint256"
            },
            {
              "internalType": "uint16",
              "name": "feeBPS",
              "type": "uint16"
            },
            {
              "internalType": "uint256",
              "name": "universeId",
              "type": "uint256"
            },
            {
              "internalType": "uint256",
              "name": "validUntil",
              "type": "uint256"
            },
            {
              "internalType": "address",
              "name": "buyer",
              "type": "address"
            },
            {
              "internalType": "address",
              "name": "seller",
              "type": "address"
            }
          ],
          "internalType": "struct IEIP712Verifier.PaymentInput",
          "name": "inp",
          "type": "tuple"
        },
        {
          "internalType": "bytes",
          "name": "buyerSignature",
          "type": "bytes"
        }
      ],
      "name": "relayedPay",
      "outputs": [],
      "stateMutability": "nonpayable",
      "type": "function"
    },
    {
      "inputs": [
        {
          "components": [
            {
              "internalType": "bytes32",
              "name": "paymentId",
              "type": "bytes32"
            },
            {
              "internalType": "uint256",
              "name": "amount",
              "type": "uint256"
            },
            {
              "internalType": "uint16",
              "name": "feeBPS",
              "type": "uint16"
            },
            {
              "internalType": "uint256",
              "name": "universeId",
              "type": "uint256"
            },
            {
              "internalType": "uint256",
              "name": "validUntil",
              "type": "uint256"
            },
            {
              "internalType": "address",
              "name": "buyer",
              "type": "address"
            },
            {
              "internalType": "address",
              "name": "seller",
              "type": "address"
            }
          ],
          "internalType": "struct IEIP712Verifier.PaymentInput",
          "name": "inp",
          "type": "tuple"
        },
        {
          "internalType": "bytes",
          "name": "operatorSignature",
          "type": "bytes"
        }
      ],
      "name": "pay",
      "outputs": [],
      "stateMutability": "nonpayable",
      "type": "function"
    },
    {
      "inputs": [
        {
          "internalType": "bytes32",
          "name": "paymentId",
          "type": "bytes32"
        }
      ],
      "name": "assetTransferSuccess",
      "outputs": [],
      "stateMutability": "nonpayable",
      "type": "function"
    },
    {
      "inputs": [
        {
          "internalType": "bytes32",
          "name": "paymentId",
          "type": "bytes32"
        }
      ],
      "name": "assetTransferFailed",
      "outputs": [],
      "stateMutability": "nonpayable",
      "type": "function"
    },
    {
      "inputs": [
        {
          "internalType": "bytes32",
          "name": "paymentId",
          "type": "bytes32"
        }
      ],
      "name": "refund",
      "outputs": [],
      "stateMutability": "nonpayable",
      "type": "function"
    },
    {
      "inputs": [
        {
          "internalType": "bytes32",
          "name": "paymentId",
          "type": "bytes32"
        }
      ],
      "name": "refundAndWithdraw",
      "outputs": [],
      "stateMutability": "nonpayable",
      "type": "function"
    },
    {
      "inputs": [],
      "name": "withdraw",
      "outputs": [],
      "stateMutability": "nonpayable",
      "type": "function"
    },
    {
      "inputs": [],
      "name": "isSellerRegistrationRequired",
      "outputs": [
        {
          "internalType": "bool",
          "name": "",
          "type": "bool"
        }
      ],
      "stateMutability": "view",
      "type": "function"
    },
    {
      "inputs": [
        {
          "internalType": "address",
          "name": "addr",
          "type": "address"
        }
      ],
      "name": "isRegisteredSeller",
      "outputs": [
        {
          "internalType": "bool",
          "name": "",
          "type": "bool"
        }
      ],
      "stateMutability": "view",
      "type": "function"
    },
    {
      "inputs": [],
      "name": "erc20",
      "outputs": [
        {
          "internalType": "address",
          "name": "",
          "type": "address"
        }
      ],
      "stateMutability": "view",
      "type": "function"
    },
    {
      "inputs": [
        {
          "internalType": "address",
          "name": "addr",
          "type": "address"
        }
      ],
      "name": "balanceOf",
      "outputs": [
        {
          "internalType": "uint256",
          "name": "",
          "type": "uint256"
        }
      ],
      "stateMutability": "view",
      "type": "function"
    },
    {
      "inputs": [
        {
          "internalType": "address",
          "name": "addr",
          "type": "address"
        }
      ],
      "name": "erc20BalanceOf",
      "outputs": [
        {
          "internalType": "uint256",
          "name": "",
          "type": "uint256"
        }
      ],
      "stateMutability": "view",
      "type": "function"
    },
    {
      "inputs": [
        {
          "internalType": "address",
          "name": "buyer",
          "type": "address"
        }
      ],
      "name": "allowance",
      "outputs": [
        {
          "internalType": "uint256",
          "name": "",
          "type": "uint256"
        }
      ],
      "stateMutability": "view",
      "type": "function"
    },
    {
      "inputs": [
        {
          "internalType": "bytes32",
          "name": "paymentId",
          "type": "bytes32"
        }
      ],
      "name": "paymentInfo",
      "outputs": [
        {
          "components": [
            {
              "internalType": "enum IPaymentsERC20.States",
              "name": "state",
              "type": "uint8"
            },
            {
              "internalType": "address",
              "name": "buyer",
              "type": "address"
            },
            {
              "internalType": "address",
              "name": "seller",
              "type": "address"
            },
            {
              "internalType": "address",
              "name": "operator",
              "type": "address"
            },
            {
              "internalType": "address",
              "name": "feesCollector",
              "type": "address"
            },
            {
              "internalType": "uint256",
              "name": "expirationTime",
              "type": "uint256"
            },
            {
              "internalType": "uint16",
              "name": "feeBPS",
              "type": "uint16"
            },
            {
              "internalType": "uint256",
              "name": "amount",
              "type": "uint256"
            }
          ],
          "internalType": "struct IPaymentsERC20.Payment",
          "name": "",
          "type": "tuple"
        }
      ],
      "stateMutability": "view",
      "type": "function"
    },
    {
      "inputs": [
        {
          "internalType": "bytes32",
          "name": "paymentId",
          "type": "bytes32"
        }
      ],
      "name": "paymentState",
      "outputs": [
        {
          "internalType": "enum IPaymentsERC20.States",
          "name": "",
          "type": "uint8"
        }
      ],
      "stateMutability": "view",
      "type": "function"
    },
    {
      "inputs": [],
      "name": "paymentWindow",
      "outputs": [
        {
          "internalType": "uint256",
          "name": "",
          "type": "uint256"
        }
      ],
      "stateMutability": "view",
      "type": "function"
    },
    {
      "inputs": [],
      "name": "acceptedCurrency",
      "outputs": [
        {
          "internalType": "string",
          "name": "",
          "type": "string"
        }
      ],
      "stateMutability": "view",
      "type": "function"
    },
    {
      "inputs": [
        {
          "internalType": "address",
          "name": "buyer",
          "type": "address"
        },
        {
          "internalType": "uint256",
          "name": "amount",
          "type": "uint256"
        }
      ],
      "name": "enoughFundsAvailable",
      "outputs": [
        {
          "internalType": "bool",
          "name": "",
          "type": "bool"
        }
      ],
      "stateMutability": "view",
      "type": "function"
    },
    {
      "inputs": [
        {
          "internalType": "address",
          "name": "buyer",
          "type": "address"
        }
      ],
      "name": "maxFundsAvailable",
      "outputs": [
        {
          "internalType": "uint256",
          "name": "",
          "type": "uint256"
        }
      ],
      "stateMutability": "view",
      "type": "function"
    },
    {
      "inputs": [
        {
          "internalType": "address",
          "name": "buyer",
          "type": "address"
        },
        {
          "internalType": "uint256",
          "name": "amount",
          "type": "uint256"
        }
      ],
      "name": "splitFundingSources",
      "outputs": [
        {
          "internalType": "uint256",
          "name": "externalFunds",
          "type": "uint256"
        },
        {
          "internalType": "uint256",
          "name": "localFunds",
          "type": "uint256"
        }
      ],
      "stateMutability": "view",
      "type": "function"
    },
    {
      "inputs": [
        {
          "components": [
            {
              "internalType": "bytes32",
              "name": "paymentId",
              "type": "bytes32"
            },
            {
              "internalType": "uint256",
              "name": "amount",
              "type": "uint256"
            },
            {
              "internalType": "uint16",
              "name": "feeBPS",
              "type": "uint16"
            },
            {
              "internalType": "uint256",
              "name": "universeId",
              "type": "uint256"
            },
            {
              "internalType": "uint256",
              "name": "validUntil",
              "type": "uint256"
            },
            {
              "internalType": "address",
              "name": "buyer",
              "type": "address"
            },
            {
              "internalType": "address",
              "name": "seller",
              "type": "address"
            }
          ],
          "internalType": "struct IEIP712Verifier.PaymentInput",
          "name": "inp",
          "type": "tuple"
        }
      ],
      "name": "checkPaymentInputs",
      "outputs": [],
      "stateMutability": "view",
      "type": "function"
    },
    {
      "inputs": [
        {
          "internalType": "uint256",
          "name": "amount",
          "type": "uint256"
        },
        {
          "internalType": "uint256",
          "name": "feeBPS",
          "type": "uint256"
        }
      ],
      "name": "computeFeeAmount",
      "outputs": [
        {
          "internalType": "uint256",
          "name": "",
          "type": "uint256"
        }
      ],
      "stateMutability": "pure",
      "type": "function"
    }
  ],
  "bytecode": "0x6101206040523480156200001257600080fd5b5060405162002ec738038062002ec78339810160408190526200003591620002fc565b604051806040016040528060128152602001714549503731322d46562d5061796d656e747360701b81525060405180604001604052806005815260200164302e302e3160d81b8152506000620000906200023c60201b60201c565b600080546001600160a01b0319166001600160a01b0383169081178255604051929350917f8be0079c531659141344cd1fd0a4f28419497f9722a3daafe3b4186f6b6457e0908290a350600180546001600160a01b031916339081179091556040519081527fec71ba738f211337eaf29e2d87bdb1b0928316c20db0a3a1108aa43321583b509060200160405180910390a1600380546001600160a01b031916339081179091556040519081527fa60019696f11f9aa952db763c0de585f819d10fcafcfbd301a27d02e9caa41b09060200160405180910390a1815160209283012081519183019190912060c082815260e08290524660a0818152604080517f8b73c3c69bb8fe3d512ecc4cf759cc79239f7b179b0ffacaa9a75d522b39400f81890181905281830197909752606081019590955260808086019390935230858301528051808603909201825293909201909252805190840120905261010052600580546001600160a01b0319166001600160a01b03851617905581516200021f916006919084019062000240565b5050620d2f00600755506008805460ff1916600117905562000439565b3390565b8280546200024e90620003fc565b90600052602060002090601f016020900481019282620002725760008555620002bd565b82601f106200028d57805160ff1916838001178555620002bd565b82800160010185558215620002bd579182015b82811115620002bd578251825591602001919060010190620002a0565b50620002cb929150620002cf565b5090565b5b80821115620002cb5760008155600101620002d0565b634e487b7160e01b600052604160045260246000fd5b600080604083850312156200031057600080fd5b82516001600160a01b03811681146200032857600080fd5b602084810151919350906001600160401b03808211156200034857600080fd5b818601915086601f8301126200035d57600080fd5b815181811115620003725762000372620002e6565b604051601f8201601f19908116603f011681019083821181831017156200039d576200039d620002e6565b816040528281528986848701011115620003b657600080fd5b600093505b82841015620003da5784840186015181850187015292850192620003bb565b82841115620003ec5760008684830101525b8096505050505050509250929050565b600181811c908216806200041157607f821691505b602082108114156200043357634e487b7160e01b600052602260045260246000fd5b50919050565b60805160a05160c05160e05161010051612a496200047e6000396000612273015260006122c20152600061229d015260006122210152600061224a0152612a496000f3fe608060405234801561001057600080fd5b506004361061023c5760003560e01c8063715018a61161013b5780639cfd495c116100b8578063dca721001161007c578063dca7210014610519578063dd115ab21461052c578063f2cc55ee1461054c578063f2fde38b1461055d578063fd5773431461057057600080fd5b80639cfd495c146104c5578063b2685a3e146104d8578063b3080298146104eb578063c67eb9e5146104fe578063cab55d561461051157600080fd5b80637b018ab9116100ff5780637b018ab91461046a57806380ca11fc1461047d57806385a2910d1461048e5780638da5cb5b146104a1578063982ed326146104b257600080fd5b8063715018a6146103eb5780637249fbb6146103f3578063785e9e861461040657806378e96fb51461042b5780637ac83f9b1461045757600080fd5b80632593308b116101c9578063317cb0181161018d578063317cb0181461035f57806334b778ed146103875780633ccfd60b146103a75780633e5beab9146103af57806370a08231146103c257600080fd5b80632593308b146103005780632ab3433c146103135780632af41be4146103265780632ce10fcf1461033957806331784b6d1461034c57600080fd5b8063128b853211610210578063128b8532146102a257806314e50a0b146102aa5780631a29b6ab146102cd5780631c6d7675146102e0578063221a832e146102f557600080fd5b8062f3b6e81461024157806302519da31461025657806306968bd91461027c57806306a212ae1461028f575b600080fd5b61025461024f3660046124c8565b610583565b005b610269610264366004612500565b6107c1565b6040519081526020015b60405180910390f35b61025461028a36600461251b565b610846565b61025461029d36600461257d565b6108d9565b610254610d36565b6102bd6102b83660046125d2565b610d78565b6040519015158152602001610273565b6102546102db366004612648565b610ea5565b6102e8610ee2565b6040516102739190612665565b60085460ff166102bd565b61025461030e36600461251b565b610f74565b61025461032136600461257d565b610fbe565b6102696103343660046126ba565b611430565b61025461034736600461251b565b611464565b61025461035a36600461251b565b6114df565b61037261036d3660046126dc565b61156b565b60408051928352602083019190915201610273565b61039a61039536600461251b565b6115b9565b604051610273919061273e565b61025461160a565b6102696103bd366004612500565b611614565b6102696103d0366004612500565b6001600160a01b03166000908152600b602052604090205490565b61025461164d565b61025461040136600461251b565b6116c1565b6005546001600160a01b03165b6040516001600160a01b039091168152602001610273565b6102bd610439366004612500565b6001600160a01b031660009081526009602052604090205460ff1690565b61025461046536600461274c565b6116fa565b61041361047836600461251b565b61178b565b6001546001600160a01b0316610413565b61025461049c36600461274c565b6117c3565b6000546001600160a01b0316610413565b6102546104c036600461251b565b61184c565b6102bd6104d33660046126dc565b6118ab565b6102546104e6366004612500565b6118c0565b6102546104f936600461251b565b611938565b61026961050c366004612500565b611b1e565b600754610269565b61041361052736600461251b565b611bf0565b61053f61053a36600461251b565b611c27565b6040516102739190612778565b6003546001600160a01b0316610413565b61025461056b366004612500565b611d11565b61025461057e366004612500565b611dfb565b61271061059660608301604084016127ee565b61ffff1611156105fb5760405162461bcd60e51b815260206004820152602560248201527f6665652063616e6e6f74206265206c6172676572207468616e203130302070656044820152641c98d95b9d60da1b60648201526084015b60405180910390fd5b600061060782356115b9565b600381111561061857610618612706565b1461066f5760405162461bcd60e51b815260206004820152602160248201527f7061796d656e7420696e20696e636f727265637420637572656e7420737461746044820152606560f81b60648201526084016105f2565b80608001354211156106c35760405162461bcd60e51b815260206004820152601860248201527f7061796d656e7420646561646c696e652065787069726564000000000000000060448201526064016105f2565b60085460ff161561074357600960006106e260e0840160c08501612500565b6001600160a01b0316815260208101919091526040016000205460ff166107435760405162461bcd60e51b81526020600482015260156024820152741cd95b1b195c881b9bdd081c9959da5cdd195c9959605a1b60448201526064016105f2565b61076061075660c0830160a08401612500565b82602001356118ab565b6107be5760405162461bcd60e51b815260206004820152602960248201527f6e6f7420656e6f7567682066756e647320617661696c61626c6520666f7220746044820152683434b990313abcb2b960b91b60648201526084016105f2565b50565b6005546040516370a0823160e01b81526001600160a01b03838116600483015260009216906370a08231906024015b60206040518083038186803b15801561080857600080fd5b505afa15801561081c573d6000803e3d6000fd5b505050506040513d601f19601f820116820180604052508101906108409190612812565b92915050565b6000546001600160a01b031633146108705760405162461bcd60e51b81526004016105f29061282b565b60008181526002602090815260409182902080546001600160a01b031916905560015482518481526001600160a01b03909116918101919091527f01ab5ff875fd8edb498772244b76ffd53ac3b59cb6397e3c6654194e411ede6b91015b60405180910390a150565b336108e7606085013561178b565b6001600160a01b0316146109515760405162461bcd60e51b815260206004820152602b60248201527f6f70657261746f72206e6f7420617574686f72697a656420666f72207468697360448201526a081d5b9a5d995c9cd9525960aa1b60648201526084016105f2565b600261095d84356115b9565b600381111561096e5761096e612706565b141561097e5761097e8335611e73565b61098783610583565b61099d8383836102b860c0840160a08501612500565b6109e95760405162461bcd60e51b815260206004820152601960248201527f696e636f7272656374206275796572207369676e61747572650000000000000060448201526064016105f2565b6040805161010081019091528060018152602001610a0d60c0860160a08701612500565b6001600160a01b03168152602001610a2b60e0860160c08701612500565b6001600160a01b03168152336020820152604001610a4c6060860135611bf0565b6001600160a01b0316815260200160075442610a689190612876565b8152602001610a7d60608601604087016127ee565b61ffff1681526020858101359181019190915284356000908152600a9091526040902081518154829060ff19166001836003811115610abe57610abe612706565b0217905550602082015181546001600160a01b0391821661010002610100600160a81b031990911617825560408301516001830180549183166001600160a01b03199283161790556060840151600284018054918416918316919091179055608084015160038401805491909316911617905560a080830151600483015560c08084015160058401805461ffff90921661ffff1990921691909117905560e0909301516006909201919091556000918291610b8c91610b8291908801908801612500565b866020013561156b565b90925090508115610c82576005546001600160a01b03166323b872dd610bb860c0880160a08901612500565b6040516001600160e01b031960e084901b1681526001600160a01b03909116600482015230602482015260448101859052606401602060405180830381600087803b158015610c0657600080fd5b505af1158015610c1a573d6000803e3d6000fd5b505050506040513d601f19601f82011682018060405250810190610c3e919061288e565b610c825760405162461bcd60e51b8152602060048201526015602482015274115490cc8c081d1c985b9cd9995c8819985a5b1959605a1b60448201526064016105f2565b80600b6000610c9760c0890160a08a01612500565b6001600160a01b03166001600160a01b031681526020019081526020016000206000828254610cc691906128ab565b90915550610cdc905060e0860160c08701612500565b6001600160a01b0316610cf560c0870160a08801612500565b6001600160a01b031686600001357fe4a9c328b82280a42bddcf2971ded52a971269f3fa155694eec8e4c27f95e21860405160405180910390a45050505050565b33600081815260096020526040808220805460ff19166001179055517f258a7a0df6106f41c2e99c09f1b64931f5f284242bbc50272d5a752ac2f30dde9190a2565b600080610e8c85858080601f016020809104026020016040519081016040528093929190818152602001838380828437600092019190915250610e8692507f842d0bb1548581afe96170983041b67db4fde58372c89ca13c8b104222d6cc46915050893560208b0135610df160608d0160408e016127ee565b8c606001358d608001358e60a0016020810190610e0e9190612500565b8f60c0016020810190610e219190612500565b604080516020810199909952880196909652606087019490945261ffff909216608086015260a085015260c08401526001600160a01b0390811660e0840152166101008201526101200160405160208183030381529060405280519060200120611fec565b9061203a565b6001600160a01b03848116911614915050949350505050565b6000546001600160a01b03163314610ecf5760405162461bcd60e51b81526004016105f29061282b565b6008805460ff1916911515919091179055565b606060068054610ef1906128c2565b80601f0160208091040260200160405190810160405280929190818152602001828054610f1d906128c2565b8015610f6a5780601f10610f3f57610100808354040283529160200191610f6a565b820191906000526020600020905b815481529060010190602001808311610f4d57829003601f168201915b5050505050905090565b6002610f7f826115b9565b6003811115610f9057610f90612706565b14610fad5760405162461bcd60e51b81526004016105f2906128f7565b610fb681611e73565b6107be6120f0565b610fce60c0840160a08501612500565b6001600160a01b0316336001600160a01b03161461103a5760405162461bcd60e51b8152602060048201526024808201527f6f6e6c792062757965722063616e206578656375746520746869732066756e636044820152633a34b7b760e11b60648201526084016105f2565b600261104684356115b9565b600381111561105757611057612706565b1415611067576110678335611e73565b61107083610583565b600061107f846060013561178b565b905061108d84848484610d78565b6110d95760405162461bcd60e51b815260206004820152601c60248201527f696e636f7272656374206f70657261746f72207369676e61747572650000000060448201526064016105f2565b60408051610100810190915280600181526020016110fd60c0870160a08801612500565b6001600160a01b0316815260200161111b60e0870160c08801612500565b6001600160a01b03168152602001826001600160a01b031681526020016111458660600135611bf0565b6001600160a01b03168152602001600754426111619190612876565b815260200161117660608701604088016127ee565b61ffff1681526020868101359181019190915285356000908152600a9091526040902081518154829060ff191660018360038111156111b7576111b7612706565b0217905550602082015181546001600160a01b0391821661010002610100600160a81b031990911617825560408301516001830180549183166001600160a01b03199283161790556060840151600284018054918416918316919091179055608084015160038401805491909316911617905560a080830151600483015560c08084015160058401805461ffff90921661ffff1990921691909117905560e09093015160069092019190915560009182916112859161127b91908901908901612500565b876020013561156b565b9092509050811561137b576005546001600160a01b03166323b872dd6112b160c0890160a08a01612500565b6040516001600160e01b031960e084901b1681526001600160a01b03909116600482015230602482015260448101859052606401602060405180830381600087803b1580156112ff57600080fd5b505af1158015611313573d6000803e3d6000fd5b505050506040513d601f19601f82011682018060405250810190611337919061288e565b61137b5760405162461bcd60e51b8152602060048201526015602482015274115490cc8c081d1c985b9cd9995c8819985a5b1959605a1b60448201526064016105f2565b80600b600061139060c08a0160a08b01612500565b6001600160a01b03166001600160a01b0316815260200190815260200160002060008282546113bf91906128ab565b909155506113d5905060e0870160c08801612500565b6001600160a01b03166113ee60c0880160a08901612500565b6001600160a01b031687600001357fe4a9c328b82280a42bddcf2971ded52a971269f3fa155694eec8e4c27f95e21860405160405180910390a4505050505050565b600080612710611440848661293e565b61144a919061295d565b90508381111561145a578361145c565b805b949350505050565b6000818152600a60205260409020600201546001600160a01b0316331461149d5760405162461bcd60e51b81526004016105f29061297f565b6114a6816115b9565b60038111156114b7576114b7612706565b6001146114d65760405162461bcd60e51b81526004016105f2906129c2565b6107be81611e73565b6000546001600160a01b031633146115095760405162461bcd60e51b81526004016105f29061282b565b60008181526004602090815260409182902080546001600160a01b031916905560035482518481526001600160a01b03909116918101919091527f34bf92bbf741b75e3289761f6b95459b088de5b3282274572caf118e9c2617dc91016108ce565b6001600160a01b0382166000908152600b602052604081205481908084116115935783611595565b805b91508084116115a55760006115af565b6115af81856128ab565b9250509250929050565b6000818152600a602052604081205460ff1660018160038111156115df576115df612706565b1480156115fc57506000838152600a602052604090206004015442115b156108405750600292915050565b6116126120f0565b565b600554604051636eb1769f60e11b81526001600160a01b038381166004830152306024830152600092169063dd62ed3e906044016107f0565b6000546001600160a01b031633146116775760405162461bcd60e51b81526004016105f29061282b565b600080546040516001600160a01b03909116907f8be0079c531659141344cd1fd0a4f28419497f9722a3daafe3b4186f6b6457e0908390a3600080546001600160a01b0319169055565b60026116cc826115b9565b60038111156116dd576116dd612706565b146114d65760405162461bcd60e51b81526004016105f2906128f7565b6000546001600160a01b031633146117245760405162461bcd60e51b81526004016105f29061282b565b60008281526002602090815260409182902080546001600160a01b0319166001600160a01b0385169081179091558251858152918201527f01ab5ff875fd8edb498772244b76ffd53ac3b59cb6397e3c6654194e411ede6b91015b60405180910390a15050565b6000818152600260205260408120546001600160a01b031680156117af57806117bc565b6001546001600160a01b03165b9392505050565b6000546001600160a01b031633146117ed5760405162461bcd60e51b81526004016105f29061282b565b60008281526004602090815260409182902080546001600160a01b0319166001600160a01b0385169081179091558251858152918201527f34bf92bbf741b75e3289761f6b95459b088de5b3282274572caf118e9c2617dc910161177f565b6000546001600160a01b031633146118765760405162461bcd60e51b81526004016105f29061282b565b60078190556040518181527fb8931bd4946b9278bba3ac02a56a37159384a2a02d4c3416706f635b853d44f4906020016108ce565b6000816118b784611b1e565b10159392505050565b6000546001600160a01b031633146118ea5760405162461bcd60e51b81526004016105f29061282b565b600380546001600160a01b0319166001600160a01b0383169081179091556040519081527fa60019696f11f9aa952db763c0de585f819d10fcafcfbd301a27d02e9caa41b0906020016108ce565b6000818152600a6020526040808220815161010081019092528054829060ff16600381111561196957611969612706565b600381111561197a5761197a612706565b8152815461010090046001600160a01b03908116602083015260018301548116604083015260028301548116606080840191909152600384015482166080840152600484015460a0840152600584015461ffff1660c084015260069093015460e09092019190915290820151919250163314611a085760405162461bcd60e51b81526004016105f29061297f565b611a11826115b9565b6003811115611a2257611a22612706565b600114611a415760405162461bcd60e51b81526004016105f2906129c2565b6000828152600a60205260408120805460ff1916600317905560e082015160c0830151611a72919061ffff16611430565b9050808260e00151611a8491906128ab565b6040808401516001600160a01b03166000908152600b6020529081208054909190611ab0908490612876565b909155505060808201516001600160a01b03166000908152600b602052604081208054839290611ae1908490612876565b90915550506040518381527fe72fd4f49ae148a0d79f0e71ec9cae30076dbfde7b66f70cafd11416eae8dc629060200160405180910390a1505050565b600080611b2a83611614565b6005546040516370a0823160e01b81526001600160a01b038681166004830152929350600092909116906370a082319060240160206040518083038186803b158015611b7557600080fd5b505afa158015611b89573d6000803e3d6000fd5b505050506040513d601f19601f82011682018060405250810190611bad9190612812565b90506000818310611bbe5781611bc0565b825b6001600160a01b0386166000908152600b6020526040902054909150611be7908290612876565b95945050505050565b6000818152600460205260408120546001600160a01b03168015611c1457806117bc565b6003546001600160a01b03169392505050565b6040805161010081018252600080825260208201819052918101829052606081018290526080810182905260a0810182905260c0810182905260e08101919091526000828152600a602052604090819020815161010081019092528054829060ff166003811115611c9a57611c9a612706565b6003811115611cab57611cab612706565b815281546001600160a01b03610100909104811660208301526001830154811660408301526002830154811660608301526003830154166080820152600482015460a0820152600582015461ffff1660c082015260069091015460e09091015292915050565b6000546001600160a01b03163314611d3b5760405162461bcd60e51b81526004016105f29061282b565b6001600160a01b038116611da05760405162461bcd60e51b815260206004820152602660248201527f4f776e61626c653a206e6577206f776e657220697320746865207a65726f206160448201526564647265737360d01b60648201526084016105f2565b600080546040516001600160a01b03808516939216917f8be0079c531659141344cd1fd0a4f28419497f9722a3daafe3b4186f6b6457e091a3600080546001600160a01b0319166001600160a01b0392909216919091179055565b6000546001600160a01b03163314611e255760405162461bcd60e51b81526004016105f29061282b565b600180546001600160a01b0319166001600160a01b0383169081179091556040519081527fec71ba738f211337eaf29e2d87bdb1b0928316c20db0a3a1108aa43321583b50906020016108ce565b6000818152600a6020526040808220815161010081019092528054829060ff166003811115611ea457611ea4612706565b6003811115611eb557611eb5612706565b815281546001600160a01b03610100909104811660208084019190915260018401548216604080850191909152600285015483166060850152600385015483166080850152600485015460a0850152600585015461ffff1660c085015260069094015460e09384015291840151848301519091166000908152600b90925291812080549394509192611f48908490612876565b90915550506000828152600a6020908152604080832080546001600160a81b03191681556001810180546001600160a01b03199081169091556002820180548216905560038201805490911690556004810184905560058101805461ffff191690556006018390559083015190516001600160a01b039091169184917f5ff61db57638246b4e385e22ef7613d9bb0c21cc207e863676e3c7a49e39a17f9190a35050565b6000610840611ff961221d565b8360405161190160f01b6020820152602281018390526042810182905260009060620160405160208183030381529060405280519060200120905092915050565b6000806000808451604114156120645750505060208201516040830151606084015160001a6120da565b8451604014156120925750505060408201516020830151906001600160ff1b0381169060ff1c601b016120da565b60405162461bcd60e51b815260206004820152601f60248201527f45434453413a20696e76616c6964207369676e6174757265206c656e6774680060448201526064016105f2565b6120e686828585612310565b9695505050505050565b336000908152600b60205260409020548061214d5760405162461bcd60e51b815260206004820181905260248201527f63616e6e6f742077697468647261773a2062616c616e6365206973207a65726f60448201526064016105f2565b336000818152600b602052604080822091909155600554905163a9059cbb60e01b81526004810192909252602482018390526001600160a01b03169063a9059cbb90604401602060405180830381600087803b1580156121ac57600080fd5b505af11580156121c0573d6000803e3d6000fd5b505050506040513d601f19601f820116820180604052508101906121e4919061288e565b5060405181815233907f884edad9ce6fa2440d8a54cc123490eb96d2768479d49ff9c7366125a94243649060200160405180910390a250565b60007f000000000000000000000000000000000000000000000000000000000000000046141561226c57507f000000000000000000000000000000000000000000000000000000000000000090565b50604080517f00000000000000000000000000000000000000000000000000000000000000006020808301919091527f0000000000000000000000000000000000000000000000000000000000000000828401527f000000000000000000000000000000000000000000000000000000000000000060608301524660808301523060a0808401919091528351808403909101815260c0909201909252805191012090565b60007f7fffffffffffffffffffffffffffffff5d576e7357a4501ddfe92f46681b20a082111561238d5760405162461bcd60e51b815260206004820152602260248201527f45434453413a20696e76616c6964207369676e6174757265202773272076616c604482015261756560f01b60648201526084016105f2565b8360ff16601b14806123a257508360ff16601c145b6123f95760405162461bcd60e51b815260206004820152602260248201527f45434453413a20696e76616c6964207369676e6174757265202776272076616c604482015261756560f01b60648201526084016105f2565b6040805160008082526020820180845288905260ff871692820192909252606081018590526080810184905260019060a0016020604051602081039080840390855afa15801561244d573d6000803e3d6000fd5b5050604051601f1901519150506001600160a01b038116611be75760405162461bcd60e51b815260206004820152601860248201527f45434453413a20696e76616c6964207369676e6174757265000000000000000060448201526064016105f2565b600060e082840312156124c257600080fd5b50919050565b600060e082840312156124da57600080fd5b6117bc83836124b0565b80356001600160a01b03811681146124fb57600080fd5b919050565b60006020828403121561251257600080fd5b6117bc826124e4565b60006020828403121561252d57600080fd5b5035919050565b60008083601f84011261254657600080fd5b50813567ffffffffffffffff81111561255e57600080fd5b60208301915083602082850101111561257657600080fd5b9250929050565b6000806000610100848603121561259357600080fd5b61259d85856124b0565b925060e084013567ffffffffffffffff8111156125b957600080fd5b6125c586828701612534565b9497909650939450505050565b60008060008061012085870312156125e957600080fd5b6125f386866124b0565b935060e085013567ffffffffffffffff81111561260f57600080fd5b61261b87828801612534565b909450925061262f905061010086016124e4565b905092959194509250565b80151581146107be57600080fd5b60006020828403121561265a57600080fd5b813561145a8161263a565b600060208083528351808285015260005b8181101561269257858101830151858201604001528201612676565b818111156126a4576000604083870101525b50601f01601f1916929092016040019392505050565b600080604083850312156126cd57600080fd5b50508035926020909101359150565b600080604083850312156126ef57600080fd5b6126f8836124e4565b946020939093013593505050565b634e487b7160e01b600052602160045260246000fd5b6004811061273a57634e487b7160e01b600052602160045260246000fd5b9052565b60208101610840828461271c565b6000806040838503121561275f57600080fd5b8235915061276f602084016124e4565b90509250929050565b60006101008201905061278c82845161271c565b602083015160018060a01b038082166020850152806040860151166040850152806060860151166060850152806080860151166080850152505060a083015160a083015261ffff60c08401511660c083015260e083015160e083015292915050565b60006020828403121561280057600080fd5b813561ffff8116811461145a57600080fd5b60006020828403121561282457600080fd5b5051919050565b6020808252818101527f4f776e61626c653a2063616c6c6572206973206e6f7420746865206f776e6572604082015260600190565b634e487b7160e01b600052601160045260246000fd5b6000821982111561288957612889612860565b500190565b6000602082840312156128a057600080fd5b815161145a8161263a565b6000828210156128bd576128bd612860565b500390565b600181811c908216806128d657607f821691505b602082108114156124c257634e487b7160e01b600052602260045260246000fd5b60208082526027908201527f726566756e64207265717569726573207061796d656e7420696e206661696c656040820152666420737461746560c81b606082015260800190565b600081600019048311821515161561295857612958612860565b500290565b60008261297a57634e487b7160e01b600052601260045260246000fd5b500490565b60208082526023908201527f6f6e6c79207061796d656e74206f70657261746f7220697320617574686f72696040820152621e995960ea1b606082015260800190565b60208082526031908201527f7061796d656e74206e6f7420696e697469616c6c7920696e206173736574207460408201527072616e7366657272696e6720737461746560781b60608201526080019056fea2646970667358221220d613a5bd88232ed0668dbf5dcfbf2e345726eeba03938d81ba2527c5afc7b91064736f6c63430008080033",
  "immutableReferences": {
    "360": [
      {
        "length": 32,
        "start": 8778
      }
    ],
    "362": [
      {
        "length": 32,
        "start": 8737
      }
    ],
    "364": [
      {
        "length": 32,
        "start": 8861
      }
    ],
    "366": [
      {
        "length": 32,
        "start": 8898
      }
    ],
    "368": [
      {
        "length": 32,
        "start": 8819
      }
    ]
  },
  "source": "// SPDX-License-Identifier: MIT\npragma solidity >=0.8.0;\n\nimport \"openzeppelin-solidity/contracts/token/ERC20/IERC20.sol\";\nimport \"./FeesCollectors.sol\";\nimport \"./EIP712Verifier.sol\";\n\n/**\n * @notice Payments Contract in ERC20.\n *\n * Upon transfer of ERC20 tokens to this contract, these remain\n * locked until an Operator confirms the success of failure of the\n * asset transfer required to fulfil this payment.\n *\n * If no confirmation is recevied from the operator during the PaymentWindow,\n * all of buyer's received tokens are made available to the buyer for refund.\n *\n * To start a payment, the signatures of both the buyer and the Operator are required.\n * - in the 'relayedPay' method, the Operator is the msg.sender, and the buyerSig is provided;\n * - in the 'pay' method, the buyer is the msg.sender, and the operatorSig is provided.\n *\n * This contract maintains the balances of all users, it does not transfer them automatically.\n * Users need to explicitly call the 'withdraw' method, which withdraws balanceOf[msg.sender]\n * If a buyer has non-zero local balance at the moment of starting a new payment, \n * the contract reuses it, and only transfers the remainder required (if any) \n * from the external ERC20 contract. \n *\n * Each payment has the following States Machine:\n * - NOT_STARTED -> ASSET_TRANSFERRING, triggered by pay/relayedPay\n * - ASSET_TRANSFERRING -> PAID, triggered by assetTransferSuccess\n * - ASSET_TRANSFERRING -> FAILED, triggered implicitly by now > expirationTime\n * - ASSET_TRANSFERRING -> NOT_STARTED, triggered by assetTransferFailure\n * - FAILED -> NOT_STARTED, triggered by refund or refundAndWithdraw\n * - FAILED -> ASSET_TRANSFERRING, triggered by new pay/relayedPay\n *\n * NOTE: To ensure that the a payment process proceeds as expected when the payment starts,\n * upon acceptance of a pay/relatedPay, the following data: {operator, feesCollector, expirationTime}\n * is stored in the payment struct, and used throught the payment, regardless of\n * any possible modifications to the contract's storage.\n *\n */\n\nimport \"./IPaymentsERC20.sol\";\n\ncontract PaymentsERC20 is IPaymentsERC20, FeesCollectors, EIP712Verifier {\n\n    address private _erc20;\n    string private _acceptedCurrency;\n    uint256 private _paymentWindow;\n    bool private _isSellerRegistrationRequired;\n    mapping(address => bool) private _isRegisteredSeller;\n    mapping(bytes32 => Payment) private _payments;\n    mapping(address => uint256) private _balanceOf;\n\n    constructor(address erc20Address, string memory currencyDescriptor) {\n        _erc20 = erc20Address;\n        _acceptedCurrency = currencyDescriptor;\n        _paymentWindow = 10 days;\n        _isSellerRegistrationRequired = true;\n    }\n\n    /**\n     * @notice Sets the amount of time available to the operator, after the payment starts,\n     *  to confirm either the success of the failure of the asset transfer. \n     *  After this time, the payment moves to FAILED, allowing buyer to withdraw.\n     * @param window The amount of time available, in seconds.\n     */\n    function setPaymentWindow(uint256 window) external onlyOwner {\n        _paymentWindow = window;\n        emit PaymentWindow(window);\n    }\n\n    /**\n     * @notice Sets whether sellers are required to register in this contract before being,\n     *  able to accept payments. \n     * @param isRequired (bool) if true, registration is required.\n     */\n    function setIsSellerRegistrationRequired(bool isRequired)\n        external\n        onlyOwner\n    {\n        _isSellerRegistrationRequired = isRequired;\n    }\n\n    /**\n     * @notice Registers msg.sender a seller so that he/she can accept payments.\n     */\n    function registerAsSeller() external {\n        _isRegisteredSeller[msg.sender] = true;\n        emit NewSeller(msg.sender);\n    }\n\n    /**\n     * @notice Starts the Payment process via relay-by-operator.\n     *  Executed by an operator, who relays the MetaTX with the buyer's signature.\n     *  The buyer must have approved the amount to this contract before.\n     *  If all requirements are fulfilled, it stores the data relevant\n     *  for the next steps of the payment, and it locks the ERC20\n     *  in this contract.\n     * @dev Follows standard Checks-Effects-Interactions pattern\n     *  to protect against re-entrancy attacks.\n     *  Moves payment to ASSET_TRANSFERRING state.\n     * @param inp The struct containing all required payment data\n     * @param buyerSignature The signature of 'inp' by the buyer\n     */\n    function relayedPay(\n        PaymentInput calldata inp,\n        bytes calldata buyerSignature\n    ) external {\n        require(\n            universeOperator(inp.universeId) == msg.sender,\n            \"operator not authorized for this universeId\"\n        );\n        if (paymentState(inp.paymentId) == States.Failed)\n            _refund(inp.paymentId);\n        checkPaymentInputs(inp);\n        require(\n            verify(inp, buyerSignature, inp.buyer),\n            \"incorrect buyer signature\"\n        );\n        _payments[inp.paymentId] = Payment(\n            States.AssetTransferring,\n            inp.buyer,\n            inp.seller,\n            msg.sender,\n            universeFeesCollector(inp.universeId),\n            block.timestamp + _paymentWindow,\n            inp.feeBPS,\n            inp.amount\n        );\n        (uint256 newFunds, uint256 localFunds) = splitFundingSources(\n            inp.buyer,\n            inp.amount\n        );\n        if (newFunds > 0) {\n            require(\n                IERC20(_erc20).transferFrom(inp.buyer, address(this), newFunds),\n                \"ERC20 transfer failed\"\n            );\n        }\n        _balanceOf[inp.buyer] -= localFunds;\n        emit Payin(inp.paymentId, inp.buyer, inp.seller);\n    }\n\n    /**\n     * @notice Starts Payment process directly by the buyer.\n     *  Executed by the buyer, who relays the MetaTX with the operator's signature.\n     *  The buyer must have approved the amount to this contract before.\n     *  If all requirements are fulfilled, it stores the data relevant\n     *  for the next steps of the payment, and it locks the ERC20\n     *  in this contract.\n     * @dev Follows standard Checks-Effects-Interactions pattern\n     *  to protect against re-entrancy attacks.\n     *  Moves payment to ASSET_TRANSFERRING state.\n     * @param inp The struct containing all required payment data\n     * @param operatorSignature The signature of 'inp' by the operator\n     */\n    function pay(PaymentInput calldata inp, bytes calldata operatorSignature)\n        external\n    {\n        require(\n            msg.sender == inp.buyer,\n            \"only buyer can execute this function\"\n        );\n        if (paymentState(inp.paymentId) == States.Failed)\n            _refund(inp.paymentId);\n        checkPaymentInputs(inp);\n        address operator = universeOperator(inp.universeId);\n        require(\n            verify(inp, operatorSignature, operator),\n            \"incorrect operator signature\"\n        );\n\n        _payments[inp.paymentId] = Payment(\n            States.AssetTransferring,\n            inp.buyer,\n            inp.seller,\n            operator,\n            universeFeesCollector(inp.universeId),\n            block.timestamp + _paymentWindow,\n            inp.feeBPS,\n            inp.amount\n        );\n        (uint256 newFunds, uint256 localFunds) = splitFundingSources(\n            inp.buyer,\n            inp.amount\n        );\n        if (newFunds > 0) {\n            require(\n                IERC20(_erc20).transferFrom(inp.buyer, address(this), newFunds),\n                \"ERC20 transfer failed\"\n            );\n        }\n        _balanceOf[inp.buyer] -= localFunds;\n        emit Payin(inp.paymentId, inp.buyer, inp.seller);\n    }\n\n    /**\n     * @notice Confirms the asset transfer.\n     *  Needs to be executed by the operator.\n     *  Updates balances of seller and feesCollector.\n     * @dev Moves payment to PAID state.\n     * @param paymentId The unique ID that identifies the payment.\n     */\n    function assetTransferSuccess(bytes32 paymentId) external {\n        Payment memory p = _payments[paymentId];\n        require(\n            msg.sender == p.operator,\n            \"only payment operator is authorized\"\n        );\n        require(\n            States.AssetTransferring == paymentState(paymentId),\n            \"payment not initially in asset transferring state\"\n        );\n        _payments[paymentId].state = States.Paid;\n        uint256 feeAmount = computeFeeAmount(p.amount, uint256(p.feeBPS));\n        _balanceOf[p.seller] += (p.amount - feeAmount);\n        _balanceOf[p.feesCollector] += feeAmount;\n        emit Paid(paymentId);\n    }\n\n    /**\n     * @notice Confirms the failure of asset transfer and refunds buyer.\n     *  Needs to be executed by the operator.\n     *  Buyer's balance is updated, allowing explicit withdrawal.\n     *  It resets all data related to this payment.\n     * @dev Moves payment to NOT_STARTED state.\n     * @param paymentId The unique ID that identifies the payment.\n     */\n    function assetTransferFailed(bytes32 paymentId) external {\n        require(\n            msg.sender == _payments[paymentId].operator,\n            \"only payment operator is authorized\"\n        );\n        require(\n            States.AssetTransferring == paymentState(paymentId),\n            \"payment not initially in asset transferring state\"\n        );\n        _refund(paymentId);\n    }\n\n    /**\n     * @notice Moves buyer's provided funds to buyer's balance.\n     *  Anybody can call this function.\n     *  Requires current state == FAILED to proceed.\n     *  After updating buyer's balance, he/she can later withdraw.\n     *  It resets all data related to this payment.\n     * @dev Moves payment to NOT_STARTED state.\n     * @param paymentId The unique ID that identifies the payment.\n     */\n    function refund(bytes32 paymentId) external {\n        require(\n            paymentState(paymentId) == States.Failed,\n            \"refund requires payment in failed state\"\n        );\n        _refund(paymentId);\n    }\n\n    /**\n     * @notice Exectutes refund and withdraw in one transaction.\n     *  Needs to be called by buyer.\n     *  All of buyer's balance in the contract is withdrawn,\n     *  not only the part that was locked in this particular paymentId\n     * @dev Moves payment to NOT_STARTED state.\n     * @param paymentId The unique ID that identifies the payment.\n     */\n    function refundAndWithdraw(bytes32 paymentId) external {\n        require(\n            paymentState(paymentId) == States.Failed,\n            \"refund requires payment in failed state\"\n        );\n        _refund(paymentId);\n        _withdraw();\n    }\n\n    /**\n     * @notice Transfers ERC20 avaliable in this\n     *  contract's balanceOf[msg.sender] to msg.sender\n     */\n    function withdraw() external {\n        _withdraw();\n    }\n\n    // PRIVATE FUNCTIONS\n\n    /**\n     * @dev Executes refund, moves to NOT_STARTED state\n     * @param paymentId The unique ID that identifies the payment.\n     */\n    function _refund(bytes32 paymentId) private {\n        Payment memory p = _payments[paymentId];\n        _balanceOf[p.buyer] += p.amount;\n        delete _payments[paymentId];\n        emit BuyerRefunded(paymentId, p.buyer);\n    }\n\n    /**\n     * @dev (private) Transfers ERC20 avaliable in this\n     *  contract's balanceOf[msg.sender] to msg.sender\n     *  Follows standard Checks-Effects-Interactions pattern\n     *  to protect against re-entrancy attacks.\n     */\n    function _withdraw() private {\n        uint256 amount = _balanceOf[msg.sender];\n        require(amount > 0, \"cannot withdraw: balance is zero\");\n        _balanceOf[msg.sender] = 0;\n        IERC20(_erc20).transfer(msg.sender, amount);\n        emit Withdraw(msg.sender, amount);\n    }\n\n    // VIEW FUNCTIONS\n\n    /**\n     * @notice Returns true if sellers need to be registered to be able to accept payments\n     */    \n    function isSellerRegistrationRequired() external view returns (bool) {\n        return _isSellerRegistrationRequired;\n    }\n\n    /**\n     * @notice Returns true if the address provided is a registered seller\n     * @param addr the address that is queried\n     * @return isRegistered as seller\n     */    \n    function isRegisteredSeller(address addr) external view returns (bool) {\n        return _isRegisteredSeller[addr];\n    }\n\n    /**\n     * @notice Returns the address of the ERC20 contract from which\n     *  tokens are accepted for payments\n     */\n    function erc20() external view returns (address) {\n        return _erc20;\n    }\n\n    /**\n     * @notice Returns the local ERC20 balance of address that is stored in this\n     *  contract, and hence, available for withdrawal.\n     * @param addr the address that is queried\n     * @return the local balance\n     */\n    function balanceOf(address addr) external view returns (uint256) {\n        return _balanceOf[addr];\n    }\n\n    /**\n     * @notice Returns ERC20 balance of address in the ERC20 contract\n     * @param addr the address that is queried\n     * @return the balance in the external ERC20 contract\n     */\n    function erc20BalanceOf(address addr) external view returns (uint256) {\n        return IERC20(_erc20).balanceOf(addr);\n    }\n\n    /**\n     * @notice Returns the allowance that the buyer has approved\n     *  directly in the ERC20 contract in favour of this contract.\n     * @param buyer the address of the buyer\n     * @return the amount allowed by buyer\n     */\n    function allowance(address buyer) public view returns (uint256) {\n        return IERC20(_erc20).allowance(buyer, address(this));\n    }\n\n    /**\n     * @notice Returns all data stored in a payment\n     * @param paymentId The unique ID that identifies the payment.\n     * @return the struct stored for the payment\n     */\n    function paymentInfo(bytes32 paymentId)\n        external\n        view\n        returns (Payment memory)\n    {\n        return _payments[paymentId];\n    }\n\n    /**\n     * @notice Returns the state of a payment.\n     *  It maps 1-to-1 with the stored variable, with the exeption of\n     *  an ASSET_TRANSFERRING that has gone beyond expirationTime.\n     * @param paymentId The unique ID that identifies the payment.\n     * @return the state of the payment. Enum: NotStarted, AssetTransferring, Failed, Paid\n     */\n    function paymentState(bytes32 paymentId) public view returns (States) {\n        States state = _payments[paymentId].state;\n        if (\n            state == States.AssetTransferring &&\n            block.timestamp > _payments[paymentId].expirationTime\n        ) return States.Failed;\n        return state;\n    }\n\n    /**\n     * @notice Returns the amount of seconds that a payment\n     *  can remain in ASSET_TRANSFERRING state without positive\n     *  or negative confirmation by the operator\n     * @return the payment window\n     */\n    function paymentWindow() external view returns (uint256) {\n        return _paymentWindow;\n    }\n\n    /**\n     * @notice Returns a descriptor about the currency that this contract accepts\n     * @return the string describing the currency\n     */\n    function acceptedCurrency() external view returns (string memory) {\n        return _acceptedCurrency;\n    }\n\n    /**\n     * @notice Returns true if the 'amount' required for a payment is available to this contract.\n     *  In more detail: returns true if the sum of the buyer's local balance in this contract,\n     *  plus funds available and approved in the ERC20 contract, are larger or equal than 'amount'\n     * @return a bool, true is enough available\n     */\n    function enoughFundsAvailable(address buyer, uint256 amount)\n        public\n        view\n        returns (bool)\n    {\n        return maxFundsAvailable(buyer) >= amount;\n    }\n\n    /**\n     * @notice Returns the maximum amount of funds available to a buyer\n     *  In more detail: returns the sum of the buyer's local balance in this contract,\n     *  plus the funds available and approved in the ERC20 contract.\n     * @return the max funds available\n     */\n    function maxFundsAvailable(address buyer) public view returns (uint256) {\n        uint256 approved = allowance(buyer);\n        uint256 erc20Balance = IERC20(_erc20).balanceOf(buyer);\n        uint256 externalAvailable = (approved < erc20Balance)\n            ? approved\n            : erc20Balance;\n        return _balanceOf[buyer] + externalAvailable;\n    }\n\n    /**\n     * @notice Splits the funds required to pay 'amount' into two source:\n     *  - externalFunds: the amount of ERC20 required to be transferred from the external ERC20 contract\n     *  - localFunds: the amount of ERC20 from the buyer's already available balance in this contract.\n     * @return externalFunds - the amount of ERC20 required from the external ERC20 contract.\n     * @return localFunds - the amount of ERC20 local funds required. \n     */\n    function splitFundingSources(address buyer, uint256 amount)\n        public\n        view\n        returns (uint256 externalFunds, uint256 localFunds)\n    {\n        uint256 localBalance = _balanceOf[buyer];\n        localFunds = (amount > localBalance) ? localBalance : amount;\n        externalFunds = (amount > localBalance) ? amount - localBalance : 0;\n    }\n\n    /**\n     * @notice Reverts unless the requirements for a PaymentInput that\n     *  are common to both pay and relayedPay are fulfilled.\n     */\n    function checkPaymentInputs(PaymentInput calldata inp) public view {\n        require(inp.feeBPS <= 10000, \"fee cannot be larger than 100 percent\");\n        require(\n            paymentState(inp.paymentId) == States.NotStarted,\n            \"payment in incorrect curent state\"\n        );\n        require(block.timestamp <= inp.validUntil, \"payment deadline expired\");\n        if (_isSellerRegistrationRequired)\n            require(_isRegisteredSeller[inp.seller], \"seller not registered\");\n        require(\n            enoughFundsAvailable(inp.buyer, inp.amount),\n            \"not enough funds available for this buyer\"\n        );\n    }\n\n    // PURE FUNCTIONS\n\n    /**\n     * @notice Safe compute fee amount\n     *  Returns a values that is guaranteed to be less or equal to total provided amount\n     *  The safety check should be unnecessary, since only feeBPS < 10000 are accepted\n     *  when receiving a payment.\n     * @return the fee amount\n     */\n    function computeFeeAmount(uint256 amount, uint256 feeBPS)\n        public\n        pure\n        returns (uint256)\n    {\n        uint256 feeAmount = (amount * feeBPS) / 10000;\n        return (feeAmount <= amount) ? feeAmount : amount;\n    }\n}\n",
  "sourcePath": "/Users/toni/gits/cryptoPayments/contracts/Payments/PaymentsERC20.sol",
  "compiler": {
    "name": "solc",
    "version": "0.8.8+commit.dddeac2f.Emscripten.clang"
  },
  "schemaVersion": "3.4.3",
  "updatedAt": "2022-01-20T16:32:56.414Z",
  "devdoc": {
    "kind": "dev",
    "methods": {
      "acceptedCurrency()": {
        "returns": {
          "_0": "the string describing the currency"
        }
      },
      "allowance(address)": {
        "params": {
          "buyer": "the address of the buyer"
        },
        "returns": {
          "_0": "the amount allowed by buyer"
        }
      },
      "assetTransferFailed(bytes32)": {
        "details": "Moves payment to NOT_STARTED state.",
        "params": {
          "paymentId": "The unique ID that identifies the payment."
        }
      },
      "assetTransferSuccess(bytes32)": {
        "details": "Moves payment to PAID state.",
        "params": {
          "paymentId": "The unique ID that identifies the payment."
        }
      },
      "balanceOf(address)": {
        "params": {
          "addr": "the address that is queried"
        },
        "returns": {
          "_0": "the local balance"
        }
      },
      "computeFeeAmount(uint256,uint256)": {
        "returns": {
          "_0": "the fee amount"
        }
      },
      "enoughFundsAvailable(address,uint256)": {
        "returns": {
          "_0": "a bool, true is enough available"
        }
      },
      "erc20BalanceOf(address)": {
        "params": {
          "addr": "the address that is queried"
        },
        "returns": {
          "_0": "the balance in the external ERC20 contract"
        }
      },
      "isRegisteredSeller(address)": {
        "params": {
          "addr": "the address that is queried"
        },
        "returns": {
          "_0": "isRegistered as seller"
        }
      },
      "maxFundsAvailable(address)": {
        "returns": {
          "_0": "the max funds available"
        }
      },
      "owner()": {
        "details": "Returns the address of the current owner."
      },
      "pay((bytes32,uint256,uint16,uint256,uint256,address,address),bytes)": {
        "details": "Follows standard Checks-Effects-Interactions pattern  to protect against re-entrancy attacks.  Moves payment to ASSET_TRANSFERRING state.",
        "params": {
          "inp": "The struct containing all required payment data",
          "operatorSignature": "The signature of 'inp' by the operator"
        }
      },
      "paymentInfo(bytes32)": {
        "params": {
          "paymentId": "The unique ID that identifies the payment."
        },
        "returns": {
          "_0": "the struct stored for the payment"
        }
      },
      "paymentState(bytes32)": {
        "params": {
          "paymentId": "The unique ID that identifies the payment."
        },
        "returns": {
          "_0": "the state of the payment. Enum: NotStarted, AssetTransferring, Failed, Paid"
        }
      },
      "paymentWindow()": {
        "returns": {
          "_0": "the payment window"
        }
      },
      "refund(bytes32)": {
        "details": "Moves payment to NOT_STARTED state.",
        "params": {
          "paymentId": "The unique ID that identifies the payment."
        }
      },
      "refundAndWithdraw(bytes32)": {
        "details": "Moves payment to NOT_STARTED state.",
        "params": {
          "paymentId": "The unique ID that identifies the payment."
        }
      },
      "relayedPay((bytes32,uint256,uint16,uint256,uint256,address,address),bytes)": {
        "details": "Follows standard Checks-Effects-Interactions pattern  to protect against re-entrancy attacks.  Moves payment to ASSET_TRANSFERRING state.",
        "params": {
          "buyerSignature": "The signature of 'inp' by the buyer",
          "inp": "The struct containing all required payment data"
        }
      },
      "renounceOwnership()": {
        "details": "Leaves the contract without owner. It will not be possible to call `onlyOwner` functions anymore. Can only be called by the current owner. NOTE: Renouncing ownership will leave the contract without an owner, thereby removing any functionality that is only available to the owner."
      },
      "setIsSellerRegistrationRequired(bool)": {
        "params": {
          "isRequired": "(bool) if true, registration is required."
        }
      },
      "setPaymentWindow(uint256)": {
        "params": {
          "window": "The amount of time available, in seconds."
        }
      },
      "splitFundingSources(address,uint256)": {
        "returns": {
          "externalFunds": "- the amount of ERC20 required from the external ERC20 contract.",
          "localFunds": "- the amount of ERC20 local funds required. "
        }
      },
      "transferOwnership(address)": {
        "details": "Transfers ownership of the contract to a new account (`newOwner`). Can only be called by the current owner."
      }
    },
    "version": 1
  },
  "userdoc": {
    "kind": "user",
    "methods": {
      "acceptedCurrency()": {
        "notice": "Returns a descriptor about the currency that this contract accepts"
      },
      "allowance(address)": {
        "notice": "Returns the allowance that the buyer has approved  directly in the ERC20 contract in favour of this contract."
      },
      "assetTransferFailed(bytes32)": {
        "notice": "Confirms the failure of asset transfer and refunds buyer.  Needs to be executed by the operator.  Buyer's balance is updated, allowing explicit withdrawal.  It resets all data related to this payment."
      },
      "assetTransferSuccess(bytes32)": {
        "notice": "Confirms the asset transfer.  Needs to be executed by the operator.  Updates balances of seller and feesCollector."
      },
      "balanceOf(address)": {
        "notice": "Returns the local ERC20 balance of address that is stored in this  contract, and hence, available for withdrawal."
      },
      "checkPaymentInputs((bytes32,uint256,uint16,uint256,uint256,address,address))": {
        "notice": "Reverts unless the requirements for a PaymentInput that  are common to both pay and relayedPay are fulfilled."
      },
      "computeFeeAmount(uint256,uint256)": {
        "notice": "Safe compute fee amount  Returns a values that is guaranteed to be less or equal to total provided amount  The safety check should be unnecessary, since only feeBPS < 10000 are accepted  when receiving a payment."
      },
      "enoughFundsAvailable(address,uint256)": {
        "notice": "Returns true if the 'amount' required for a payment is available to this contract.  In more detail: returns true if the sum of the buyer's local balance in this contract,  plus funds available and approved in the ERC20 contract, are larger or equal than 'amount'"
      },
      "erc20()": {
        "notice": "Returns the address of the ERC20 contract from which  tokens are accepted for payments"
      },
      "erc20BalanceOf(address)": {
        "notice": "Returns ERC20 balance of address in the ERC20 contract"
      },
      "isRegisteredSeller(address)": {
        "notice": "Returns true if the address provided is a registered seller"
      },
      "isSellerRegistrationRequired()": {
        "notice": "Returns true if sellers need to be registered to be able to accept payments"
      },
      "maxFundsAvailable(address)": {
        "notice": "Returns the maximum amount of funds available to a buyer  In more detail: returns the sum of the buyer's local balance in this contract,  plus the funds available and approved in the ERC20 contract."
      },
      "pay((bytes32,uint256,uint16,uint256,uint256,address,address),bytes)": {
        "notice": "Starts Payment process directly by the buyer.  Executed by the buyer, who relays the MetaTX with the operator's signature.  The buyer must have approved the amount to this contract before.  If all requirements are fulfilled, it stores the data relevant  for the next steps of the payment, and it locks the ERC20  in this contract."
      },
      "paymentInfo(bytes32)": {
        "notice": "Returns all data stored in a payment"
      },
      "paymentState(bytes32)": {
        "notice": "Returns the state of a payment.  It maps 1-to-1 with the stored variable, with the exeption of  an ASSET_TRANSFERRING that has gone beyond expirationTime."
      },
      "paymentWindow()": {
        "notice": "Returns the amount of seconds that a payment  can remain in ASSET_TRANSFERRING state without positive  or negative confirmation by the operator"
      },
      "refund(bytes32)": {
        "notice": "Moves buyer's provided funds to buyer's balance.  Anybody can call this function.  Requires current state == FAILED to proceed.  After updating buyer's balance, he/she can later withdraw.  It resets all data related to this payment."
      },
      "refundAndWithdraw(bytes32)": {
        "notice": "Exectutes refund and withdraw in one transaction.  Needs to be called by buyer.  All of buyer's balance in the contract is withdrawn,  not only the part that was locked in this particular paymentId"
      },
      "registerAsSeller()": {
        "notice": "Registers msg.sender a seller so that he/she can accept payments."
      },
      "relayedPay((bytes32,uint256,uint16,uint256,uint256,address,address),bytes)": {
        "notice": "Starts the Payment process via relay-by-operator.  Executed by an operator, who relays the MetaTX with the buyer's signature.  The buyer must have approved the amount to this contract before.  If all requirements are fulfilled, it stores the data relevant  for the next steps of the payment, and it locks the ERC20  in this contract."
      },
      "setIsSellerRegistrationRequired(bool)": {
        "notice": "Sets whether sellers are required to register in this contract before being,  able to accept payments. "
      },
      "setPaymentWindow(uint256)": {
        "notice": "Sets the amount of time available to the operator, after the payment starts,  to confirm either the success of the failure of the asset transfer.   After this time, the payment moves to FAILED, allowing buyer to withdraw."
      },
      "splitFundingSources(address,uint256)": {
        "notice": "Splits the funds required to pay 'amount' into two source:  - externalFunds: the amount of ERC20 required to be transferred from the external ERC20 contract  - localFunds: the amount of ERC20 from the buyer's already available balance in this contract."
      },
      "withdraw()": {
        "notice": "Transfers ERC20 avaliable in this  contract's balanceOf[msg.sender] to msg.sender"
      }
    },
    "version": 1
  }
}