{
  "contractName": "PaymentsERC20",
  "abi": [
    {
      "inputs": [
        {
          "internalType": "address",
          "name": "erc20Address",
          "type": "address"
        },
        {
          "internalType": "string",
          "name": "currencyDescriptor",
          "type": "string"
        }
      ],
      "stateMutability": "nonpayable",
      "type": "constructor"
    },
    {
      "anonymous": false,
      "inputs": [
        {
          "indexed": true,
          "internalType": "bytes32",
          "name": "paymentId",
          "type": "bytes32"
        },
        {
          "indexed": true,
          "internalType": "address",
          "name": "buyer",
          "type": "address"
        }
      ],
      "name": "BuyerRefunded",
      "type": "event"
    },
    {
      "anonymous": false,
      "inputs": [
        {
          "indexed": false,
          "internalType": "address",
          "name": "feesCollector",
          "type": "address"
        }
      ],
      "name": "DefaultFeesCollector",
      "type": "event"
    },
    {
      "anonymous": false,
      "inputs": [
        {
          "indexed": false,
          "internalType": "address",
          "name": "operator",
          "type": "address"
        }
      ],
      "name": "DefaultOperator",
      "type": "event"
    },
    {
      "anonymous": false,
      "inputs": [
        {
          "indexed": true,
          "internalType": "address",
          "name": "seller",
          "type": "address"
        }
      ],
      "name": "NewSeller",
      "type": "event"
    },
    {
      "anonymous": false,
      "inputs": [
        {
          "indexed": true,
          "internalType": "address",
          "name": "previousOwner",
          "type": "address"
        },
        {
          "indexed": true,
          "internalType": "address",
          "name": "newOwner",
          "type": "address"
        }
      ],
      "name": "OwnershipTransferred",
      "type": "event"
    },
    {
      "anonymous": false,
      "inputs": [
        {
          "indexed": false,
          "internalType": "bytes32",
          "name": "paymentId",
          "type": "bytes32"
        }
      ],
      "name": "Paid",
      "type": "event"
    },
    {
      "anonymous": false,
      "inputs": [
        {
          "indexed": true,
          "internalType": "bytes32",
          "name": "paymentId",
          "type": "bytes32"
        },
        {
          "indexed": true,
          "internalType": "address",
          "name": "buyer",
          "type": "address"
        },
        {
          "indexed": true,
          "internalType": "address",
          "name": "seller",
          "type": "address"
        }
      ],
      "name": "Payin",
      "type": "event"
    },
    {
      "anonymous": false,
      "inputs": [
        {
          "indexed": false,
          "internalType": "uint256",
          "name": "window",
          "type": "uint256"
        }
      ],
      "name": "PaymentWindow",
      "type": "event"
    },
    {
      "anonymous": false,
      "inputs": [
        {
          "indexed": false,
          "internalType": "uint256",
          "name": "universeId",
          "type": "uint256"
        },
        {
          "indexed": false,
          "internalType": "address",
          "name": "feesCollector",
          "type": "address"
        }
      ],
      "name": "UniverseFeesCollector",
      "type": "event"
    },
    {
      "anonymous": false,
      "inputs": [
        {
          "indexed": false,
          "internalType": "uint256",
          "name": "universeId",
          "type": "uint256"
        },
        {
          "indexed": false,
          "internalType": "address",
          "name": "operator",
          "type": "address"
        }
      ],
      "name": "UniverseOperator",
      "type": "event"
    },
    {
      "anonymous": false,
      "inputs": [
        {
          "indexed": true,
          "internalType": "address",
          "name": "user",
          "type": "address"
        },
        {
          "indexed": false,
          "internalType": "uint256",
          "name": "amount",
          "type": "uint256"
        }
      ],
      "name": "Withdraw",
      "type": "event"
    },
    {
      "inputs": [],
      "name": "defaultFeesCollector",
      "outputs": [
        {
          "internalType": "address",
          "name": "",
          "type": "address"
        }
      ],
      "stateMutability": "view",
      "type": "function"
    },
    {
      "inputs": [],
      "name": "defaultOperator",
      "outputs": [
        {
          "internalType": "address",
          "name": "",
          "type": "address"
        }
      ],
      "stateMutability": "view",
      "type": "function"
    },
    {
      "inputs": [],
      "name": "owner",
      "outputs": [
        {
          "internalType": "address",
          "name": "",
          "type": "address"
        }
      ],
      "stateMutability": "view",
      "type": "function"
    },
    {
      "inputs": [
        {
          "internalType": "uint256",
          "name": "universeId",
          "type": "uint256"
        }
      ],
      "name": "removeUniverseFeesCollector",
      "outputs": [],
      "stateMutability": "nonpayable",
      "type": "function"
    },
    {
      "inputs": [
        {
          "internalType": "uint256",
          "name": "universeId",
          "type": "uint256"
        }
      ],
      "name": "removeUniverseOperator",
      "outputs": [],
      "stateMutability": "nonpayable",
      "type": "function"
    },
    {
      "inputs": [],
      "name": "renounceOwnership",
      "outputs": [],
      "stateMutability": "nonpayable",
      "type": "function"
    },
    {
      "inputs": [
        {
          "internalType": "address",
          "name": "feesCollector",
          "type": "address"
        }
      ],
      "name": "setDefaultFeesCollector",
      "outputs": [],
      "stateMutability": "nonpayable",
      "type": "function"
    },
    {
      "inputs": [
        {
          "internalType": "address",
          "name": "operator",
          "type": "address"
        }
      ],
      "name": "setDefaultOperator",
      "outputs": [],
      "stateMutability": "nonpayable",
      "type": "function"
    },
    {
      "inputs": [
        {
          "internalType": "uint256",
          "name": "universeId",
          "type": "uint256"
        },
        {
          "internalType": "address",
          "name": "feesCollector",
          "type": "address"
        }
      ],
      "name": "setUniverseFeesCollector",
      "outputs": [],
      "stateMutability": "nonpayable",
      "type": "function"
    },
    {
      "inputs": [
        {
          "internalType": "uint256",
          "name": "universeId",
          "type": "uint256"
        },
        {
          "internalType": "address",
          "name": "operator",
          "type": "address"
        }
      ],
      "name": "setUniverseOperator",
      "outputs": [],
      "stateMutability": "nonpayable",
      "type": "function"
    },
    {
      "inputs": [
        {
          "internalType": "address",
          "name": "newOwner",
          "type": "address"
        }
      ],
      "name": "transferOwnership",
      "outputs": [],
      "stateMutability": "nonpayable",
      "type": "function"
    },
    {
      "inputs": [
        {
          "internalType": "uint256",
          "name": "universeId",
          "type": "uint256"
        }
      ],
      "name": "universeFeesCollector",
      "outputs": [
        {
          "internalType": "address",
          "name": "",
          "type": "address"
        }
      ],
      "stateMutability": "view",
      "type": "function"
    },
    {
      "inputs": [
        {
          "internalType": "uint256",
          "name": "universeId",
          "type": "uint256"
        }
      ],
      "name": "universeOperator",
      "outputs": [
        {
          "internalType": "address",
          "name": "",
          "type": "address"
        }
      ],
      "stateMutability": "view",
      "type": "function"
    },
    {
      "inputs": [
        {
          "components": [
            {
              "internalType": "bytes32",
              "name": "paymentId",
              "type": "bytes32"
            },
            {
              "internalType": "bool",
              "name": "wasSuccessful",
              "type": "bool"
            }
          ],
          "internalType": "struct IEIP712Verifier.AssetTransferResult",
          "name": "inp",
          "type": "tuple"
        },
        {
          "internalType": "bytes",
          "name": "signature",
          "type": "bytes"
        },
        {
          "internalType": "address",
          "name": "signer",
          "type": "address"
        }
      ],
      "name": "verifyAssetTransferResult",
      "outputs": [
        {
          "internalType": "bool",
          "name": "",
          "type": "bool"
        }
      ],
      "stateMutability": "view",
      "type": "function"
    },
    {
      "inputs": [
        {
          "components": [
            {
              "internalType": "bytes32",
              "name": "paymentId",
              "type": "bytes32"
            },
            {
              "internalType": "uint256",
              "name": "amount",
              "type": "uint256"
            },
            {
              "internalType": "uint16",
              "name": "feeBPS",
              "type": "uint16"
            },
            {
              "internalType": "uint256",
              "name": "universeId",
              "type": "uint256"
            },
            {
              "internalType": "uint256",
              "name": "deadline",
              "type": "uint256"
            },
            {
              "internalType": "address",
              "name": "buyer",
              "type": "address"
            },
            {
              "internalType": "address",
              "name": "seller",
              "type": "address"
            }
          ],
          "internalType": "struct IEIP712Verifier.PaymentInput",
          "name": "inp",
          "type": "tuple"
        },
        {
          "internalType": "bytes",
          "name": "signature",
          "type": "bytes"
        },
        {
          "internalType": "address",
          "name": "signer",
          "type": "address"
        }
      ],
      "name": "verifyPayment",
      "outputs": [
        {
          "internalType": "bool",
          "name": "",
          "type": "bool"
        }
      ],
      "stateMutability": "view",
      "type": "function"
    },
    {
      "inputs": [
        {
          "internalType": "uint256",
          "name": "window",
          "type": "uint256"
        }
      ],
      "name": "setPaymentWindow",
      "outputs": [],
      "stateMutability": "nonpayable",
      "type": "function"
    },
    {
      "inputs": [
        {
          "internalType": "bool",
          "name": "isRequired",
          "type": "bool"
        }
      ],
      "name": "setIsSellerRegistrationRequired",
      "outputs": [],
      "stateMutability": "nonpayable",
      "type": "function"
    },
    {
      "inputs": [],
      "name": "registerAsSeller",
      "outputs": [],
      "stateMutability": "nonpayable",
      "type": "function"
    },
    {
      "inputs": [
        {
          "components": [
            {
              "internalType": "bytes32",
              "name": "paymentId",
              "type": "bytes32"
            },
            {
              "internalType": "uint256",
              "name": "amount",
              "type": "uint256"
            },
            {
              "internalType": "uint16",
              "name": "feeBPS",
              "type": "uint16"
            },
            {
              "internalType": "uint256",
              "name": "universeId",
              "type": "uint256"
            },
            {
              "internalType": "uint256",
              "name": "deadline",
              "type": "uint256"
            },
            {
              "internalType": "address",
              "name": "buyer",
              "type": "address"
            },
            {
              "internalType": "address",
              "name": "seller",
              "type": "address"
            }
          ],
          "internalType": "struct IEIP712Verifier.PaymentInput",
          "name": "inp",
          "type": "tuple"
        },
        {
          "internalType": "bytes",
          "name": "buyerSignature",
          "type": "bytes"
        }
      ],
      "name": "relayedPay",
      "outputs": [],
      "stateMutability": "nonpayable",
      "type": "function"
    },
    {
      "inputs": [
        {
          "components": [
            {
              "internalType": "bytes32",
              "name": "paymentId",
              "type": "bytes32"
            },
            {
              "internalType": "uint256",
              "name": "amount",
              "type": "uint256"
            },
            {
              "internalType": "uint16",
              "name": "feeBPS",
              "type": "uint16"
            },
            {
              "internalType": "uint256",
              "name": "universeId",
              "type": "uint256"
            },
            {
              "internalType": "uint256",
              "name": "deadline",
              "type": "uint256"
            },
            {
              "internalType": "address",
              "name": "buyer",
              "type": "address"
            },
            {
              "internalType": "address",
              "name": "seller",
              "type": "address"
            }
          ],
          "internalType": "struct IEIP712Verifier.PaymentInput",
          "name": "inp",
          "type": "tuple"
        },
        {
          "internalType": "bytes",
          "name": "operatorSignature",
          "type": "bytes"
        }
      ],
      "name": "pay",
      "outputs": [],
      "stateMutability": "nonpayable",
      "type": "function"
    },
    {
      "inputs": [
        {
          "components": [
            {
              "internalType": "bytes32",
              "name": "paymentId",
              "type": "bytes32"
            },
            {
              "internalType": "bool",
              "name": "wasSuccessful",
              "type": "bool"
            }
          ],
          "internalType": "struct IEIP712Verifier.AssetTransferResult",
          "name": "result",
          "type": "tuple"
        },
        {
          "internalType": "bytes",
          "name": "operatorSignature",
          "type": "bytes"
        }
      ],
      "name": "finalize",
      "outputs": [],
      "stateMutability": "nonpayable",
      "type": "function"
    },
    {
      "inputs": [
        {
          "components": [
            {
              "internalType": "bytes32",
              "name": "paymentId",
              "type": "bytes32"
            },
            {
              "internalType": "bool",
              "name": "wasSuccessful",
              "type": "bool"
            }
          ],
          "internalType": "struct IEIP712Verifier.AssetTransferResult",
          "name": "result",
          "type": "tuple"
        },
        {
          "internalType": "bytes",
          "name": "operatorSignature",
          "type": "bytes"
        }
      ],
      "name": "finalizeAndWithdraw",
      "outputs": [],
      "stateMutability": "nonpayable",
      "type": "function"
    },
    {
      "inputs": [
        {
          "internalType": "bytes32",
          "name": "paymentId",
          "type": "bytes32"
        }
      ],
      "name": "refund",
      "outputs": [],
      "stateMutability": "nonpayable",
      "type": "function"
    },
    {
      "inputs": [
        {
          "internalType": "bytes32",
          "name": "paymentId",
          "type": "bytes32"
        }
      ],
      "name": "refundAndWithdraw",
      "outputs": [],
      "stateMutability": "nonpayable",
      "type": "function"
    },
    {
      "inputs": [],
      "name": "withdraw",
      "outputs": [],
      "stateMutability": "nonpayable",
      "type": "function"
    },
    {
      "inputs": [],
      "name": "isSellerRegistrationRequired",
      "outputs": [
        {
          "internalType": "bool",
          "name": "",
          "type": "bool"
        }
      ],
      "stateMutability": "view",
      "type": "function"
    },
    {
      "inputs": [
        {
          "internalType": "address",
          "name": "addr",
          "type": "address"
        }
      ],
      "name": "isRegisteredSeller",
      "outputs": [
        {
          "internalType": "bool",
          "name": "",
          "type": "bool"
        }
      ],
      "stateMutability": "view",
      "type": "function"
    },
    {
      "inputs": [],
      "name": "erc20",
      "outputs": [
        {
          "internalType": "address",
          "name": "",
          "type": "address"
        }
      ],
      "stateMutability": "view",
      "type": "function"
    },
    {
      "inputs": [
        {
          "internalType": "address",
          "name": "addr",
          "type": "address"
        }
      ],
      "name": "balanceOf",
      "outputs": [
        {
          "internalType": "uint256",
          "name": "",
          "type": "uint256"
        }
      ],
      "stateMutability": "view",
      "type": "function"
    },
    {
      "inputs": [
        {
          "internalType": "address",
          "name": "addr",
          "type": "address"
        }
      ],
      "name": "erc20BalanceOf",
      "outputs": [
        {
          "internalType": "uint256",
          "name": "",
          "type": "uint256"
        }
      ],
      "stateMutability": "view",
      "type": "function"
    },
    {
      "inputs": [
        {
          "internalType": "address",
          "name": "buyer",
          "type": "address"
        }
      ],
      "name": "allowance",
      "outputs": [
        {
          "internalType": "uint256",
          "name": "",
          "type": "uint256"
        }
      ],
      "stateMutability": "view",
      "type": "function"
    },
    {
      "inputs": [
        {
          "internalType": "bytes32",
          "name": "paymentId",
          "type": "bytes32"
        }
      ],
      "name": "paymentInfo",
      "outputs": [
        {
          "components": [
            {
              "internalType": "enum IPaymentsERC20.States",
              "name": "state",
              "type": "uint8"
            },
            {
              "internalType": "address",
              "name": "buyer",
              "type": "address"
            },
            {
              "internalType": "address",
              "name": "seller",
              "type": "address"
            },
            {
              "internalType": "address",
              "name": "operator",
              "type": "address"
            },
            {
              "internalType": "address",
              "name": "feesCollector",
              "type": "address"
            },
            {
              "internalType": "uint256",
              "name": "expirationTime",
              "type": "uint256"
            },
            {
              "internalType": "uint16",
              "name": "feeBPS",
              "type": "uint16"
            },
            {
              "internalType": "uint256",
              "name": "amount",
              "type": "uint256"
            }
          ],
          "internalType": "struct IPaymentsERC20.Payment",
          "name": "",
          "type": "tuple"
        }
      ],
      "stateMutability": "view",
      "type": "function"
    },
    {
      "inputs": [
        {
          "internalType": "bytes32",
          "name": "paymentId",
          "type": "bytes32"
        }
      ],
      "name": "paymentState",
      "outputs": [
        {
          "internalType": "enum IPaymentsERC20.States",
          "name": "",
          "type": "uint8"
        }
      ],
      "stateMutability": "view",
      "type": "function"
    },
    {
      "inputs": [
        {
          "internalType": "bytes32",
          "name": "paymentId",
          "type": "bytes32"
        }
      ],
      "name": "acceptsRefunds",
      "outputs": [
        {
          "internalType": "bool",
          "name": "",
          "type": "bool"
        }
      ],
      "stateMutability": "view",
      "type": "function"
    },
    {
      "inputs": [],
      "name": "paymentWindow",
      "outputs": [
        {
          "internalType": "uint256",
          "name": "",
          "type": "uint256"
        }
      ],
      "stateMutability": "view",
      "type": "function"
    },
    {
      "inputs": [],
      "name": "acceptedCurrency",
      "outputs": [
        {
          "internalType": "string",
          "name": "",
          "type": "string"
        }
      ],
      "stateMutability": "view",
      "type": "function"
    },
    {
      "inputs": [
        {
          "internalType": "address",
          "name": "buyer",
          "type": "address"
        },
        {
          "internalType": "uint256",
          "name": "amount",
          "type": "uint256"
        }
      ],
      "name": "enoughFundsAvailable",
      "outputs": [
        {
          "internalType": "bool",
          "name": "",
          "type": "bool"
        }
      ],
      "stateMutability": "view",
      "type": "function"
    },
    {
      "inputs": [
        {
          "internalType": "address",
          "name": "buyer",
          "type": "address"
        }
      ],
      "name": "maxFundsAvailable",
      "outputs": [
        {
          "internalType": "uint256",
          "name": "",
          "type": "uint256"
        }
      ],
      "stateMutability": "view",
      "type": "function"
    },
    {
      "inputs": [
        {
          "internalType": "address",
          "name": "buyer",
          "type": "address"
        },
        {
          "internalType": "uint256",
          "name": "amount",
          "type": "uint256"
        }
      ],
      "name": "splitFundingSources",
      "outputs": [
        {
          "internalType": "uint256",
          "name": "externalFunds",
          "type": "uint256"
        },
        {
          "internalType": "uint256",
          "name": "localFunds",
          "type": "uint256"
        }
      ],
      "stateMutability": "view",
      "type": "function"
    },
    {
      "inputs": [
        {
          "components": [
            {
              "internalType": "bytes32",
              "name": "paymentId",
              "type": "bytes32"
            },
            {
              "internalType": "uint256",
              "name": "amount",
              "type": "uint256"
            },
            {
              "internalType": "uint16",
              "name": "feeBPS",
              "type": "uint16"
            },
            {
              "internalType": "uint256",
              "name": "universeId",
              "type": "uint256"
            },
            {
              "internalType": "uint256",
              "name": "deadline",
              "type": "uint256"
            },
            {
              "internalType": "address",
              "name": "buyer",
              "type": "address"
            },
            {
              "internalType": "address",
              "name": "seller",
              "type": "address"
            }
          ],
          "internalType": "struct IEIP712Verifier.PaymentInput",
          "name": "inp",
          "type": "tuple"
        }
      ],
      "name": "checkPaymentInputs",
      "outputs": [],
      "stateMutability": "view",
      "type": "function"
    },
    {
      "inputs": [
        {
          "internalType": "uint256",
          "name": "amount",
          "type": "uint256"
        },
        {
          "internalType": "uint256",
          "name": "feeBPS",
          "type": "uint256"
        }
      ],
      "name": "computeFeeAmount",
      "outputs": [
        {
          "internalType": "uint256",
          "name": "",
          "type": "uint256"
        }
      ],
      "stateMutability": "pure",
      "type": "function"
    }
  ],
  "bytecode": "0x6101206040523480156200001257600080fd5b5060405162002f0438038062002f04833981016040819052620000359162000303565b6040518060400160405280601b81526020017f4c6976696e67417373657473204552433230205061796d656e74730000000000815250604051806040016040528060018152602001603160f81b8152506000620000976200024360201b60201c565b600080546001600160a01b0319166001600160a01b0383169081178255604051929350917f8be0079c531659141344cd1fd0a4f28419497f9722a3daafe3b4186f6b6457e0908290a350600180546001600160a01b031916339081179091556040519081527fec71ba738f211337eaf29e2d87bdb1b0928316c20db0a3a1108aa43321583b509060200160405180910390a1600380546001600160a01b031916339081179091556040519081527fa60019696f11f9aa952db763c0de585f819d10fcafcfbd301a27d02e9caa41b09060200160405180910390a1815160209283012081519183019190912060c082815260e08290524660a0818152604080517f8b73c3c69bb8fe3d512ecc4cf759cc79239f7b179b0ffacaa9a75d522b39400f81890181905281830197909752606081019590955260808086019390935230858301528051808603909201825293909201909252805190840120905261010052600580546001600160a01b0319166001600160a01b038516179055815162000226916006919084019062000247565b505062278d00600755506008805460ff1916600117905562000440565b3390565b828054620002559062000403565b90600052602060002090601f016020900481019282620002795760008555620002c4565b82601f106200029457805160ff1916838001178555620002c4565b82800160010185558215620002c4579182015b82811115620002c4578251825591602001919060010190620002a7565b50620002d2929150620002d6565b5090565b5b80821115620002d25760008155600101620002d7565b634e487b7160e01b600052604160045260246000fd5b600080604083850312156200031757600080fd5b82516001600160a01b03811681146200032f57600080fd5b602084810151919350906001600160401b03808211156200034f57600080fd5b818601915086601f8301126200036457600080fd5b815181811115620003795762000379620002ed565b604051601f8201601f19908116603f01168101908382118183101715620003a457620003a4620002ed565b816040528281528986848701011115620003bd57600080fd5b600093505b82841015620003e15784840186015181850187015292850192620003c2565b82841115620003f35760008684830101525b8096505050505050509250929050565b600181811c908216806200041857607f821691505b602082108114156200043a57634e487b7160e01b600052602260045260246000fd5b50919050565b60805160a05160c05160e05161010051612a7f6200048560003960006121ff0152600061224e01526000612229015260006121ad015260006121d60152612a7f6000f3fe608060405234801561001057600080fd5b50600436106102525760003560e01c80637249fbb611610146578063982ed326116100c3578063cab55d5611610087578063cab55d5614610559578063dca7210014610561578063dd115ab214610574578063f2cc55ee14610594578063f2fde38b146105a5578063fd577343146105b857600080fd5b8063982ed326146104fa5780639cfd495c1461050d578063a1bc474d14610520578063b2685a3e14610533578063c67eb9e51461054657600080fd5b80638073e7811161010a5780638073e7811461049f57806380ca11fc146104b257806385a2910d146104c35780638da5cb5b146104d657806396aa71b0146104e757600080fd5b80637249fbb614610415578063785e9e861461042857806378e96fb51461044d5780637ac83f9b146104795780637b018ab91461048c57600080fd5b80632ab3433c116101d45780633ccfd60b116101985780633ccfd60b146103b65780633e5beab9146103be5780636da3f852146103d157806370a08231146103e4578063715018a61461040d57600080fd5b80632ab3433c146103255780632af41be41461033857806331784b6d1461034b578063317cb0181461035e57806334b778ed1461038657600080fd5b80631a29b6ab1161021b5780631a29b6ab146102c05780631c6d7675146102d3578063221a832e146102e8578063244aa5d7146102ff5780632593308b1461031257600080fd5b8062f3b6e81461025757806302519da31461026c57806306968bd91461029257806306a212ae146102a5578063128b8532146102b8575b600080fd5b61026a610265366004612531565b6105cb565b005b61027f61027a366004612569565b610811565b6040519081526020015b60405180910390f35b61026a6102a0366004612584565b610887565b61026a6102b33660046125e6565b61091a565b61026a610d3b565b61026a6102ce366004612649565b610d7d565b6102db610dba565b6040516102899190612666565b60085460ff165b6040519015158152602001610289565b6102ef61030d366004612584565b610e4c565b61026a610320366004612584565b610e93565b61026a6103333660046125e6565b610ea4565b61027f6103463660046126bb565b6112da565b61026a610359366004612584565b61130e565b61037161036c3660046126dd565b61139a565b60408051928352602083019190915201610289565b6103a9610394366004612584565b6000908152600a602052604090205460ff1690565b604051610289919061273f565b61026a6113e8565b61027f6103cc366004612569565b6113f2565b6102ef6103df36600461274d565b61142b565b61027f6103f2366004612569565b6001600160a01b03166000908152600b602052604090205490565b61026a611559565b61026a610423366004612584565b6115cd565b6005546001600160a01b03165b6040516001600160a01b039091168152602001610289565b6102ef61045b366004612569565b6001600160a01b031660009081526009602052604090205460ff1690565b61026a6104873660046127b5565b6115d6565b61043561049a366004612584565b611667565b6102ef6104ad3660046127f3565b61169f565b6001546001600160a01b0316610435565b61026a6104d13660046127b5565b611734565b6000546001600160a01b0316610435565b61026a6104f536600461284e565b6117bd565b61026a610508366004612584565b6117cd565b6102ef61051b3660046126dd565b61182c565b61026a61052e36600461284e565b611841565b61026a610541366004612569565b611854565b61027f610554366004612569565b6118cc565b60075461027f565b61043561056f366004612584565b61198f565b610587610582366004612584565b6119c6565b6040516102899190612889565b6003546001600160a01b0316610435565b61026a6105b3366004612569565b611ab0565b61026a6105c6366004612569565b611b9a565b6127106105de60608301604084016128ff565b61ffff1611156106435760405162461bcd60e51b815260206004820152602560248201527f6665652063616e6e6f74206265206c6172676572207468616e203130302070656044820152641c98d95b9d60da1b60648201526084015b60405180910390fd5b80356000908152600a602052604081205460ff16600381111561066857610668612707565b146106bf5760405162461bcd60e51b815260206004820152602160248201527f7061796d656e7420696e20696e636f727265637420637572656e7420737461746044820152606560f81b606482015260840161063a565b80608001354211156107135760405162461bcd60e51b815260206004820152601860248201527f7061796d656e7420646561646c696e6520657870697265640000000000000000604482015260640161063a565b60085460ff1615610793576009600061073260e0840160c08501612569565b6001600160a01b0316815260208101919091526040016000205460ff166107935760405162461bcd60e51b81526020600482015260156024820152741cd95b1b195c881b9bdd081c9959da5cdd195c9959605a1b604482015260640161063a565b6107b06107a660c0830160a08401612569565b826020013561182c565b61080e5760405162461bcd60e51b815260206004820152602960248201527f6e6f7420656e6f7567682066756e647320617661696c61626c6520666f7220746044820152683434b990313abcb2b960b91b606482015260840161063a565b50565b6005546040516370a0823160e01b81526001600160a01b03838116600483015260009216906370a08231906024015b602060405180830381865afa15801561085d573d6000803e3d6000fd5b505050506040513d601f19601f820116820180604052508101906108819190612923565b92915050565b6000546001600160a01b031633146108b15760405162461bcd60e51b815260040161063a9061293c565b60008181526002602090815260409182902080546001600160a01b031916905560015482518481526001600160a01b03909116918101919091527f01ab5ff875fd8edb498772244b76ffd53ac3b59cb6397e3c6654194e411ede6b91015b60405180910390a150565b336109286060850135611667565b6001600160a01b0316146109925760405162461bcd60e51b815260206004820152602b60248201527f6f70657261746f72206e6f7420617574686f72697a656420666f72207468697360448201526a081d5b9a5d995c9cd9525960aa1b606482015260840161063a565b61099b836105cb565b6109b18383836103df60c0840160a08501612569565b6109fd5760405162461bcd60e51b815260206004820152601960248201527f696e636f7272656374206275796572207369676e617475726500000000000000604482015260640161063a565b6040805161010081019091528060018152602001610a2160c0860160a08701612569565b6001600160a01b03168152602001610a3f60e0860160c08701612569565b6001600160a01b03168152336020820152604001610a60606086013561198f565b6001600160a01b0316815260200160075442610a7c9190612987565b8152602001610a9160608601604087016128ff565b61ffff1681526020858101359181019190915284356000908152600a9091526040902081518154829060ff19166001836003811115610ad257610ad2612707565b0217905550602082015181546001600160a01b0391821661010002610100600160a81b031990911617825560408301516001830180549183166001600160a01b03199283161790556060840151600284018054918416918316919091179055608084015160038401805491909316911617905560a080830151600483015560c08084015160058401805461ffff90921661ffff1990921691909117905560e0909301516006909201919091556000918291610ba091610b9691908801908801612569565b866020013561139a565b90925090508115610c87576005546001600160a01b03166323b872dd610bcc60c0880160a08901612569565b6040516001600160e01b031960e084901b1681526001600160a01b039091166004820152306024820152604481018590526064016020604051808303816000875af1158015610c1f573d6000803e3d6000fd5b505050506040513d601f19601f82011682018060405250810190610c43919061299f565b610c875760405162461bcd60e51b8152602060048201526015602482015274115490cc8c081d1c985b9cd9995c8819985a5b1959605a1b604482015260640161063a565b80600b6000610c9c60c0890160a08a01612569565b6001600160a01b03166001600160a01b031681526020019081526020016000206000828254610ccb91906129bc565b90915550610ce1905060e0860160c08701612569565b6001600160a01b0316610cfa60c0870160a08801612569565b6001600160a01b031686600001357fe4a9c328b82280a42bddcf2971ded52a971269f3fa155694eec8e4c27f95e21860405160405180910390a45050505050565b33600081815260096020526040808220805460ff19166001179055517f258a7a0df6106f41c2e99c09f1b64931f5f284242bbc50272d5a752ac2f30dde9190a2565b6000546001600160a01b03163314610da75760405162461bcd60e51b815260040161063a9061293c565b6008805460ff1916911515919091179055565b606060068054610dc9906129d3565b80601f0160208091040260200160405190810160405280929190818152602001828054610df5906129d3565b8015610e425780601f10610e1757610100808354040283529160200191610e42565b820191906000526020600020905b815481529060010190602001808311610e2557829003601f168201915b5050505050905090565b600060016000838152600a602052604090205460ff166003811115610e7357610e73612707565b1480156108815750506000908152600a6020526040902060040154421190565b610e9c81611c12565b61080e611c86565b610eb460c0840160a08501612569565b6001600160a01b0316336001600160a01b031614610f205760405162461bcd60e51b8152602060048201526024808201527f6f6e6c792062757965722063616e206578656375746520746869732066756e636044820152633a34b7b760e11b606482015260840161063a565b610f29836105cb565b6000610f388460600135611667565b9050610f468484848461142b565b610f925760405162461bcd60e51b815260206004820152601c60248201527f696e636f7272656374206f70657261746f72207369676e617475726500000000604482015260640161063a565b6040805161010081019091528060018152602001610fb660c0870160a08801612569565b6001600160a01b03168152602001610fd460e0870160c08801612569565b6001600160a01b03168152602001826001600160a01b03168152602001610ffe866060013561198f565b6001600160a01b031681526020016007544261101a9190612987565b815260200161102f60608701604088016128ff565b61ffff1681526020868101359181019190915285356000908152600a9091526040902081518154829060ff1916600183600381111561107057611070612707565b0217905550602082015181546001600160a01b0391821661010002610100600160a81b031990911617825560408301516001830180549183166001600160a01b03199283161790556060840151600284018054918416918316919091179055608084015160038401805491909316911617905560a080830151600483015560c08084015160058401805461ffff90921661ffff1990921691909117905560e090930151600690920191909155600091829161113e9161113491908901908901612569565b876020013561139a565b90925090508115611225576005546001600160a01b03166323b872dd61116a60c0890160a08a01612569565b6040516001600160e01b031960e084901b1681526001600160a01b039091166004820152306024820152604481018590526064016020604051808303816000875af11580156111bd573d6000803e3d6000fd5b505050506040513d601f19601f820116820180604052508101906111e1919061299f565b6112255760405162461bcd60e51b8152602060048201526015602482015274115490cc8c081d1c985b9cd9995c8819985a5b1959605a1b604482015260640161063a565b80600b600061123a60c08a0160a08b01612569565b6001600160a01b03166001600160a01b03168152602001908152602001600020600082825461126991906129bc565b9091555061127f905060e0870160c08801612569565b6001600160a01b031661129860c0880160a08901612569565b6001600160a01b031687600001357fe4a9c328b82280a42bddcf2971ded52a971269f3fa155694eec8e4c27f95e21860405160405180910390a4505050505050565b6000806127106112ea8486612a08565b6112f49190612a27565b9050838111156113045783611306565b805b949350505050565b6000546001600160a01b031633146113385760405162461bcd60e51b815260040161063a9061293c565b60008181526004602090815260409182902080546001600160a01b031916905560035482518481526001600160a01b03909116918101919091527f34bf92bbf741b75e3289761f6b95459b088de5b3282274572caf118e9c2617dc910161090f565b6001600160a01b0382166000908152600b602052604081205481908084116113c257836113c4565b805b91508084116113d45760006113de565b6113de81856129bc565b9250509250929050565b6113f0611c86565b565b600554604051636eb1769f60e11b81526001600160a01b038381166004830152306024830152600092169063dd62ed3e90604401610840565b60008061154085858080601f01602080910402602001604051908101604052809392919081815260200183838082843760009201919091525061153a92507fd1fd749c0c43ff1fe8ca84502fc30e6dfd703b2f3ec0ce11ab7aa506737f8699915050893560208b01356114a460608d0160408e016128ff565b8c606001358d608001358e60a00160208101906114c19190612569565b8f60c00160208101906114d49190612569565b604080516020810199909952880196909652606087019490945261ffff909216608086015260a085015260c08401526001600160a01b0390811660e084015216610100820152610120015b60405160208183030381529060405280519060200120611da4565b90611df2565b6001600160a01b03848116911614915050949350505050565b6000546001600160a01b031633146115835760405162461bcd60e51b815260040161063a9061293c565b600080546040516001600160a01b03909116907f8be0079c531659141344cd1fd0a4f28419497f9722a3daafe3b4186f6b6457e0908390a3600080546001600160a01b0319169055565b61080e81611c12565b6000546001600160a01b031633146116005760405162461bcd60e51b815260040161063a9061293c565b60008281526002602090815260409182902080546001600160a01b0319166001600160a01b0385169081179091558251858152918201527f01ab5ff875fd8edb498772244b76ffd53ac3b59cb6397e3c6654194e411ede6b91015b60405180910390a15050565b6000818152600260205260408120546001600160a01b0316801561168b5780611698565b6001546001600160a01b03165b9392505050565b60008061154085858080601f01602080910402602001604051908101604052809392919081815260200183838082843760009201919091525061153a92507f05d3543751c524f7778fb8974c27048cdd077351d4a41510024a7fe036b3c8c5915050893561171360408c0160208d01612649565b6040805160208101949094528301919091521515606082015260800161151f565b6000546001600160a01b0316331461175e5760405162461bcd60e51b815260040161063a9061293c565b60008281526004602090815260409182902080546001600160a01b0319166001600160a01b0385169081179091558251858152918201527f34bf92bbf741b75e3289761f6b95459b088de5b3282274572caf118e9c2617dc910161165b565b6117c8838383611ea8565b505050565b6000546001600160a01b031633146117f75760405162461bcd60e51b815260040161063a9061293c565b60078190556040518181527fb8931bd4946b9278bba3ac02a56a37159384a2a02d4c3416706f635b853d44f49060200161090f565b600081611838846118cc565b10159392505050565b61184c838383611ea8565b6117c8611c86565b6000546001600160a01b0316331461187e5760405162461bcd60e51b815260040161063a9061293c565b600380546001600160a01b0319166001600160a01b0383169081179091556040519081527fa60019696f11f9aa952db763c0de585f819d10fcafcfbd301a27d02e9caa41b09060200161090f565b6000806118d8836113f2565b6005546040516370a0823160e01b81526001600160a01b038681166004830152929350600092909116906370a0823190602401602060405180830381865afa158015611928573d6000803e3d6000fd5b505050506040513d601f19601f8201168201806040525081019061194c9190612923565b9050600081831061195d578161195f565b825b6001600160a01b0386166000908152600b6020526040902054909150611986908290612987565b95945050505050565b6000818152600460205260408120546001600160a01b031680156119b35780611698565b6003546001600160a01b03169392505050565b6040805161010081018252600080825260208201819052918101829052606081018290526080810182905260a0810182905260c0810182905260e08101919091526000828152600a602052604090819020815161010081019092528054829060ff166003811115611a3957611a39612707565b6003811115611a4a57611a4a612707565b815281546001600160a01b03610100909104811660208301526001830154811660408301526002830154811660608301526003830154166080820152600482015460a0820152600582015461ffff1660c082015260069091015460e09091015292915050565b6000546001600160a01b03163314611ada5760405162461bcd60e51b815260040161063a9061293c565b6001600160a01b038116611b3f5760405162461bcd60e51b815260206004820152602660248201527f4f776e61626c653a206e6577206f776e657220697320746865207a65726f206160448201526564647265737360d01b606482015260840161063a565b600080546040516001600160a01b03808516939216917f8be0079c531659141344cd1fd0a4f28419497f9722a3daafe3b4186f6b6457e091a3600080546001600160a01b0319166001600160a01b0392909216919091179055565b6000546001600160a01b03163314611bc45760405162461bcd60e51b815260040161063a9061293c565b600180546001600160a01b0319166001600160a01b0383169081179091556040519081527fec71ba738f211337eaf29e2d87bdb1b0928316c20db0a3a1108aa43321583b509060200161090f565b611c1b81610e4c565b611c7d5760405162461bcd60e51b815260206004820152602d60248201527f7061796d656e7420646f6573206e6f742061636365707420726566756e64732060448201526c6174207468697320737461676560981b606482015260840161063a565b61080e81612077565b336000908152600b602052604090205480611ce35760405162461bcd60e51b815260206004820181905260248201527f63616e6e6f742077697468647261773a2062616c616e6365206973207a65726f604482015260640161063a565b336000818152600b602052604080822091909155600554905163a9059cbb60e01b81526004810192909252602482018390526001600160a01b03169063a9059cbb906044016020604051808303816000875af1158015611d47573d6000803e3d6000fd5b505050506040513d601f19601f82011682018060405250810190611d6b919061299f565b5060405181815233907f884edad9ce6fa2440d8a54cc123490eb96d2768479d49ff9c7366125a94243649060200160405180910390a250565b6000610881611db16121a9565b8360405161190160f01b6020820152602281018390526042810182905260009060620160405160208183030381529060405280519060200120905092915050565b600080600080845160411415611e1c5750505060208201516040830151606084015160001a611e92565b845160401415611e4a5750505060408201516020830151906001600160ff1b0381169060ff1c601b01611e92565b60405162461bcd60e51b815260206004820152601f60248201527f45434453413a20696e76616c6964207369676e6174757265206c656e67746800604482015260640161063a565b611e9e8682858561229c565b9695505050505050565b82356000908152600a6020526040808220815161010081019092528054829060ff166003811115611edb57611edb612707565b6003811115611eec57611eec612707565b815281546001600160a01b03610100909104811660208301526001808401548216604084015260028401548216606084015260038401549091166080830152600483015460a0830152600583015461ffff1660c083015260069092015460e09091015290915081516003811115611f6557611f65612707565b14611fcc5760405162461bcd60e51b815260206004820152603160248201527f7061796d656e74206e6f7420696e697469616c6c7920696e206173736574207460448201527072616e7366657272696e6720737461746560781b606482015260840161063a565b611fdc848484846060015161169f565b6120425760405162461bcd60e51b815260206004820152603160248201527f6f6e6c7920746865206f70657261746f722063616e207369676e20616e2061736044820152701cd95d151c985b9cd9995c94995cdd5b1d607a1b606482015260840161063a565b6120526040850160208601612649565b156120675761206284358261243c565b612071565b6120718435611c7d565b50505050565b6000818152600a6020526040808220815161010081019092528054829060ff1660038111156120a8576120a8612707565b60038111156120b9576120b9612707565b8152815461010090046001600160a01b039081166020808401919091526001840154821660408085019190915260028086015484166060860152600386015484166080860152600486015460a0860152600586015461ffff1660c086015260069095015460e0948501526000888152600a8352818120805460ff191690961790955592850151858201519092168452600b905290822080549394509092909190612164908490612987565b909155505060208101516040516001600160a01b039091169083907f5ff61db57638246b4e385e22ef7613d9bb0c21cc207e863676e3c7a49e39a17f90600090a35050565b60007f00000000000000000000000000000000000000000000000000000000000000004614156121f857507f000000000000000000000000000000000000000000000000000000000000000090565b50604080517f00000000000000000000000000000000000000000000000000000000000000006020808301919091527f0000000000000000000000000000000000000000000000000000000000000000828401527f000000000000000000000000000000000000000000000000000000000000000060608301524660808301523060a0808401919091528351808403909101815260c0909201909252805191012090565b60007f7fffffffffffffffffffffffffffffff5d576e7357a4501ddfe92f46681b20a08211156123195760405162461bcd60e51b815260206004820152602260248201527f45434453413a20696e76616c6964207369676e6174757265202773272076616c604482015261756560f01b606482015260840161063a565b8360ff16601b148061232e57508360ff16601c145b6123855760405162461bcd60e51b815260206004820152602260248201527f45434453413a20696e76616c6964207369676e6174757265202776272076616c604482015261756560f01b606482015260840161063a565b6040805160008082526020820180845288905260ff871692820192909252606081018590526080810184905260019060a0016020604051602081039080840390855afa1580156123d9573d6000803e3d6000fd5b5050604051601f1901519150506001600160a01b0381166119865760405162461bcd60e51b815260206004820152601860248201527f45434453413a20696e76616c6964207369676e61747572650000000000000000604482015260640161063a565b6000828152600a60205260408120805460ff1916600317905560e082015160c083015161246d919061ffff166112da565b9050808260e0015161247f91906129bc565b6040808401516001600160a01b03166000908152600b60205290812080549091906124ab908490612987565b909155505060808201516001600160a01b03166000908152600b6020526040812080548392906124dc908490612987565b90915550506040518381527fe72fd4f49ae148a0d79f0e71ec9cae30076dbfde7b66f70cafd11416eae8dc629060200160405180910390a1505050565b600060e0828403121561252b57600080fd5b50919050565b600060e0828403121561254357600080fd5b6116988383612519565b80356001600160a01b038116811461256457600080fd5b919050565b60006020828403121561257b57600080fd5b6116988261254d565b60006020828403121561259657600080fd5b5035919050565b60008083601f8401126125af57600080fd5b50813567ffffffffffffffff8111156125c757600080fd5b6020830191508360208285010111156125df57600080fd5b9250929050565b600080600061010084860312156125fc57600080fd5b6126068585612519565b925060e084013567ffffffffffffffff81111561262257600080fd5b61262e8682870161259d565b9497909650939450505050565b801515811461080e57600080fd5b60006020828403121561265b57600080fd5b81356113048161263b565b600060208083528351808285015260005b8181101561269357858101830151858201604001528201612677565b818111156126a5576000604083870101525b50601f01601f1916929092016040019392505050565b600080604083850312156126ce57600080fd5b50508035926020909101359150565b600080604083850312156126f057600080fd5b6126f98361254d565b946020939093013593505050565b634e487b7160e01b600052602160045260246000fd5b6004811061273b57634e487b7160e01b600052602160045260246000fd5b9052565b60208101610881828461271d565b600080600080610120858703121561276457600080fd5b61276e8686612519565b935060e085013567ffffffffffffffff81111561278a57600080fd5b6127968782880161259d565b90945092506127aa9050610100860161254d565b905092959194509250565b600080604083850312156127c857600080fd5b823591506127d86020840161254d565b90509250929050565b60006040828403121561252b57600080fd5b6000806000806080858703121561280957600080fd5b61281386866127e1565b9350604085013567ffffffffffffffff81111561282f57600080fd5b61283b8782880161259d565b90945092506127aa90506060860161254d565b60008060006060848603121561286357600080fd5b61286d85856127e1565b9250604084013567ffffffffffffffff81111561262257600080fd5b60006101008201905061289d82845161271d565b602083015160018060a01b038082166020850152806040860151166040850152806060860151166060850152806080860151166080850152505060a083015160a083015261ffff60c08401511660c083015260e083015160e083015292915050565b60006020828403121561291157600080fd5b813561ffff8116811461130457600080fd5b60006020828403121561293557600080fd5b5051919050565b6020808252818101527f4f776e61626c653a2063616c6c6572206973206e6f7420746865206f776e6572604082015260600190565b634e487b7160e01b600052601160045260246000fd5b6000821982111561299a5761299a612971565b500190565b6000602082840312156129b157600080fd5b81516113048161263b565b6000828210156129ce576129ce612971565b500390565b600181811c908216806129e757607f821691505b6020821081141561252b57634e487b7160e01b600052602260045260246000fd5b6000816000190483118215151615612a2257612a22612971565b500290565b600082612a4457634e487b7160e01b600052601260045260246000fd5b50049056fea2646970667358221220ddc0495f4c8a9985022c4d45bdb5cd0f5676402befc6b39d34eb1969578dad5a64736f6c634300080c0033",
  "immutableReferences": {
    "892": [
      {
        "length": 32,
        "start": 8662
      }
    ],
    "894": [
      {
        "length": 32,
        "start": 8621
      }
    ],
    "896": [
      {
        "length": 32,
        "start": 8745
      }
    ],
    "898": [
      {
        "length": 32,
        "start": 8782
      }
    ],
    "900": [
      {
        "length": 32,
        "start": 8703
      }
    ]
  },
  "source": "// SPDX-License-Identifier: MIT\npragma solidity =0.8.12;\n\nimport \"openzeppelin-solidity/contracts/token/ERC20/IERC20.sol\";\nimport \"./FeesCollectors.sol\";\nimport \"./EIP712Verifier.sol\";\n\n/**\n * @title Payments Contract in ERC20.\n * @author Freeverse.io, www.freeverse.io\n * @dev Upon transfer of ERC20 tokens to this contract, these remain\n * locked until an Operator confirms the success of failure of the\n * asset transfer required to fulfil this payment.\n *\n * If no confirmation is recevied from the operator during the PaymentWindow,\n * all of buyer's received tokens are made available to the buyer for refund.\n *\n * To start a payment, the signatures of both the buyer and the Operator are required.\n * - in the 'relayedPay' method, the Operator is the msg.sender, and the buyerSig is provided;\n * - in the 'pay' method, the buyer is the msg.sender, and the operatorSig is provided.\n *\n * This contract maintains the balances of all users, it does not transfer them automatically.\n * Users need to explicitly call the 'withdraw' method, which withdraws balanceOf[msg.sender]\n * If a buyer has non-zero local balance at the moment of starting a new payment,\n * the contract reuses it, and only transfers the remainder required (if any)\n * from the external ERC20 contract.\n *\n * Each payment has the following States Machine:\n * - NOT_STARTED -> ASSET_TRANSFERRING, triggered by pay/relayedPay\n * - ASSET_TRANSFERRING -> PAID, triggered by relaying assetTransferSuccess signed by operator\n * - ASSET_TRANSFERRING -> REFUNDED, triggered by relaying assetTransferFailed signed by operator\n * - ASSET_TRANSFERRING -> REFUNDED, triggered by a refund request after expirationTime\n *\n * NOTE: To ensure that the a payment process proceeds as expected when the payment starts,\n * upon acceptance of a pay/relatedPay, the following data: {operator, feesCollector, expirationTime}\n * is stored in the payment struct, and used throught the payment, regardless of\n * any possible modifications to the contract's storage.\n *\n */\n\nimport \"./IPaymentsERC20.sol\";\n\ncontract PaymentsERC20 is IPaymentsERC20, FeesCollectors, EIP712Verifier {\n    address private _erc20;\n    string private _acceptedCurrency;\n    uint256 private _paymentWindow;\n    bool private _isSellerRegistrationRequired;\n    mapping(address => bool) private _isRegisteredSeller;\n    mapping(bytes32 => Payment) private _payments;\n    mapping(address => uint256) private _balanceOf;\n\n    constructor(address erc20Address, string memory currencyDescriptor) {\n        _erc20 = erc20Address;\n        _acceptedCurrency = currencyDescriptor;\n        _paymentWindow = 30 days;\n        _isSellerRegistrationRequired = true;\n    }\n\n    /**\n     * @notice Sets the amount of time available to the operator, after the payment starts,\n     *  to confirm either the success or the failure of the asset transfer.\n     *  After this time, the payment moves to FAILED, allowing buyer to withdraw.\n     * @param window The amount of time available, in seconds.\n     */\n    function setPaymentWindow(uint256 window) external onlyOwner {\n        _paymentWindow = window;\n        emit PaymentWindow(window);\n    }\n\n    /**\n     * @notice Sets whether sellers are required to register in this contract before being\n     *  able to accept payments.\n     * @param isRequired (bool) if true, registration is required.\n     */\n    function setIsSellerRegistrationRequired(bool isRequired)\n        external\n        onlyOwner\n    {\n        _isSellerRegistrationRequired = isRequired;\n    }\n\n    /// @inheritdoc IPaymentsERC20\n    function registerAsSeller() external {\n        _isRegisteredSeller[msg.sender] = true;\n        emit NewSeller(msg.sender);\n    }\n\n    /// @inheritdoc IPaymentsERC20\n    function relayedPay(\n        PaymentInput calldata inp,\n        bytes calldata buyerSignature\n    ) external {\n        require(\n            universeOperator(inp.universeId) == msg.sender,\n            \"operator not authorized for this universeId\"\n        );\n        checkPaymentInputs(inp);\n        require(\n            verifyPayment(inp, buyerSignature, inp.buyer),\n            \"incorrect buyer signature\"\n        );\n        _payments[inp.paymentId] = Payment(\n            States.AssetTransferring,\n            inp.buyer,\n            inp.seller,\n            msg.sender,\n            universeFeesCollector(inp.universeId),\n            block.timestamp + _paymentWindow,\n            inp.feeBPS,\n            inp.amount\n        );\n        (uint256 newFunds, uint256 localFunds) = splitFundingSources(\n            inp.buyer,\n            inp.amount\n        );\n        if (newFunds > 0) {\n            require(\n                IERC20(_erc20).transferFrom(inp.buyer, address(this), newFunds),\n                \"ERC20 transfer failed\"\n            );\n        }\n        _balanceOf[inp.buyer] -= localFunds;\n        emit Payin(inp.paymentId, inp.buyer, inp.seller);\n    }\n\n    /// @inheritdoc IPaymentsERC20\n    function pay(PaymentInput calldata inp, bytes calldata operatorSignature)\n        external\n    {\n        require(\n            msg.sender == inp.buyer,\n            \"only buyer can execute this function\"\n        );\n        checkPaymentInputs(inp);\n        address operator = universeOperator(inp.universeId);\n        require(\n            verifyPayment(inp, operatorSignature, operator),\n            \"incorrect operator signature\"\n        );\n\n        _payments[inp.paymentId] = Payment(\n            States.AssetTransferring,\n            inp.buyer,\n            inp.seller,\n            operator,\n            universeFeesCollector(inp.universeId),\n            block.timestamp + _paymentWindow,\n            inp.feeBPS,\n            inp.amount\n        );\n        (uint256 newFunds, uint256 localFunds) = splitFundingSources(\n            inp.buyer,\n            inp.amount\n        );\n        if (newFunds > 0) {\n            require(\n                IERC20(_erc20).transferFrom(inp.buyer, address(this), newFunds),\n                \"ERC20 transfer failed\"\n            );\n        }\n        _balanceOf[inp.buyer] -= localFunds;\n        emit Payin(inp.paymentId, inp.buyer, inp.seller);\n    }\n\n    /// @inheritdoc IPaymentsERC20\n    function finalize(\n        AssetTransferResult calldata result,\n        bytes calldata operatorSignature\n    ) external {\n        _finalize(result, operatorSignature);\n    }\n\n    /// @inheritdoc IPaymentsERC20\n    function finalizeAndWithdraw(\n        AssetTransferResult calldata result,\n        bytes calldata operatorSignature\n    ) external {\n        _finalize(result, operatorSignature);\n        _withdraw();\n    }\n\n    /// @inheritdoc IPaymentsERC20\n    function refund(bytes32 paymentId) public {\n        _refund(paymentId);\n    }\n\n    /// @inheritdoc IPaymentsERC20\n    function refundAndWithdraw(bytes32 paymentId) external {\n        _refund(paymentId);\n        _withdraw();\n    }\n\n    /// @inheritdoc IPaymentsERC20\n    function withdraw() external {\n        _withdraw();\n    }\n\n    // PRIVATE FUNCTIONS\n\n    /**\n     * @dev (private) Moves the payment funds to the buyer's local balance\n     *  The buyer still needs to withdraw afterwards.\n     *  Moves the payment to REFUNDED state\n     * @param paymentId The unique ID that identifies the payment.\n     */\n    function _refund(bytes32 paymentId) private {\n        require(\n            acceptsRefunds(paymentId),\n            \"payment does not accept refunds at this stage\"\n        );\n        _refundToLocalBalance(paymentId);\n    }\n\n    /**\n     * @dev (private) Uses the operator signed msg regarding asset transfer success to update\n     *  the balances of seller (on success) or buyer (on failure).\n     *  They still need to withdraw afterwards.\n     *  Moves the payment to either PAID (on success) or REFUNDED (on failure) state\n     * @param result The asset transfer result struct signed by the operator.\n     * @param operatorSignature The operator signature of result\n     */\n    function _finalize(\n        AssetTransferResult calldata result,\n        bytes calldata operatorSignature\n    ) private {\n        Payment memory p = _payments[result.paymentId];\n        require(\n            p.state == States.AssetTransferring,\n            \"payment not initially in asset transferring state\"\n        );\n        require(\n            verifyAssetTransferResult(result, operatorSignature, p.operator),\n            \"only the operator can sign an assetTransferResult\"\n        );\n        if (result.wasSuccessful) {\n            _finalizeSuccess(result.paymentId, p);\n        } else {\n            _finalizeFailed(result.paymentId);\n        }\n    }\n\n    /**\n     * @dev (private) Updates the balance of the seller on successful asset transfer\n     *  Moves the payment to either PAID\n     * @param paymentId The unique ID that identifies the payment.\n     * @param p The payment struct corresponding to paymentId\n     */\n    function _finalizeSuccess(bytes32 paymentId, Payment memory p) private {\n        _payments[paymentId].state = States.Paid;\n        uint256 feeAmount = computeFeeAmount(p.amount, uint256(p.feeBPS));\n        _balanceOf[p.seller] += (p.amount - feeAmount);\n        _balanceOf[p.feesCollector] += feeAmount;\n        emit Paid(paymentId);\n    }\n\n    /**\n     * @dev (private) Updates the balance of the buyer on failed asset transfer\n     *  Moves the payment to either REFUNDED\n     * @param paymentId The unique ID that identifies the payment.\n     */\n    function _finalizeFailed(bytes32 paymentId) private {\n        _refundToLocalBalance(paymentId);\n    }\n\n    /**\n     * @dev (private) Executes refund, moves to REFUNDED state\n     * @param paymentId The unique ID that identifies the payment.\n     */\n    function _refundToLocalBalance(bytes32 paymentId) private {\n        Payment memory p = _payments[paymentId];\n        _payments[paymentId].state = States.Refunded;\n        _balanceOf[p.buyer] += p.amount;\n        emit BuyerRefunded(paymentId, p.buyer);\n    }\n\n    /**\n     * @dev (private) Transfers ERC20 avaliable in this\n     *  contract's balanceOf[msg.sender] to msg.sender\n     *  Follows standard Checks-Effects-Interactions pattern\n     *  to protect against re-entrancy attacks.\n     */\n    function _withdraw() private {\n        uint256 amount = _balanceOf[msg.sender];\n        require(amount > 0, \"cannot withdraw: balance is zero\");\n        _balanceOf[msg.sender] = 0;\n        IERC20(_erc20).transfer(msg.sender, amount);\n        emit Withdraw(msg.sender, amount);\n    }\n\n    // VIEW FUNCTIONS\n\n    /// @inheritdoc IPaymentsERC20\n    function isSellerRegistrationRequired() external view returns (bool) {\n        return _isSellerRegistrationRequired;\n    }\n\n    /// @inheritdoc IPaymentsERC20\n    function isRegisteredSeller(address addr) external view returns (bool) {\n        return _isRegisteredSeller[addr];\n    }\n\n    /// @inheritdoc IPaymentsERC20\n    function erc20() external view returns (address) {\n        return _erc20;\n    }\n\n    /// @inheritdoc IPaymentsERC20\n    function balanceOf(address addr) external view returns (uint256) {\n        return _balanceOf[addr];\n    }\n\n    /// @inheritdoc IPaymentsERC20\n    function erc20BalanceOf(address addr) external view returns (uint256) {\n        return IERC20(_erc20).balanceOf(addr);\n    }\n\n    /// @inheritdoc IPaymentsERC20\n    function allowance(address buyer) public view returns (uint256) {\n        return IERC20(_erc20).allowance(buyer, address(this));\n    }\n\n    /// @inheritdoc IPaymentsERC20\n    function paymentInfo(bytes32 paymentId)\n        external\n        view\n        returns (Payment memory)\n    {\n        return _payments[paymentId];\n    }\n\n    /// @inheritdoc IPaymentsERC20\n    function paymentState(bytes32 paymentId) public view returns (States) {\n        return _payments[paymentId].state;\n    }\n\n    /// @inheritdoc IPaymentsERC20\n    function acceptsRefunds(bytes32 paymentId) public view returns (bool) {\n        return\n            (paymentState(paymentId) == States.AssetTransferring) &&\n            (block.timestamp > _payments[paymentId].expirationTime);\n    }\n\n    /// @inheritdoc IPaymentsERC20\n    function paymentWindow() external view returns (uint256) {\n        return _paymentWindow;\n    }\n\n    /// @inheritdoc IPaymentsERC20\n    function acceptedCurrency() external view returns (string memory) {\n        return _acceptedCurrency;\n    }\n\n    /// @inheritdoc IPaymentsERC20\n    function enoughFundsAvailable(address buyer, uint256 amount)\n        public\n        view\n        returns (bool)\n    {\n        return maxFundsAvailable(buyer) >= amount;\n    }\n\n    /// @inheritdoc IPaymentsERC20\n    function maxFundsAvailable(address buyer) public view returns (uint256) {\n        uint256 approved = allowance(buyer);\n        uint256 erc20Balance = IERC20(_erc20).balanceOf(buyer);\n        uint256 externalAvailable = (approved < erc20Balance)\n            ? approved\n            : erc20Balance;\n        return _balanceOf[buyer] + externalAvailable;\n    }\n\n    /// @inheritdoc IPaymentsERC20\n    function splitFundingSources(address buyer, uint256 amount)\n        public\n        view\n        returns (uint256 externalFunds, uint256 localFunds)\n    {\n        uint256 localBalance = _balanceOf[buyer];\n        localFunds = (amount > localBalance) ? localBalance : amount;\n        externalFunds = (amount > localBalance) ? amount - localBalance : 0;\n    }\n\n    /// @inheritdoc IPaymentsERC20\n    function checkPaymentInputs(PaymentInput calldata inp) public view {\n        require(inp.feeBPS <= 10000, \"fee cannot be larger than 100 percent\");\n        require(\n            paymentState(inp.paymentId) == States.NotStarted,\n            \"payment in incorrect curent state\"\n        );\n        require(block.timestamp <= inp.deadline, \"payment deadline expired\");\n        if (_isSellerRegistrationRequired)\n            require(_isRegisteredSeller[inp.seller], \"seller not registered\");\n        require(\n            enoughFundsAvailable(inp.buyer, inp.amount),\n            \"not enough funds available for this buyer\"\n        );\n    }\n\n    // PURE FUNCTIONS\n\n    /// @inheritdoc IPaymentsERC20\n    function computeFeeAmount(uint256 amount, uint256 feeBPS)\n        public\n        pure\n        returns (uint256)\n    {\n        uint256 feeAmount = (amount * feeBPS) / 10000;\n        return (feeAmount <= amount) ? feeAmount : amount;\n    }\n}\n",
  "sourcePath": "/Users/toni/gits/cryptoPayments/contracts/Payments/PaymentsERC20.sol",
  "compiler": {
    "name": "solc",
    "version": "0.8.12+commit.f00d7308.Emscripten.clang"
  },
  "schemaVersion": "3.4.3",
  "updatedAt": "2022-02-24T14:04:32.524Z",
  "devdoc": {
    "kind": "dev",
    "methods": {
      "acceptedCurrency()": {
        "returns": {
          "_0": "the string describing the currency"
        }
      },
      "acceptsRefunds(bytes32)": {
        "details": "The payment must be in ASSET_TRANSFERRING and beyond expirationTime.",
        "params": {
          "paymentId": "The unique ID that identifies the payment."
        },
        "returns": {
          "_0": "true if the payment accepts a refund to the buyer."
        }
      },
      "allowance(address)": {
        "params": {
          "buyer": "the address of the buyer"
        },
        "returns": {
          "_0": "the amount allowed by buyer"
        }
      },
      "balanceOf(address)": {
        "params": {
          "addr": "the address that is queried"
        },
        "returns": {
          "_0": "the local balance"
        }
      },
      "checkPaymentInputs((bytes32,uint256,uint16,uint256,uint256,address,address))": {
        "params": {
          "inp": "The PaymentInput struct"
        }
      },
      "computeFeeAmount(uint256,uint256)": {
        "details": "Must return a value that is guaranteed to be less or equal to the provided amount",
        "params": {
          "amount": "The amount",
          "feeBPS": "The percentage fee expressed in Basis Points (bps).  feeBPS examples:  2.5% = 250 bps, 10% = 1000 bps, 100% = 10000 bps"
        },
        "returns": {
          "_0": "The fee amount"
        }
      },
      "enoughFundsAvailable(address,uint256)": {
        "details": "In more detail: returns true if the sum of the buyer's local balance in this contract,  plus funds available and approved in the ERC20 contract, are larger or equal than 'amount'",
        "params": {
          "amount": "The amount that is queried",
          "buyer": "The address for which funds are queried"
        },
        "returns": {
          "_0": "Returns true if enough funds are available"
        }
      },
      "erc20()": {
        "returns": {
          "_0": "the address of the ERC20 contract"
        }
      },
      "erc20BalanceOf(address)": {
        "params": {
          "addr": "the address that is queried"
        },
        "returns": {
          "_0": "the balance in the external ERC20 contract"
        }
      },
      "finalize((bytes32,bool),bytes)": {
        "details": "Can be executed by anyone, but the operator signature must be included as input param.  Seller or Buyer's balances are updated, allowing explicit withdrawal.  Moves payment to PAID or REFUNDED state on transfer success/failure, respectively.",
        "params": {
          "operatorSignature": "The operator signature of result",
          "result": "The asset transfer result struct signed by the operator."
        }
      },
      "finalizeAndWithdraw((bytes32,bool),bytes)": {
        "details": "Can be executed by anyone, but the operator signature must be included as input param.  It is, however, expected to be executed by the seller, in case of a successful asset transfer,  or the buyer, in case of a failed asset transfer.  Moves payment to PAID or REFUNDED state on transfer success/failure, respectively.",
        "params": {
          "operatorSignature": "The operator signature of result",
          "result": "The asset transfer result struct signed by the operator."
        }
      },
      "isRegisteredSeller(address)": {
        "params": {
          "addr": "the address that is queried"
        },
        "returns": {
          "_0": "Returns whether the address is registered as seller"
        }
      },
      "isSellerRegistrationRequired()": {
        "returns": {
          "_0": "Returns true if sellers need to be registered to be able to accept payments"
        }
      },
      "maxFundsAvailable(address)": {
        "details": "In more detail: returns the sum of the buyer's local balance in this contract,  plus the funds available and approved in the ERC20 contract.",
        "params": {
          "buyer": "The address for which funds are queried"
        },
        "returns": {
          "_0": "the max funds available"
        }
      },
      "owner()": {
        "details": "Returns the address of the current owner."
      },
      "pay((bytes32,uint256,uint16,uint256,uint256,address,address),bytes)": {
        "details": "Executed by the buyer, who relays the MetaTX with the operator's signature.  The buyer must have approved the amount to this contract before.  If all requirements are fulfilled, it stores the data relevant  for the next steps of the payment, and it locks the ERC20  in this contract.  Follows standard Checks-Effects-Interactions pattern  to protect against re-entrancy attacks.  Moves payment to ASSET_TRANSFERRING state.",
        "params": {
          "inp": "The struct containing all required payment data",
          "operatorSignature": "The signature of 'inp' by the operator"
        }
      },
      "paymentInfo(bytes32)": {
        "params": {
          "paymentId": "The unique ID that identifies the payment."
        },
        "returns": {
          "_0": "the struct stored for the payment"
        }
      },
      "paymentState(bytes32)": {
        "details": "If payment is in ASSET_TRANSFERRING, it may be worth  checking acceptsRefunds ot check if it has gone beyond expirationTime.",
        "params": {
          "paymentId": "The unique ID that identifies the payment."
        },
        "returns": {
          "_0": "the state of the payment."
        }
      },
      "paymentWindow()": {
        "returns": {
          "_0": "the payment window in secs"
        }
      },
      "refund(bytes32)": {
        "details": "Anybody can call this function.  Requires acceptsRefunds == true to proceed.  After updating buyer's balance, he/she can later withdraw.  Moves payment to REFUNDED state.",
        "params": {
          "paymentId": "The unique ID that identifies the payment."
        }
      },
      "refundAndWithdraw(bytes32)": {
        "details": "Anybody can call this function.  Requires acceptsRefunds == true to proceed.  All of msg.sender's balance in the contract is withdrawn,  not only the part that was locked in this particular paymentId  Moves payment to REFUNDED state.",
        "params": {
          "paymentId": "The unique ID that identifies the payment."
        }
      },
      "relayedPay((bytes32,uint256,uint16,uint256,uint256,address,address),bytes)": {
        "details": "Executed by an operator, who relays the MetaTX with the buyer's signature.  The buyer must have approved the amount to this contract before.  If all requirements are fulfilled, it stores the data relevant  for the next steps of the payment, and it locks the ERC20  in this contract.  Follows standard Checks-Effects-Interactions pattern  to protect against re-entrancy attacks.  Moves payment to ASSET_TRANSFERRING state.",
        "params": {
          "buyerSignature": "The signature of 'inp' by the buyer",
          "inp": "The struct containing all required payment data"
        }
      },
      "renounceOwnership()": {
        "details": "Leaves the contract without owner. It will not be possible to call `onlyOwner` functions anymore. Can only be called by the current owner. NOTE: Renouncing ownership will leave the contract without an owner, thereby removing any functionality that is only available to the owner."
      },
      "setIsSellerRegistrationRequired(bool)": {
        "params": {
          "isRequired": "(bool) if true, registration is required."
        }
      },
      "setPaymentWindow(uint256)": {
        "params": {
          "window": "The amount of time available, in seconds."
        }
      },
      "splitFundingSources(address,uint256)": {
        "params": {
          "amount": "The amount to be split",
          "buyer": "The address for which the amount is to be split"
        },
        "returns": {
          "externalFunds": "The amount of ERC20 required from the external ERC20 contract.",
          "localFunds": "The amount of ERC20 local funds required."
        }
      },
      "transferOwnership(address)": {
        "details": "Transfers ownership of the contract to a new account (`newOwner`). Can only be called by the current owner."
      },
      "verifyAssetTransferResult((bytes32,bool),bytes,address)": {
        "params": {
          "inp": "The provided AssetTransferResult struct",
          "signature": "The provided signature of the input struct",
          "signer": "The signer's address that we want to verify"
        },
        "returns": {
          "_0": "Returns true if the signature corresponds to the signer  having signed the input struct"
        }
      },
      "verifyPayment((bytes32,uint256,uint16,uint256,uint256,address,address),bytes,address)": {
        "params": {
          "inp": "The provided PaymentInput struct",
          "signature": "The provided signature of the input struct",
          "signer": "The signer's address that we want to verify"
        },
        "returns": {
          "_0": "Returns true if the signature corresponds to the signer having signed the input struct"
        }
      }
    },
    "version": 1
  },
  "userdoc": {
    "kind": "user",
    "methods": {
      "acceptedCurrency()": {
        "notice": "Returns a descriptor about the currency that this contract accepts"
      },
      "acceptsRefunds(bytes32)": {
        "notice": "Returns true if the payment accepts a refund to the buyer"
      },
      "allowance(address)": {
        "notice": "Returns the allowance that the buyer has approved  directly in the ERC20 contract in favour of this contract."
      },
      "balanceOf(address)": {
        "notice": "Returns the local ERC20 balance of address that is stored in this  contract, and hence, available for withdrawal."
      },
      "checkPaymentInputs((bytes32,uint256,uint16,uint256,uint256,address,address))": {
        "notice": "Reverts unless the requirements for a PaymentInput that  are common to both pay and relayedPay are fulfilled."
      },
      "computeFeeAmount(uint256,uint256)": {
        "notice": "Safe computation of fee amount for a provided amount, feeBPS pair"
      },
      "enoughFundsAvailable(address,uint256)": {
        "notice": "Returns true if the 'amount' required for a payment is available to this contract."
      },
      "erc20()": {
        "notice": "Returns the address of the ERC20 contract from which  tokens are accepted for payments"
      },
      "erc20BalanceOf(address)": {
        "notice": "Returns the ERC20 balance of address in the ERC20 contract"
      },
      "finalize((bytes32,bool),bytes)": {
        "notice": "Relays the operator signature declaring that the asset transfer was successful or failed,  and updates balances of seller or buyer, respectively."
      },
      "finalizeAndWithdraw((bytes32,bool),bytes)": {
        "notice": "Relays the operator signature declaring that the asset transfer was successful or failed, updates balances of seller or buyer, respectively, and proceeds to withdraw all funds in this contract available to msg.sender."
      },
      "isRegisteredSeller(address)": {
        "notice": "Returns true if the address provided is a registered seller"
      },
      "isSellerRegistrationRequired()": {
        "notice": "Returns whether sellers need to be registered to be able to accept payments"
      },
      "maxFundsAvailable(address)": {
        "notice": "Returns the maximum amount of funds available to a buyer"
      },
      "pay((bytes32,uint256,uint16,uint256,uint256,address,address),bytes)": {
        "notice": "Starts Payment process directly by the buyer."
      },
      "paymentInfo(bytes32)": {
        "notice": "Returns all data stored in a payment"
      },
      "paymentState(bytes32)": {
        "notice": "Returns the state of a payment."
      },
      "paymentWindow()": {
        "notice": "Returns the amount of seconds that a payment  can remain in ASSET_TRANSFERRING state without positive  or negative confirmation by the operator"
      },
      "refund(bytes32)": {
        "notice": "Moves buyer's provided funds to buyer's balance."
      },
      "refundAndWithdraw(bytes32)": {
        "notice": "Executes refund and withdraw in one transaction."
      },
      "registerAsSeller()": {
        "notice": "Registers msg.sender as seller so that he/she can accept payments."
      },
      "relayedPay((bytes32,uint256,uint16,uint256,uint256,address,address),bytes)": {
        "notice": "Starts the Payment process via relay-by-operator."
      },
      "setIsSellerRegistrationRequired(bool)": {
        "notice": "Sets whether sellers are required to register in this contract before being  able to accept payments."
      },
      "setPaymentWindow(uint256)": {
        "notice": "Sets the amount of time available to the operator, after the payment starts,  to confirm either the success or the failure of the asset transfer.  After this time, the payment moves to FAILED, allowing buyer to withdraw."
      },
      "splitFundingSources(address,uint256)": {
        "notice": "Splits the funds required to pay 'amount' into two source:  - externalFunds: the amount of ERC20 required to be transferred from the external ERC20 contract  - localFunds: the amount of ERC20 from the buyer's already available balance in this contract."
      },
      "verifyAssetTransferResult((bytes32,bool),bytes,address)": {
        "notice": "Verifies that the provided input struct has been signed  by the provided signer."
      },
      "verifyPayment((bytes32,uint256,uint16,uint256,uint256,address,address),bytes,address)": {
        "notice": "Verifies that the provided input struct has been signed  by the provided signer."
      },
      "withdraw()": {
        "notice": "Transfers ERC20 avaliable in this  contract's balanceOf[msg.sender] to msg.sender"
      }
    },
    "version": 1
  }
}