{
  "contractName": "EIP712Verifier",
  "abi": [
    {
      "inputs": [],
      "stateMutability": "nonpayable",
      "type": "constructor"
    },
    {
      "inputs": [
        {
          "components": [
            {
              "internalType": "bytes32",
              "name": "paymentId",
              "type": "bytes32"
            },
            {
              "internalType": "uint256",
              "name": "amount",
              "type": "uint256"
            },
            {
              "internalType": "uint16",
              "name": "feeBPS",
              "type": "uint16"
            },
            {
              "internalType": "uint256",
              "name": "universeId",
              "type": "uint256"
            },
            {
              "internalType": "uint256",
              "name": "validUntil",
              "type": "uint256"
            },
            {
              "internalType": "address",
              "name": "buyer",
              "type": "address"
            },
            {
              "internalType": "address",
              "name": "seller",
              "type": "address"
            }
          ],
          "internalType": "struct EIP712Verifier.PaymentInput",
          "name": "inp",
          "type": "tuple"
        },
        {
          "internalType": "bytes",
          "name": "signature",
          "type": "bytes"
        },
        {
          "internalType": "address",
          "name": "signer",
          "type": "address"
        }
      ],
      "name": "verify",
      "outputs": [
        {
          "internalType": "bool",
          "name": "",
          "type": "bool"
        }
      ],
      "stateMutability": "view",
      "type": "function"
    }
  ],
  "bytecode": "0x61012060405234801561001157600080fd5b5060408051808201825260128152714549503731322d46562d5061796d656e747360701b6020808301918252835180850185526005815264302e302e3160d81b908201529151902060c08181527fae209a0b48f21c054280f2455d32cf309387644879d9acbd8ffc19916381188560e08190524660a081815286517f8b73c3c69bb8fe3d512ecc4cf759cc79239f7b179b0ffacaa9a75d522b39400f818801819052818901969096526060810193909352608080840192909252308382015286518084039091018152919092019094528351939092019290922090526101005260805160a05160c05160e0516101005161065c61013560003960006102ed0152600061033c0152600061031701526000610299015260006102c2015261065c6000f3fe608060405234801561001057600080fd5b506004361061002b5760003560e01c806314e50a0b14610030575b600080fd5b61004361003e36600461056c565b610057565b604051901515815260200160405180910390f35b60008061016b85858080601f01602080910402602001604051908101604052809392919081815260200183838082843760009201919091525061016592507f842d0bb1548581afe96170983041b67db4fde58372c89ca13c8b104222d6cc46915050893560208b01356100d060608d0160408e01610604565b8c606001358d608001358e60a00160208101906100ed919061054b565b8f60c0016020810190610100919061054b565b604080516020810199909952880196909652606087019490945261ffff909216608086015260a085015260c08401526001600160a01b0390811660e0840152166101008201526101200160405160208183030381529060405280519060200120610184565b906101da565b6001600160a01b03848116911614915050949350505050565b60006101d2610191610295565b8360405161190160f01b6020820152602281018390526042810182905260009060620160405160208183030381529060405280519060200120905092915050565b90505b919050565b6000806000808451604114156102045750505060208201516040830151606084015160001a61027f565b8451604014156102325750505060408201516020830151906001600160ff1b0381169060ff1c601b0161027f565b60405162461bcd60e51b815260206004820152601f60248201527f45434453413a20696e76616c6964207369676e6174757265206c656e6774680060448201526064015b60405180910390fd5b61028b8682858561038b565b9695505050505050565b60007f00000000000000000000000000000000000000000000000000000000000000004614156102e657507f0000000000000000000000000000000000000000000000000000000000000000610388565b50604080517f00000000000000000000000000000000000000000000000000000000000000006020808301919091527f0000000000000000000000000000000000000000000000000000000000000000828401527f000000000000000000000000000000000000000000000000000000000000000060608301524660808301523060a0808401919091528351808403909101815260c090920190925280519101205b90565b60007f7fffffffffffffffffffffffffffffff5d576e7357a4501ddfe92f46681b20a08211156104085760405162461bcd60e51b815260206004820152602260248201527f45434453413a20696e76616c6964207369676e6174757265202773272076616c604482015261756560f01b6064820152608401610276565b8360ff16601b148061041d57508360ff16601c145b6104745760405162461bcd60e51b815260206004820152602260248201527f45434453413a20696e76616c6964207369676e6174757265202776272076616c604482015261756560f01b6064820152608401610276565b6040805160008082526020820180845288905260ff871692820192909252606081018590526080810184905260019060a0016020604051602081039080840390855afa1580156104c8573d6000803e3d6000fd5b5050604051601f1901519150506001600160a01b03811661052b5760405162461bcd60e51b815260206004820152601860248201527f45434453413a20696e76616c6964207369676e617475726500000000000000006044820152606401610276565b95945050505050565b80356001600160a01b03811681146101d557600080fd5b60006020828403121561055c578081fd5b61056582610534565b9392505050565b600080600080848603610120811215610583578384fd5b60e0811215610590578384fd5b5084935060e085013567ffffffffffffffff808211156105ae578485fd5b818701915087601f8301126105c1578485fd5b8135818111156105cf578586fd5b8860208285010111156105e0578586fd5b6020830195508094505050506105f96101008601610534565b905092959194509250565b600060208284031215610615578081fd5b813561ffff81168114610565578182fdfea264697066735822122009f98e914a8811513e12ff040008738866a82306416aa4eeefac86b40a552e1764736f6c63430008020033",
  "immutableReferences": {
    "360": [
      {
        "length": 32,
        "start": 706
      }
    ],
    "362": [
      {
        "length": 32,
        "start": 665
      }
    ],
    "364": [
      {
        "length": 32,
        "start": 791
      }
    ],
    "366": [
      {
        "length": 32,
        "start": 828
      }
    ],
    "368": [
      {
        "length": 32,
        "start": 749
      }
    ]
  },
  "source": "// SPDX-License-Identifier: MIT\npragma solidity >=0.8.0;\n\nimport \"openzeppelin-solidity/contracts/utils/cryptography/draft-EIP712.sol\";\nimport \"openzeppelin-solidity/contracts/utils/cryptography/ECDSA.sol\";\n\n/**\n * @dev Verification of MetaTXs for Payments using EIP712.\n *\n * This contract just defines the structure of a Payment Input\n * and exposes a verify function, using the EIP712 code by OpenZeppelin\n */\n\ncontract EIP712Verifier is EIP712 {\n    using ECDSA for bytes32;\n    bytes32 private constant _TYPEHASH =\n        keccak256(\n            \"PaymentInput(bytes32 paymentId,uint256 amount,uint16 feeBPS,uint256 universeId,uint256 validUntil,address buyer,address seller)\"\n        );\n\n    struct PaymentInput {\n        bytes32 paymentId;\n        uint256 amount;\n        uint16 feeBPS;\n        uint256 universeId;\n        uint256 validUntil;\n        address buyer;\n        address seller;\n    }\n\n    constructor() EIP712(\"EIP712-FV-Payments\", \"0.0.1\") {}\n\n    function verify(\n        PaymentInput calldata inp,\n        bytes calldata signature,\n        address signer\n    ) public view returns (bool) {\n        address recoveredSigner = _hashTypedDataV4(\n            keccak256(\n                abi.encode(\n                    _TYPEHASH,\n                    inp.paymentId,\n                    inp.amount,\n                    inp.feeBPS,\n                    inp.universeId,\n                    inp.validUntil,\n                    inp.buyer,\n                    inp.seller\n                )\n            )\n        ).recover(signature);\n        return signer == recoveredSigner;\n    }\n}\n",
  "sourcePath": "/Users/toni/gits/cryptoPayments/contracts/Payments/EIP712Verifier.sol",
  "compiler": {
    "name": "solc",
    "version": "0.8.2+commit.661d1103.Emscripten.clang"
  },
  "schemaVersion": "3.4.3",
  "updatedAt": "2022-01-12T13:49:36.522Z",
  "devdoc": {
    "details": "Verification of MetaTXs for Payments using EIP712. This contract just defines the structure of a Payment Input and exposes a verify function, using the EIP712 code by OpenZeppelin",
    "kind": "dev",
    "methods": {},
    "version": 1
  },
  "userdoc": {
    "kind": "user",
    "methods": {},
    "version": 1
  }
}