{
  "contractName": "FeesCollector",
  "abi": [
    {
      "inputs": [],
      "stateMutability": "nonpayable",
      "type": "constructor"
    },
    {
      "anonymous": false,
      "inputs": [
        {
          "indexed": false,
          "internalType": "address",
          "name": "feesCollector",
          "type": "address"
        }
      ],
      "name": "DefaultFeesCollector",
      "type": "event"
    },
    {
      "anonymous": false,
      "inputs": [
        {
          "indexed": false,
          "internalType": "address",
          "name": "operator",
          "type": "address"
        }
      ],
      "name": "DefaultOperator",
      "type": "event"
    },
    {
      "anonymous": false,
      "inputs": [
        {
          "indexed": true,
          "internalType": "address",
          "name": "previousOwner",
          "type": "address"
        },
        {
          "indexed": true,
          "internalType": "address",
          "name": "newOwner",
          "type": "address"
        }
      ],
      "name": "OwnershipTransferred",
      "type": "event"
    },
    {
      "anonymous": false,
      "inputs": [
        {
          "indexed": false,
          "internalType": "uint256",
          "name": "universeId",
          "type": "uint256"
        },
        {
          "indexed": false,
          "internalType": "address",
          "name": "feesCollector",
          "type": "address"
        }
      ],
      "name": "UniverseFeesCollector",
      "type": "event"
    },
    {
      "anonymous": false,
      "inputs": [
        {
          "indexed": false,
          "internalType": "uint256",
          "name": "universeId",
          "type": "uint256"
        },
        {
          "indexed": false,
          "internalType": "address",
          "name": "operator",
          "type": "address"
        }
      ],
      "name": "UniverseOperator",
      "type": "event"
    },
    {
      "inputs": [],
      "name": "defaultOperator",
      "outputs": [
        {
          "internalType": "address",
          "name": "",
          "type": "address"
        }
      ],
      "stateMutability": "view",
      "type": "function"
    },
    {
      "inputs": [],
      "name": "owner",
      "outputs": [
        {
          "internalType": "address",
          "name": "",
          "type": "address"
        }
      ],
      "stateMutability": "view",
      "type": "function"
    },
    {
      "inputs": [
        {
          "internalType": "uint256",
          "name": "universeId",
          "type": "uint256"
        }
      ],
      "name": "removeUniverseOperator",
      "outputs": [],
      "stateMutability": "nonpayable",
      "type": "function"
    },
    {
      "inputs": [],
      "name": "renounceOwnership",
      "outputs": [],
      "stateMutability": "nonpayable",
      "type": "function"
    },
    {
      "inputs": [
        {
          "internalType": "address",
          "name": "operator",
          "type": "address"
        }
      ],
      "name": "setDefaultOperator",
      "outputs": [],
      "stateMutability": "nonpayable",
      "type": "function"
    },
    {
      "inputs": [
        {
          "internalType": "uint256",
          "name": "universeId",
          "type": "uint256"
        },
        {
          "internalType": "address",
          "name": "operator",
          "type": "address"
        }
      ],
      "name": "setUniverseOperator",
      "outputs": [],
      "stateMutability": "nonpayable",
      "type": "function"
    },
    {
      "inputs": [
        {
          "internalType": "address",
          "name": "newOwner",
          "type": "address"
        }
      ],
      "name": "transferOwnership",
      "outputs": [],
      "stateMutability": "nonpayable",
      "type": "function"
    },
    {
      "inputs": [
        {
          "internalType": "uint256",
          "name": "universeId",
          "type": "uint256"
        }
      ],
      "name": "universeOperator",
      "outputs": [
        {
          "internalType": "address",
          "name": "",
          "type": "address"
        }
      ],
      "stateMutability": "view",
      "type": "function"
    },
    {
      "inputs": [
        {
          "internalType": "address",
          "name": "feesCollector",
          "type": "address"
        }
      ],
      "name": "setDefaultFeesCollector",
      "outputs": [],
      "stateMutability": "nonpayable",
      "type": "function"
    },
    {
      "inputs": [
        {
          "internalType": "uint256",
          "name": "universeId",
          "type": "uint256"
        },
        {
          "internalType": "address",
          "name": "feesCollector",
          "type": "address"
        }
      ],
      "name": "setUniverseFeesCollector",
      "outputs": [],
      "stateMutability": "nonpayable",
      "type": "function"
    },
    {
      "inputs": [
        {
          "internalType": "uint256",
          "name": "universeId",
          "type": "uint256"
        }
      ],
      "name": "removeUniverseFeesCollector",
      "outputs": [],
      "stateMutability": "nonpayable",
      "type": "function"
    },
    {
      "inputs": [],
      "name": "defaultFeesCollector",
      "outputs": [
        {
          "internalType": "address",
          "name": "",
          "type": "address"
        }
      ],
      "stateMutability": "view",
      "type": "function"
    },
    {
      "inputs": [
        {
          "internalType": "uint256",
          "name": "universeId",
          "type": "uint256"
        }
      ],
      "name": "universeFeesCollector",
      "outputs": [
        {
          "internalType": "address",
          "name": "",
          "type": "address"
        }
      ],
      "stateMutability": "view",
      "type": "function"
    }
  ],
  "bytecode": "0x608060405234801561001057600080fd5b50600080546001600160a01b031916339081178255604051909182917f8be0079c531659141344cd1fd0a4f28419497f9722a3daafe3b4186f6b6457e0908290a350600180546001600160a01b031916339081179091556040519081527fec71ba738f211337eaf29e2d87bdb1b0928316c20db0a3a1108aa43321583b509060200160405180910390a1600380546001600160a01b031916339081179091556040519081527fa60019696f11f9aa952db763c0de585f819d10fcafcfbd301a27d02e9caa41b09060200160405180910390a16107bf806100f16000396000f3fe608060405234801561001057600080fd5b50600436106100cf5760003560e01c806385a2910d1161008c578063dca7210011610066578063dca721001461018e578063f2cc55ee146101a1578063f2fde38b146101b2578063fd577343146101c5576100cf565b806385a2910d146101575780638da5cb5b1461016a578063b2685a3e1461017b576100cf565b806306968bd9146100d457806331784b6d146100e9578063715018a6146100fc5780637ac83f9b146101045780637b018ab91461011757806380ca11fc14610146575b600080fd5b6100e76100e2366004610711565b6101d8565b005b6100e76100f7366004610711565b610274565b6100e7610300565b6100e7610112366004610729565b610374565b61012a610125366004610711565b610405565b6040516001600160a01b03909116815260200160405180910390f35b6001546001600160a01b031661012a565b6100e7610165366004610729565b61043f565b6000546001600160a01b031661012a565b6100e76101893660046106f0565b6104c8565b61012a61019c366004610711565b610540565b6003546001600160a01b031661012a565b6100e76101c03660046106f0565b610577565b6100e76101d33660046106f0565b610661565b6000546001600160a01b0316331461020b5760405162461bcd60e51b815260040161020290610754565b60405180910390fd5b60008181526002602090815260409182902080546001600160a01b031916905560015482518481526001600160a01b03909116918101919091527f01ab5ff875fd8edb498772244b76ffd53ac3b59cb6397e3c6654194e411ede6b91015b60405180910390a150565b6000546001600160a01b0316331461029e5760405162461bcd60e51b815260040161020290610754565b60008181526004602090815260409182902080546001600160a01b031916905560035482518481526001600160a01b03909116918101919091527f34bf92bbf741b75e3289761f6b95459b088de5b3282274572caf118e9c2617dc9101610269565b6000546001600160a01b0316331461032a5760405162461bcd60e51b815260040161020290610754565b600080546040516001600160a01b03909116907f8be0079c531659141344cd1fd0a4f28419497f9722a3daafe3b4186f6b6457e0908390a3600080546001600160a01b0319169055565b6000546001600160a01b0316331461039e5760405162461bcd60e51b815260040161020290610754565b60008281526002602090815260409182902080546001600160a01b0319166001600160a01b0385169081179091558251858152918201527f01ab5ff875fd8edb498772244b76ffd53ac3b59cb6397e3c6654194e411ede6b91015b60405180910390a15050565b6000818152600260205260408120546001600160a01b031680156104295780610436565b6001546001600160a01b03165b9150505b919050565b6000546001600160a01b031633146104695760405162461bcd60e51b815260040161020290610754565b60008281526004602090815260409182902080546001600160a01b0319166001600160a01b0385169081179091558251858152918201527f34bf92bbf741b75e3289761f6b95459b088de5b3282274572caf118e9c2617dc91016103f9565b6000546001600160a01b031633146104f25760405162461bcd60e51b815260040161020290610754565b600380546001600160a01b0319166001600160a01b0383169081179091556040519081527fa60019696f11f9aa952db763c0de585f819d10fcafcfbd301a27d02e9caa41b090602001610269565b6000818152600460205260408120546001600160a01b031680156105645780610436565b50506003546001600160a01b0316919050565b6000546001600160a01b031633146105a15760405162461bcd60e51b815260040161020290610754565b6001600160a01b0381166106065760405162461bcd60e51b815260206004820152602660248201527f4f776e61626c653a206e6577206f776e657220697320746865207a65726f206160448201526564647265737360d01b6064820152608401610202565b600080546040516001600160a01b03808516939216917f8be0079c531659141344cd1fd0a4f28419497f9722a3daafe3b4186f6b6457e091a3600080546001600160a01b0319166001600160a01b0392909216919091179055565b6000546001600160a01b0316331461068b5760405162461bcd60e51b815260040161020290610754565b600180546001600160a01b0319166001600160a01b0383169081179091556040519081527fec71ba738f211337eaf29e2d87bdb1b0928316c20db0a3a1108aa43321583b5090602001610269565b80356001600160a01b038116811461043a57600080fd5b600060208284031215610701578081fd5b61070a826106d9565b9392505050565b600060208284031215610722578081fd5b5035919050565b6000806040838503121561073b578081fd5b8235915061074b602084016106d9565b90509250929050565b6020808252818101527f4f776e61626c653a2063616c6c6572206973206e6f7420746865206f776e657260408201526060019056fea2646970667358221220fea47511dd701f3147edf2e058b6344a5542ee35893f3a0a7351657159bda0dc64736f6c63430008020033",
  "immutableReferences": {},
  "source": "// SPDX-License-Identifier: MIT\npragma solidity >=0.8.0;\n\nimport \"./Operator.sol\";\n\n/**\n * @dev Management of Fees Collectors.\n *\n * FeesCollectors are just the addresses to which fees\n * are paid when payments are successfully completed.\n *\n * The constructor sets a defaultFeesCollector = deployer.\n * The owner of the contract can change the defaultFeesCollector.\n *\n * The owner of the contract can assign explicit feesCollectors to each universe.\n * If a universe does not have an explicitly assigned feesCollector,\n * the default feesCollector is used.\n */\n\ncontract FeesCollector is Operator {\n    event DefaultFeesCollector(address feesCollector);\n    event UniverseFeesCollector(uint256 universeId, address feesCollector);\n\n    address private _defaultFeesCollector;\n    mapping(uint256 => address) private _universeFeesCollectors;\n\n    constructor() {\n        _defaultFeesCollector = msg.sender;\n        emit DefaultFeesCollector(msg.sender);\n    }\n\n    function setDefaultFeesCollector(address feesCollector) external onlyOwner {\n        _defaultFeesCollector = feesCollector;\n        emit DefaultFeesCollector(feesCollector);\n    }\n\n    function setUniverseFeesCollector(uint256 universeId, address feesCollector)\n        external\n        onlyOwner\n    {\n        _universeFeesCollectors[universeId] = feesCollector;\n        emit UniverseFeesCollector(universeId, feesCollector);\n    }\n\n    function removeUniverseFeesCollector(uint256 universeId) external onlyOwner {\n        delete _universeFeesCollectors[universeId];\n        emit UniverseFeesCollector(universeId, _defaultFeesCollector);\n    }\n\n    function defaultFeesCollector() external view returns (address) {\n        return _defaultFeesCollector;\n    }\n\n    function universeFeesCollector(uint256 universeId)\n        public\n        view\n        returns (address)\n    {\n        address storedFeesCollector = _universeFeesCollectors[universeId];\n        return\n            storedFeesCollector == address(0)\n                ? _defaultFeesCollector\n                : storedFeesCollector;\n    }\n}\n",
  "sourcePath": "/Users/toni/gits/cryptoPayments/contracts/Payments/FeesCollector.sol",
  "compiler": {
    "name": "solc",
    "version": "0.8.2+commit.661d1103.Emscripten.clang"
  },
  "schemaVersion": "3.4.3",
  "updatedAt": "2021-11-24T15:52:30.339Z",
  "devdoc": {
    "details": "Management of Fees Collectors. FeesCollectors are just the addresses to which fees are paid when payments are successfully completed. The constructor sets a defaultFeesCollector = deployer. The owner of the contract can change the defaultFeesCollector. The owner of the contract can assign explicit feesCollectors to each universe. If a universe does not have an explicitly assigned feesCollector, the default feesCollector is used.",
    "kind": "dev",
    "methods": {
      "owner()": {
        "details": "Returns the address of the current owner."
      },
      "renounceOwnership()": {
        "details": "Leaves the contract without owner. It will not be possible to call `onlyOwner` functions anymore. Can only be called by the current owner. NOTE: Renouncing ownership will leave the contract without an owner, thereby removing any functionality that is only available to the owner."
      },
      "transferOwnership(address)": {
        "details": "Transfers ownership of the contract to a new account (`newOwner`). Can only be called by the current owner."
      }
    },
    "version": 1
  },
  "userdoc": {
    "kind": "user",
    "methods": {},
    "version": 1
  }
}