{
  "contractName": "Operator",
  "abi": [
    {
      "inputs": [],
      "stateMutability": "nonpayable",
      "type": "constructor"
    },
    {
      "anonymous": false,
      "inputs": [
        {
          "indexed": false,
          "internalType": "address",
          "name": "operator",
          "type": "address"
        }
      ],
      "name": "DefaultOperator",
      "type": "event"
    },
    {
      "anonymous": false,
      "inputs": [
        {
          "indexed": true,
          "internalType": "address",
          "name": "previousOwner",
          "type": "address"
        },
        {
          "indexed": true,
          "internalType": "address",
          "name": "newOwner",
          "type": "address"
        }
      ],
      "name": "OwnershipTransferred",
      "type": "event"
    },
    {
      "anonymous": false,
      "inputs": [
        {
          "indexed": false,
          "internalType": "uint256",
          "name": "universeId",
          "type": "uint256"
        },
        {
          "indexed": false,
          "internalType": "address",
          "name": "operator",
          "type": "address"
        }
      ],
      "name": "UniverseOperator",
      "type": "event"
    },
    {
      "inputs": [],
      "name": "owner",
      "outputs": [
        {
          "internalType": "address",
          "name": "",
          "type": "address"
        }
      ],
      "stateMutability": "view",
      "type": "function"
    },
    {
      "inputs": [],
      "name": "renounceOwnership",
      "outputs": [],
      "stateMutability": "nonpayable",
      "type": "function"
    },
    {
      "inputs": [
        {
          "internalType": "address",
          "name": "newOwner",
          "type": "address"
        }
      ],
      "name": "transferOwnership",
      "outputs": [],
      "stateMutability": "nonpayable",
      "type": "function"
    },
    {
      "inputs": [
        {
          "internalType": "address",
          "name": "operator",
          "type": "address"
        }
      ],
      "name": "setDefaultOperator",
      "outputs": [],
      "stateMutability": "nonpayable",
      "type": "function"
    },
    {
      "inputs": [
        {
          "internalType": "uint256",
          "name": "universeId",
          "type": "uint256"
        },
        {
          "internalType": "address",
          "name": "operator",
          "type": "address"
        }
      ],
      "name": "setUniverseOperator",
      "outputs": [],
      "stateMutability": "nonpayable",
      "type": "function"
    },
    {
      "inputs": [
        {
          "internalType": "uint256",
          "name": "universeId",
          "type": "uint256"
        }
      ],
      "name": "removeUniverseOperator",
      "outputs": [],
      "stateMutability": "nonpayable",
      "type": "function"
    },
    {
      "inputs": [],
      "name": "defaultOperator",
      "outputs": [
        {
          "internalType": "address",
          "name": "",
          "type": "address"
        }
      ],
      "stateMutability": "view",
      "type": "function"
    },
    {
      "inputs": [
        {
          "internalType": "uint256",
          "name": "universeId",
          "type": "uint256"
        }
      ],
      "name": "universeOperator",
      "outputs": [
        {
          "internalType": "address",
          "name": "",
          "type": "address"
        }
      ],
      "stateMutability": "view",
      "type": "function"
    }
  ],
  "bytecode": "0x608060405234801561001057600080fd5b50600080546001600160a01b031916339081178255604051909182917f8be0079c531659141344cd1fd0a4f28419497f9722a3daafe3b4186f6b6457e0908290a350600180546001600160a01b031916339081179091556040519081527fec71ba738f211337eaf29e2d87bdb1b0928316c20db0a3a1108aa43321583b509060200160405180910390a1610556806100a96000396000f3fe608060405234801561001057600080fd5b50600436106100885760003560e01c806380ca11fc1161005b57806380ca11fc146100ec5780638da5cb5b146100fd578063f2fde38b1461010e578063fd5773431461012157610088565b806306968bd91461008d578063715018a6146100a25780637ac83f9b146100aa5780637b018ab9146100bd575b600080fd5b6100a061009b3660046104a8565b610134565b005b6100a06101d0565b6100a06100b83660046104c0565b610244565b6100d06100cb3660046104a8565b6102d4565b6040516001600160a01b03909116815260200160405180910390f35b6001546001600160a01b03166100d0565b6000546001600160a01b03166100d0565b6100a061011c366004610487565b61030e565b6100a061012f366004610487565b6103f8565b6000546001600160a01b031633146101675760405162461bcd60e51b815260040161015e906104eb565b60405180910390fd5b60008181526002602090815260409182902080546001600160a01b031916905560015482518481526001600160a01b03909116918101919091527f01ab5ff875fd8edb498772244b76ffd53ac3b59cb6397e3c6654194e411ede6b91015b60405180910390a150565b6000546001600160a01b031633146101fa5760405162461bcd60e51b815260040161015e906104eb565b600080546040516001600160a01b03909116907f8be0079c531659141344cd1fd0a4f28419497f9722a3daafe3b4186f6b6457e0908390a3600080546001600160a01b0319169055565b6000546001600160a01b0316331461026e5760405162461bcd60e51b815260040161015e906104eb565b60008281526002602090815260409182902080546001600160a01b0319166001600160a01b0385169081179091558251858152918201527f01ab5ff875fd8edb498772244b76ffd53ac3b59cb6397e3c6654194e411ede6b910160405180910390a15050565b6000818152600260205260408120546001600160a01b031680156102f85780610305565b6001546001600160a01b03165b9150505b919050565b6000546001600160a01b031633146103385760405162461bcd60e51b815260040161015e906104eb565b6001600160a01b03811661039d5760405162461bcd60e51b815260206004820152602660248201527f4f776e61626c653a206e6577206f776e657220697320746865207a65726f206160448201526564647265737360d01b606482015260840161015e565b600080546040516001600160a01b03808516939216917f8be0079c531659141344cd1fd0a4f28419497f9722a3daafe3b4186f6b6457e091a3600080546001600160a01b0319166001600160a01b0392909216919091179055565b6000546001600160a01b031633146104225760405162461bcd60e51b815260040161015e906104eb565b600180546001600160a01b0319166001600160a01b0383169081179091556040519081527fec71ba738f211337eaf29e2d87bdb1b0928316c20db0a3a1108aa43321583b50906020016101c5565b80356001600160a01b038116811461030957600080fd5b600060208284031215610498578081fd5b6104a182610470565b9392505050565b6000602082840312156104b9578081fd5b5035919050565b600080604083850312156104d2578081fd5b823591506104e260208401610470565b90509250929050565b6020808252818101527f4f776e61626c653a2063616c6c6572206973206e6f7420746865206f776e657260408201526060019056fea26469706673582212205ba9d138a2691872555fbb35c18cf8bb49b0dc1d0ae0442d05230f984e27eaa864736f6c63430008020033",
  "immutableReferences": {},
  "source": "// SPDX-License-Identifier: MIT\npragma solidity >=0.8.0;\n\nimport \"openzeppelin-solidity/contracts/access/Ownable.sol\";\n\n/**\n * @dev Management of Operators.\n *\n * The Operator role is to execute the actions required when\n * payments arrive to this contract, and then either\n * confirm the success of those actions, or confirm the failure.\n *\n * The constructor sets a defaultOperator = deployer.\n * The owner of the contract can change the defaultOperator.\n *\n * The owner of the contract can assign explicit operators to each universe.\n * If a universe does not have an explicitly assigned operator,\n * the default operator is used.\n */\n\ncontract Operator is Ownable {\n    event DefaultOperator(address operator);\n    event UniverseOperator(uint256 universeId, address operator);\n\n    address private _defaultOperator;\n    mapping(uint256 => address) private _universeOperators;\n\n    constructor() {\n        _defaultOperator = msg.sender;\n        emit DefaultOperator(msg.sender);\n    }\n\n    function setDefaultOperator(address operator) external onlyOwner {\n        _defaultOperator = operator;\n        emit DefaultOperator(operator);\n    }\n\n    function setUniverseOperator(uint256 universeId, address operator)\n        external\n        onlyOwner\n    {\n        _universeOperators[universeId] = operator;\n        emit UniverseOperator(universeId, operator);\n    }\n\n    function removeUniverseOperator(uint256 universeId) external onlyOwner {\n        delete _universeOperators[universeId];\n        emit UniverseOperator(universeId, _defaultOperator);\n    }\n\n    function defaultOperator() external view returns (address) {\n        return _defaultOperator;\n    }\n\n    function universeOperator(uint256 universeId)\n        public\n        view\n        returns (address)\n    {\n        address storedOperator = _universeOperators[universeId];\n        return storedOperator == address(0) ? _defaultOperator : storedOperator;\n    }\n}\n",
  "sourcePath": "/Users/toni/gits/cryptoPayments/contracts/Payments/Operator.sol",
  "compiler": {
    "name": "solc",
    "version": "0.8.2+commit.661d1103.Emscripten.clang"
  },
  "schemaVersion": "3.4.3",
  "updatedAt": "2021-11-24T15:52:30.355Z",
  "devdoc": {
    "details": "Management of Operators. The Operator role is to execute the actions required when payments arrive to this contract, and then either confirm the success of those actions, or confirm the failure. The constructor sets a defaultOperator = deployer. The owner of the contract can change the defaultOperator. The owner of the contract can assign explicit operators to each universe. If a universe does not have an explicitly assigned operator, the default operator is used.",
    "kind": "dev",
    "methods": {
      "owner()": {
        "details": "Returns the address of the current owner."
      },
      "renounceOwnership()": {
        "details": "Leaves the contract without owner. It will not be possible to call `onlyOwner` functions anymore. Can only be called by the current owner. NOTE: Renouncing ownership will leave the contract without an owner, thereby removing any functionality that is only available to the owner."
      },
      "transferOwnership(address)": {
        "details": "Transfers ownership of the contract to a new account (`newOwner`). Can only be called by the current owner."
      }
    },
    "version": 1
  },
  "userdoc": {
    "kind": "user",
    "methods": {},
    "version": 1
  }
}